{
	"contracts/EduID_contract.sol": {
		"ISSC": {
			"abi": [
				{
					"inputs": [
						{
							"internalType": "address",
							"name": "",
							"type": "address"
						}
					],
					"name": "PubKeyInstitutionInfoMap",
					"outputs": [
						{
							"internalType": "string",
							"name": "namaInstitusi",
							"type": "string"
						},
						{
							"internalType": "uint256",
							"name": "NPSN",
							"type": "uint256"
						},
						{
							"internalType": "string",
							"name": "akreditasi",
							"type": "string"
						},
						{
							"internalType": "string",
							"name": "jenisSekolah",
							"type": "string"
						},
						{
							"internalType": "string",
							"name": "alamatInstitusi",
							"type": "string"
						},
						{
							"internalType": "uint256",
							"name": "nomorTelepon",
							"type": "uint256"
						},
						{
							"internalType": "bool",
							"name": "agreeToJoin",
							"type": "bool"
						}
					],
					"stateMutability": "view",
					"type": "function"
				},
				{
					"inputs": [
						{
							"internalType": "address",
							"name": "blockAddress",
							"type": "address"
						},
						{
							"internalType": "string",
							"name": "_namaInstitusi",
							"type": "string"
						},
						{
							"internalType": "uint256",
							"name": "_NPSN",
							"type": "uint256"
						},
						{
							"internalType": "string",
							"name": "_akreditasi",
							"type": "string"
						},
						{
							"internalType": "string",
							"name": "_jenisSekolah",
							"type": "string"
						},
						{
							"internalType": "string",
							"name": "_alamatInstitusi",
							"type": "string"
						},
						{
							"internalType": "uint256",
							"name": "_nomorTelepon",
							"type": "uint256"
						}
					],
					"name": "initInstitutionMap",
					"outputs": [
						{
							"internalType": "bool",
							"name": "",
							"type": "bool"
						}
					],
					"stateMutability": "nonpayable",
					"type": "function"
				},
				{
					"inputs": [
						{
							"internalType": "uint256",
							"name": "",
							"type": "uint256"
						}
					],
					"name": "institutionBlockAddressArray",
					"outputs": [
						{
							"internalType": "address",
							"name": "",
							"type": "address"
						}
					],
					"stateMutability": "view",
					"type": "function"
				},
				{
					"inputs": [
						{
							"internalType": "uint256",
							"name": "",
							"type": "uint256"
						}
					],
					"name": "institutionInfoMap",
					"outputs": [
						{
							"internalType": "string",
							"name": "namaInstitusi",
							"type": "string"
						},
						{
							"internalType": "uint256",
							"name": "NPSN",
							"type": "uint256"
						},
						{
							"internalType": "string",
							"name": "akreditasi",
							"type": "string"
						},
						{
							"internalType": "string",
							"name": "jenisSekolah",
							"type": "string"
						},
						{
							"internalType": "string",
							"name": "alamatInstitusi",
							"type": "string"
						},
						{
							"internalType": "uint256",
							"name": "nomorTelepon",
							"type": "uint256"
						},
						{
							"internalType": "bool",
							"name": "agreeToJoin",
							"type": "bool"
						}
					],
					"stateMutability": "view",
					"type": "function"
				},
				{
					"inputs": [
						{
							"internalType": "address",
							"name": "_blockAddress",
							"type": "address"
						}
					],
					"name": "isExistInstitution",
					"outputs": [
						{
							"internalType": "bool",
							"name": "",
							"type": "bool"
						}
					],
					"stateMutability": "view",
					"type": "function"
				}
			],
			"devdoc": {
				"kind": "dev",
				"methods": {},
				"version": 1
			},
			"evm": {
				"assembly": "    /* \"contracts/EduID_contract.sol\":70:2455  contract ISSC {\r... */\n  mstore(0x40, 0x80)\n  callvalue\n  dup1\n  iszero\n  tag_1\n  jumpi\n  0x00\n  dup1\n  revert\ntag_1:\n  pop\n  dataSize(sub_0)\n  dup1\n  dataOffset(sub_0)\n  0x00\n  codecopy\n  0x00\n  return\nstop\n\nsub_0: assembly {\n        /* \"contracts/EduID_contract.sol\":70:2455  contract ISSC {\r... */\n      mstore(0x40, 0x80)\n      callvalue\n      dup1\n      iszero\n      tag_1\n      jumpi\n      0x00\n      dup1\n      revert\n    tag_1:\n      pop\n      jumpi(tag_2, lt(calldatasize, 0x04))\n      shr(0xe0, calldataload(0x00))\n      dup1\n      0x643f7536\n      eq\n      tag_3\n      jumpi\n      dup1\n      0x827e0c99\n      eq\n      tag_4\n      jumpi\n      dup1\n      0xc5d25fa9\n      eq\n      tag_5\n      jumpi\n      dup1\n      0xc9a52910\n      eq\n      tag_6\n      jumpi\n      dup1\n      0xdfc56c3e\n      eq\n      tag_7\n      jumpi\n    tag_2:\n      0x00\n      dup1\n      revert\n        /* \"contracts/EduID_contract.sol\":326:369  InstitutionInfo[] public institutionInfoMap */\n    tag_3:\n      tag_8\n      0x04\n      dup1\n      calldatasize\n      sub\n      dup2\n      add\n      swap1\n      tag_9\n      swap2\n      swap1\n      tag_10\n      jump\t// in\n    tag_9:\n      tag_11\n      jump\t// in\n    tag_8:\n      mload(0x40)\n      tag_12\n      swap8\n      swap7\n      swap6\n      swap5\n      swap4\n      swap3\n      swap2\n      swap1\n      tag_13\n      jump\t// in\n    tag_12:\n      mload(0x40)\n      dup1\n      swap2\n      sub\n      swap1\n      return\n        /* \"contracts/EduID_contract.sol\":378:445  mapping(address => InstitutionInfo) public PubKeyInstitutionInfoMap */\n    tag_4:\n      tag_14\n      0x04\n      dup1\n      calldatasize\n      sub\n      dup2\n      add\n      swap1\n      tag_15\n      swap2\n      swap1\n      tag_16\n      jump\t// in\n    tag_15:\n      tag_17\n      jump\t// in\n    tag_14:\n      mload(0x40)\n      tag_18\n      swap8\n      swap7\n      swap6\n      swap5\n      swap4\n      swap3\n      swap2\n      swap1\n      tag_13\n      jump\t// in\n    tag_18:\n      mload(0x40)\n      dup1\n      swap2\n      sub\n      swap1\n      return\n        /* \"contracts/EduID_contract.sol\":454:499  address[] public institutionBlockAddressArray */\n    tag_5:\n      tag_19\n      0x04\n      dup1\n      calldatasize\n      sub\n      dup2\n      add\n      swap1\n      tag_20\n      swap2\n      swap1\n      tag_10\n      jump\t// in\n    tag_20:\n      tag_21\n      jump\t// in\n    tag_19:\n      mload(0x40)\n      tag_22\n      swap2\n      swap1\n      tag_23\n      jump\t// in\n    tag_22:\n      mload(0x40)\n      dup1\n      swap2\n      sub\n      swap1\n      return\n        /* \"contracts/EduID_contract.sol\":508:1834  function initInstitutionMap(\r... */\n    tag_6:\n      tag_24\n      0x04\n      dup1\n      calldatasize\n      sub\n      dup2\n      add\n      swap1\n      tag_25\n      swap2\n      swap1\n      tag_26\n      jump\t// in\n    tag_25:\n      tag_27\n      jump\t// in\n    tag_24:\n      mload(0x40)\n      tag_28\n      swap2\n      swap1\n      tag_29\n      jump\t// in\n    tag_28:\n      mload(0x40)\n      dup1\n      swap2\n      sub\n      swap1\n      return\n        /* \"contracts/EduID_contract.sol\":2141:2452  function isExistInstitution(address _blockAddress) public view returns (bool) {\r... */\n    tag_7:\n      tag_30\n      0x04\n      dup1\n      calldatasize\n      sub\n      dup2\n      add\n      swap1\n      tag_31\n      swap2\n      swap1\n      tag_16\n      jump\t// in\n    tag_31:\n      tag_32\n      jump\t// in\n    tag_30:\n      mload(0x40)\n      tag_33\n      swap2\n      swap1\n      tag_29\n      jump\t// in\n    tag_33:\n      mload(0x40)\n      dup1\n      swap2\n      sub\n      swap1\n      return\n        /* \"contracts/EduID_contract.sol\":326:369  InstitutionInfo[] public institutionInfoMap */\n    tag_11:\n      0x00\n      dup2\n      dup2\n      sload\n      dup2\n      lt\n      tag_34\n      jumpi\n      0x00\n      dup1\n      revert\n    tag_34:\n      swap1\n      0x00\n      mstore\n      keccak256(0x00, 0x20)\n      swap1\n      0x07\n      mul\n      add\n      0x00\n      swap2\n      pop\n      swap1\n      pop\n      dup1\n      0x00\n      add\n      dup1\n      sload\n      tag_36\n      swap1\n      tag_37\n      jump\t// in\n    tag_36:\n      dup1\n      0x1f\n      add\n      0x20\n      dup1\n      swap2\n      div\n      mul\n      0x20\n      add\n      mload(0x40)\n      swap1\n      dup2\n      add\n      0x40\n      mstore\n      dup1\n      swap3\n      swap2\n      swap1\n      dup2\n      dup2\n      mstore\n      0x20\n      add\n      dup3\n      dup1\n      sload\n      tag_38\n      swap1\n      tag_37\n      jump\t// in\n    tag_38:\n      dup1\n      iszero\n      tag_39\n      jumpi\n      dup1\n      0x1f\n      lt\n      tag_40\n      jumpi\n      0x0100\n      dup1\n      dup4\n      sload\n      div\n      mul\n      dup4\n      mstore\n      swap2\n      0x20\n      add\n      swap2\n      jump(tag_39)\n    tag_40:\n      dup3\n      add\n      swap2\n      swap1\n      0x00\n      mstore\n      keccak256(0x00, 0x20)\n      swap1\n    tag_41:\n      dup2\n      sload\n      dup2\n      mstore\n      swap1\n      0x01\n      add\n      swap1\n      0x20\n      add\n      dup1\n      dup4\n      gt\n      tag_41\n      jumpi\n      dup3\n      swap1\n      sub\n      0x1f\n      and\n      dup3\n      add\n      swap2\n    tag_39:\n      pop\n      pop\n      pop\n      pop\n      pop\n      swap1\n      dup1\n      0x01\n      add\n      sload\n      swap1\n      dup1\n      0x02\n      add\n      dup1\n      sload\n      tag_42\n      swap1\n      tag_37\n      jump\t// in\n    tag_42:\n      dup1\n      0x1f\n      add\n      0x20\n      dup1\n      swap2\n      div\n      mul\n      0x20\n      add\n      mload(0x40)\n      swap1\n      dup2\n      add\n      0x40\n      mstore\n      dup1\n      swap3\n      swap2\n      swap1\n      dup2\n      dup2\n      mstore\n      0x20\n      add\n      dup3\n      dup1\n      sload\n      tag_43\n      swap1\n      tag_37\n      jump\t// in\n    tag_43:\n      dup1\n      iszero\n      tag_44\n      jumpi\n      dup1\n      0x1f\n      lt\n      tag_45\n      jumpi\n      0x0100\n      dup1\n      dup4\n      sload\n      div\n      mul\n      dup4\n      mstore\n      swap2\n      0x20\n      add\n      swap2\n      jump(tag_44)\n    tag_45:\n      dup3\n      add\n      swap2\n      swap1\n      0x00\n      mstore\n      keccak256(0x00, 0x20)\n      swap1\n    tag_46:\n      dup2\n      sload\n      dup2\n      mstore\n      swap1\n      0x01\n      add\n      swap1\n      0x20\n      add\n      dup1\n      dup4\n      gt\n      tag_46\n      jumpi\n      dup3\n      swap1\n      sub\n      0x1f\n      and\n      dup3\n      add\n      swap2\n    tag_44:\n      pop\n      pop\n      pop\n      pop\n      pop\n      swap1\n      dup1\n      0x03\n      add\n      dup1\n      sload\n      tag_47\n      swap1\n      tag_37\n      jump\t// in\n    tag_47:\n      dup1\n      0x1f\n      add\n      0x20\n      dup1\n      swap2\n      div\n      mul\n      0x20\n      add\n      mload(0x40)\n      swap1\n      dup2\n      add\n      0x40\n      mstore\n      dup1\n      swap3\n      swap2\n      swap1\n      dup2\n      dup2\n      mstore\n      0x20\n      add\n      dup3\n      dup1\n      sload\n      tag_48\n      swap1\n      tag_37\n      jump\t// in\n    tag_48:\n      dup1\n      iszero\n      tag_49\n      jumpi\n      dup1\n      0x1f\n      lt\n      tag_50\n      jumpi\n      0x0100\n      dup1\n      dup4\n      sload\n      div\n      mul\n      dup4\n      mstore\n      swap2\n      0x20\n      add\n      swap2\n      jump(tag_49)\n    tag_50:\n      dup3\n      add\n      swap2\n      swap1\n      0x00\n      mstore\n      keccak256(0x00, 0x20)\n      swap1\n    tag_51:\n      dup2\n      sload\n      dup2\n      mstore\n      swap1\n      0x01\n      add\n      swap1\n      0x20\n      add\n      dup1\n      dup4\n      gt\n      tag_51\n      jumpi\n      dup3\n      swap1\n      sub\n      0x1f\n      and\n      dup3\n      add\n      swap2\n    tag_49:\n      pop\n      pop\n      pop\n      pop\n      pop\n      swap1\n      dup1\n      0x04\n      add\n      dup1\n      sload\n      tag_52\n      swap1\n      tag_37\n      jump\t// in\n    tag_52:\n      dup1\n      0x1f\n      add\n      0x20\n      dup1\n      swap2\n      div\n      mul\n      0x20\n      add\n      mload(0x40)\n      swap1\n      dup2\n      add\n      0x40\n      mstore\n      dup1\n      swap3\n      swap2\n      swap1\n      dup2\n      dup2\n      mstore\n      0x20\n      add\n      dup3\n      dup1\n      sload\n      tag_53\n      swap1\n      tag_37\n      jump\t// in\n    tag_53:\n      dup1\n      iszero\n      tag_54\n      jumpi\n      dup1\n      0x1f\n      lt\n      tag_55\n      jumpi\n      0x0100\n      dup1\n      dup4\n      sload\n      div\n      mul\n      dup4\n      mstore\n      swap2\n      0x20\n      add\n      swap2\n      jump(tag_54)\n    tag_55:\n      dup3\n      add\n      swap2\n      swap1\n      0x00\n      mstore\n      keccak256(0x00, 0x20)\n      swap1\n    tag_56:\n      dup2\n      sload\n      dup2\n      mstore\n      swap1\n      0x01\n      add\n      swap1\n      0x20\n      add\n      dup1\n      dup4\n      gt\n      tag_56\n      jumpi\n      dup3\n      swap1\n      sub\n      0x1f\n      and\n      dup3\n      add\n      swap2\n    tag_54:\n      pop\n      pop\n      pop\n      pop\n      pop\n      swap1\n      dup1\n      0x05\n      add\n      sload\n      swap1\n      dup1\n      0x06\n      add\n      0x00\n      swap1\n      sload\n      swap1\n      0x0100\n      exp\n      swap1\n      div\n      0xff\n      and\n      swap1\n      pop\n      dup8\n      jump\t// out\n        /* \"contracts/EduID_contract.sol\":378:445  mapping(address => InstitutionInfo) public PubKeyInstitutionInfoMap */\n    tag_17:\n      mstore(0x20, 0x01)\n      dup1\n      0x00\n      mstore\n      keccak256(0x00, 0x40)\n      0x00\n      swap2\n      pop\n      swap1\n      pop\n      dup1\n      0x00\n      add\n      dup1\n      sload\n      tag_57\n      swap1\n      tag_37\n      jump\t// in\n    tag_57:\n      dup1\n      0x1f\n      add\n      0x20\n      dup1\n      swap2\n      div\n      mul\n      0x20\n      add\n      mload(0x40)\n      swap1\n      dup2\n      add\n      0x40\n      mstore\n      dup1\n      swap3\n      swap2\n      swap1\n      dup2\n      dup2\n      mstore\n      0x20\n      add\n      dup3\n      dup1\n      sload\n      tag_58\n      swap1\n      tag_37\n      jump\t// in\n    tag_58:\n      dup1\n      iszero\n      tag_59\n      jumpi\n      dup1\n      0x1f\n      lt\n      tag_60\n      jumpi\n      0x0100\n      dup1\n      dup4\n      sload\n      div\n      mul\n      dup4\n      mstore\n      swap2\n      0x20\n      add\n      swap2\n      jump(tag_59)\n    tag_60:\n      dup3\n      add\n      swap2\n      swap1\n      0x00\n      mstore\n      keccak256(0x00, 0x20)\n      swap1\n    tag_61:\n      dup2\n      sload\n      dup2\n      mstore\n      swap1\n      0x01\n      add\n      swap1\n      0x20\n      add\n      dup1\n      dup4\n      gt\n      tag_61\n      jumpi\n      dup3\n      swap1\n      sub\n      0x1f\n      and\n      dup3\n      add\n      swap2\n    tag_59:\n      pop\n      pop\n      pop\n      pop\n      pop\n      swap1\n      dup1\n      0x01\n      add\n      sload\n      swap1\n      dup1\n      0x02\n      add\n      dup1\n      sload\n      tag_62\n      swap1\n      tag_37\n      jump\t// in\n    tag_62:\n      dup1\n      0x1f\n      add\n      0x20\n      dup1\n      swap2\n      div\n      mul\n      0x20\n      add\n      mload(0x40)\n      swap1\n      dup2\n      add\n      0x40\n      mstore\n      dup1\n      swap3\n      swap2\n      swap1\n      dup2\n      dup2\n      mstore\n      0x20\n      add\n      dup3\n      dup1\n      sload\n      tag_63\n      swap1\n      tag_37\n      jump\t// in\n    tag_63:\n      dup1\n      iszero\n      tag_64\n      jumpi\n      dup1\n      0x1f\n      lt\n      tag_65\n      jumpi\n      0x0100\n      dup1\n      dup4\n      sload\n      div\n      mul\n      dup4\n      mstore\n      swap2\n      0x20\n      add\n      swap2\n      jump(tag_64)\n    tag_65:\n      dup3\n      add\n      swap2\n      swap1\n      0x00\n      mstore\n      keccak256(0x00, 0x20)\n      swap1\n    tag_66:\n      dup2\n      sload\n      dup2\n      mstore\n      swap1\n      0x01\n      add\n      swap1\n      0x20\n      add\n      dup1\n      dup4\n      gt\n      tag_66\n      jumpi\n      dup3\n      swap1\n      sub\n      0x1f\n      and\n      dup3\n      add\n      swap2\n    tag_64:\n      pop\n      pop\n      pop\n      pop\n      pop\n      swap1\n      dup1\n      0x03\n      add\n      dup1\n      sload\n      tag_67\n      swap1\n      tag_37\n      jump\t// in\n    tag_67:\n      dup1\n      0x1f\n      add\n      0x20\n      dup1\n      swap2\n      div\n      mul\n      0x20\n      add\n      mload(0x40)\n      swap1\n      dup2\n      add\n      0x40\n      mstore\n      dup1\n      swap3\n      swap2\n      swap1\n      dup2\n      dup2\n      mstore\n      0x20\n      add\n      dup3\n      dup1\n      sload\n      tag_68\n      swap1\n      tag_37\n      jump\t// in\n    tag_68:\n      dup1\n      iszero\n      tag_69\n      jumpi\n      dup1\n      0x1f\n      lt\n      tag_70\n      jumpi\n      0x0100\n      dup1\n      dup4\n      sload\n      div\n      mul\n      dup4\n      mstore\n      swap2\n      0x20\n      add\n      swap2\n      jump(tag_69)\n    tag_70:\n      dup3\n      add\n      swap2\n      swap1\n      0x00\n      mstore\n      keccak256(0x00, 0x20)\n      swap1\n    tag_71:\n      dup2\n      sload\n      dup2\n      mstore\n      swap1\n      0x01\n      add\n      swap1\n      0x20\n      add\n      dup1\n      dup4\n      gt\n      tag_71\n      jumpi\n      dup3\n      swap1\n      sub\n      0x1f\n      and\n      dup3\n      add\n      swap2\n    tag_69:\n      pop\n      pop\n      pop\n      pop\n      pop\n      swap1\n      dup1\n      0x04\n      add\n      dup1\n      sload\n      tag_72\n      swap1\n      tag_37\n      jump\t// in\n    tag_72:\n      dup1\n      0x1f\n      add\n      0x20\n      dup1\n      swap2\n      div\n      mul\n      0x20\n      add\n      mload(0x40)\n      swap1\n      dup2\n      add\n      0x40\n      mstore\n      dup1\n      swap3\n      swap2\n      swap1\n      dup2\n      dup2\n      mstore\n      0x20\n      add\n      dup3\n      dup1\n      sload\n      tag_73\n      swap1\n      tag_37\n      jump\t// in\n    tag_73:\n      dup1\n      iszero\n      tag_74\n      jumpi\n      dup1\n      0x1f\n      lt\n      tag_75\n      jumpi\n      0x0100\n      dup1\n      dup4\n      sload\n      div\n      mul\n      dup4\n      mstore\n      swap2\n      0x20\n      add\n      swap2\n      jump(tag_74)\n    tag_75:\n      dup3\n      add\n      swap2\n      swap1\n      0x00\n      mstore\n      keccak256(0x00, 0x20)\n      swap1\n    tag_76:\n      dup2\n      sload\n      dup2\n      mstore\n      swap1\n      0x01\n      add\n      swap1\n      0x20\n      add\n      dup1\n      dup4\n      gt\n      tag_76\n      jumpi\n      dup3\n      swap1\n      sub\n      0x1f\n      and\n      dup3\n      add\n      swap2\n    tag_74:\n      pop\n      pop\n      pop\n      pop\n      pop\n      swap1\n      dup1\n      0x05\n      add\n      sload\n      swap1\n      dup1\n      0x06\n      add\n      0x00\n      swap1\n      sload\n      swap1\n      0x0100\n      exp\n      swap1\n      div\n      0xff\n      and\n      swap1\n      pop\n      dup8\n      jump\t// out\n        /* \"contracts/EduID_contract.sol\":454:499  address[] public institutionBlockAddressArray */\n    tag_21:\n      0x02\n      dup2\n      dup2\n      sload\n      dup2\n      lt\n      tag_77\n      jumpi\n      0x00\n      dup1\n      revert\n    tag_77:\n      swap1\n      0x00\n      mstore\n      keccak256(0x00, 0x20)\n      add\n      0x00\n      swap2\n      pop\n      sload\n      swap1\n      0x0100\n      exp\n      swap1\n      div\n      0xffffffffffffffffffffffffffffffffffffffff\n      and\n      dup2\n      jump\t// out\n        /* \"contracts/EduID_contract.sol\":508:1834  function initInstitutionMap(\r... */\n    tag_27:\n        /* \"contracts/EduID_contract.sol\":789:793  bool */\n      0x00\n        /* \"contracts/EduID_contract.sol\":848:858  msg.sender */\n      caller\n        /* \"contracts/EduID_contract.sol\":832:858  blockAddress == msg.sender */\n      0xffffffffffffffffffffffffffffffffffffffff\n      and\n        /* \"contracts/EduID_contract.sol\":832:844  blockAddress */\n      dup9\n        /* \"contracts/EduID_contract.sol\":832:858  blockAddress == msg.sender */\n      0xffffffffffffffffffffffffffffffffffffffff\n      and\n      eq\n        /* \"contracts/EduID_contract.sol\":824:859  require(blockAddress == msg.sender) */\n      tag_80\n      jumpi\n      0x00\n      dup1\n      revert\n    tag_80:\n        /* \"contracts/EduID_contract.sol\":1346:1360  _namaInstitusi */\n      dup7\n        /* \"contracts/EduID_contract.sol\":1291:1315  PubKeyInstitutionInfoMap */\n      0x01\n        /* \"contracts/EduID_contract.sol\":1291:1329  PubKeyInstitutionInfoMap[blockAddress] */\n      0x00\n        /* \"contracts/EduID_contract.sol\":1316:1328  blockAddress */\n      dup11\n        /* \"contracts/EduID_contract.sol\":1291:1329  PubKeyInstitutionInfoMap[blockAddress] */\n      0xffffffffffffffffffffffffffffffffffffffff\n      and\n      0xffffffffffffffffffffffffffffffffffffffff\n      and\n      dup2\n      mstore\n      0x20\n      add\n      swap1\n      dup2\n      mstore\n      0x20\n      add\n      0x00\n      keccak256\n        /* \"contracts/EduID_contract.sol\":1291:1343  PubKeyInstitutionInfoMap[blockAddress].namaInstitusi */\n      0x00\n      add\n        /* \"contracts/EduID_contract.sol\":1291:1360  PubKeyInstitutionInfoMap[blockAddress].namaInstitusi = _namaInstitusi */\n      swap1\n      dup1\n      mload\n      swap1\n      0x20\n      add\n      swap1\n      tag_81\n      swap3\n      swap2\n      swap1\n      tag_82\n      jump\t// in\n    tag_81:\n      pop\n        /* \"contracts/EduID_contract.sol\":1421:1426  _NPSN */\n      dup6\n        /* \"contracts/EduID_contract.sol\":1375:1399  PubKeyInstitutionInfoMap */\n      0x01\n        /* \"contracts/EduID_contract.sol\":1375:1413  PubKeyInstitutionInfoMap[blockAddress] */\n      0x00\n        /* \"contracts/EduID_contract.sol\":1400:1412  blockAddress */\n      dup11\n        /* \"contracts/EduID_contract.sol\":1375:1413  PubKeyInstitutionInfoMap[blockAddress] */\n      0xffffffffffffffffffffffffffffffffffffffff\n      and\n      0xffffffffffffffffffffffffffffffffffffffff\n      and\n      dup2\n      mstore\n      0x20\n      add\n      swap1\n      dup2\n      mstore\n      0x20\n      add\n      0x00\n      keccak256\n        /* \"contracts/EduID_contract.sol\":1375:1418  PubKeyInstitutionInfoMap[blockAddress].NPSN */\n      0x01\n      add\n        /* \"contracts/EduID_contract.sol\":1375:1426  PubKeyInstitutionInfoMap[blockAddress].NPSN = _NPSN */\n      dup2\n      swap1\n      sstore\n      pop\n        /* \"contracts/EduID_contract.sol\":1493:1504  _akreditasi */\n      dup5\n        /* \"contracts/EduID_contract.sol\":1441:1465  PubKeyInstitutionInfoMap */\n      0x01\n        /* \"contracts/EduID_contract.sol\":1441:1479  PubKeyInstitutionInfoMap[blockAddress] */\n      0x00\n        /* \"contracts/EduID_contract.sol\":1466:1478  blockAddress */\n      dup11\n        /* \"contracts/EduID_contract.sol\":1441:1479  PubKeyInstitutionInfoMap[blockAddress] */\n      0xffffffffffffffffffffffffffffffffffffffff\n      and\n      0xffffffffffffffffffffffffffffffffffffffff\n      and\n      dup2\n      mstore\n      0x20\n      add\n      swap1\n      dup2\n      mstore\n      0x20\n      add\n      0x00\n      keccak256\n        /* \"contracts/EduID_contract.sol\":1441:1490  PubKeyInstitutionInfoMap[blockAddress].akreditasi */\n      0x02\n      add\n        /* \"contracts/EduID_contract.sol\":1441:1504  PubKeyInstitutionInfoMap[blockAddress].akreditasi = _akreditasi */\n      swap1\n      dup1\n      mload\n      swap1\n      0x20\n      add\n      swap1\n      tag_83\n      swap3\n      swap2\n      swap1\n      tag_82\n      jump\t// in\n    tag_83:\n      pop\n        /* \"contracts/EduID_contract.sol\":1573:1586  _jenisSekolah */\n      dup4\n        /* \"contracts/EduID_contract.sol\":1519:1543  PubKeyInstitutionInfoMap */\n      0x01\n        /* \"contracts/EduID_contract.sol\":1519:1557  PubKeyInstitutionInfoMap[blockAddress] */\n      0x00\n        /* \"contracts/EduID_contract.sol\":1544:1556  blockAddress */\n      dup11\n        /* \"contracts/EduID_contract.sol\":1519:1557  PubKeyInstitutionInfoMap[blockAddress] */\n      0xffffffffffffffffffffffffffffffffffffffff\n      and\n      0xffffffffffffffffffffffffffffffffffffffff\n      and\n      dup2\n      mstore\n      0x20\n      add\n      swap1\n      dup2\n      mstore\n      0x20\n      add\n      0x00\n      keccak256\n        /* \"contracts/EduID_contract.sol\":1519:1570  PubKeyInstitutionInfoMap[blockAddress].jenisSekolah */\n      0x03\n      add\n        /* \"contracts/EduID_contract.sol\":1519:1586  PubKeyInstitutionInfoMap[blockAddress].jenisSekolah = _jenisSekolah */\n      swap1\n      dup1\n      mload\n      swap1\n      0x20\n      add\n      swap1\n      tag_84\n      swap3\n      swap2\n      swap1\n      tag_82\n      jump\t// in\n    tag_84:\n      pop\n        /* \"contracts/EduID_contract.sol\":1658:1674  _alamatInstitusi */\n      dup3\n        /* \"contracts/EduID_contract.sol\":1601:1625  PubKeyInstitutionInfoMap */\n      0x01\n        /* \"contracts/EduID_contract.sol\":1601:1639  PubKeyInstitutionInfoMap[blockAddress] */\n      0x00\n        /* \"contracts/EduID_contract.sol\":1626:1638  blockAddress */\n      dup11\n        /* \"contracts/EduID_contract.sol\":1601:1639  PubKeyInstitutionInfoMap[blockAddress] */\n      0xffffffffffffffffffffffffffffffffffffffff\n      and\n      0xffffffffffffffffffffffffffffffffffffffff\n      and\n      dup2\n      mstore\n      0x20\n      add\n      swap1\n      dup2\n      mstore\n      0x20\n      add\n      0x00\n      keccak256\n        /* \"contracts/EduID_contract.sol\":1601:1655  PubKeyInstitutionInfoMap[blockAddress].alamatInstitusi */\n      0x04\n      add\n        /* \"contracts/EduID_contract.sol\":1601:1674  PubKeyInstitutionInfoMap[blockAddress].alamatInstitusi = _alamatInstitusi */\n      swap1\n      dup1\n      mload\n      swap1\n      0x20\n      add\n      swap1\n      tag_85\n      swap3\n      swap2\n      swap1\n      tag_82\n      jump\t// in\n    tag_85:\n      pop\n        /* \"contracts/EduID_contract.sol\":1743:1756  _nomorTelepon */\n      dup2\n        /* \"contracts/EduID_contract.sol\":1689:1713  PubKeyInstitutionInfoMap */\n      0x01\n        /* \"contracts/EduID_contract.sol\":1689:1727  PubKeyInstitutionInfoMap[blockAddress] */\n      0x00\n        /* \"contracts/EduID_contract.sol\":1714:1726  blockAddress */\n      dup11\n        /* \"contracts/EduID_contract.sol\":1689:1727  PubKeyInstitutionInfoMap[blockAddress] */\n      0xffffffffffffffffffffffffffffffffffffffff\n      and\n      0xffffffffffffffffffffffffffffffffffffffff\n      and\n      dup2\n      mstore\n      0x20\n      add\n      swap1\n      dup2\n      mstore\n      0x20\n      add\n      0x00\n      keccak256\n        /* \"contracts/EduID_contract.sol\":1689:1740  PubKeyInstitutionInfoMap[blockAddress].nomorTelepon */\n      0x05\n      add\n        /* \"contracts/EduID_contract.sol\":1689:1756  PubKeyInstitutionInfoMap[blockAddress].nomorTelepon = _nomorTelepon */\n      dup2\n      swap1\n      sstore\n      pop\n        /* \"contracts/EduID_contract.sol\":1773:1801  institutionBlockAddressArray */\n      0x02\n        /* \"contracts/EduID_contract.sol\":1807:1819  blockAddress */\n      dup9\n        /* \"contracts/EduID_contract.sol\":1773:1820  institutionBlockAddressArray.push(blockAddress) */\n      swap1\n      dup1\n      0x01\n      dup2\n      sload\n      add\n      dup1\n      dup3\n      sstore\n      dup1\n      swap2\n      pop\n      pop\n      0x01\n      swap1\n      sub\n      swap1\n      0x00\n      mstore\n      keccak256(0x00, 0x20)\n      add\n      0x00\n      swap1\n      swap2\n      swap1\n      swap2\n      swap1\n      swap2\n      0x0100\n      exp\n      dup2\n      sload\n      dup2\n      0xffffffffffffffffffffffffffffffffffffffff\n      mul\n      not\n      and\n      swap1\n      dup4\n      0xffffffffffffffffffffffffffffffffffffffff\n      and\n      mul\n      or\n      swap1\n      sstore\n      pop\n        /* \"contracts/EduID_contract.sol\":508:1834  function initInstitutionMap(\r... */\n      swap8\n      swap7\n      pop\n      pop\n      pop\n      pop\n      pop\n      pop\n      pop\n      jump\t// out\n        /* \"contracts/EduID_contract.sol\":2141:2452  function isExistInstitution(address _blockAddress) public view returns (bool) {\r... */\n    tag_32:\n        /* \"contracts/EduID_contract.sol\":2213:2217  bool */\n      0x00\n        /* \"contracts/EduID_contract.sol\":2235:2241  uint i */\n      dup1\n        /* \"contracts/EduID_contract.sol\":2242:2243  0 */\n      0x00\n        /* \"contracts/EduID_contract.sol\":2235:2243  uint i=0 */\n      swap1\n      pop\n        /* \"contracts/EduID_contract.sol\":2250:2278  institutionBlockAddressArray */\n      0x02\n        /* \"contracts/EduID_contract.sol\":2250:2285  institutionBlockAddressArray.length */\n      dup1\n      sload\n      swap1\n      pop\n        /* \"contracts/EduID_contract.sol\":2245:2246  i */\n      dup2\n        /* \"contracts/EduID_contract.sol\":2245:2285  i <= institutionBlockAddressArray.length */\n      gt\n        /* \"contracts/EduID_contract.sol\":2230:2445  for (uint i=0; i <= institutionBlockAddressArray.length; i++) {\r... */\n      tag_89\n      jumpi\n        /* \"contracts/EduID_contract.sol\":2328:2356  institutionBlockAddressArray */\n      0x02\n        /* \"contracts/EduID_contract.sol\":2357:2358  i */\n      dup2\n        /* \"contracts/EduID_contract.sol\":2328:2359  institutionBlockAddressArray[i] */\n      dup2\n      sload\n      dup2\n      lt\n      tag_91\n      jumpi\n      tag_92\n      tag_93\n      jump\t// in\n    tag_92:\n    tag_91:\n      swap1\n      0x00\n      mstore\n      keccak256(0x00, 0x20)\n      add\n      0x00\n      swap1\n      sload\n      swap1\n      0x0100\n      exp\n      swap1\n      div\n      0xffffffffffffffffffffffffffffffffffffffff\n      and\n        /* \"contracts/EduID_contract.sol\":2311:2359  _blockAddress == institutionBlockAddressArray[i] */\n      0xffffffffffffffffffffffffffffffffffffffff\n      and\n        /* \"contracts/EduID_contract.sol\":2311:2324  _blockAddress */\n      dup4\n        /* \"contracts/EduID_contract.sol\":2311:2359  _blockAddress == institutionBlockAddressArray[i] */\n      0xffffffffffffffffffffffffffffffffffffffff\n      and\n      eq\n        /* \"contracts/EduID_contract.sol\":2307:2407  if (_blockAddress == institutionBlockAddressArray[i]) {\r... */\n      iszero\n      tag_95\n      jumpi\n        /* \"contracts/EduID_contract.sol\":2387:2391  true */\n      0x01\n        /* \"contracts/EduID_contract.sol\":2380:2391  return true */\n      swap2\n      pop\n      pop\n      jump(tag_87)\n        /* \"contracts/EduID_contract.sol\":2307:2407  if (_blockAddress == institutionBlockAddressArray[i]) {\r... */\n    tag_95:\n        /* \"contracts/EduID_contract.sol\":2428:2433  false */\n      0x00\n        /* \"contracts/EduID_contract.sol\":2421:2433  return false */\n      swap2\n      pop\n      pop\n      jump(tag_87)\n        /* \"contracts/EduID_contract.sol\":2230:2445  for (uint i=0; i <= institutionBlockAddressArray.length; i++) {\r... */\n    tag_89:\n      pop\n        /* \"contracts/EduID_contract.sol\":2141:2452  function isExistInstitution(address _blockAddress) public view returns (bool) {\r... */\n    tag_87:\n      swap2\n      swap1\n      pop\n      jump\t// out\n    tag_82:\n      dup3\n      dup1\n      sload\n      tag_98\n      swap1\n      tag_37\n      jump\t// in\n    tag_98:\n      swap1\n      0x00\n      mstore\n      keccak256(0x00, 0x20)\n      swap1\n      0x1f\n      add\n      0x20\n      swap1\n      div\n      dup2\n      add\n      swap3\n      dup3\n      tag_100\n      jumpi\n      0x00\n      dup6\n      sstore\n      jump(tag_99)\n    tag_100:\n      dup3\n      0x1f\n      lt\n      tag_101\n      jumpi\n      dup1\n      mload\n      not(0xff)\n      and\n      dup4\n      dup1\n      add\n      or\n      dup6\n      sstore\n      jump(tag_99)\n    tag_101:\n      dup3\n      dup1\n      add\n      0x01\n      add\n      dup6\n      sstore\n      dup3\n      iszero\n      tag_99\n      jumpi\n      swap2\n      dup3\n      add\n    tag_102:\n      dup3\n      dup2\n      gt\n      iszero\n      tag_103\n      jumpi\n      dup3\n      mload\n      dup3\n      sstore\n      swap2\n      0x20\n      add\n      swap2\n      swap1\n      0x01\n      add\n      swap1\n      jump(tag_102)\n    tag_103:\n    tag_99:\n      pop\n      swap1\n      pop\n      tag_104\n      swap2\n      swap1\n      tag_105\n      jump\t// in\n    tag_104:\n      pop\n      swap1\n      jump\t// out\n    tag_105:\n    tag_106:\n      dup1\n      dup3\n      gt\n      iszero\n      tag_107\n      jumpi\n      0x00\n      dup2\n      0x00\n      swap1\n      sstore\n      pop\n      0x01\n      add\n      jump(tag_106)\n    tag_107:\n      pop\n      swap1\n      jump\t// out\n        /* \"#utility.yul\":7:419   */\n    tag_109:\n        /* \"#utility.yul\":85:90   */\n      0x00\n        /* \"#utility.yul\":110:176   */\n      tag_111\n        /* \"#utility.yul\":126:175   */\n      tag_112\n        /* \"#utility.yul\":168:174   */\n      dup5\n        /* \"#utility.yul\":126:175   */\n      tag_113\n      jump\t// in\n    tag_112:\n        /* \"#utility.yul\":110:176   */\n      tag_114\n      jump\t// in\n    tag_111:\n        /* \"#utility.yul\":101:176   */\n      swap1\n      pop\n        /* \"#utility.yul\":199:205   */\n      dup3\n        /* \"#utility.yul\":192:197   */\n      dup2\n        /* \"#utility.yul\":185:206   */\n      mstore\n        /* \"#utility.yul\":237:241   */\n      0x20\n        /* \"#utility.yul\":230:235   */\n      dup2\n        /* \"#utility.yul\":226:242   */\n      add\n        /* \"#utility.yul\":275:278   */\n      dup5\n        /* \"#utility.yul\":266:272   */\n      dup5\n        /* \"#utility.yul\":261:264   */\n      dup5\n        /* \"#utility.yul\":257:273   */\n      add\n        /* \"#utility.yul\":254:279   */\n      gt\n        /* \"#utility.yul\":251:363   */\n      iszero\n      tag_115\n      jumpi\n        /* \"#utility.yul\":282:361   */\n      tag_116\n      tag_117\n      jump\t// in\n    tag_116:\n        /* \"#utility.yul\":251:363   */\n    tag_115:\n        /* \"#utility.yul\":372:413   */\n      tag_118\n        /* \"#utility.yul\":406:412   */\n      dup5\n        /* \"#utility.yul\":401:404   */\n      dup3\n        /* \"#utility.yul\":396:399   */\n      dup6\n        /* \"#utility.yul\":372:413   */\n      tag_119\n      jump\t// in\n    tag_118:\n        /* \"#utility.yul\":91:419   */\n      pop\n        /* \"#utility.yul\":7:419   */\n      swap4\n      swap3\n      pop\n      pop\n      pop\n      jump\t// out\n        /* \"#utility.yul\":425:564   */\n    tag_120:\n        /* \"#utility.yul\":471:476   */\n      0x00\n        /* \"#utility.yul\":509:515   */\n      dup2\n        /* \"#utility.yul\":496:516   */\n      calldataload\n        /* \"#utility.yul\":487:516   */\n      swap1\n      pop\n        /* \"#utility.yul\":525:558   */\n      tag_122\n        /* \"#utility.yul\":552:557   */\n      dup2\n        /* \"#utility.yul\":525:558   */\n      tag_123\n      jump\t// in\n    tag_122:\n        /* \"#utility.yul\":425:564   */\n      swap3\n      swap2\n      pop\n      pop\n      jump\t// out\n        /* \"#utility.yul\":584:924   */\n    tag_124:\n        /* \"#utility.yul\":640:645   */\n      0x00\n        /* \"#utility.yul\":689:692   */\n      dup3\n        /* \"#utility.yul\":682:686   */\n      0x1f\n        /* \"#utility.yul\":674:680   */\n      dup4\n        /* \"#utility.yul\":670:687   */\n      add\n        /* \"#utility.yul\":666:693   */\n      slt\n        /* \"#utility.yul\":656:778   */\n      tag_126\n      jumpi\n        /* \"#utility.yul\":697:776   */\n      tag_127\n      tag_128\n      jump\t// in\n    tag_127:\n        /* \"#utility.yul\":656:778   */\n    tag_126:\n        /* \"#utility.yul\":814:820   */\n      dup2\n        /* \"#utility.yul\":801:821   */\n      calldataload\n        /* \"#utility.yul\":839:918   */\n      tag_129\n        /* \"#utility.yul\":914:917   */\n      dup5\n        /* \"#utility.yul\":906:912   */\n      dup3\n        /* \"#utility.yul\":899:903   */\n      0x20\n        /* \"#utility.yul\":891:897   */\n      dup7\n        /* \"#utility.yul\":887:904   */\n      add\n        /* \"#utility.yul\":839:918   */\n      tag_109\n      jump\t// in\n    tag_129:\n        /* \"#utility.yul\":830:918   */\n      swap2\n      pop\n        /* \"#utility.yul\":646:924   */\n      pop\n        /* \"#utility.yul\":584:924   */\n      swap3\n      swap2\n      pop\n      pop\n      jump\t// out\n        /* \"#utility.yul\":930:1069   */\n    tag_130:\n        /* \"#utility.yul\":976:981   */\n      0x00\n        /* \"#utility.yul\":1014:1020   */\n      dup2\n        /* \"#utility.yul\":1001:1021   */\n      calldataload\n        /* \"#utility.yul\":992:1021   */\n      swap1\n      pop\n        /* \"#utility.yul\":1030:1063   */\n      tag_132\n        /* \"#utility.yul\":1057:1062   */\n      dup2\n        /* \"#utility.yul\":1030:1063   */\n      tag_133\n      jump\t// in\n    tag_132:\n        /* \"#utility.yul\":930:1069   */\n      swap3\n      swap2\n      pop\n      pop\n      jump\t// out\n        /* \"#utility.yul\":1075:1404   */\n    tag_16:\n        /* \"#utility.yul\":1134:1140   */\n      0x00\n        /* \"#utility.yul\":1183:1185   */\n      0x20\n        /* \"#utility.yul\":1171:1180   */\n      dup3\n        /* \"#utility.yul\":1162:1169   */\n      dup5\n        /* \"#utility.yul\":1158:1181   */\n      sub\n        /* \"#utility.yul\":1154:1186   */\n      slt\n        /* \"#utility.yul\":1151:1270   */\n      iszero\n      tag_135\n      jumpi\n        /* \"#utility.yul\":1189:1268   */\n      tag_136\n      tag_137\n      jump\t// in\n    tag_136:\n        /* \"#utility.yul\":1151:1270   */\n    tag_135:\n        /* \"#utility.yul\":1309:1310   */\n      0x00\n        /* \"#utility.yul\":1334:1387   */\n      tag_138\n        /* \"#utility.yul\":1379:1386   */\n      dup5\n        /* \"#utility.yul\":1370:1376   */\n      dup3\n        /* \"#utility.yul\":1359:1368   */\n      dup6\n        /* \"#utility.yul\":1355:1377   */\n      add\n        /* \"#utility.yul\":1334:1387   */\n      tag_120\n      jump\t// in\n    tag_138:\n        /* \"#utility.yul\":1324:1387   */\n      swap2\n      pop\n        /* \"#utility.yul\":1280:1397   */\n      pop\n        /* \"#utility.yul\":1075:1404   */\n      swap3\n      swap2\n      pop\n      pop\n      jump\t// out\n        /* \"#utility.yul\":1410:3333   */\n    tag_26:\n        /* \"#utility.yul\":1563:1569   */\n      0x00\n        /* \"#utility.yul\":1571:1577   */\n      dup1\n        /* \"#utility.yul\":1579:1585   */\n      0x00\n        /* \"#utility.yul\":1587:1593   */\n      dup1\n        /* \"#utility.yul\":1595:1601   */\n      0x00\n        /* \"#utility.yul\":1603:1609   */\n      dup1\n        /* \"#utility.yul\":1611:1617   */\n      0x00\n        /* \"#utility.yul\":1660:1663   */\n      0xe0\n        /* \"#utility.yul\":1648:1657   */\n      dup9\n        /* \"#utility.yul\":1639:1646   */\n      dup11\n        /* \"#utility.yul\":1635:1658   */\n      sub\n        /* \"#utility.yul\":1631:1664   */\n      slt\n        /* \"#utility.yul\":1628:1748   */\n      iszero\n      tag_140\n      jumpi\n        /* \"#utility.yul\":1667:1746   */\n      tag_141\n      tag_137\n      jump\t// in\n    tag_141:\n        /* \"#utility.yul\":1628:1748   */\n    tag_140:\n        /* \"#utility.yul\":1787:1788   */\n      0x00\n        /* \"#utility.yul\":1812:1865   */\n      tag_142\n        /* \"#utility.yul\":1857:1864   */\n      dup11\n        /* \"#utility.yul\":1848:1854   */\n      dup3\n        /* \"#utility.yul\":1837:1846   */\n      dup12\n        /* \"#utility.yul\":1833:1855   */\n      add\n        /* \"#utility.yul\":1812:1865   */\n      tag_120\n      jump\t// in\n    tag_142:\n        /* \"#utility.yul\":1802:1865   */\n      swap8\n      pop\n        /* \"#utility.yul\":1758:1875   */\n      pop\n        /* \"#utility.yul\":1942:1944   */\n      0x20\n        /* \"#utility.yul\":1931:1940   */\n      dup9\n        /* \"#utility.yul\":1927:1945   */\n      add\n        /* \"#utility.yul\":1914:1946   */\n      calldataload\n        /* \"#utility.yul\":1973:1991   */\n      0xffffffffffffffff\n        /* \"#utility.yul\":1965:1971   */\n      dup2\n        /* \"#utility.yul\":1962:1992   */\n      gt\n        /* \"#utility.yul\":1959:2076   */\n      iszero\n      tag_143\n      jumpi\n        /* \"#utility.yul\":1995:2074   */\n      tag_144\n      tag_145\n      jump\t// in\n    tag_144:\n        /* \"#utility.yul\":1959:2076   */\n    tag_143:\n        /* \"#utility.yul\":2100:2163   */\n      tag_146\n        /* \"#utility.yul\":2155:2162   */\n      dup11\n        /* \"#utility.yul\":2146:2152   */\n      dup3\n        /* \"#utility.yul\":2135:2144   */\n      dup12\n        /* \"#utility.yul\":2131:2153   */\n      add\n        /* \"#utility.yul\":2100:2163   */\n      tag_124\n      jump\t// in\n    tag_146:\n        /* \"#utility.yul\":2090:2163   */\n      swap7\n      pop\n        /* \"#utility.yul\":1885:2173   */\n      pop\n        /* \"#utility.yul\":2212:2214   */\n      0x40\n        /* \"#utility.yul\":2238:2291   */\n      tag_147\n        /* \"#utility.yul\":2283:2290   */\n      dup11\n        /* \"#utility.yul\":2274:2280   */\n      dup3\n        /* \"#utility.yul\":2263:2272   */\n      dup12\n        /* \"#utility.yul\":2259:2281   */\n      add\n        /* \"#utility.yul\":2238:2291   */\n      tag_130\n      jump\t// in\n    tag_147:\n        /* \"#utility.yul\":2228:2291   */\n      swap6\n      pop\n        /* \"#utility.yul\":2183:2301   */\n      pop\n        /* \"#utility.yul\":2368:2370   */\n      0x60\n        /* \"#utility.yul\":2357:2366   */\n      dup9\n        /* \"#utility.yul\":2353:2371   */\n      add\n        /* \"#utility.yul\":2340:2372   */\n      calldataload\n        /* \"#utility.yul\":2399:2417   */\n      0xffffffffffffffff\n        /* \"#utility.yul\":2391:2397   */\n      dup2\n        /* \"#utility.yul\":2388:2418   */\n      gt\n        /* \"#utility.yul\":2385:2502   */\n      iszero\n      tag_148\n      jumpi\n        /* \"#utility.yul\":2421:2500   */\n      tag_149\n      tag_145\n      jump\t// in\n    tag_149:\n        /* \"#utility.yul\":2385:2502   */\n    tag_148:\n        /* \"#utility.yul\":2526:2589   */\n      tag_150\n        /* \"#utility.yul\":2581:2588   */\n      dup11\n        /* \"#utility.yul\":2572:2578   */\n      dup3\n        /* \"#utility.yul\":2561:2570   */\n      dup12\n        /* \"#utility.yul\":2557:2579   */\n      add\n        /* \"#utility.yul\":2526:2589   */\n      tag_124\n      jump\t// in\n    tag_150:\n        /* \"#utility.yul\":2516:2589   */\n      swap5\n      pop\n        /* \"#utility.yul\":2311:2599   */\n      pop\n        /* \"#utility.yul\":2666:2669   */\n      0x80\n        /* \"#utility.yul\":2655:2664   */\n      dup9\n        /* \"#utility.yul\":2651:2670   */\n      add\n        /* \"#utility.yul\":2638:2671   */\n      calldataload\n        /* \"#utility.yul\":2698:2716   */\n      0xffffffffffffffff\n        /* \"#utility.yul\":2690:2696   */\n      dup2\n        /* \"#utility.yul\":2687:2717   */\n      gt\n        /* \"#utility.yul\":2684:2801   */\n      iszero\n      tag_151\n      jumpi\n        /* \"#utility.yul\":2720:2799   */\n      tag_152\n      tag_145\n      jump\t// in\n    tag_152:\n        /* \"#utility.yul\":2684:2801   */\n    tag_151:\n        /* \"#utility.yul\":2825:2888   */\n      tag_153\n        /* \"#utility.yul\":2880:2887   */\n      dup11\n        /* \"#utility.yul\":2871:2877   */\n      dup3\n        /* \"#utility.yul\":2860:2869   */\n      dup12\n        /* \"#utility.yul\":2856:2878   */\n      add\n        /* \"#utility.yul\":2825:2888   */\n      tag_124\n      jump\t// in\n    tag_153:\n        /* \"#utility.yul\":2815:2888   */\n      swap4\n      pop\n        /* \"#utility.yul\":2609:2898   */\n      pop\n        /* \"#utility.yul\":2965:2968   */\n      0xa0\n        /* \"#utility.yul\":2954:2963   */\n      dup9\n        /* \"#utility.yul\":2950:2969   */\n      add\n        /* \"#utility.yul\":2937:2970   */\n      calldataload\n        /* \"#utility.yul\":2997:3015   */\n      0xffffffffffffffff\n        /* \"#utility.yul\":2989:2995   */\n      dup2\n        /* \"#utility.yul\":2986:3016   */\n      gt\n        /* \"#utility.yul\":2983:3100   */\n      iszero\n      tag_154\n      jumpi\n        /* \"#utility.yul\":3019:3098   */\n      tag_155\n      tag_145\n      jump\t// in\n    tag_155:\n        /* \"#utility.yul\":2983:3100   */\n    tag_154:\n        /* \"#utility.yul\":3124:3187   */\n      tag_156\n        /* \"#utility.yul\":3179:3186   */\n      dup11\n        /* \"#utility.yul\":3170:3176   */\n      dup3\n        /* \"#utility.yul\":3159:3168   */\n      dup12\n        /* \"#utility.yul\":3155:3177   */\n      add\n        /* \"#utility.yul\":3124:3187   */\n      tag_124\n      jump\t// in\n    tag_156:\n        /* \"#utility.yul\":3114:3187   */\n      swap3\n      pop\n        /* \"#utility.yul\":2908:3197   */\n      pop\n        /* \"#utility.yul\":3236:3239   */\n      0xc0\n        /* \"#utility.yul\":3263:3316   */\n      tag_157\n        /* \"#utility.yul\":3308:3315   */\n      dup11\n        /* \"#utility.yul\":3299:3305   */\n      dup3\n        /* \"#utility.yul\":3288:3297   */\n      dup12\n        /* \"#utility.yul\":3284:3306   */\n      add\n        /* \"#utility.yul\":3263:3316   */\n      tag_130\n      jump\t// in\n    tag_157:\n        /* \"#utility.yul\":3253:3316   */\n      swap2\n      pop\n        /* \"#utility.yul\":3207:3326   */\n      pop\n        /* \"#utility.yul\":1410:3333   */\n      swap3\n      swap6\n      swap9\n      swap2\n      swap5\n      swap8\n      pop\n      swap3\n      swap6\n      pop\n      jump\t// out\n        /* \"#utility.yul\":3339:3668   */\n    tag_10:\n        /* \"#utility.yul\":3398:3404   */\n      0x00\n        /* \"#utility.yul\":3447:3449   */\n      0x20\n        /* \"#utility.yul\":3435:3444   */\n      dup3\n        /* \"#utility.yul\":3426:3433   */\n      dup5\n        /* \"#utility.yul\":3422:3445   */\n      sub\n        /* \"#utility.yul\":3418:3450   */\n      slt\n        /* \"#utility.yul\":3415:3534   */\n      iszero\n      tag_159\n      jumpi\n        /* \"#utility.yul\":3453:3532   */\n      tag_160\n      tag_137\n      jump\t// in\n    tag_160:\n        /* \"#utility.yul\":3415:3534   */\n    tag_159:\n        /* \"#utility.yul\":3573:3574   */\n      0x00\n        /* \"#utility.yul\":3598:3651   */\n      tag_161\n        /* \"#utility.yul\":3643:3650   */\n      dup5\n        /* \"#utility.yul\":3634:3640   */\n      dup3\n        /* \"#utility.yul\":3623:3632   */\n      dup6\n        /* \"#utility.yul\":3619:3641   */\n      add\n        /* \"#utility.yul\":3598:3651   */\n      tag_130\n      jump\t// in\n    tag_161:\n        /* \"#utility.yul\":3588:3651   */\n      swap2\n      pop\n        /* \"#utility.yul\":3544:3661   */\n      pop\n        /* \"#utility.yul\":3339:3668   */\n      swap3\n      swap2\n      pop\n      pop\n      jump\t// out\n        /* \"#utility.yul\":3674:3792   */\n    tag_162:\n        /* \"#utility.yul\":3761:3785   */\n      tag_164\n        /* \"#utility.yul\":3779:3784   */\n      dup2\n        /* \"#utility.yul\":3761:3785   */\n      tag_165\n      jump\t// in\n    tag_164:\n        /* \"#utility.yul\":3756:3759   */\n      dup3\n        /* \"#utility.yul\":3749:3786   */\n      mstore\n        /* \"#utility.yul\":3674:3792   */\n      pop\n      pop\n      jump\t// out\n        /* \"#utility.yul\":3798:3907   */\n    tag_166:\n        /* \"#utility.yul\":3879:3900   */\n      tag_168\n        /* \"#utility.yul\":3894:3899   */\n      dup2\n        /* \"#utility.yul\":3879:3900   */\n      tag_169\n      jump\t// in\n    tag_168:\n        /* \"#utility.yul\":3874:3877   */\n      dup3\n        /* \"#utility.yul\":3867:3901   */\n      mstore\n        /* \"#utility.yul\":3798:3907   */\n      pop\n      pop\n      jump\t// out\n        /* \"#utility.yul\":3913:4277   */\n    tag_170:\n        /* \"#utility.yul\":4001:4004   */\n      0x00\n        /* \"#utility.yul\":4029:4068   */\n      tag_172\n        /* \"#utility.yul\":4062:4067   */\n      dup3\n        /* \"#utility.yul\":4029:4068   */\n      tag_173\n      jump\t// in\n    tag_172:\n        /* \"#utility.yul\":4084:4155   */\n      tag_174\n        /* \"#utility.yul\":4148:4154   */\n      dup2\n        /* \"#utility.yul\":4143:4146   */\n      dup6\n        /* \"#utility.yul\":4084:4155   */\n      tag_175\n      jump\t// in\n    tag_174:\n        /* \"#utility.yul\":4077:4155   */\n      swap4\n      pop\n        /* \"#utility.yul\":4164:4216   */\n      tag_176\n        /* \"#utility.yul\":4209:4215   */\n      dup2\n        /* \"#utility.yul\":4204:4207   */\n      dup6\n        /* \"#utility.yul\":4197:4201   */\n      0x20\n        /* \"#utility.yul\":4190:4195   */\n      dup7\n        /* \"#utility.yul\":4186:4202   */\n      add\n        /* \"#utility.yul\":4164:4216   */\n      tag_177\n      jump\t// in\n    tag_176:\n        /* \"#utility.yul\":4241:4270   */\n      tag_178\n        /* \"#utility.yul\":4263:4269   */\n      dup2\n        /* \"#utility.yul\":4241:4270   */\n      tag_179\n      jump\t// in\n    tag_178:\n        /* \"#utility.yul\":4236:4239   */\n      dup5\n        /* \"#utility.yul\":4232:4271   */\n      add\n        /* \"#utility.yul\":4225:4271   */\n      swap2\n      pop\n        /* \"#utility.yul\":4005:4277   */\n      pop\n        /* \"#utility.yul\":3913:4277   */\n      swap3\n      swap2\n      pop\n      pop\n      jump\t// out\n        /* \"#utility.yul\":4283:4401   */\n    tag_180:\n        /* \"#utility.yul\":4370:4394   */\n      tag_182\n        /* \"#utility.yul\":4388:4393   */\n      dup2\n        /* \"#utility.yul\":4370:4394   */\n      tag_183\n      jump\t// in\n    tag_182:\n        /* \"#utility.yul\":4365:4368   */\n      dup3\n        /* \"#utility.yul\":4358:4395   */\n      mstore\n        /* \"#utility.yul\":4283:4401   */\n      pop\n      pop\n      jump\t// out\n        /* \"#utility.yul\":4407:4629   */\n    tag_23:\n        /* \"#utility.yul\":4500:4504   */\n      0x00\n        /* \"#utility.yul\":4538:4540   */\n      0x20\n        /* \"#utility.yul\":4527:4536   */\n      dup3\n        /* \"#utility.yul\":4523:4541   */\n      add\n        /* \"#utility.yul\":4515:4541   */\n      swap1\n      pop\n        /* \"#utility.yul\":4551:4622   */\n      tag_185\n        /* \"#utility.yul\":4619:4620   */\n      0x00\n        /* \"#utility.yul\":4608:4617   */\n      dup4\n        /* \"#utility.yul\":4604:4621   */\n      add\n        /* \"#utility.yul\":4595:4601   */\n      dup5\n        /* \"#utility.yul\":4551:4622   */\n      tag_162\n      jump\t// in\n    tag_185:\n        /* \"#utility.yul\":4407:4629   */\n      swap3\n      swap2\n      pop\n      pop\n      jump\t// out\n        /* \"#utility.yul\":4635:4845   */\n    tag_29:\n        /* \"#utility.yul\":4722:4726   */\n      0x00\n        /* \"#utility.yul\":4760:4762   */\n      0x20\n        /* \"#utility.yul\":4749:4758   */\n      dup3\n        /* \"#utility.yul\":4745:4763   */\n      add\n        /* \"#utility.yul\":4737:4763   */\n      swap1\n      pop\n        /* \"#utility.yul\":4773:4838   */\n      tag_187\n        /* \"#utility.yul\":4835:4836   */\n      0x00\n        /* \"#utility.yul\":4824:4833   */\n      dup4\n        /* \"#utility.yul\":4820:4837   */\n      add\n        /* \"#utility.yul\":4811:4817   */\n      dup5\n        /* \"#utility.yul\":4773:4838   */\n      tag_166\n      jump\t// in\n    tag_187:\n        /* \"#utility.yul\":4635:4845   */\n      swap3\n      swap2\n      pop\n      pop\n      jump\t// out\n        /* \"#utility.yul\":4851:6089   */\n    tag_13:\n        /* \"#utility.yul\":5186:5190   */\n      0x00\n        /* \"#utility.yul\":5224:5227   */\n      0xe0\n        /* \"#utility.yul\":5213:5222   */\n      dup3\n        /* \"#utility.yul\":5209:5228   */\n      add\n        /* \"#utility.yul\":5201:5228   */\n      swap1\n      pop\n        /* \"#utility.yul\":5274:5283   */\n      dup2\n        /* \"#utility.yul\":5268:5272   */\n      dup2\n        /* \"#utility.yul\":5264:5284   */\n      sub\n        /* \"#utility.yul\":5260:5261   */\n      0x00\n        /* \"#utility.yul\":5249:5258   */\n      dup4\n        /* \"#utility.yul\":5245:5262   */\n      add\n        /* \"#utility.yul\":5238:5285   */\n      mstore\n        /* \"#utility.yul\":5302:5380   */\n      tag_189\n        /* \"#utility.yul\":5375:5379   */\n      dup2\n        /* \"#utility.yul\":5366:5372   */\n      dup11\n        /* \"#utility.yul\":5302:5380   */\n      tag_170\n      jump\t// in\n    tag_189:\n        /* \"#utility.yul\":5294:5380   */\n      swap1\n      pop\n        /* \"#utility.yul\":5390:5462   */\n      tag_190\n        /* \"#utility.yul\":5458:5460   */\n      0x20\n        /* \"#utility.yul\":5447:5456   */\n      dup4\n        /* \"#utility.yul\":5443:5461   */\n      add\n        /* \"#utility.yul\":5434:5440   */\n      dup10\n        /* \"#utility.yul\":5390:5462   */\n      tag_180\n      jump\t// in\n    tag_190:\n        /* \"#utility.yul\":5509:5518   */\n      dup2\n        /* \"#utility.yul\":5503:5507   */\n      dup2\n        /* \"#utility.yul\":5499:5519   */\n      sub\n        /* \"#utility.yul\":5494:5496   */\n      0x40\n        /* \"#utility.yul\":5483:5492   */\n      dup4\n        /* \"#utility.yul\":5479:5497   */\n      add\n        /* \"#utility.yul\":5472:5520   */\n      mstore\n        /* \"#utility.yul\":5537:5615   */\n      tag_191\n        /* \"#utility.yul\":5610:5614   */\n      dup2\n        /* \"#utility.yul\":5601:5607   */\n      dup9\n        /* \"#utility.yul\":5537:5615   */\n      tag_170\n      jump\t// in\n    tag_191:\n        /* \"#utility.yul\":5529:5615   */\n      swap1\n      pop\n        /* \"#utility.yul\":5662:5671   */\n      dup2\n        /* \"#utility.yul\":5656:5660   */\n      dup2\n        /* \"#utility.yul\":5652:5672   */\n      sub\n        /* \"#utility.yul\":5647:5649   */\n      0x60\n        /* \"#utility.yul\":5636:5645   */\n      dup4\n        /* \"#utility.yul\":5632:5650   */\n      add\n        /* \"#utility.yul\":5625:5673   */\n      mstore\n        /* \"#utility.yul\":5690:5768   */\n      tag_192\n        /* \"#utility.yul\":5763:5767   */\n      dup2\n        /* \"#utility.yul\":5754:5760   */\n      dup8\n        /* \"#utility.yul\":5690:5768   */\n      tag_170\n      jump\t// in\n    tag_192:\n        /* \"#utility.yul\":5682:5768   */\n      swap1\n      pop\n        /* \"#utility.yul\":5816:5825   */\n      dup2\n        /* \"#utility.yul\":5810:5814   */\n      dup2\n        /* \"#utility.yul\":5806:5826   */\n      sub\n        /* \"#utility.yul\":5800:5803   */\n      0x80\n        /* \"#utility.yul\":5789:5798   */\n      dup4\n        /* \"#utility.yul\":5785:5804   */\n      add\n        /* \"#utility.yul\":5778:5827   */\n      mstore\n        /* \"#utility.yul\":5844:5922   */\n      tag_193\n        /* \"#utility.yul\":5917:5921   */\n      dup2\n        /* \"#utility.yul\":5908:5914   */\n      dup7\n        /* \"#utility.yul\":5844:5922   */\n      tag_170\n      jump\t// in\n    tag_193:\n        /* \"#utility.yul\":5836:5922   */\n      swap1\n      pop\n        /* \"#utility.yul\":5932:6005   */\n      tag_194\n        /* \"#utility.yul\":6000:6003   */\n      0xa0\n        /* \"#utility.yul\":5989:5998   */\n      dup4\n        /* \"#utility.yul\":5985:6004   */\n      add\n        /* \"#utility.yul\":5976:5982   */\n      dup6\n        /* \"#utility.yul\":5932:6005   */\n      tag_180\n      jump\t// in\n    tag_194:\n        /* \"#utility.yul\":6015:6082   */\n      tag_195\n        /* \"#utility.yul\":6077:6080   */\n      0xc0\n        /* \"#utility.yul\":6066:6075   */\n      dup4\n        /* \"#utility.yul\":6062:6081   */\n      add\n        /* \"#utility.yul\":6053:6059   */\n      dup5\n        /* \"#utility.yul\":6015:6082   */\n      tag_166\n      jump\t// in\n    tag_195:\n        /* \"#utility.yul\":4851:6089   */\n      swap9\n      swap8\n      pop\n      pop\n      pop\n      pop\n      pop\n      pop\n      pop\n      pop\n      jump\t// out\n        /* \"#utility.yul\":6095:6224   */\n    tag_114:\n        /* \"#utility.yul\":6129:6135   */\n      0x00\n        /* \"#utility.yul\":6156:6176   */\n      tag_197\n      tag_198\n      jump\t// in\n    tag_197:\n        /* \"#utility.yul\":6146:6176   */\n      swap1\n      pop\n        /* \"#utility.yul\":6185:6218   */\n      tag_199\n        /* \"#utility.yul\":6213:6217   */\n      dup3\n        /* \"#utility.yul\":6205:6211   */\n      dup3\n        /* \"#utility.yul\":6185:6218   */\n      tag_200\n      jump\t// in\n    tag_199:\n        /* \"#utility.yul\":6095:6224   */\n      swap2\n      swap1\n      pop\n      jump\t// out\n        /* \"#utility.yul\":6230:6305   */\n    tag_198:\n        /* \"#utility.yul\":6263:6269   */\n      0x00\n        /* \"#utility.yul\":6296:6298   */\n      0x40\n        /* \"#utility.yul\":6290:6299   */\n      mload\n        /* \"#utility.yul\":6280:6299   */\n      swap1\n      pop\n        /* \"#utility.yul\":6230:6305   */\n      swap1\n      jump\t// out\n        /* \"#utility.yul\":6311:6619   */\n    tag_113:\n        /* \"#utility.yul\":6373:6377   */\n      0x00\n        /* \"#utility.yul\":6463:6481   */\n      0xffffffffffffffff\n        /* \"#utility.yul\":6455:6461   */\n      dup3\n        /* \"#utility.yul\":6452:6482   */\n      gt\n        /* \"#utility.yul\":6449:6505   */\n      iszero\n      tag_203\n      jumpi\n        /* \"#utility.yul\":6485:6503   */\n      tag_204\n      tag_205\n      jump\t// in\n    tag_204:\n        /* \"#utility.yul\":6449:6505   */\n    tag_203:\n        /* \"#utility.yul\":6523:6552   */\n      tag_206\n        /* \"#utility.yul\":6545:6551   */\n      dup3\n        /* \"#utility.yul\":6523:6552   */\n      tag_179\n      jump\t// in\n    tag_206:\n        /* \"#utility.yul\":6515:6552   */\n      swap1\n      pop\n        /* \"#utility.yul\":6607:6611   */\n      0x20\n        /* \"#utility.yul\":6601:6605   */\n      dup2\n        /* \"#utility.yul\":6597:6612   */\n      add\n        /* \"#utility.yul\":6589:6612   */\n      swap1\n      pop\n        /* \"#utility.yul\":6311:6619   */\n      swap2\n      swap1\n      pop\n      jump\t// out\n        /* \"#utility.yul\":6625:6724   */\n    tag_173:\n        /* \"#utility.yul\":6677:6683   */\n      0x00\n        /* \"#utility.yul\":6711:6716   */\n      dup2\n        /* \"#utility.yul\":6705:6717   */\n      mload\n        /* \"#utility.yul\":6695:6717   */\n      swap1\n      pop\n        /* \"#utility.yul\":6625:6724   */\n      swap2\n      swap1\n      pop\n      jump\t// out\n        /* \"#utility.yul\":6730:6899   */\n    tag_175:\n        /* \"#utility.yul\":6814:6825   */\n      0x00\n        /* \"#utility.yul\":6848:6854   */\n      dup3\n        /* \"#utility.yul\":6843:6846   */\n      dup3\n        /* \"#utility.yul\":6836:6855   */\n      mstore\n        /* \"#utility.yul\":6888:6892   */\n      0x20\n        /* \"#utility.yul\":6883:6886   */\n      dup3\n        /* \"#utility.yul\":6879:6893   */\n      add\n        /* \"#utility.yul\":6864:6893   */\n      swap1\n      pop\n        /* \"#utility.yul\":6730:6899   */\n      swap3\n      swap2\n      pop\n      pop\n      jump\t// out\n        /* \"#utility.yul\":6905:7001   */\n    tag_165:\n        /* \"#utility.yul\":6942:6949   */\n      0x00\n        /* \"#utility.yul\":6971:6995   */\n      tag_210\n        /* \"#utility.yul\":6989:6994   */\n      dup3\n        /* \"#utility.yul\":6971:6995   */\n      tag_211\n      jump\t// in\n    tag_210:\n        /* \"#utility.yul\":6960:6995   */\n      swap1\n      pop\n        /* \"#utility.yul\":6905:7001   */\n      swap2\n      swap1\n      pop\n      jump\t// out\n        /* \"#utility.yul\":7007:7097   */\n    tag_169:\n        /* \"#utility.yul\":7041:7048   */\n      0x00\n        /* \"#utility.yul\":7084:7089   */\n      dup2\n        /* \"#utility.yul\":7077:7090   */\n      iszero\n        /* \"#utility.yul\":7070:7091   */\n      iszero\n        /* \"#utility.yul\":7059:7091   */\n      swap1\n      pop\n        /* \"#utility.yul\":7007:7097   */\n      swap2\n      swap1\n      pop\n      jump\t// out\n        /* \"#utility.yul\":7103:7229   */\n    tag_211:\n        /* \"#utility.yul\":7140:7147   */\n      0x00\n        /* \"#utility.yul\":7180:7222   */\n      0xffffffffffffffffffffffffffffffffffffffff\n        /* \"#utility.yul\":7173:7178   */\n      dup3\n        /* \"#utility.yul\":7169:7223   */\n      and\n        /* \"#utility.yul\":7158:7223   */\n      swap1\n      pop\n        /* \"#utility.yul\":7103:7229   */\n      swap2\n      swap1\n      pop\n      jump\t// out\n        /* \"#utility.yul\":7235:7312   */\n    tag_183:\n        /* \"#utility.yul\":7272:7279   */\n      0x00\n        /* \"#utility.yul\":7301:7306   */\n      dup2\n        /* \"#utility.yul\":7290:7306   */\n      swap1\n      pop\n        /* \"#utility.yul\":7235:7312   */\n      swap2\n      swap1\n      pop\n      jump\t// out\n        /* \"#utility.yul\":7318:7472   */\n    tag_119:\n        /* \"#utility.yul\":7402:7408   */\n      dup3\n        /* \"#utility.yul\":7397:7400   */\n      dup2\n        /* \"#utility.yul\":7392:7395   */\n      dup4\n        /* \"#utility.yul\":7379:7409   */\n      calldatacopy\n        /* \"#utility.yul\":7464:7465   */\n      0x00\n        /* \"#utility.yul\":7455:7461   */\n      dup4\n        /* \"#utility.yul\":7450:7453   */\n      dup4\n        /* \"#utility.yul\":7446:7462   */\n      add\n        /* \"#utility.yul\":7439:7466   */\n      mstore\n        /* \"#utility.yul\":7318:7472   */\n      pop\n      pop\n      pop\n      jump\t// out\n        /* \"#utility.yul\":7478:7785   */\n    tag_177:\n        /* \"#utility.yul\":7546:7547   */\n      0x00\n        /* \"#utility.yul\":7556:7669   */\n    tag_217:\n        /* \"#utility.yul\":7570:7576   */\n      dup4\n        /* \"#utility.yul\":7567:7568   */\n      dup2\n        /* \"#utility.yul\":7564:7577   */\n      lt\n        /* \"#utility.yul\":7556:7669   */\n      iszero\n      tag_219\n      jumpi\n        /* \"#utility.yul\":7655:7656   */\n      dup1\n        /* \"#utility.yul\":7650:7653   */\n      dup3\n        /* \"#utility.yul\":7646:7657   */\n      add\n        /* \"#utility.yul\":7640:7658   */\n      mload\n        /* \"#utility.yul\":7636:7637   */\n      dup2\n        /* \"#utility.yul\":7631:7634   */\n      dup5\n        /* \"#utility.yul\":7627:7638   */\n      add\n        /* \"#utility.yul\":7620:7659   */\n      mstore\n        /* \"#utility.yul\":7592:7594   */\n      0x20\n        /* \"#utility.yul\":7589:7590   */\n      dup2\n        /* \"#utility.yul\":7585:7595   */\n      add\n        /* \"#utility.yul\":7580:7595   */\n      swap1\n      pop\n        /* \"#utility.yul\":7556:7669   */\n      jump(tag_217)\n    tag_219:\n        /* \"#utility.yul\":7687:7693   */\n      dup4\n        /* \"#utility.yul\":7684:7685   */\n      dup2\n        /* \"#utility.yul\":7681:7694   */\n      gt\n        /* \"#utility.yul\":7678:7779   */\n      iszero\n      tag_220\n      jumpi\n        /* \"#utility.yul\":7767:7768   */\n      0x00\n        /* \"#utility.yul\":7758:7764   */\n      dup5\n        /* \"#utility.yul\":7753:7756   */\n      dup5\n        /* \"#utility.yul\":7749:7765   */\n      add\n        /* \"#utility.yul\":7742:7769   */\n      mstore\n        /* \"#utility.yul\":7678:7779   */\n    tag_220:\n        /* \"#utility.yul\":7527:7785   */\n      pop\n        /* \"#utility.yul\":7478:7785   */\n      pop\n      pop\n      pop\n      jump\t// out\n        /* \"#utility.yul\":7791:8111   */\n    tag_37:\n        /* \"#utility.yul\":7835:7841   */\n      0x00\n        /* \"#utility.yul\":7872:7873   */\n      0x02\n        /* \"#utility.yul\":7866:7870   */\n      dup3\n        /* \"#utility.yul\":7862:7874   */\n      div\n        /* \"#utility.yul\":7852:7874   */\n      swap1\n      pop\n        /* \"#utility.yul\":7919:7920   */\n      0x01\n        /* \"#utility.yul\":7913:7917   */\n      dup3\n        /* \"#utility.yul\":7909:7921   */\n      and\n        /* \"#utility.yul\":7940:7958   */\n      dup1\n        /* \"#utility.yul\":7930:8011   */\n      tag_222\n      jumpi\n        /* \"#utility.yul\":7996:8000   */\n      0x7f\n        /* \"#utility.yul\":7988:7994   */\n      dup3\n        /* \"#utility.yul\":7984:8001   */\n      and\n        /* \"#utility.yul\":7974:8001   */\n      swap2\n      pop\n        /* \"#utility.yul\":7930:8011   */\n    tag_222:\n        /* \"#utility.yul\":8058:8060   */\n      0x20\n        /* \"#utility.yul\":8050:8056   */\n      dup3\n        /* \"#utility.yul\":8047:8061   */\n      lt\n        /* \"#utility.yul\":8027:8045   */\n      dup2\n        /* \"#utility.yul\":8024:8062   */\n      eq\n        /* \"#utility.yul\":8021:8105   */\n      iszero\n      tag_223\n      jumpi\n        /* \"#utility.yul\":8077:8095   */\n      tag_224\n      tag_225\n      jump\t// in\n    tag_224:\n        /* \"#utility.yul\":8021:8105   */\n    tag_223:\n        /* \"#utility.yul\":7842:8111   */\n      pop\n        /* \"#utility.yul\":7791:8111   */\n      swap2\n      swap1\n      pop\n      jump\t// out\n        /* \"#utility.yul\":8117:8398   */\n    tag_200:\n        /* \"#utility.yul\":8200:8227   */\n      tag_227\n        /* \"#utility.yul\":8222:8226   */\n      dup3\n        /* \"#utility.yul\":8200:8227   */\n      tag_179\n      jump\t// in\n    tag_227:\n        /* \"#utility.yul\":8192:8198   */\n      dup2\n        /* \"#utility.yul\":8188:8228   */\n      add\n        /* \"#utility.yul\":8330:8336   */\n      dup2\n        /* \"#utility.yul\":8318:8328   */\n      dup2\n        /* \"#utility.yul\":8315:8337   */\n      lt\n        /* \"#utility.yul\":8294:8312   */\n      0xffffffffffffffff\n        /* \"#utility.yul\":8282:8292   */\n      dup3\n        /* \"#utility.yul\":8279:8313   */\n      gt\n        /* \"#utility.yul\":8276:8338   */\n      or\n        /* \"#utility.yul\":8273:8361   */\n      iszero\n      tag_228\n      jumpi\n        /* \"#utility.yul\":8341:8359   */\n      tag_229\n      tag_205\n      jump\t// in\n    tag_229:\n        /* \"#utility.yul\":8273:8361   */\n    tag_228:\n        /* \"#utility.yul\":8381:8391   */\n      dup1\n        /* \"#utility.yul\":8377:8379   */\n      0x40\n        /* \"#utility.yul\":8370:8392   */\n      mstore\n        /* \"#utility.yul\":8160:8398   */\n      pop\n        /* \"#utility.yul\":8117:8398   */\n      pop\n      pop\n      jump\t// out\n        /* \"#utility.yul\":8829:9009   */\n    tag_225:\n        /* \"#utility.yul\":8877:8954   */\n      0x4e487b7100000000000000000000000000000000000000000000000000000000\n        /* \"#utility.yul\":8874:8875   */\n      0x00\n        /* \"#utility.yul\":8867:8955   */\n      mstore\n        /* \"#utility.yul\":8974:8978   */\n      0x22\n        /* \"#utility.yul\":8971:8972   */\n      0x04\n        /* \"#utility.yul\":8964:8979   */\n      mstore\n        /* \"#utility.yul\":8998:9002   */\n      0x24\n        /* \"#utility.yul\":8995:8996   */\n      0x00\n        /* \"#utility.yul\":8988:9003   */\n      revert\n        /* \"#utility.yul\":9015:9195   */\n    tag_93:\n        /* \"#utility.yul\":9063:9140   */\n      0x4e487b7100000000000000000000000000000000000000000000000000000000\n        /* \"#utility.yul\":9060:9061   */\n      0x00\n        /* \"#utility.yul\":9053:9141   */\n      mstore\n        /* \"#utility.yul\":9160:9164   */\n      0x32\n        /* \"#utility.yul\":9157:9158   */\n      0x04\n        /* \"#utility.yul\":9150:9165   */\n      mstore\n        /* \"#utility.yul\":9184:9188   */\n      0x24\n        /* \"#utility.yul\":9181:9182   */\n      0x00\n        /* \"#utility.yul\":9174:9189   */\n      revert\n        /* \"#utility.yul\":9201:9381   */\n    tag_205:\n        /* \"#utility.yul\":9249:9326   */\n      0x4e487b7100000000000000000000000000000000000000000000000000000000\n        /* \"#utility.yul\":9246:9247   */\n      0x00\n        /* \"#utility.yul\":9239:9327   */\n      mstore\n        /* \"#utility.yul\":9346:9350   */\n      0x41\n        /* \"#utility.yul\":9343:9344   */\n      0x04\n        /* \"#utility.yul\":9336:9351   */\n      mstore\n        /* \"#utility.yul\":9370:9374   */\n      0x24\n        /* \"#utility.yul\":9367:9368   */\n      0x00\n        /* \"#utility.yul\":9360:9375   */\n      revert\n        /* \"#utility.yul\":9387:9504   */\n    tag_128:\n        /* \"#utility.yul\":9496:9497   */\n      0x00\n        /* \"#utility.yul\":9493:9494   */\n      dup1\n        /* \"#utility.yul\":9486:9498   */\n      revert\n        /* \"#utility.yul\":9510:9627   */\n    tag_117:\n        /* \"#utility.yul\":9619:9620   */\n      0x00\n        /* \"#utility.yul\":9616:9617   */\n      dup1\n        /* \"#utility.yul\":9609:9621   */\n      revert\n        /* \"#utility.yul\":9633:9750   */\n    tag_145:\n        /* \"#utility.yul\":9742:9743   */\n      0x00\n        /* \"#utility.yul\":9739:9740   */\n      dup1\n        /* \"#utility.yul\":9732:9744   */\n      revert\n        /* \"#utility.yul\":9756:9873   */\n    tag_137:\n        /* \"#utility.yul\":9865:9866   */\n      0x00\n        /* \"#utility.yul\":9862:9863   */\n      dup1\n        /* \"#utility.yul\":9855:9867   */\n      revert\n        /* \"#utility.yul\":9879:9981   */\n    tag_179:\n        /* \"#utility.yul\":9920:9926   */\n      0x00\n        /* \"#utility.yul\":9971:9973   */\n      0x1f\n        /* \"#utility.yul\":9967:9974   */\n      not\n        /* \"#utility.yul\":9962:9964   */\n      0x1f\n        /* \"#utility.yul\":9955:9960   */\n      dup4\n        /* \"#utility.yul\":9951:9965   */\n      add\n        /* \"#utility.yul\":9947:9975   */\n      and\n        /* \"#utility.yul\":9937:9975   */\n      swap1\n      pop\n        /* \"#utility.yul\":9879:9981   */\n      swap2\n      swap1\n      pop\n      jump\t// out\n        /* \"#utility.yul\":9987:10109   */\n    tag_123:\n        /* \"#utility.yul\":10060:10084   */\n      tag_245\n        /* \"#utility.yul\":10078:10083   */\n      dup2\n        /* \"#utility.yul\":10060:10084   */\n      tag_165\n      jump\t// in\n    tag_245:\n        /* \"#utility.yul\":10053:10058   */\n      dup2\n        /* \"#utility.yul\":10050:10085   */\n      eq\n        /* \"#utility.yul\":10040:10103   */\n      tag_246\n      jumpi\n        /* \"#utility.yul\":10099:10100   */\n      0x00\n        /* \"#utility.yul\":10096:10097   */\n      dup1\n        /* \"#utility.yul\":10089:10101   */\n      revert\n        /* \"#utility.yul\":10040:10103   */\n    tag_246:\n        /* \"#utility.yul\":9987:10109   */\n      pop\n      jump\t// out\n        /* \"#utility.yul\":10115:10237   */\n    tag_133:\n        /* \"#utility.yul\":10188:10212   */\n      tag_248\n        /* \"#utility.yul\":10206:10211   */\n      dup2\n        /* \"#utility.yul\":10188:10212   */\n      tag_183\n      jump\t// in\n    tag_248:\n        /* \"#utility.yul\":10181:10186   */\n      dup2\n        /* \"#utility.yul\":10178:10213   */\n      eq\n        /* \"#utility.yul\":10168:10231   */\n      tag_249\n      jumpi\n        /* \"#utility.yul\":10227:10228   */\n      0x00\n        /* \"#utility.yul\":10224:10225   */\n      dup1\n        /* \"#utility.yul\":10217:10229   */\n      revert\n        /* \"#utility.yul\":10168:10231   */\n    tag_249:\n        /* \"#utility.yul\":10115:10237   */\n      pop\n      jump\t// out\n\n    auxdata: 0xa2646970667358221220e251152b4dda0a4abef98fb511b7e3b6b7291500bd04249559012f0e6a92211064736f6c63430008070033\n}\n",
				"bytecode": {
					"linkReferences": {},
					"object": "608060405234801561001057600080fd5b50610ffc806100206000396000f3fe608060405234801561001057600080fd5b50600436106100575760003560e01c8063643f75361461005c578063827e0c9914610092578063c5d25fa9146100c8578063c9a52910146100f8578063dfc56c3e14610128575b600080fd5b61007660048036038101906100719190610c33565b610158565b6040516100899796959493929190610cfc565b60405180910390f35b6100ac60048036038101906100a79190610af4565b6103d7565b6040516100bf9796959493929190610cfc565b60405180910390f35b6100e260048036038101906100dd9190610c33565b610646565b6040516100ef9190610cc6565b60405180910390f35b610112600480360381019061010d9190610b21565b610685565b60405161011f9190610ce1565b60405180910390f35b610142600480360381019061013d9190610af4565b610917565b60405161014f9190610ce1565b60405180910390f35b6000818154811061016857600080fd5b906000526020600020906007020160009150905080600001805461018b90610e83565b80601f01602080910402602001604051908101604052809291908181526020018280546101b790610e83565b80156102045780601f106101d957610100808354040283529160200191610204565b820191906000526020600020905b8154815290600101906020018083116101e757829003601f168201915b50505050509080600101549080600201805461021f90610e83565b80601f016020809104026020016040519081016040528092919081815260200182805461024b90610e83565b80156102985780601f1061026d57610100808354040283529160200191610298565b820191906000526020600020905b81548152906001019060200180831161027b57829003601f168201915b5050505050908060030180546102ad90610e83565b80601f01602080910402602001604051908101604052809291908181526020018280546102d990610e83565b80156103265780601f106102fb57610100808354040283529160200191610326565b820191906000526020600020905b81548152906001019060200180831161030957829003601f168201915b50505050509080600401805461033b90610e83565b80601f016020809104026020016040519081016040528092919081815260200182805461036790610e83565b80156103b45780601f10610389576101008083540402835291602001916103b4565b820191906000526020600020905b81548152906001019060200180831161039757829003601f168201915b5050505050908060050154908060060160009054906101000a900460ff16905087565b60016020528060005260406000206000915090508060000180546103fa90610e83565b80601f016020809104026020016040519081016040528092919081815260200182805461042690610e83565b80156104735780601f1061044857610100808354040283529160200191610473565b820191906000526020600020905b81548152906001019060200180831161045657829003601f168201915b50505050509080600101549080600201805461048e90610e83565b80601f01602080910402602001604051908101604052809291908181526020018280546104ba90610e83565b80156105075780601f106104dc57610100808354040283529160200191610507565b820191906000526020600020905b8154815290600101906020018083116104ea57829003601f168201915b50505050509080600301805461051c90610e83565b80601f016020809104026020016040519081016040528092919081815260200182805461054890610e83565b80156105955780601f1061056a57610100808354040283529160200191610595565b820191906000526020600020905b81548152906001019060200180831161057857829003601f168201915b5050505050908060040180546105aa90610e83565b80601f01602080910402602001604051908101604052809291908181526020018280546105d690610e83565b80156106235780601f106105f857610100808354040283529160200191610623565b820191906000526020600020905b81548152906001019060200180831161060657829003601f168201915b5050505050908060050154908060060160009054906101000a900460ff16905087565b6002818154811061065657600080fd5b906000526020600020016000915054906101000a900473ffffffffffffffffffffffffffffffffffffffff1681565b60003373ffffffffffffffffffffffffffffffffffffffff168873ffffffffffffffffffffffffffffffffffffffff16146106bf57600080fd5b86600160008a73ffffffffffffffffffffffffffffffffffffffff1673ffffffffffffffffffffffffffffffffffffffff16815260200190815260200160002060000190805190602001906107159291906109b7565b5085600160008a73ffffffffffffffffffffffffffffffffffffffff1673ffffffffffffffffffffffffffffffffffffffff1681526020019081526020016000206001018190555084600160008a73ffffffffffffffffffffffffffffffffffffffff1673ffffffffffffffffffffffffffffffffffffffff16815260200190815260200160002060020190805190602001906107b39291906109b7565b5083600160008a73ffffffffffffffffffffffffffffffffffffffff1673ffffffffffffffffffffffffffffffffffffffff168152602001908152602001600020600301908051906020019061080a9291906109b7565b5082600160008a73ffffffffffffffffffffffffffffffffffffffff1673ffffffffffffffffffffffffffffffffffffffff16815260200190815260200160002060040190805190602001906108619291906109b7565b5081600160008a73ffffffffffffffffffffffffffffffffffffffff1673ffffffffffffffffffffffffffffffffffffffff168152602001908152602001600020600501819055506002889080600181540180825580915050600190039060005260206000200160009091909190916101000a81548173ffffffffffffffffffffffffffffffffffffffff021916908373ffffffffffffffffffffffffffffffffffffffff160217905550979650505050505050565b6000806000905060028054905081116109b0576002818154811061093e5761093d610f15565b5b9060005260206000200160009054906101000a900473ffffffffffffffffffffffffffffffffffffffff1673ffffffffffffffffffffffffffffffffffffffff168373ffffffffffffffffffffffffffffffffffffffff1614156109a65760019150506109b2565b60009150506109b2565b505b919050565b8280546109c390610e83565b90600052602060002090601f0160209004810192826109e55760008555610a2c565b82601f106109fe57805160ff1916838001178555610a2c565b82800160010185558215610a2c579182015b82811115610a2b578251825591602001919060010190610a10565b5b509050610a399190610a3d565b5090565b5b80821115610a56576000816000905550600101610a3e565b5090565b6000610a6d610a6884610dac565b610d87565b905082815260208101848484011115610a8957610a88610f78565b5b610a94848285610e41565b509392505050565b600081359050610aab81610f98565b92915050565b600082601f830112610ac657610ac5610f73565b5b8135610ad6848260208601610a5a565b91505092915050565b600081359050610aee81610faf565b92915050565b600060208284031215610b0a57610b09610f82565b5b6000610b1884828501610a9c565b91505092915050565b600080600080600080600060e0888a031215610b4057610b3f610f82565b5b6000610b4e8a828b01610a9c565b975050602088013567ffffffffffffffff811115610b6f57610b6e610f7d565b5b610b7b8a828b01610ab1565b9650506040610b8c8a828b01610adf565b955050606088013567ffffffffffffffff811115610bad57610bac610f7d565b5b610bb98a828b01610ab1565b945050608088013567ffffffffffffffff811115610bda57610bd9610f7d565b5b610be68a828b01610ab1565b93505060a088013567ffffffffffffffff811115610c0757610c06610f7d565b5b610c138a828b01610ab1565b92505060c0610c248a828b01610adf565b91505092959891949750929550565b600060208284031215610c4957610c48610f82565b5b6000610c5784828501610adf565b91505092915050565b610c6981610df9565b82525050565b610c7881610e0b565b82525050565b6000610c8982610ddd565b610c938185610de8565b9350610ca3818560208601610e50565b610cac81610f87565b840191505092915050565b610cc081610e37565b82525050565b6000602082019050610cdb6000830184610c60565b92915050565b6000602082019050610cf66000830184610c6f565b92915050565b600060e0820190508181036000830152610d16818a610c7e565b9050610d256020830189610cb7565b8181036040830152610d378188610c7e565b90508181036060830152610d4b8187610c7e565b90508181036080830152610d5f8186610c7e565b9050610d6e60a0830185610cb7565b610d7b60c0830184610c6f565b98975050505050505050565b6000610d91610da2565b9050610d9d8282610eb5565b919050565b6000604051905090565b600067ffffffffffffffff821115610dc757610dc6610f44565b5b610dd082610f87565b9050602081019050919050565b600081519050919050565b600082825260208201905092915050565b6000610e0482610e17565b9050919050565b60008115159050919050565b600073ffffffffffffffffffffffffffffffffffffffff82169050919050565b6000819050919050565b82818337600083830152505050565b60005b83811015610e6e578082015181840152602081019050610e53565b83811115610e7d576000848401525b50505050565b60006002820490506001821680610e9b57607f821691505b60208210811415610eaf57610eae610ee6565b5b50919050565b610ebe82610f87565b810181811067ffffffffffffffff82111715610edd57610edc610f44565b5b80604052505050565b7f4e487b7100000000000000000000000000000000000000000000000000000000600052602260045260246000fd5b7f4e487b7100000000000000000000000000000000000000000000000000000000600052603260045260246000fd5b7f4e487b7100000000000000000000000000000000000000000000000000000000600052604160045260246000fd5b600080fd5b600080fd5b600080fd5b600080fd5b6000601f19601f8301169050919050565b610fa181610df9565b8114610fac57600080fd5b50565b610fb881610e37565b8114610fc357600080fd5b5056fea2646970667358221220e251152b4dda0a4abef98fb511b7e3b6b7291500bd04249559012f0e6a92211064736f6c63430008070033",
					"opcodes": "PUSH1 0x80 PUSH1 0x40 MSTORE CALLVALUE DUP1 ISZERO PUSH2 0x10 JUMPI PUSH1 0x0 DUP1 REVERT JUMPDEST POP PUSH2 0xFFC DUP1 PUSH2 0x20 PUSH1 0x0 CODECOPY PUSH1 0x0 RETURN INVALID PUSH1 0x80 PUSH1 0x40 MSTORE CALLVALUE DUP1 ISZERO PUSH2 0x10 JUMPI PUSH1 0x0 DUP1 REVERT JUMPDEST POP PUSH1 0x4 CALLDATASIZE LT PUSH2 0x57 JUMPI PUSH1 0x0 CALLDATALOAD PUSH1 0xE0 SHR DUP1 PUSH4 0x643F7536 EQ PUSH2 0x5C JUMPI DUP1 PUSH4 0x827E0C99 EQ PUSH2 0x92 JUMPI DUP1 PUSH4 0xC5D25FA9 EQ PUSH2 0xC8 JUMPI DUP1 PUSH4 0xC9A52910 EQ PUSH2 0xF8 JUMPI DUP1 PUSH4 0xDFC56C3E EQ PUSH2 0x128 JUMPI JUMPDEST PUSH1 0x0 DUP1 REVERT JUMPDEST PUSH2 0x76 PUSH1 0x4 DUP1 CALLDATASIZE SUB DUP2 ADD SWAP1 PUSH2 0x71 SWAP2 SWAP1 PUSH2 0xC33 JUMP JUMPDEST PUSH2 0x158 JUMP JUMPDEST PUSH1 0x40 MLOAD PUSH2 0x89 SWAP8 SWAP7 SWAP6 SWAP5 SWAP4 SWAP3 SWAP2 SWAP1 PUSH2 0xCFC JUMP JUMPDEST PUSH1 0x40 MLOAD DUP1 SWAP2 SUB SWAP1 RETURN JUMPDEST PUSH2 0xAC PUSH1 0x4 DUP1 CALLDATASIZE SUB DUP2 ADD SWAP1 PUSH2 0xA7 SWAP2 SWAP1 PUSH2 0xAF4 JUMP JUMPDEST PUSH2 0x3D7 JUMP JUMPDEST PUSH1 0x40 MLOAD PUSH2 0xBF SWAP8 SWAP7 SWAP6 SWAP5 SWAP4 SWAP3 SWAP2 SWAP1 PUSH2 0xCFC JUMP JUMPDEST PUSH1 0x40 MLOAD DUP1 SWAP2 SUB SWAP1 RETURN JUMPDEST PUSH2 0xE2 PUSH1 0x4 DUP1 CALLDATASIZE SUB DUP2 ADD SWAP1 PUSH2 0xDD SWAP2 SWAP1 PUSH2 0xC33 JUMP JUMPDEST PUSH2 0x646 JUMP JUMPDEST PUSH1 0x40 MLOAD PUSH2 0xEF SWAP2 SWAP1 PUSH2 0xCC6 JUMP JUMPDEST PUSH1 0x40 MLOAD DUP1 SWAP2 SUB SWAP1 RETURN JUMPDEST PUSH2 0x112 PUSH1 0x4 DUP1 CALLDATASIZE SUB DUP2 ADD SWAP1 PUSH2 0x10D SWAP2 SWAP1 PUSH2 0xB21 JUMP JUMPDEST PUSH2 0x685 JUMP JUMPDEST PUSH1 0x40 MLOAD PUSH2 0x11F SWAP2 SWAP1 PUSH2 0xCE1 JUMP JUMPDEST PUSH1 0x40 MLOAD DUP1 SWAP2 SUB SWAP1 RETURN JUMPDEST PUSH2 0x142 PUSH1 0x4 DUP1 CALLDATASIZE SUB DUP2 ADD SWAP1 PUSH2 0x13D SWAP2 SWAP1 PUSH2 0xAF4 JUMP JUMPDEST PUSH2 0x917 JUMP JUMPDEST PUSH1 0x40 MLOAD PUSH2 0x14F SWAP2 SWAP1 PUSH2 0xCE1 JUMP JUMPDEST PUSH1 0x40 MLOAD DUP1 SWAP2 SUB SWAP1 RETURN JUMPDEST PUSH1 0x0 DUP2 DUP2 SLOAD DUP2 LT PUSH2 0x168 JUMPI PUSH1 0x0 DUP1 REVERT JUMPDEST SWAP1 PUSH1 0x0 MSTORE PUSH1 0x20 PUSH1 0x0 KECCAK256 SWAP1 PUSH1 0x7 MUL ADD PUSH1 0x0 SWAP2 POP SWAP1 POP DUP1 PUSH1 0x0 ADD DUP1 SLOAD PUSH2 0x18B SWAP1 PUSH2 0xE83 JUMP JUMPDEST DUP1 PUSH1 0x1F ADD PUSH1 0x20 DUP1 SWAP2 DIV MUL PUSH1 0x20 ADD PUSH1 0x40 MLOAD SWAP1 DUP2 ADD PUSH1 0x40 MSTORE DUP1 SWAP3 SWAP2 SWAP1 DUP2 DUP2 MSTORE PUSH1 0x20 ADD DUP3 DUP1 SLOAD PUSH2 0x1B7 SWAP1 PUSH2 0xE83 JUMP JUMPDEST DUP1 ISZERO PUSH2 0x204 JUMPI DUP1 PUSH1 0x1F LT PUSH2 0x1D9 JUMPI PUSH2 0x100 DUP1 DUP4 SLOAD DIV MUL DUP4 MSTORE SWAP2 PUSH1 0x20 ADD SWAP2 PUSH2 0x204 JUMP JUMPDEST DUP3 ADD SWAP2 SWAP1 PUSH1 0x0 MSTORE PUSH1 0x20 PUSH1 0x0 KECCAK256 SWAP1 JUMPDEST DUP2 SLOAD DUP2 MSTORE SWAP1 PUSH1 0x1 ADD SWAP1 PUSH1 0x20 ADD DUP1 DUP4 GT PUSH2 0x1E7 JUMPI DUP3 SWAP1 SUB PUSH1 0x1F AND DUP3 ADD SWAP2 JUMPDEST POP POP POP POP POP SWAP1 DUP1 PUSH1 0x1 ADD SLOAD SWAP1 DUP1 PUSH1 0x2 ADD DUP1 SLOAD PUSH2 0x21F SWAP1 PUSH2 0xE83 JUMP JUMPDEST DUP1 PUSH1 0x1F ADD PUSH1 0x20 DUP1 SWAP2 DIV MUL PUSH1 0x20 ADD PUSH1 0x40 MLOAD SWAP1 DUP2 ADD PUSH1 0x40 MSTORE DUP1 SWAP3 SWAP2 SWAP1 DUP2 DUP2 MSTORE PUSH1 0x20 ADD DUP3 DUP1 SLOAD PUSH2 0x24B SWAP1 PUSH2 0xE83 JUMP JUMPDEST DUP1 ISZERO PUSH2 0x298 JUMPI DUP1 PUSH1 0x1F LT PUSH2 0x26D JUMPI PUSH2 0x100 DUP1 DUP4 SLOAD DIV MUL DUP4 MSTORE SWAP2 PUSH1 0x20 ADD SWAP2 PUSH2 0x298 JUMP JUMPDEST DUP3 ADD SWAP2 SWAP1 PUSH1 0x0 MSTORE PUSH1 0x20 PUSH1 0x0 KECCAK256 SWAP1 JUMPDEST DUP2 SLOAD DUP2 MSTORE SWAP1 PUSH1 0x1 ADD SWAP1 PUSH1 0x20 ADD DUP1 DUP4 GT PUSH2 0x27B JUMPI DUP3 SWAP1 SUB PUSH1 0x1F AND DUP3 ADD SWAP2 JUMPDEST POP POP POP POP POP SWAP1 DUP1 PUSH1 0x3 ADD DUP1 SLOAD PUSH2 0x2AD SWAP1 PUSH2 0xE83 JUMP JUMPDEST DUP1 PUSH1 0x1F ADD PUSH1 0x20 DUP1 SWAP2 DIV MUL PUSH1 0x20 ADD PUSH1 0x40 MLOAD SWAP1 DUP2 ADD PUSH1 0x40 MSTORE DUP1 SWAP3 SWAP2 SWAP1 DUP2 DUP2 MSTORE PUSH1 0x20 ADD DUP3 DUP1 SLOAD PUSH2 0x2D9 SWAP1 PUSH2 0xE83 JUMP JUMPDEST DUP1 ISZERO PUSH2 0x326 JUMPI DUP1 PUSH1 0x1F LT PUSH2 0x2FB JUMPI PUSH2 0x100 DUP1 DUP4 SLOAD DIV MUL DUP4 MSTORE SWAP2 PUSH1 0x20 ADD SWAP2 PUSH2 0x326 JUMP JUMPDEST DUP3 ADD SWAP2 SWAP1 PUSH1 0x0 MSTORE PUSH1 0x20 PUSH1 0x0 KECCAK256 SWAP1 JUMPDEST DUP2 SLOAD DUP2 MSTORE SWAP1 PUSH1 0x1 ADD SWAP1 PUSH1 0x20 ADD DUP1 DUP4 GT PUSH2 0x309 JUMPI DUP3 SWAP1 SUB PUSH1 0x1F AND DUP3 ADD SWAP2 JUMPDEST POP POP POP POP POP SWAP1 DUP1 PUSH1 0x4 ADD DUP1 SLOAD PUSH2 0x33B SWAP1 PUSH2 0xE83 JUMP JUMPDEST DUP1 PUSH1 0x1F ADD PUSH1 0x20 DUP1 SWAP2 DIV MUL PUSH1 0x20 ADD PUSH1 0x40 MLOAD SWAP1 DUP2 ADD PUSH1 0x40 MSTORE DUP1 SWAP3 SWAP2 SWAP1 DUP2 DUP2 MSTORE PUSH1 0x20 ADD DUP3 DUP1 SLOAD PUSH2 0x367 SWAP1 PUSH2 0xE83 JUMP JUMPDEST DUP1 ISZERO PUSH2 0x3B4 JUMPI DUP1 PUSH1 0x1F LT PUSH2 0x389 JUMPI PUSH2 0x100 DUP1 DUP4 SLOAD DIV MUL DUP4 MSTORE SWAP2 PUSH1 0x20 ADD SWAP2 PUSH2 0x3B4 JUMP JUMPDEST DUP3 ADD SWAP2 SWAP1 PUSH1 0x0 MSTORE PUSH1 0x20 PUSH1 0x0 KECCAK256 SWAP1 JUMPDEST DUP2 SLOAD DUP2 MSTORE SWAP1 PUSH1 0x1 ADD SWAP1 PUSH1 0x20 ADD DUP1 DUP4 GT PUSH2 0x397 JUMPI DUP3 SWAP1 SUB PUSH1 0x1F AND DUP3 ADD SWAP2 JUMPDEST POP POP POP POP POP SWAP1 DUP1 PUSH1 0x5 ADD SLOAD SWAP1 DUP1 PUSH1 0x6 ADD PUSH1 0x0 SWAP1 SLOAD SWAP1 PUSH2 0x100 EXP SWAP1 DIV PUSH1 0xFF AND SWAP1 POP DUP8 JUMP JUMPDEST PUSH1 0x1 PUSH1 0x20 MSTORE DUP1 PUSH1 0x0 MSTORE PUSH1 0x40 PUSH1 0x0 KECCAK256 PUSH1 0x0 SWAP2 POP SWAP1 POP DUP1 PUSH1 0x0 ADD DUP1 SLOAD PUSH2 0x3FA SWAP1 PUSH2 0xE83 JUMP JUMPDEST DUP1 PUSH1 0x1F ADD PUSH1 0x20 DUP1 SWAP2 DIV MUL PUSH1 0x20 ADD PUSH1 0x40 MLOAD SWAP1 DUP2 ADD PUSH1 0x40 MSTORE DUP1 SWAP3 SWAP2 SWAP1 DUP2 DUP2 MSTORE PUSH1 0x20 ADD DUP3 DUP1 SLOAD PUSH2 0x426 SWAP1 PUSH2 0xE83 JUMP JUMPDEST DUP1 ISZERO PUSH2 0x473 JUMPI DUP1 PUSH1 0x1F LT PUSH2 0x448 JUMPI PUSH2 0x100 DUP1 DUP4 SLOAD DIV MUL DUP4 MSTORE SWAP2 PUSH1 0x20 ADD SWAP2 PUSH2 0x473 JUMP JUMPDEST DUP3 ADD SWAP2 SWAP1 PUSH1 0x0 MSTORE PUSH1 0x20 PUSH1 0x0 KECCAK256 SWAP1 JUMPDEST DUP2 SLOAD DUP2 MSTORE SWAP1 PUSH1 0x1 ADD SWAP1 PUSH1 0x20 ADD DUP1 DUP4 GT PUSH2 0x456 JUMPI DUP3 SWAP1 SUB PUSH1 0x1F AND DUP3 ADD SWAP2 JUMPDEST POP POP POP POP POP SWAP1 DUP1 PUSH1 0x1 ADD SLOAD SWAP1 DUP1 PUSH1 0x2 ADD DUP1 SLOAD PUSH2 0x48E SWAP1 PUSH2 0xE83 JUMP JUMPDEST DUP1 PUSH1 0x1F ADD PUSH1 0x20 DUP1 SWAP2 DIV MUL PUSH1 0x20 ADD PUSH1 0x40 MLOAD SWAP1 DUP2 ADD PUSH1 0x40 MSTORE DUP1 SWAP3 SWAP2 SWAP1 DUP2 DUP2 MSTORE PUSH1 0x20 ADD DUP3 DUP1 SLOAD PUSH2 0x4BA SWAP1 PUSH2 0xE83 JUMP JUMPDEST DUP1 ISZERO PUSH2 0x507 JUMPI DUP1 PUSH1 0x1F LT PUSH2 0x4DC JUMPI PUSH2 0x100 DUP1 DUP4 SLOAD DIV MUL DUP4 MSTORE SWAP2 PUSH1 0x20 ADD SWAP2 PUSH2 0x507 JUMP JUMPDEST DUP3 ADD SWAP2 SWAP1 PUSH1 0x0 MSTORE PUSH1 0x20 PUSH1 0x0 KECCAK256 SWAP1 JUMPDEST DUP2 SLOAD DUP2 MSTORE SWAP1 PUSH1 0x1 ADD SWAP1 PUSH1 0x20 ADD DUP1 DUP4 GT PUSH2 0x4EA JUMPI DUP3 SWAP1 SUB PUSH1 0x1F AND DUP3 ADD SWAP2 JUMPDEST POP POP POP POP POP SWAP1 DUP1 PUSH1 0x3 ADD DUP1 SLOAD PUSH2 0x51C SWAP1 PUSH2 0xE83 JUMP JUMPDEST DUP1 PUSH1 0x1F ADD PUSH1 0x20 DUP1 SWAP2 DIV MUL PUSH1 0x20 ADD PUSH1 0x40 MLOAD SWAP1 DUP2 ADD PUSH1 0x40 MSTORE DUP1 SWAP3 SWAP2 SWAP1 DUP2 DUP2 MSTORE PUSH1 0x20 ADD DUP3 DUP1 SLOAD PUSH2 0x548 SWAP1 PUSH2 0xE83 JUMP JUMPDEST DUP1 ISZERO PUSH2 0x595 JUMPI DUP1 PUSH1 0x1F LT PUSH2 0x56A JUMPI PUSH2 0x100 DUP1 DUP4 SLOAD DIV MUL DUP4 MSTORE SWAP2 PUSH1 0x20 ADD SWAP2 PUSH2 0x595 JUMP JUMPDEST DUP3 ADD SWAP2 SWAP1 PUSH1 0x0 MSTORE PUSH1 0x20 PUSH1 0x0 KECCAK256 SWAP1 JUMPDEST DUP2 SLOAD DUP2 MSTORE SWAP1 PUSH1 0x1 ADD SWAP1 PUSH1 0x20 ADD DUP1 DUP4 GT PUSH2 0x578 JUMPI DUP3 SWAP1 SUB PUSH1 0x1F AND DUP3 ADD SWAP2 JUMPDEST POP POP POP POP POP SWAP1 DUP1 PUSH1 0x4 ADD DUP1 SLOAD PUSH2 0x5AA SWAP1 PUSH2 0xE83 JUMP JUMPDEST DUP1 PUSH1 0x1F ADD PUSH1 0x20 DUP1 SWAP2 DIV MUL PUSH1 0x20 ADD PUSH1 0x40 MLOAD SWAP1 DUP2 ADD PUSH1 0x40 MSTORE DUP1 SWAP3 SWAP2 SWAP1 DUP2 DUP2 MSTORE PUSH1 0x20 ADD DUP3 DUP1 SLOAD PUSH2 0x5D6 SWAP1 PUSH2 0xE83 JUMP JUMPDEST DUP1 ISZERO PUSH2 0x623 JUMPI DUP1 PUSH1 0x1F LT PUSH2 0x5F8 JUMPI PUSH2 0x100 DUP1 DUP4 SLOAD DIV MUL DUP4 MSTORE SWAP2 PUSH1 0x20 ADD SWAP2 PUSH2 0x623 JUMP JUMPDEST DUP3 ADD SWAP2 SWAP1 PUSH1 0x0 MSTORE PUSH1 0x20 PUSH1 0x0 KECCAK256 SWAP1 JUMPDEST DUP2 SLOAD DUP2 MSTORE SWAP1 PUSH1 0x1 ADD SWAP1 PUSH1 0x20 ADD DUP1 DUP4 GT PUSH2 0x606 JUMPI DUP3 SWAP1 SUB PUSH1 0x1F AND DUP3 ADD SWAP2 JUMPDEST POP POP POP POP POP SWAP1 DUP1 PUSH1 0x5 ADD SLOAD SWAP1 DUP1 PUSH1 0x6 ADD PUSH1 0x0 SWAP1 SLOAD SWAP1 PUSH2 0x100 EXP SWAP1 DIV PUSH1 0xFF AND SWAP1 POP DUP8 JUMP JUMPDEST PUSH1 0x2 DUP2 DUP2 SLOAD DUP2 LT PUSH2 0x656 JUMPI PUSH1 0x0 DUP1 REVERT JUMPDEST SWAP1 PUSH1 0x0 MSTORE PUSH1 0x20 PUSH1 0x0 KECCAK256 ADD PUSH1 0x0 SWAP2 POP SLOAD SWAP1 PUSH2 0x100 EXP SWAP1 DIV PUSH20 0xFFFFFFFFFFFFFFFFFFFFFFFFFFFFFFFFFFFFFFFF AND DUP2 JUMP JUMPDEST PUSH1 0x0 CALLER PUSH20 0xFFFFFFFFFFFFFFFFFFFFFFFFFFFFFFFFFFFFFFFF AND DUP9 PUSH20 0xFFFFFFFFFFFFFFFFFFFFFFFFFFFFFFFFFFFFFFFF AND EQ PUSH2 0x6BF JUMPI PUSH1 0x0 DUP1 REVERT JUMPDEST DUP7 PUSH1 0x1 PUSH1 0x0 DUP11 PUSH20 0xFFFFFFFFFFFFFFFFFFFFFFFFFFFFFFFFFFFFFFFF AND PUSH20 0xFFFFFFFFFFFFFFFFFFFFFFFFFFFFFFFFFFFFFFFF AND DUP2 MSTORE PUSH1 0x20 ADD SWAP1 DUP2 MSTORE PUSH1 0x20 ADD PUSH1 0x0 KECCAK256 PUSH1 0x0 ADD SWAP1 DUP1 MLOAD SWAP1 PUSH1 0x20 ADD SWAP1 PUSH2 0x715 SWAP3 SWAP2 SWAP1 PUSH2 0x9B7 JUMP JUMPDEST POP DUP6 PUSH1 0x1 PUSH1 0x0 DUP11 PUSH20 0xFFFFFFFFFFFFFFFFFFFFFFFFFFFFFFFFFFFFFFFF AND PUSH20 0xFFFFFFFFFFFFFFFFFFFFFFFFFFFFFFFFFFFFFFFF AND DUP2 MSTORE PUSH1 0x20 ADD SWAP1 DUP2 MSTORE PUSH1 0x20 ADD PUSH1 0x0 KECCAK256 PUSH1 0x1 ADD DUP2 SWAP1 SSTORE POP DUP5 PUSH1 0x1 PUSH1 0x0 DUP11 PUSH20 0xFFFFFFFFFFFFFFFFFFFFFFFFFFFFFFFFFFFFFFFF AND PUSH20 0xFFFFFFFFFFFFFFFFFFFFFFFFFFFFFFFFFFFFFFFF AND DUP2 MSTORE PUSH1 0x20 ADD SWAP1 DUP2 MSTORE PUSH1 0x20 ADD PUSH1 0x0 KECCAK256 PUSH1 0x2 ADD SWAP1 DUP1 MLOAD SWAP1 PUSH1 0x20 ADD SWAP1 PUSH2 0x7B3 SWAP3 SWAP2 SWAP1 PUSH2 0x9B7 JUMP JUMPDEST POP DUP4 PUSH1 0x1 PUSH1 0x0 DUP11 PUSH20 0xFFFFFFFFFFFFFFFFFFFFFFFFFFFFFFFFFFFFFFFF AND PUSH20 0xFFFFFFFFFFFFFFFFFFFFFFFFFFFFFFFFFFFFFFFF AND DUP2 MSTORE PUSH1 0x20 ADD SWAP1 DUP2 MSTORE PUSH1 0x20 ADD PUSH1 0x0 KECCAK256 PUSH1 0x3 ADD SWAP1 DUP1 MLOAD SWAP1 PUSH1 0x20 ADD SWAP1 PUSH2 0x80A SWAP3 SWAP2 SWAP1 PUSH2 0x9B7 JUMP JUMPDEST POP DUP3 PUSH1 0x1 PUSH1 0x0 DUP11 PUSH20 0xFFFFFFFFFFFFFFFFFFFFFFFFFFFFFFFFFFFFFFFF AND PUSH20 0xFFFFFFFFFFFFFFFFFFFFFFFFFFFFFFFFFFFFFFFF AND DUP2 MSTORE PUSH1 0x20 ADD SWAP1 DUP2 MSTORE PUSH1 0x20 ADD PUSH1 0x0 KECCAK256 PUSH1 0x4 ADD SWAP1 DUP1 MLOAD SWAP1 PUSH1 0x20 ADD SWAP1 PUSH2 0x861 SWAP3 SWAP2 SWAP1 PUSH2 0x9B7 JUMP JUMPDEST POP DUP2 PUSH1 0x1 PUSH1 0x0 DUP11 PUSH20 0xFFFFFFFFFFFFFFFFFFFFFFFFFFFFFFFFFFFFFFFF AND PUSH20 0xFFFFFFFFFFFFFFFFFFFFFFFFFFFFFFFFFFFFFFFF AND DUP2 MSTORE PUSH1 0x20 ADD SWAP1 DUP2 MSTORE PUSH1 0x20 ADD PUSH1 0x0 KECCAK256 PUSH1 0x5 ADD DUP2 SWAP1 SSTORE POP PUSH1 0x2 DUP9 SWAP1 DUP1 PUSH1 0x1 DUP2 SLOAD ADD DUP1 DUP3 SSTORE DUP1 SWAP2 POP POP PUSH1 0x1 SWAP1 SUB SWAP1 PUSH1 0x0 MSTORE PUSH1 0x20 PUSH1 0x0 KECCAK256 ADD PUSH1 0x0 SWAP1 SWAP2 SWAP1 SWAP2 SWAP1 SWAP2 PUSH2 0x100 EXP DUP2 SLOAD DUP2 PUSH20 0xFFFFFFFFFFFFFFFFFFFFFFFFFFFFFFFFFFFFFFFF MUL NOT AND SWAP1 DUP4 PUSH20 0xFFFFFFFFFFFFFFFFFFFFFFFFFFFFFFFFFFFFFFFF AND MUL OR SWAP1 SSTORE POP SWAP8 SWAP7 POP POP POP POP POP POP POP JUMP JUMPDEST PUSH1 0x0 DUP1 PUSH1 0x0 SWAP1 POP PUSH1 0x2 DUP1 SLOAD SWAP1 POP DUP2 GT PUSH2 0x9B0 JUMPI PUSH1 0x2 DUP2 DUP2 SLOAD DUP2 LT PUSH2 0x93E JUMPI PUSH2 0x93D PUSH2 0xF15 JUMP JUMPDEST JUMPDEST SWAP1 PUSH1 0x0 MSTORE PUSH1 0x20 PUSH1 0x0 KECCAK256 ADD PUSH1 0x0 SWAP1 SLOAD SWAP1 PUSH2 0x100 EXP SWAP1 DIV PUSH20 0xFFFFFFFFFFFFFFFFFFFFFFFFFFFFFFFFFFFFFFFF AND PUSH20 0xFFFFFFFFFFFFFFFFFFFFFFFFFFFFFFFFFFFFFFFF AND DUP4 PUSH20 0xFFFFFFFFFFFFFFFFFFFFFFFFFFFFFFFFFFFFFFFF AND EQ ISZERO PUSH2 0x9A6 JUMPI PUSH1 0x1 SWAP2 POP POP PUSH2 0x9B2 JUMP JUMPDEST PUSH1 0x0 SWAP2 POP POP PUSH2 0x9B2 JUMP JUMPDEST POP JUMPDEST SWAP2 SWAP1 POP JUMP JUMPDEST DUP3 DUP1 SLOAD PUSH2 0x9C3 SWAP1 PUSH2 0xE83 JUMP JUMPDEST SWAP1 PUSH1 0x0 MSTORE PUSH1 0x20 PUSH1 0x0 KECCAK256 SWAP1 PUSH1 0x1F ADD PUSH1 0x20 SWAP1 DIV DUP2 ADD SWAP3 DUP3 PUSH2 0x9E5 JUMPI PUSH1 0x0 DUP6 SSTORE PUSH2 0xA2C JUMP JUMPDEST DUP3 PUSH1 0x1F LT PUSH2 0x9FE JUMPI DUP1 MLOAD PUSH1 0xFF NOT AND DUP4 DUP1 ADD OR DUP6 SSTORE PUSH2 0xA2C JUMP JUMPDEST DUP3 DUP1 ADD PUSH1 0x1 ADD DUP6 SSTORE DUP3 ISZERO PUSH2 0xA2C JUMPI SWAP2 DUP3 ADD JUMPDEST DUP3 DUP2 GT ISZERO PUSH2 0xA2B JUMPI DUP3 MLOAD DUP3 SSTORE SWAP2 PUSH1 0x20 ADD SWAP2 SWAP1 PUSH1 0x1 ADD SWAP1 PUSH2 0xA10 JUMP JUMPDEST JUMPDEST POP SWAP1 POP PUSH2 0xA39 SWAP2 SWAP1 PUSH2 0xA3D JUMP JUMPDEST POP SWAP1 JUMP JUMPDEST JUMPDEST DUP1 DUP3 GT ISZERO PUSH2 0xA56 JUMPI PUSH1 0x0 DUP2 PUSH1 0x0 SWAP1 SSTORE POP PUSH1 0x1 ADD PUSH2 0xA3E JUMP JUMPDEST POP SWAP1 JUMP JUMPDEST PUSH1 0x0 PUSH2 0xA6D PUSH2 0xA68 DUP5 PUSH2 0xDAC JUMP JUMPDEST PUSH2 0xD87 JUMP JUMPDEST SWAP1 POP DUP3 DUP2 MSTORE PUSH1 0x20 DUP2 ADD DUP5 DUP5 DUP5 ADD GT ISZERO PUSH2 0xA89 JUMPI PUSH2 0xA88 PUSH2 0xF78 JUMP JUMPDEST JUMPDEST PUSH2 0xA94 DUP5 DUP3 DUP6 PUSH2 0xE41 JUMP JUMPDEST POP SWAP4 SWAP3 POP POP POP JUMP JUMPDEST PUSH1 0x0 DUP2 CALLDATALOAD SWAP1 POP PUSH2 0xAAB DUP2 PUSH2 0xF98 JUMP JUMPDEST SWAP3 SWAP2 POP POP JUMP JUMPDEST PUSH1 0x0 DUP3 PUSH1 0x1F DUP4 ADD SLT PUSH2 0xAC6 JUMPI PUSH2 0xAC5 PUSH2 0xF73 JUMP JUMPDEST JUMPDEST DUP2 CALLDATALOAD PUSH2 0xAD6 DUP5 DUP3 PUSH1 0x20 DUP7 ADD PUSH2 0xA5A JUMP JUMPDEST SWAP2 POP POP SWAP3 SWAP2 POP POP JUMP JUMPDEST PUSH1 0x0 DUP2 CALLDATALOAD SWAP1 POP PUSH2 0xAEE DUP2 PUSH2 0xFAF JUMP JUMPDEST SWAP3 SWAP2 POP POP JUMP JUMPDEST PUSH1 0x0 PUSH1 0x20 DUP3 DUP5 SUB SLT ISZERO PUSH2 0xB0A JUMPI PUSH2 0xB09 PUSH2 0xF82 JUMP JUMPDEST JUMPDEST PUSH1 0x0 PUSH2 0xB18 DUP5 DUP3 DUP6 ADD PUSH2 0xA9C JUMP JUMPDEST SWAP2 POP POP SWAP3 SWAP2 POP POP JUMP JUMPDEST PUSH1 0x0 DUP1 PUSH1 0x0 DUP1 PUSH1 0x0 DUP1 PUSH1 0x0 PUSH1 0xE0 DUP9 DUP11 SUB SLT ISZERO PUSH2 0xB40 JUMPI PUSH2 0xB3F PUSH2 0xF82 JUMP JUMPDEST JUMPDEST PUSH1 0x0 PUSH2 0xB4E DUP11 DUP3 DUP12 ADD PUSH2 0xA9C JUMP JUMPDEST SWAP8 POP POP PUSH1 0x20 DUP9 ADD CALLDATALOAD PUSH8 0xFFFFFFFFFFFFFFFF DUP2 GT ISZERO PUSH2 0xB6F JUMPI PUSH2 0xB6E PUSH2 0xF7D JUMP JUMPDEST JUMPDEST PUSH2 0xB7B DUP11 DUP3 DUP12 ADD PUSH2 0xAB1 JUMP JUMPDEST SWAP7 POP POP PUSH1 0x40 PUSH2 0xB8C DUP11 DUP3 DUP12 ADD PUSH2 0xADF JUMP JUMPDEST SWAP6 POP POP PUSH1 0x60 DUP9 ADD CALLDATALOAD PUSH8 0xFFFFFFFFFFFFFFFF DUP2 GT ISZERO PUSH2 0xBAD JUMPI PUSH2 0xBAC PUSH2 0xF7D JUMP JUMPDEST JUMPDEST PUSH2 0xBB9 DUP11 DUP3 DUP12 ADD PUSH2 0xAB1 JUMP JUMPDEST SWAP5 POP POP PUSH1 0x80 DUP9 ADD CALLDATALOAD PUSH8 0xFFFFFFFFFFFFFFFF DUP2 GT ISZERO PUSH2 0xBDA JUMPI PUSH2 0xBD9 PUSH2 0xF7D JUMP JUMPDEST JUMPDEST PUSH2 0xBE6 DUP11 DUP3 DUP12 ADD PUSH2 0xAB1 JUMP JUMPDEST SWAP4 POP POP PUSH1 0xA0 DUP9 ADD CALLDATALOAD PUSH8 0xFFFFFFFFFFFFFFFF DUP2 GT ISZERO PUSH2 0xC07 JUMPI PUSH2 0xC06 PUSH2 0xF7D JUMP JUMPDEST JUMPDEST PUSH2 0xC13 DUP11 DUP3 DUP12 ADD PUSH2 0xAB1 JUMP JUMPDEST SWAP3 POP POP PUSH1 0xC0 PUSH2 0xC24 DUP11 DUP3 DUP12 ADD PUSH2 0xADF JUMP JUMPDEST SWAP2 POP POP SWAP3 SWAP6 SWAP9 SWAP2 SWAP5 SWAP8 POP SWAP3 SWAP6 POP JUMP JUMPDEST PUSH1 0x0 PUSH1 0x20 DUP3 DUP5 SUB SLT ISZERO PUSH2 0xC49 JUMPI PUSH2 0xC48 PUSH2 0xF82 JUMP JUMPDEST JUMPDEST PUSH1 0x0 PUSH2 0xC57 DUP5 DUP3 DUP6 ADD PUSH2 0xADF JUMP JUMPDEST SWAP2 POP POP SWAP3 SWAP2 POP POP JUMP JUMPDEST PUSH2 0xC69 DUP2 PUSH2 0xDF9 JUMP JUMPDEST DUP3 MSTORE POP POP JUMP JUMPDEST PUSH2 0xC78 DUP2 PUSH2 0xE0B JUMP JUMPDEST DUP3 MSTORE POP POP JUMP JUMPDEST PUSH1 0x0 PUSH2 0xC89 DUP3 PUSH2 0xDDD JUMP JUMPDEST PUSH2 0xC93 DUP2 DUP6 PUSH2 0xDE8 JUMP JUMPDEST SWAP4 POP PUSH2 0xCA3 DUP2 DUP6 PUSH1 0x20 DUP7 ADD PUSH2 0xE50 JUMP JUMPDEST PUSH2 0xCAC DUP2 PUSH2 0xF87 JUMP JUMPDEST DUP5 ADD SWAP2 POP POP SWAP3 SWAP2 POP POP JUMP JUMPDEST PUSH2 0xCC0 DUP2 PUSH2 0xE37 JUMP JUMPDEST DUP3 MSTORE POP POP JUMP JUMPDEST PUSH1 0x0 PUSH1 0x20 DUP3 ADD SWAP1 POP PUSH2 0xCDB PUSH1 0x0 DUP4 ADD DUP5 PUSH2 0xC60 JUMP JUMPDEST SWAP3 SWAP2 POP POP JUMP JUMPDEST PUSH1 0x0 PUSH1 0x20 DUP3 ADD SWAP1 POP PUSH2 0xCF6 PUSH1 0x0 DUP4 ADD DUP5 PUSH2 0xC6F JUMP JUMPDEST SWAP3 SWAP2 POP POP JUMP JUMPDEST PUSH1 0x0 PUSH1 0xE0 DUP3 ADD SWAP1 POP DUP2 DUP2 SUB PUSH1 0x0 DUP4 ADD MSTORE PUSH2 0xD16 DUP2 DUP11 PUSH2 0xC7E JUMP JUMPDEST SWAP1 POP PUSH2 0xD25 PUSH1 0x20 DUP4 ADD DUP10 PUSH2 0xCB7 JUMP JUMPDEST DUP2 DUP2 SUB PUSH1 0x40 DUP4 ADD MSTORE PUSH2 0xD37 DUP2 DUP9 PUSH2 0xC7E JUMP JUMPDEST SWAP1 POP DUP2 DUP2 SUB PUSH1 0x60 DUP4 ADD MSTORE PUSH2 0xD4B DUP2 DUP8 PUSH2 0xC7E JUMP JUMPDEST SWAP1 POP DUP2 DUP2 SUB PUSH1 0x80 DUP4 ADD MSTORE PUSH2 0xD5F DUP2 DUP7 PUSH2 0xC7E JUMP JUMPDEST SWAP1 POP PUSH2 0xD6E PUSH1 0xA0 DUP4 ADD DUP6 PUSH2 0xCB7 JUMP JUMPDEST PUSH2 0xD7B PUSH1 0xC0 DUP4 ADD DUP5 PUSH2 0xC6F JUMP JUMPDEST SWAP9 SWAP8 POP POP POP POP POP POP POP POP JUMP JUMPDEST PUSH1 0x0 PUSH2 0xD91 PUSH2 0xDA2 JUMP JUMPDEST SWAP1 POP PUSH2 0xD9D DUP3 DUP3 PUSH2 0xEB5 JUMP JUMPDEST SWAP2 SWAP1 POP JUMP JUMPDEST PUSH1 0x0 PUSH1 0x40 MLOAD SWAP1 POP SWAP1 JUMP JUMPDEST PUSH1 0x0 PUSH8 0xFFFFFFFFFFFFFFFF DUP3 GT ISZERO PUSH2 0xDC7 JUMPI PUSH2 0xDC6 PUSH2 0xF44 JUMP JUMPDEST JUMPDEST PUSH2 0xDD0 DUP3 PUSH2 0xF87 JUMP JUMPDEST SWAP1 POP PUSH1 0x20 DUP2 ADD SWAP1 POP SWAP2 SWAP1 POP JUMP JUMPDEST PUSH1 0x0 DUP2 MLOAD SWAP1 POP SWAP2 SWAP1 POP JUMP JUMPDEST PUSH1 0x0 DUP3 DUP3 MSTORE PUSH1 0x20 DUP3 ADD SWAP1 POP SWAP3 SWAP2 POP POP JUMP JUMPDEST PUSH1 0x0 PUSH2 0xE04 DUP3 PUSH2 0xE17 JUMP JUMPDEST SWAP1 POP SWAP2 SWAP1 POP JUMP JUMPDEST PUSH1 0x0 DUP2 ISZERO ISZERO SWAP1 POP SWAP2 SWAP1 POP JUMP JUMPDEST PUSH1 0x0 PUSH20 0xFFFFFFFFFFFFFFFFFFFFFFFFFFFFFFFFFFFFFFFF DUP3 AND SWAP1 POP SWAP2 SWAP1 POP JUMP JUMPDEST PUSH1 0x0 DUP2 SWAP1 POP SWAP2 SWAP1 POP JUMP JUMPDEST DUP3 DUP2 DUP4 CALLDATACOPY PUSH1 0x0 DUP4 DUP4 ADD MSTORE POP POP POP JUMP JUMPDEST PUSH1 0x0 JUMPDEST DUP4 DUP2 LT ISZERO PUSH2 0xE6E JUMPI DUP1 DUP3 ADD MLOAD DUP2 DUP5 ADD MSTORE PUSH1 0x20 DUP2 ADD SWAP1 POP PUSH2 0xE53 JUMP JUMPDEST DUP4 DUP2 GT ISZERO PUSH2 0xE7D JUMPI PUSH1 0x0 DUP5 DUP5 ADD MSTORE JUMPDEST POP POP POP POP JUMP JUMPDEST PUSH1 0x0 PUSH1 0x2 DUP3 DIV SWAP1 POP PUSH1 0x1 DUP3 AND DUP1 PUSH2 0xE9B JUMPI PUSH1 0x7F DUP3 AND SWAP2 POP JUMPDEST PUSH1 0x20 DUP3 LT DUP2 EQ ISZERO PUSH2 0xEAF JUMPI PUSH2 0xEAE PUSH2 0xEE6 JUMP JUMPDEST JUMPDEST POP SWAP2 SWAP1 POP JUMP JUMPDEST PUSH2 0xEBE DUP3 PUSH2 0xF87 JUMP JUMPDEST DUP2 ADD DUP2 DUP2 LT PUSH8 0xFFFFFFFFFFFFFFFF DUP3 GT OR ISZERO PUSH2 0xEDD JUMPI PUSH2 0xEDC PUSH2 0xF44 JUMP JUMPDEST JUMPDEST DUP1 PUSH1 0x40 MSTORE POP POP POP JUMP JUMPDEST PUSH32 0x4E487B7100000000000000000000000000000000000000000000000000000000 PUSH1 0x0 MSTORE PUSH1 0x22 PUSH1 0x4 MSTORE PUSH1 0x24 PUSH1 0x0 REVERT JUMPDEST PUSH32 0x4E487B7100000000000000000000000000000000000000000000000000000000 PUSH1 0x0 MSTORE PUSH1 0x32 PUSH1 0x4 MSTORE PUSH1 0x24 PUSH1 0x0 REVERT JUMPDEST PUSH32 0x4E487B7100000000000000000000000000000000000000000000000000000000 PUSH1 0x0 MSTORE PUSH1 0x41 PUSH1 0x4 MSTORE PUSH1 0x24 PUSH1 0x0 REVERT JUMPDEST PUSH1 0x0 DUP1 REVERT JUMPDEST PUSH1 0x0 DUP1 REVERT JUMPDEST PUSH1 0x0 DUP1 REVERT JUMPDEST PUSH1 0x0 DUP1 REVERT JUMPDEST PUSH1 0x0 PUSH1 0x1F NOT PUSH1 0x1F DUP4 ADD AND SWAP1 POP SWAP2 SWAP1 POP JUMP JUMPDEST PUSH2 0xFA1 DUP2 PUSH2 0xDF9 JUMP JUMPDEST DUP2 EQ PUSH2 0xFAC JUMPI PUSH1 0x0 DUP1 REVERT JUMPDEST POP JUMP JUMPDEST PUSH2 0xFB8 DUP2 PUSH2 0xE37 JUMP JUMPDEST DUP2 EQ PUSH2 0xFC3 JUMPI PUSH1 0x0 DUP1 REVERT JUMPDEST POP JUMP INVALID LOG2 PUSH5 0x6970667358 0x22 SLT KECCAK256 0xE2 MLOAD ISZERO 0x2B 0x4D 0xDA EXP 0x4A 0xBE 0xF9 DUP16 0xB5 GT 0xB7 0xE3 0xB6 0xB7 0x29 ISZERO STOP 0xBD DIV 0x24 SWAP6 MSIZE ADD 0x2F 0xE PUSH11 0x92211064736F6C63430008 SMOD STOP CALLER "
				},
				"gasEstimates": {
					"creation": {
						"codeDepositCost": "818400",
						"executionCost": "851",
						"totalCost": "819251"
					},
					"external": {
						"PubKeyInstitutionInfoMap(address)": "infinite",
						"initInstitutionMap(address,string,uint256,string,string,string,uint256)": "infinite",
						"institutionBlockAddressArray(uint256)": "4978",
						"institutionInfoMap(uint256)": "infinite",
						"isExistInstitution(address)": "7232"
					}
				},
				"methodIdentifiers": {
					"PubKeyInstitutionInfoMap(address)": "827e0c99",
					"initInstitutionMap(address,string,uint256,string,string,string,uint256)": "c9a52910",
					"institutionBlockAddressArray(uint256)": "c5d25fa9",
					"institutionInfoMap(uint256)": "643f7536",
					"isExistInstitution(address)": "dfc56c3e"
				}
			},
			"storageLayout": {
				"storage": [
					{
						"astId": 20,
						"contract": "contracts/EduID_contract.sol:ISSC",
						"label": "institutionInfoMap",
						"offset": 0,
						"slot": "0",
						"type": "t_array(t_struct(InstitutionInfo)16_storage)dyn_storage"
					},
					{
						"astId": 25,
						"contract": "contracts/EduID_contract.sol:ISSC",
						"label": "PubKeyInstitutionInfoMap",
						"offset": 0,
						"slot": "1",
						"type": "t_mapping(t_address,t_struct(InstitutionInfo)16_storage)"
					},
					{
						"astId": 28,
						"contract": "contracts/EduID_contract.sol:ISSC",
						"label": "institutionBlockAddressArray",
						"offset": 0,
						"slot": "2",
						"type": "t_array(t_address)dyn_storage"
					}
				],
				"types": {
					"t_address": {
						"encoding": "inplace",
						"label": "address",
						"numberOfBytes": "20"
					},
					"t_array(t_address)dyn_storage": {
						"base": "t_address",
						"encoding": "dynamic_array",
						"label": "address[]",
						"numberOfBytes": "32"
					},
					"t_array(t_struct(InstitutionInfo)16_storage)dyn_storage": {
						"base": "t_struct(InstitutionInfo)16_storage",
						"encoding": "dynamic_array",
						"label": "struct ISSC.InstitutionInfo[]",
						"numberOfBytes": "32"
					},
					"t_bool": {
						"encoding": "inplace",
						"label": "bool",
						"numberOfBytes": "1"
					},
					"t_mapping(t_address,t_struct(InstitutionInfo)16_storage)": {
						"encoding": "mapping",
						"key": "t_address",
						"label": "mapping(address => struct ISSC.InstitutionInfo)",
						"numberOfBytes": "32",
						"value": "t_struct(InstitutionInfo)16_storage"
					},
					"t_string_storage": {
						"encoding": "bytes",
						"label": "string",
						"numberOfBytes": "32"
					},
					"t_struct(InstitutionInfo)16_storage": {
						"encoding": "inplace",
						"label": "struct ISSC.InstitutionInfo",
						"members": [
							{
								"astId": 3,
								"contract": "contracts/EduID_contract.sol:ISSC",
								"label": "namaInstitusi",
								"offset": 0,
								"slot": "0",
								"type": "t_string_storage"
							},
							{
								"astId": 5,
								"contract": "contracts/EduID_contract.sol:ISSC",
								"label": "NPSN",
								"offset": 0,
								"slot": "1",
								"type": "t_uint256"
							},
							{
								"astId": 7,
								"contract": "contracts/EduID_contract.sol:ISSC",
								"label": "akreditasi",
								"offset": 0,
								"slot": "2",
								"type": "t_string_storage"
							},
							{
								"astId": 9,
								"contract": "contracts/EduID_contract.sol:ISSC",
								"label": "jenisSekolah",
								"offset": 0,
								"slot": "3",
								"type": "t_string_storage"
							},
							{
								"astId": 11,
								"contract": "contracts/EduID_contract.sol:ISSC",
								"label": "alamatInstitusi",
								"offset": 0,
								"slot": "4",
								"type": "t_string_storage"
							},
							{
								"astId": 13,
								"contract": "contracts/EduID_contract.sol:ISSC",
								"label": "nomorTelepon",
								"offset": 0,
								"slot": "5",
								"type": "t_uint256"
							},
							{
								"astId": 15,
								"contract": "contracts/EduID_contract.sol:ISSC",
								"label": "agreeToJoin",
								"offset": 0,
								"slot": "6",
								"type": "t_bool"
							}
						],
						"numberOfBytes": "224"
					},
					"t_uint256": {
						"encoding": "inplace",
						"label": "uint256",
						"numberOfBytes": "32"
					}
				}
			},
			"userdoc": {
				"kind": "user",
				"methods": {},
				"version": 1
			}
		}
	}
}