{
	"contracts/EduID_contract.sol": {
		"ISSC": {
			"abi": [
				{
					"inputs": [
						{
							"internalType": "address",
							"name": "",
							"type": "address"
						}
					],
					"name": "PubKeyInstitutionInfoMap",
					"outputs": [
						{
							"internalType": "string",
							"name": "namaInstitusi",
							"type": "string"
						},
						{
							"internalType": "uint256",
							"name": "NPSN",
							"type": "uint256"
						},
						{
							"internalType": "string",
							"name": "akreditasi",
							"type": "string"
						},
						{
							"internalType": "string",
							"name": "jenisSekolah",
							"type": "string"
						},
						{
							"internalType": "string",
							"name": "alamatInstitusi",
							"type": "string"
						},
						{
							"internalType": "uint256",
							"name": "nomorTelepon",
							"type": "uint256"
						}
					],
					"stateMutability": "view",
					"type": "function"
				},
				{
					"inputs": [
						{
							"internalType": "address",
							"name": "blockAddress",
							"type": "address"
						},
						{
							"internalType": "string",
							"name": "_namaInstitusi",
							"type": "string"
						},
						{
							"internalType": "uint256",
							"name": "_NPSN",
							"type": "uint256"
						},
						{
							"internalType": "string",
							"name": "_akreditasi",
							"type": "string"
						},
						{
							"internalType": "string",
							"name": "_jenisSekolah",
							"type": "string"
						},
						{
							"internalType": "string",
							"name": "_alamatInstitusi",
							"type": "string"
						},
						{
							"internalType": "uint256",
							"name": "_nomorTelepon",
							"type": "uint256"
						}
					],
					"name": "initInstitutionMap",
					"outputs": [
						{
							"internalType": "bool",
							"name": "",
							"type": "bool"
						}
					],
					"stateMutability": "nonpayable",
					"type": "function"
				},
				{
					"inputs": [
						{
							"internalType": "uint256",
							"name": "",
							"type": "uint256"
						}
					],
					"name": "institutionBlockAddressArray",
					"outputs": [
						{
							"internalType": "address",
							"name": "",
							"type": "address"
						}
					],
					"stateMutability": "view",
					"type": "function"
				},
				{
					"inputs": [
						{
							"internalType": "uint256",
							"name": "",
							"type": "uint256"
						}
					],
					"name": "institutionInfoMap",
					"outputs": [
						{
							"internalType": "string",
							"name": "namaInstitusi",
							"type": "string"
						},
						{
							"internalType": "uint256",
							"name": "NPSN",
							"type": "uint256"
						},
						{
							"internalType": "string",
							"name": "akreditasi",
							"type": "string"
						},
						{
							"internalType": "string",
							"name": "jenisSekolah",
							"type": "string"
						},
						{
							"internalType": "string",
							"name": "alamatInstitusi",
							"type": "string"
						},
						{
							"internalType": "uint256",
							"name": "nomorTelepon",
							"type": "uint256"
						}
					],
					"stateMutability": "view",
					"type": "function"
				},
				{
					"inputs": [
						{
							"internalType": "address",
							"name": "_blockAddress",
							"type": "address"
						}
					],
					"name": "isExistInstitution",
					"outputs": [
						{
							"internalType": "bool",
							"name": "",
							"type": "bool"
						}
					],
					"stateMutability": "view",
					"type": "function"
				}
			],
			"devdoc": {
				"kind": "dev",
				"methods": {},
				"version": 1
			},
			"evm": {
				"assembly": "    /* \"contracts/EduID_contract.sol\":70:2574  contract ISSC {\r... */\n  mstore(0x40, 0x80)\n  callvalue\n  dup1\n  iszero\n  tag_1\n  jumpi\n  0x00\n  dup1\n  revert\ntag_1:\n  pop\n  dataSize(sub_0)\n  dup1\n  dataOffset(sub_0)\n  0x00\n  codecopy\n  0x00\n  return\nstop\n\nsub_0: assembly {\n        /* \"contracts/EduID_contract.sol\":70:2574  contract ISSC {\r... */\n      mstore(0x40, 0x80)\n      callvalue\n      dup1\n      iszero\n      tag_1\n      jumpi\n      0x00\n      dup1\n      revert\n    tag_1:\n      pop\n      jumpi(tag_2, lt(calldatasize, 0x04))\n      shr(0xe0, calldataload(0x00))\n      dup1\n      0x643f7536\n      eq\n      tag_3\n      jumpi\n      dup1\n      0x827e0c99\n      eq\n      tag_4\n      jumpi\n      dup1\n      0xc5d25fa9\n      eq\n      tag_5\n      jumpi\n      dup1\n      0xc9a52910\n      eq\n      tag_6\n      jumpi\n      dup1\n      0xdfc56c3e\n      eq\n      tag_7\n      jumpi\n    tag_2:\n      0x00\n      dup1\n      revert\n        /* \"contracts/EduID_contract.sol\":299:342  InstitutionInfo[] public institutionInfoMap */\n    tag_3:\n      tag_8\n      0x04\n      dup1\n      calldatasize\n      sub\n      dup2\n      add\n      swap1\n      tag_9\n      swap2\n      swap1\n      tag_10\n      jump\t// in\n    tag_9:\n      tag_11\n      jump\t// in\n    tag_8:\n      mload(0x40)\n      tag_12\n      swap7\n      swap6\n      swap5\n      swap4\n      swap3\n      swap2\n      swap1\n      tag_13\n      jump\t// in\n    tag_12:\n      mload(0x40)\n      dup1\n      swap2\n      sub\n      swap1\n      return\n        /* \"contracts/EduID_contract.sol\":395:462  mapping(address => InstitutionInfo) public PubKeyInstitutionInfoMap */\n    tag_4:\n      tag_14\n      0x04\n      dup1\n      calldatasize\n      sub\n      dup2\n      add\n      swap1\n      tag_15\n      swap2\n      swap1\n      tag_16\n      jump\t// in\n    tag_15:\n      tag_17\n      jump\t// in\n    tag_14:\n      mload(0x40)\n      tag_18\n      swap7\n      swap6\n      swap5\n      swap4\n      swap3\n      swap2\n      swap1\n      tag_13\n      jump\t// in\n    tag_18:\n      mload(0x40)\n      dup1\n      swap2\n      sub\n      swap1\n      return\n        /* \"contracts/EduID_contract.sol\":469:514  address[] public institutionBlockAddressArray */\n    tag_5:\n      tag_19\n      0x04\n      dup1\n      calldatasize\n      sub\n      dup2\n      add\n      swap1\n      tag_20\n      swap2\n      swap1\n      tag_10\n      jump\t// in\n    tag_20:\n      tag_21\n      jump\t// in\n    tag_19:\n      mload(0x40)\n      tag_22\n      swap2\n      swap1\n      tag_23\n      jump\t// in\n    tag_22:\n      mload(0x40)\n      dup1\n      swap2\n      sub\n      swap1\n      return\n        /* \"contracts/EduID_contract.sol\":523:1953  function initInstitutionMap(\r... */\n    tag_6:\n      tag_24\n      0x04\n      dup1\n      calldatasize\n      sub\n      dup2\n      add\n      swap1\n      tag_25\n      swap2\n      swap1\n      tag_26\n      jump\t// in\n    tag_25:\n      tag_27\n      jump\t// in\n    tag_24:\n      mload(0x40)\n      tag_28\n      swap2\n      swap1\n      tag_29\n      jump\t// in\n    tag_28:\n      mload(0x40)\n      dup1\n      swap2\n      sub\n      swap1\n      return\n        /* \"contracts/EduID_contract.sol\":2260:2571  function isExistInstitution(address _blockAddress) public view returns (bool) {\r... */\n    tag_7:\n      tag_30\n      0x04\n      dup1\n      calldatasize\n      sub\n      dup2\n      add\n      swap1\n      tag_31\n      swap2\n      swap1\n      tag_16\n      jump\t// in\n    tag_31:\n      tag_32\n      jump\t// in\n    tag_30:\n      mload(0x40)\n      tag_33\n      swap2\n      swap1\n      tag_29\n      jump\t// in\n    tag_33:\n      mload(0x40)\n      dup1\n      swap2\n      sub\n      swap1\n      return\n        /* \"contracts/EduID_contract.sol\":299:342  InstitutionInfo[] public institutionInfoMap */\n    tag_11:\n      0x00\n      dup2\n      dup2\n      sload\n      dup2\n      lt\n      tag_34\n      jumpi\n      0x00\n      dup1\n      revert\n    tag_34:\n      swap1\n      0x00\n      mstore\n      keccak256(0x00, 0x20)\n      swap1\n      0x06\n      mul\n      add\n      0x00\n      swap2\n      pop\n      swap1\n      pop\n      dup1\n      0x00\n      add\n      dup1\n      sload\n      tag_36\n      swap1\n      tag_37\n      jump\t// in\n    tag_36:\n      dup1\n      0x1f\n      add\n      0x20\n      dup1\n      swap2\n      div\n      mul\n      0x20\n      add\n      mload(0x40)\n      swap1\n      dup2\n      add\n      0x40\n      mstore\n      dup1\n      swap3\n      swap2\n      swap1\n      dup2\n      dup2\n      mstore\n      0x20\n      add\n      dup3\n      dup1\n      sload\n      tag_38\n      swap1\n      tag_37\n      jump\t// in\n    tag_38:\n      dup1\n      iszero\n      tag_39\n      jumpi\n      dup1\n      0x1f\n      lt\n      tag_40\n      jumpi\n      0x0100\n      dup1\n      dup4\n      sload\n      div\n      mul\n      dup4\n      mstore\n      swap2\n      0x20\n      add\n      swap2\n      jump(tag_39)\n    tag_40:\n      dup3\n      add\n      swap2\n      swap1\n      0x00\n      mstore\n      keccak256(0x00, 0x20)\n      swap1\n    tag_41:\n      dup2\n      sload\n      dup2\n      mstore\n      swap1\n      0x01\n      add\n      swap1\n      0x20\n      add\n      dup1\n      dup4\n      gt\n      tag_41\n      jumpi\n      dup3\n      swap1\n      sub\n      0x1f\n      and\n      dup3\n      add\n      swap2\n    tag_39:\n      pop\n      pop\n      pop\n      pop\n      pop\n      swap1\n      dup1\n      0x01\n      add\n      sload\n      swap1\n      dup1\n      0x02\n      add\n      dup1\n      sload\n      tag_42\n      swap1\n      tag_37\n      jump\t// in\n    tag_42:\n      dup1\n      0x1f\n      add\n      0x20\n      dup1\n      swap2\n      div\n      mul\n      0x20\n      add\n      mload(0x40)\n      swap1\n      dup2\n      add\n      0x40\n      mstore\n      dup1\n      swap3\n      swap2\n      swap1\n      dup2\n      dup2\n      mstore\n      0x20\n      add\n      dup3\n      dup1\n      sload\n      tag_43\n      swap1\n      tag_37\n      jump\t// in\n    tag_43:\n      dup1\n      iszero\n      tag_44\n      jumpi\n      dup1\n      0x1f\n      lt\n      tag_45\n      jumpi\n      0x0100\n      dup1\n      dup4\n      sload\n      div\n      mul\n      dup4\n      mstore\n      swap2\n      0x20\n      add\n      swap2\n      jump(tag_44)\n    tag_45:\n      dup3\n      add\n      swap2\n      swap1\n      0x00\n      mstore\n      keccak256(0x00, 0x20)\n      swap1\n    tag_46:\n      dup2\n      sload\n      dup2\n      mstore\n      swap1\n      0x01\n      add\n      swap1\n      0x20\n      add\n      dup1\n      dup4\n      gt\n      tag_46\n      jumpi\n      dup3\n      swap1\n      sub\n      0x1f\n      and\n      dup3\n      add\n      swap2\n    tag_44:\n      pop\n      pop\n      pop\n      pop\n      pop\n      swap1\n      dup1\n      0x03\n      add\n      dup1\n      sload\n      tag_47\n      swap1\n      tag_37\n      jump\t// in\n    tag_47:\n      dup1\n      0x1f\n      add\n      0x20\n      dup1\n      swap2\n      div\n      mul\n      0x20\n      add\n      mload(0x40)\n      swap1\n      dup2\n      add\n      0x40\n      mstore\n      dup1\n      swap3\n      swap2\n      swap1\n      dup2\n      dup2\n      mstore\n      0x20\n      add\n      dup3\n      dup1\n      sload\n      tag_48\n      swap1\n      tag_37\n      jump\t// in\n    tag_48:\n      dup1\n      iszero\n      tag_49\n      jumpi\n      dup1\n      0x1f\n      lt\n      tag_50\n      jumpi\n      0x0100\n      dup1\n      dup4\n      sload\n      div\n      mul\n      dup4\n      mstore\n      swap2\n      0x20\n      add\n      swap2\n      jump(tag_49)\n    tag_50:\n      dup3\n      add\n      swap2\n      swap1\n      0x00\n      mstore\n      keccak256(0x00, 0x20)\n      swap1\n    tag_51:\n      dup2\n      sload\n      dup2\n      mstore\n      swap1\n      0x01\n      add\n      swap1\n      0x20\n      add\n      dup1\n      dup4\n      gt\n      tag_51\n      jumpi\n      dup3\n      swap1\n      sub\n      0x1f\n      and\n      dup3\n      add\n      swap2\n    tag_49:\n      pop\n      pop\n      pop\n      pop\n      pop\n      swap1\n      dup1\n      0x04\n      add\n      dup1\n      sload\n      tag_52\n      swap1\n      tag_37\n      jump\t// in\n    tag_52:\n      dup1\n      0x1f\n      add\n      0x20\n      dup1\n      swap2\n      div\n      mul\n      0x20\n      add\n      mload(0x40)\n      swap1\n      dup2\n      add\n      0x40\n      mstore\n      dup1\n      swap3\n      swap2\n      swap1\n      dup2\n      dup2\n      mstore\n      0x20\n      add\n      dup3\n      dup1\n      sload\n      tag_53\n      swap1\n      tag_37\n      jump\t// in\n    tag_53:\n      dup1\n      iszero\n      tag_54\n      jumpi\n      dup1\n      0x1f\n      lt\n      tag_55\n      jumpi\n      0x0100\n      dup1\n      dup4\n      sload\n      div\n      mul\n      dup4\n      mstore\n      swap2\n      0x20\n      add\n      swap2\n      jump(tag_54)\n    tag_55:\n      dup3\n      add\n      swap2\n      swap1\n      0x00\n      mstore\n      keccak256(0x00, 0x20)\n      swap1\n    tag_56:\n      dup2\n      sload\n      dup2\n      mstore\n      swap1\n      0x01\n      add\n      swap1\n      0x20\n      add\n      dup1\n      dup4\n      gt\n      tag_56\n      jumpi\n      dup3\n      swap1\n      sub\n      0x1f\n      and\n      dup3\n      add\n      swap2\n    tag_54:\n      pop\n      pop\n      pop\n      pop\n      pop\n      swap1\n      dup1\n      0x05\n      add\n      sload\n      swap1\n      pop\n      dup7\n      jump\t// out\n        /* \"contracts/EduID_contract.sol\":395:462  mapping(address => InstitutionInfo) public PubKeyInstitutionInfoMap */\n    tag_17:\n      mstore(0x20, 0x01)\n      dup1\n      0x00\n      mstore\n      keccak256(0x00, 0x40)\n      0x00\n      swap2\n      pop\n      swap1\n      pop\n      dup1\n      0x00\n      add\n      dup1\n      sload\n      tag_57\n      swap1\n      tag_37\n      jump\t// in\n    tag_57:\n      dup1\n      0x1f\n      add\n      0x20\n      dup1\n      swap2\n      div\n      mul\n      0x20\n      add\n      mload(0x40)\n      swap1\n      dup2\n      add\n      0x40\n      mstore\n      dup1\n      swap3\n      swap2\n      swap1\n      dup2\n      dup2\n      mstore\n      0x20\n      add\n      dup3\n      dup1\n      sload\n      tag_58\n      swap1\n      tag_37\n      jump\t// in\n    tag_58:\n      dup1\n      iszero\n      tag_59\n      jumpi\n      dup1\n      0x1f\n      lt\n      tag_60\n      jumpi\n      0x0100\n      dup1\n      dup4\n      sload\n      div\n      mul\n      dup4\n      mstore\n      swap2\n      0x20\n      add\n      swap2\n      jump(tag_59)\n    tag_60:\n      dup3\n      add\n      swap2\n      swap1\n      0x00\n      mstore\n      keccak256(0x00, 0x20)\n      swap1\n    tag_61:\n      dup2\n      sload\n      dup2\n      mstore\n      swap1\n      0x01\n      add\n      swap1\n      0x20\n      add\n      dup1\n      dup4\n      gt\n      tag_61\n      jumpi\n      dup3\n      swap1\n      sub\n      0x1f\n      and\n      dup3\n      add\n      swap2\n    tag_59:\n      pop\n      pop\n      pop\n      pop\n      pop\n      swap1\n      dup1\n      0x01\n      add\n      sload\n      swap1\n      dup1\n      0x02\n      add\n      dup1\n      sload\n      tag_62\n      swap1\n      tag_37\n      jump\t// in\n    tag_62:\n      dup1\n      0x1f\n      add\n      0x20\n      dup1\n      swap2\n      div\n      mul\n      0x20\n      add\n      mload(0x40)\n      swap1\n      dup2\n      add\n      0x40\n      mstore\n      dup1\n      swap3\n      swap2\n      swap1\n      dup2\n      dup2\n      mstore\n      0x20\n      add\n      dup3\n      dup1\n      sload\n      tag_63\n      swap1\n      tag_37\n      jump\t// in\n    tag_63:\n      dup1\n      iszero\n      tag_64\n      jumpi\n      dup1\n      0x1f\n      lt\n      tag_65\n      jumpi\n      0x0100\n      dup1\n      dup4\n      sload\n      div\n      mul\n      dup4\n      mstore\n      swap2\n      0x20\n      add\n      swap2\n      jump(tag_64)\n    tag_65:\n      dup3\n      add\n      swap2\n      swap1\n      0x00\n      mstore\n      keccak256(0x00, 0x20)\n      swap1\n    tag_66:\n      dup2\n      sload\n      dup2\n      mstore\n      swap1\n      0x01\n      add\n      swap1\n      0x20\n      add\n      dup1\n      dup4\n      gt\n      tag_66\n      jumpi\n      dup3\n      swap1\n      sub\n      0x1f\n      and\n      dup3\n      add\n      swap2\n    tag_64:\n      pop\n      pop\n      pop\n      pop\n      pop\n      swap1\n      dup1\n      0x03\n      add\n      dup1\n      sload\n      tag_67\n      swap1\n      tag_37\n      jump\t// in\n    tag_67:\n      dup1\n      0x1f\n      add\n      0x20\n      dup1\n      swap2\n      div\n      mul\n      0x20\n      add\n      mload(0x40)\n      swap1\n      dup2\n      add\n      0x40\n      mstore\n      dup1\n      swap3\n      swap2\n      swap1\n      dup2\n      dup2\n      mstore\n      0x20\n      add\n      dup3\n      dup1\n      sload\n      tag_68\n      swap1\n      tag_37\n      jump\t// in\n    tag_68:\n      dup1\n      iszero\n      tag_69\n      jumpi\n      dup1\n      0x1f\n      lt\n      tag_70\n      jumpi\n      0x0100\n      dup1\n      dup4\n      sload\n      div\n      mul\n      dup4\n      mstore\n      swap2\n      0x20\n      add\n      swap2\n      jump(tag_69)\n    tag_70:\n      dup3\n      add\n      swap2\n      swap1\n      0x00\n      mstore\n      keccak256(0x00, 0x20)\n      swap1\n    tag_71:\n      dup2\n      sload\n      dup2\n      mstore\n      swap1\n      0x01\n      add\n      swap1\n      0x20\n      add\n      dup1\n      dup4\n      gt\n      tag_71\n      jumpi\n      dup3\n      swap1\n      sub\n      0x1f\n      and\n      dup3\n      add\n      swap2\n    tag_69:\n      pop\n      pop\n      pop\n      pop\n      pop\n      swap1\n      dup1\n      0x04\n      add\n      dup1\n      sload\n      tag_72\n      swap1\n      tag_37\n      jump\t// in\n    tag_72:\n      dup1\n      0x1f\n      add\n      0x20\n      dup1\n      swap2\n      div\n      mul\n      0x20\n      add\n      mload(0x40)\n      swap1\n      dup2\n      add\n      0x40\n      mstore\n      dup1\n      swap3\n      swap2\n      swap1\n      dup2\n      dup2\n      mstore\n      0x20\n      add\n      dup3\n      dup1\n      sload\n      tag_73\n      swap1\n      tag_37\n      jump\t// in\n    tag_73:\n      dup1\n      iszero\n      tag_74\n      jumpi\n      dup1\n      0x1f\n      lt\n      tag_75\n      jumpi\n      0x0100\n      dup1\n      dup4\n      sload\n      div\n      mul\n      dup4\n      mstore\n      swap2\n      0x20\n      add\n      swap2\n      jump(tag_74)\n    tag_75:\n      dup3\n      add\n      swap2\n      swap1\n      0x00\n      mstore\n      keccak256(0x00, 0x20)\n      swap1\n    tag_76:\n      dup2\n      sload\n      dup2\n      mstore\n      swap1\n      0x01\n      add\n      swap1\n      0x20\n      add\n      dup1\n      dup4\n      gt\n      tag_76\n      jumpi\n      dup3\n      swap1\n      sub\n      0x1f\n      and\n      dup3\n      add\n      swap2\n    tag_74:\n      pop\n      pop\n      pop\n      pop\n      pop\n      swap1\n      dup1\n      0x05\n      add\n      sload\n      swap1\n      pop\n      dup7\n      jump\t// out\n        /* \"contracts/EduID_contract.sol\":469:514  address[] public institutionBlockAddressArray */\n    tag_21:\n      0x02\n      dup2\n      dup2\n      sload\n      dup2\n      lt\n      tag_77\n      jumpi\n      0x00\n      dup1\n      revert\n    tag_77:\n      swap1\n      0x00\n      mstore\n      keccak256(0x00, 0x20)\n      add\n      0x00\n      swap2\n      pop\n      sload\n      swap1\n      0x0100\n      exp\n      swap1\n      div\n      0xffffffffffffffffffffffffffffffffffffffff\n      and\n      dup2\n      jump\t// out\n        /* \"contracts/EduID_contract.sol\":523:1953  function initInstitutionMap(\r... */\n    tag_27:\n        /* \"contracts/EduID_contract.sol\":804:808  bool */\n      0x00\n        /* \"contracts/EduID_contract.sol\":863:873  msg.sender */\n      caller\n        /* \"contracts/EduID_contract.sol\":847:873  blockAddress == msg.sender */\n      0xffffffffffffffffffffffffffffffffffffffff\n      and\n        /* \"contracts/EduID_contract.sol\":847:859  blockAddress */\n      dup9\n        /* \"contracts/EduID_contract.sol\":847:873  blockAddress == msg.sender */\n      0xffffffffffffffffffffffffffffffffffffffff\n      and\n      eq\n        /* \"contracts/EduID_contract.sol\":839:874  require(blockAddress == msg.sender) */\n      tag_80\n      jumpi\n      0x00\n      dup1\n      revert\n    tag_80:\n        /* \"contracts/EduID_contract.sol\":1399:1413  _namaInstitusi */\n      dup7\n        /* \"contracts/EduID_contract.sol\":1344:1368  PubKeyInstitutionInfoMap */\n      0x01\n        /* \"contracts/EduID_contract.sol\":1344:1382  PubKeyInstitutionInfoMap[blockAddress] */\n      0x00\n        /* \"contracts/EduID_contract.sol\":1369:1381  blockAddress */\n      dup11\n        /* \"contracts/EduID_contract.sol\":1344:1382  PubKeyInstitutionInfoMap[blockAddress] */\n      0xffffffffffffffffffffffffffffffffffffffff\n      and\n      0xffffffffffffffffffffffffffffffffffffffff\n      and\n      dup2\n      mstore\n      0x20\n      add\n      swap1\n      dup2\n      mstore\n      0x20\n      add\n      0x00\n      keccak256\n        /* \"contracts/EduID_contract.sol\":1344:1396  PubKeyInstitutionInfoMap[blockAddress].namaInstitusi */\n      0x00\n      add\n        /* \"contracts/EduID_contract.sol\":1344:1413  PubKeyInstitutionInfoMap[blockAddress].namaInstitusi = _namaInstitusi */\n      swap1\n      dup1\n      mload\n      swap1\n      0x20\n      add\n      swap1\n      tag_81\n      swap3\n      swap2\n      swap1\n      tag_82\n      jump\t// in\n    tag_81:\n      pop\n        /* \"contracts/EduID_contract.sol\":1474:1479  _NPSN */\n      dup6\n        /* \"contracts/EduID_contract.sol\":1428:1452  PubKeyInstitutionInfoMap */\n      0x01\n        /* \"contracts/EduID_contract.sol\":1428:1466  PubKeyInstitutionInfoMap[blockAddress] */\n      0x00\n        /* \"contracts/EduID_contract.sol\":1453:1465  blockAddress */\n      dup11\n        /* \"contracts/EduID_contract.sol\":1428:1466  PubKeyInstitutionInfoMap[blockAddress] */\n      0xffffffffffffffffffffffffffffffffffffffff\n      and\n      0xffffffffffffffffffffffffffffffffffffffff\n      and\n      dup2\n      mstore\n      0x20\n      add\n      swap1\n      dup2\n      mstore\n      0x20\n      add\n      0x00\n      keccak256\n        /* \"contracts/EduID_contract.sol\":1428:1471  PubKeyInstitutionInfoMap[blockAddress].NPSN */\n      0x01\n      add\n        /* \"contracts/EduID_contract.sol\":1428:1479  PubKeyInstitutionInfoMap[blockAddress].NPSN = _NPSN */\n      dup2\n      swap1\n      sstore\n      pop\n        /* \"contracts/EduID_contract.sol\":1546:1557  _akreditasi */\n      dup5\n        /* \"contracts/EduID_contract.sol\":1494:1518  PubKeyInstitutionInfoMap */\n      0x01\n        /* \"contracts/EduID_contract.sol\":1494:1532  PubKeyInstitutionInfoMap[blockAddress] */\n      0x00\n        /* \"contracts/EduID_contract.sol\":1519:1531  blockAddress */\n      dup11\n        /* \"contracts/EduID_contract.sol\":1494:1532  PubKeyInstitutionInfoMap[blockAddress] */\n      0xffffffffffffffffffffffffffffffffffffffff\n      and\n      0xffffffffffffffffffffffffffffffffffffffff\n      and\n      dup2\n      mstore\n      0x20\n      add\n      swap1\n      dup2\n      mstore\n      0x20\n      add\n      0x00\n      keccak256\n        /* \"contracts/EduID_contract.sol\":1494:1543  PubKeyInstitutionInfoMap[blockAddress].akreditasi */\n      0x02\n      add\n        /* \"contracts/EduID_contract.sol\":1494:1557  PubKeyInstitutionInfoMap[blockAddress].akreditasi = _akreditasi */\n      swap1\n      dup1\n      mload\n      swap1\n      0x20\n      add\n      swap1\n      tag_83\n      swap3\n      swap2\n      swap1\n      tag_82\n      jump\t// in\n    tag_83:\n      pop\n        /* \"contracts/EduID_contract.sol\":1626:1639  _jenisSekolah */\n      dup4\n        /* \"contracts/EduID_contract.sol\":1572:1596  PubKeyInstitutionInfoMap */\n      0x01\n        /* \"contracts/EduID_contract.sol\":1572:1610  PubKeyInstitutionInfoMap[blockAddress] */\n      0x00\n        /* \"contracts/EduID_contract.sol\":1597:1609  blockAddress */\n      dup11\n        /* \"contracts/EduID_contract.sol\":1572:1610  PubKeyInstitutionInfoMap[blockAddress] */\n      0xffffffffffffffffffffffffffffffffffffffff\n      and\n      0xffffffffffffffffffffffffffffffffffffffff\n      and\n      dup2\n      mstore\n      0x20\n      add\n      swap1\n      dup2\n      mstore\n      0x20\n      add\n      0x00\n      keccak256\n        /* \"contracts/EduID_contract.sol\":1572:1623  PubKeyInstitutionInfoMap[blockAddress].jenisSekolah */\n      0x03\n      add\n        /* \"contracts/EduID_contract.sol\":1572:1639  PubKeyInstitutionInfoMap[blockAddress].jenisSekolah = _jenisSekolah */\n      swap1\n      dup1\n      mload\n      swap1\n      0x20\n      add\n      swap1\n      tag_84\n      swap3\n      swap2\n      swap1\n      tag_82\n      jump\t// in\n    tag_84:\n      pop\n        /* \"contracts/EduID_contract.sol\":1711:1727  _alamatInstitusi */\n      dup3\n        /* \"contracts/EduID_contract.sol\":1654:1678  PubKeyInstitutionInfoMap */\n      0x01\n        /* \"contracts/EduID_contract.sol\":1654:1692  PubKeyInstitutionInfoMap[blockAddress] */\n      0x00\n        /* \"contracts/EduID_contract.sol\":1679:1691  blockAddress */\n      dup11\n        /* \"contracts/EduID_contract.sol\":1654:1692  PubKeyInstitutionInfoMap[blockAddress] */\n      0xffffffffffffffffffffffffffffffffffffffff\n      and\n      0xffffffffffffffffffffffffffffffffffffffff\n      and\n      dup2\n      mstore\n      0x20\n      add\n      swap1\n      dup2\n      mstore\n      0x20\n      add\n      0x00\n      keccak256\n        /* \"contracts/EduID_contract.sol\":1654:1708  PubKeyInstitutionInfoMap[blockAddress].alamatInstitusi */\n      0x04\n      add\n        /* \"contracts/EduID_contract.sol\":1654:1727  PubKeyInstitutionInfoMap[blockAddress].alamatInstitusi = _alamatInstitusi */\n      swap1\n      dup1\n      mload\n      swap1\n      0x20\n      add\n      swap1\n      tag_85\n      swap3\n      swap2\n      swap1\n      tag_82\n      jump\t// in\n    tag_85:\n      pop\n        /* \"contracts/EduID_contract.sol\":1796:1809  _nomorTelepon */\n      dup2\n        /* \"contracts/EduID_contract.sol\":1742:1766  PubKeyInstitutionInfoMap */\n      0x01\n        /* \"contracts/EduID_contract.sol\":1742:1780  PubKeyInstitutionInfoMap[blockAddress] */\n      0x00\n        /* \"contracts/EduID_contract.sol\":1767:1779  blockAddress */\n      dup11\n        /* \"contracts/EduID_contract.sol\":1742:1780  PubKeyInstitutionInfoMap[blockAddress] */\n      0xffffffffffffffffffffffffffffffffffffffff\n      and\n      0xffffffffffffffffffffffffffffffffffffffff\n      and\n      dup2\n      mstore\n      0x20\n      add\n      swap1\n      dup2\n      mstore\n      0x20\n      add\n      0x00\n      keccak256\n        /* \"contracts/EduID_contract.sol\":1742:1793  PubKeyInstitutionInfoMap[blockAddress].nomorTelepon */\n      0x05\n      add\n        /* \"contracts/EduID_contract.sol\":1742:1809  PubKeyInstitutionInfoMap[blockAddress].nomorTelepon = _nomorTelepon */\n      dup2\n      swap1\n      sstore\n      pop\n        /* \"contracts/EduID_contract.sol\":1864:1892  institutionBlockAddressArray */\n      0x02\n        /* \"contracts/EduID_contract.sol\":1898:1910  blockAddress */\n      dup9\n        /* \"contracts/EduID_contract.sol\":1864:1911  institutionBlockAddressArray.push(blockAddress) */\n      swap1\n      dup1\n      0x01\n      dup2\n      sload\n      add\n      dup1\n      dup3\n      sstore\n      dup1\n      swap2\n      pop\n      pop\n      0x01\n      swap1\n      sub\n      swap1\n      0x00\n      mstore\n      keccak256(0x00, 0x20)\n      add\n      0x00\n      swap1\n      swap2\n      swap1\n      swap2\n      swap1\n      swap2\n      0x0100\n      exp\n      dup2\n      sload\n      dup2\n      0xffffffffffffffffffffffffffffffffffffffff\n      mul\n      not\n      and\n      swap1\n      dup4\n      0xffffffffffffffffffffffffffffffffffffffff\n      and\n      mul\n      or\n      swap1\n      sstore\n      pop\n        /* \"contracts/EduID_contract.sol\":1935:1939  true */\n      0x01\n        /* \"contracts/EduID_contract.sol\":1928:1939  return true */\n      swap1\n      pop\n        /* \"contracts/EduID_contract.sol\":523:1953  function initInstitutionMap(\r... */\n      swap8\n      swap7\n      pop\n      pop\n      pop\n      pop\n      pop\n      pop\n      pop\n      jump\t// out\n        /* \"contracts/EduID_contract.sol\":2260:2571  function isExistInstitution(address _blockAddress) public view returns (bool) {\r... */\n    tag_32:\n        /* \"contracts/EduID_contract.sol\":2332:2336  bool */\n      0x00\n        /* \"contracts/EduID_contract.sol\":2354:2360  uint i */\n      dup1\n        /* \"contracts/EduID_contract.sol\":2361:2362  0 */\n      0x00\n        /* \"contracts/EduID_contract.sol\":2354:2362  uint i=0 */\n      swap1\n      pop\n        /* \"contracts/EduID_contract.sol\":2369:2397  institutionBlockAddressArray */\n      0x02\n        /* \"contracts/EduID_contract.sol\":2369:2404  institutionBlockAddressArray.length */\n      dup1\n      sload\n      swap1\n      pop\n        /* \"contracts/EduID_contract.sol\":2364:2365  i */\n      dup2\n        /* \"contracts/EduID_contract.sol\":2364:2404  i <= institutionBlockAddressArray.length */\n      gt\n        /* \"contracts/EduID_contract.sol\":2349:2564  for (uint i=0; i <= institutionBlockAddressArray.length; i++) {\r... */\n      tag_89\n      jumpi\n        /* \"contracts/EduID_contract.sol\":2447:2475  institutionBlockAddressArray */\n      0x02\n        /* \"contracts/EduID_contract.sol\":2476:2477  i */\n      dup2\n        /* \"contracts/EduID_contract.sol\":2447:2478  institutionBlockAddressArray[i] */\n      dup2\n      sload\n      dup2\n      lt\n      tag_91\n      jumpi\n      tag_92\n      tag_93\n      jump\t// in\n    tag_92:\n    tag_91:\n      swap1\n      0x00\n      mstore\n      keccak256(0x00, 0x20)\n      add\n      0x00\n      swap1\n      sload\n      swap1\n      0x0100\n      exp\n      swap1\n      div\n      0xffffffffffffffffffffffffffffffffffffffff\n      and\n        /* \"contracts/EduID_contract.sol\":2430:2478  _blockAddress == institutionBlockAddressArray[i] */\n      0xffffffffffffffffffffffffffffffffffffffff\n      and\n        /* \"contracts/EduID_contract.sol\":2430:2443  _blockAddress */\n      dup4\n        /* \"contracts/EduID_contract.sol\":2430:2478  _blockAddress == institutionBlockAddressArray[i] */\n      0xffffffffffffffffffffffffffffffffffffffff\n      and\n      eq\n        /* \"contracts/EduID_contract.sol\":2426:2526  if (_blockAddress == institutionBlockAddressArray[i]) {\r... */\n      iszero\n      tag_95\n      jumpi\n        /* \"contracts/EduID_contract.sol\":2506:2510  true */\n      0x01\n        /* \"contracts/EduID_contract.sol\":2499:2510  return true */\n      swap2\n      pop\n      pop\n      jump(tag_87)\n        /* \"contracts/EduID_contract.sol\":2426:2526  if (_blockAddress == institutionBlockAddressArray[i]) {\r... */\n    tag_95:\n        /* \"contracts/EduID_contract.sol\":2547:2552  false */\n      0x00\n        /* \"contracts/EduID_contract.sol\":2540:2552  return false */\n      swap2\n      pop\n      pop\n      jump(tag_87)\n        /* \"contracts/EduID_contract.sol\":2349:2564  for (uint i=0; i <= institutionBlockAddressArray.length; i++) {\r... */\n    tag_89:\n      pop\n        /* \"contracts/EduID_contract.sol\":2260:2571  function isExistInstitution(address _blockAddress) public view returns (bool) {\r... */\n    tag_87:\n      swap2\n      swap1\n      pop\n      jump\t// out\n    tag_82:\n      dup3\n      dup1\n      sload\n      tag_98\n      swap1\n      tag_37\n      jump\t// in\n    tag_98:\n      swap1\n      0x00\n      mstore\n      keccak256(0x00, 0x20)\n      swap1\n      0x1f\n      add\n      0x20\n      swap1\n      div\n      dup2\n      add\n      swap3\n      dup3\n      tag_100\n      jumpi\n      0x00\n      dup6\n      sstore\n      jump(tag_99)\n    tag_100:\n      dup3\n      0x1f\n      lt\n      tag_101\n      jumpi\n      dup1\n      mload\n      not(0xff)\n      and\n      dup4\n      dup1\n      add\n      or\n      dup6\n      sstore\n      jump(tag_99)\n    tag_101:\n      dup3\n      dup1\n      add\n      0x01\n      add\n      dup6\n      sstore\n      dup3\n      iszero\n      tag_99\n      jumpi\n      swap2\n      dup3\n      add\n    tag_102:\n      dup3\n      dup2\n      gt\n      iszero\n      tag_103\n      jumpi\n      dup3\n      mload\n      dup3\n      sstore\n      swap2\n      0x20\n      add\n      swap2\n      swap1\n      0x01\n      add\n      swap1\n      jump(tag_102)\n    tag_103:\n    tag_99:\n      pop\n      swap1\n      pop\n      tag_104\n      swap2\n      swap1\n      tag_105\n      jump\t// in\n    tag_104:\n      pop\n      swap1\n      jump\t// out\n    tag_105:\n    tag_106:\n      dup1\n      dup3\n      gt\n      iszero\n      tag_107\n      jumpi\n      0x00\n      dup2\n      0x00\n      swap1\n      sstore\n      pop\n      0x01\n      add\n      jump(tag_106)\n    tag_107:\n      pop\n      swap1\n      jump\t// out\n        /* \"#utility.yul\":7:419   */\n    tag_109:\n        /* \"#utility.yul\":85:90   */\n      0x00\n        /* \"#utility.yul\":110:176   */\n      tag_111\n        /* \"#utility.yul\":126:175   */\n      tag_112\n        /* \"#utility.yul\":168:174   */\n      dup5\n        /* \"#utility.yul\":126:175   */\n      tag_113\n      jump\t// in\n    tag_112:\n        /* \"#utility.yul\":110:176   */\n      tag_114\n      jump\t// in\n    tag_111:\n        /* \"#utility.yul\":101:176   */\n      swap1\n      pop\n        /* \"#utility.yul\":199:205   */\n      dup3\n        /* \"#utility.yul\":192:197   */\n      dup2\n        /* \"#utility.yul\":185:206   */\n      mstore\n        /* \"#utility.yul\":237:241   */\n      0x20\n        /* \"#utility.yul\":230:235   */\n      dup2\n        /* \"#utility.yul\":226:242   */\n      add\n        /* \"#utility.yul\":275:278   */\n      dup5\n        /* \"#utility.yul\":266:272   */\n      dup5\n        /* \"#utility.yul\":261:264   */\n      dup5\n        /* \"#utility.yul\":257:273   */\n      add\n        /* \"#utility.yul\":254:279   */\n      gt\n        /* \"#utility.yul\":251:363   */\n      iszero\n      tag_115\n      jumpi\n        /* \"#utility.yul\":282:361   */\n      tag_116\n      tag_117\n      jump\t// in\n    tag_116:\n        /* \"#utility.yul\":251:363   */\n    tag_115:\n        /* \"#utility.yul\":372:413   */\n      tag_118\n        /* \"#utility.yul\":406:412   */\n      dup5\n        /* \"#utility.yul\":401:404   */\n      dup3\n        /* \"#utility.yul\":396:399   */\n      dup6\n        /* \"#utility.yul\":372:413   */\n      tag_119\n      jump\t// in\n    tag_118:\n        /* \"#utility.yul\":91:419   */\n      pop\n        /* \"#utility.yul\":7:419   */\n      swap4\n      swap3\n      pop\n      pop\n      pop\n      jump\t// out\n        /* \"#utility.yul\":425:564   */\n    tag_120:\n        /* \"#utility.yul\":471:476   */\n      0x00\n        /* \"#utility.yul\":509:515   */\n      dup2\n        /* \"#utility.yul\":496:516   */\n      calldataload\n        /* \"#utility.yul\":487:516   */\n      swap1\n      pop\n        /* \"#utility.yul\":525:558   */\n      tag_122\n        /* \"#utility.yul\":552:557   */\n      dup2\n        /* \"#utility.yul\":525:558   */\n      tag_123\n      jump\t// in\n    tag_122:\n        /* \"#utility.yul\":425:564   */\n      swap3\n      swap2\n      pop\n      pop\n      jump\t// out\n        /* \"#utility.yul\":584:924   */\n    tag_124:\n        /* \"#utility.yul\":640:645   */\n      0x00\n        /* \"#utility.yul\":689:692   */\n      dup3\n        /* \"#utility.yul\":682:686   */\n      0x1f\n        /* \"#utility.yul\":674:680   */\n      dup4\n        /* \"#utility.yul\":670:687   */\n      add\n        /* \"#utility.yul\":666:693   */\n      slt\n        /* \"#utility.yul\":656:778   */\n      tag_126\n      jumpi\n        /* \"#utility.yul\":697:776   */\n      tag_127\n      tag_128\n      jump\t// in\n    tag_127:\n        /* \"#utility.yul\":656:778   */\n    tag_126:\n        /* \"#utility.yul\":814:820   */\n      dup2\n        /* \"#utility.yul\":801:821   */\n      calldataload\n        /* \"#utility.yul\":839:918   */\n      tag_129\n        /* \"#utility.yul\":914:917   */\n      dup5\n        /* \"#utility.yul\":906:912   */\n      dup3\n        /* \"#utility.yul\":899:903   */\n      0x20\n        /* \"#utility.yul\":891:897   */\n      dup7\n        /* \"#utility.yul\":887:904   */\n      add\n        /* \"#utility.yul\":839:918   */\n      tag_109\n      jump\t// in\n    tag_129:\n        /* \"#utility.yul\":830:918   */\n      swap2\n      pop\n        /* \"#utility.yul\":646:924   */\n      pop\n        /* \"#utility.yul\":584:924   */\n      swap3\n      swap2\n      pop\n      pop\n      jump\t// out\n        /* \"#utility.yul\":930:1069   */\n    tag_130:\n        /* \"#utility.yul\":976:981   */\n      0x00\n        /* \"#utility.yul\":1014:1020   */\n      dup2\n        /* \"#utility.yul\":1001:1021   */\n      calldataload\n        /* \"#utility.yul\":992:1021   */\n      swap1\n      pop\n        /* \"#utility.yul\":1030:1063   */\n      tag_132\n        /* \"#utility.yul\":1057:1062   */\n      dup2\n        /* \"#utility.yul\":1030:1063   */\n      tag_133\n      jump\t// in\n    tag_132:\n        /* \"#utility.yul\":930:1069   */\n      swap3\n      swap2\n      pop\n      pop\n      jump\t// out\n        /* \"#utility.yul\":1075:1404   */\n    tag_16:\n        /* \"#utility.yul\":1134:1140   */\n      0x00\n        /* \"#utility.yul\":1183:1185   */\n      0x20\n        /* \"#utility.yul\":1171:1180   */\n      dup3\n        /* \"#utility.yul\":1162:1169   */\n      dup5\n        /* \"#utility.yul\":1158:1181   */\n      sub\n        /* \"#utility.yul\":1154:1186   */\n      slt\n        /* \"#utility.yul\":1151:1270   */\n      iszero\n      tag_135\n      jumpi\n        /* \"#utility.yul\":1189:1268   */\n      tag_136\n      tag_137\n      jump\t// in\n    tag_136:\n        /* \"#utility.yul\":1151:1270   */\n    tag_135:\n        /* \"#utility.yul\":1309:1310   */\n      0x00\n        /* \"#utility.yul\":1334:1387   */\n      tag_138\n        /* \"#utility.yul\":1379:1386   */\n      dup5\n        /* \"#utility.yul\":1370:1376   */\n      dup3\n        /* \"#utility.yul\":1359:1368   */\n      dup6\n        /* \"#utility.yul\":1355:1377   */\n      add\n        /* \"#utility.yul\":1334:1387   */\n      tag_120\n      jump\t// in\n    tag_138:\n        /* \"#utility.yul\":1324:1387   */\n      swap2\n      pop\n        /* \"#utility.yul\":1280:1397   */\n      pop\n        /* \"#utility.yul\":1075:1404   */\n      swap3\n      swap2\n      pop\n      pop\n      jump\t// out\n        /* \"#utility.yul\":1410:3333   */\n    tag_26:\n        /* \"#utility.yul\":1563:1569   */\n      0x00\n        /* \"#utility.yul\":1571:1577   */\n      dup1\n        /* \"#utility.yul\":1579:1585   */\n      0x00\n        /* \"#utility.yul\":1587:1593   */\n      dup1\n        /* \"#utility.yul\":1595:1601   */\n      0x00\n        /* \"#utility.yul\":1603:1609   */\n      dup1\n        /* \"#utility.yul\":1611:1617   */\n      0x00\n        /* \"#utility.yul\":1660:1663   */\n      0xe0\n        /* \"#utility.yul\":1648:1657   */\n      dup9\n        /* \"#utility.yul\":1639:1646   */\n      dup11\n        /* \"#utility.yul\":1635:1658   */\n      sub\n        /* \"#utility.yul\":1631:1664   */\n      slt\n        /* \"#utility.yul\":1628:1748   */\n      iszero\n      tag_140\n      jumpi\n        /* \"#utility.yul\":1667:1746   */\n      tag_141\n      tag_137\n      jump\t// in\n    tag_141:\n        /* \"#utility.yul\":1628:1748   */\n    tag_140:\n        /* \"#utility.yul\":1787:1788   */\n      0x00\n        /* \"#utility.yul\":1812:1865   */\n      tag_142\n        /* \"#utility.yul\":1857:1864   */\n      dup11\n        /* \"#utility.yul\":1848:1854   */\n      dup3\n        /* \"#utility.yul\":1837:1846   */\n      dup12\n        /* \"#utility.yul\":1833:1855   */\n      add\n        /* \"#utility.yul\":1812:1865   */\n      tag_120\n      jump\t// in\n    tag_142:\n        /* \"#utility.yul\":1802:1865   */\n      swap8\n      pop\n        /* \"#utility.yul\":1758:1875   */\n      pop\n        /* \"#utility.yul\":1942:1944   */\n      0x20\n        /* \"#utility.yul\":1931:1940   */\n      dup9\n        /* \"#utility.yul\":1927:1945   */\n      add\n        /* \"#utility.yul\":1914:1946   */\n      calldataload\n        /* \"#utility.yul\":1973:1991   */\n      0xffffffffffffffff\n        /* \"#utility.yul\":1965:1971   */\n      dup2\n        /* \"#utility.yul\":1962:1992   */\n      gt\n        /* \"#utility.yul\":1959:2076   */\n      iszero\n      tag_143\n      jumpi\n        /* \"#utility.yul\":1995:2074   */\n      tag_144\n      tag_145\n      jump\t// in\n    tag_144:\n        /* \"#utility.yul\":1959:2076   */\n    tag_143:\n        /* \"#utility.yul\":2100:2163   */\n      tag_146\n        /* \"#utility.yul\":2155:2162   */\n      dup11\n        /* \"#utility.yul\":2146:2152   */\n      dup3\n        /* \"#utility.yul\":2135:2144   */\n      dup12\n        /* \"#utility.yul\":2131:2153   */\n      add\n        /* \"#utility.yul\":2100:2163   */\n      tag_124\n      jump\t// in\n    tag_146:\n        /* \"#utility.yul\":2090:2163   */\n      swap7\n      pop\n        /* \"#utility.yul\":1885:2173   */\n      pop\n        /* \"#utility.yul\":2212:2214   */\n      0x40\n        /* \"#utility.yul\":2238:2291   */\n      tag_147\n        /* \"#utility.yul\":2283:2290   */\n      dup11\n        /* \"#utility.yul\":2274:2280   */\n      dup3\n        /* \"#utility.yul\":2263:2272   */\n      dup12\n        /* \"#utility.yul\":2259:2281   */\n      add\n        /* \"#utility.yul\":2238:2291   */\n      tag_130\n      jump\t// in\n    tag_147:\n        /* \"#utility.yul\":2228:2291   */\n      swap6\n      pop\n        /* \"#utility.yul\":2183:2301   */\n      pop\n        /* \"#utility.yul\":2368:2370   */\n      0x60\n        /* \"#utility.yul\":2357:2366   */\n      dup9\n        /* \"#utility.yul\":2353:2371   */\n      add\n        /* \"#utility.yul\":2340:2372   */\n      calldataload\n        /* \"#utility.yul\":2399:2417   */\n      0xffffffffffffffff\n        /* \"#utility.yul\":2391:2397   */\n      dup2\n        /* \"#utility.yul\":2388:2418   */\n      gt\n        /* \"#utility.yul\":2385:2502   */\n      iszero\n      tag_148\n      jumpi\n        /* \"#utility.yul\":2421:2500   */\n      tag_149\n      tag_145\n      jump\t// in\n    tag_149:\n        /* \"#utility.yul\":2385:2502   */\n    tag_148:\n        /* \"#utility.yul\":2526:2589   */\n      tag_150\n        /* \"#utility.yul\":2581:2588   */\n      dup11\n        /* \"#utility.yul\":2572:2578   */\n      dup3\n        /* \"#utility.yul\":2561:2570   */\n      dup12\n        /* \"#utility.yul\":2557:2579   */\n      add\n        /* \"#utility.yul\":2526:2589   */\n      tag_124\n      jump\t// in\n    tag_150:\n        /* \"#utility.yul\":2516:2589   */\n      swap5\n      pop\n        /* \"#utility.yul\":2311:2599   */\n      pop\n        /* \"#utility.yul\":2666:2669   */\n      0x80\n        /* \"#utility.yul\":2655:2664   */\n      dup9\n        /* \"#utility.yul\":2651:2670   */\n      add\n        /* \"#utility.yul\":2638:2671   */\n      calldataload\n        /* \"#utility.yul\":2698:2716   */\n      0xffffffffffffffff\n        /* \"#utility.yul\":2690:2696   */\n      dup2\n        /* \"#utility.yul\":2687:2717   */\n      gt\n        /* \"#utility.yul\":2684:2801   */\n      iszero\n      tag_151\n      jumpi\n        /* \"#utility.yul\":2720:2799   */\n      tag_152\n      tag_145\n      jump\t// in\n    tag_152:\n        /* \"#utility.yul\":2684:2801   */\n    tag_151:\n        /* \"#utility.yul\":2825:2888   */\n      tag_153\n        /* \"#utility.yul\":2880:2887   */\n      dup11\n        /* \"#utility.yul\":2871:2877   */\n      dup3\n        /* \"#utility.yul\":2860:2869   */\n      dup12\n        /* \"#utility.yul\":2856:2878   */\n      add\n        /* \"#utility.yul\":2825:2888   */\n      tag_124\n      jump\t// in\n    tag_153:\n        /* \"#utility.yul\":2815:2888   */\n      swap4\n      pop\n        /* \"#utility.yul\":2609:2898   */\n      pop\n        /* \"#utility.yul\":2965:2968   */\n      0xa0\n        /* \"#utility.yul\":2954:2963   */\n      dup9\n        /* \"#utility.yul\":2950:2969   */\n      add\n        /* \"#utility.yul\":2937:2970   */\n      calldataload\n        /* \"#utility.yul\":2997:3015   */\n      0xffffffffffffffff\n        /* \"#utility.yul\":2989:2995   */\n      dup2\n        /* \"#utility.yul\":2986:3016   */\n      gt\n        /* \"#utility.yul\":2983:3100   */\n      iszero\n      tag_154\n      jumpi\n        /* \"#utility.yul\":3019:3098   */\n      tag_155\n      tag_145\n      jump\t// in\n    tag_155:\n        /* \"#utility.yul\":2983:3100   */\n    tag_154:\n        /* \"#utility.yul\":3124:3187   */\n      tag_156\n        /* \"#utility.yul\":3179:3186   */\n      dup11\n        /* \"#utility.yul\":3170:3176   */\n      dup3\n        /* \"#utility.yul\":3159:3168   */\n      dup12\n        /* \"#utility.yul\":3155:3177   */\n      add\n        /* \"#utility.yul\":3124:3187   */\n      tag_124\n      jump\t// in\n    tag_156:\n        /* \"#utility.yul\":3114:3187   */\n      swap3\n      pop\n        /* \"#utility.yul\":2908:3197   */\n      pop\n        /* \"#utility.yul\":3236:3239   */\n      0xc0\n        /* \"#utility.yul\":3263:3316   */\n      tag_157\n        /* \"#utility.yul\":3308:3315   */\n      dup11\n        /* \"#utility.yul\":3299:3305   */\n      dup3\n        /* \"#utility.yul\":3288:3297   */\n      dup12\n        /* \"#utility.yul\":3284:3306   */\n      add\n        /* \"#utility.yul\":3263:3316   */\n      tag_130\n      jump\t// in\n    tag_157:\n        /* \"#utility.yul\":3253:3316   */\n      swap2\n      pop\n        /* \"#utility.yul\":3207:3326   */\n      pop\n        /* \"#utility.yul\":1410:3333   */\n      swap3\n      swap6\n      swap9\n      swap2\n      swap5\n      swap8\n      pop\n      swap3\n      swap6\n      pop\n      jump\t// out\n        /* \"#utility.yul\":3339:3668   */\n    tag_10:\n        /* \"#utility.yul\":3398:3404   */\n      0x00\n        /* \"#utility.yul\":3447:3449   */\n      0x20\n        /* \"#utility.yul\":3435:3444   */\n      dup3\n        /* \"#utility.yul\":3426:3433   */\n      dup5\n        /* \"#utility.yul\":3422:3445   */\n      sub\n        /* \"#utility.yul\":3418:3450   */\n      slt\n        /* \"#utility.yul\":3415:3534   */\n      iszero\n      tag_159\n      jumpi\n        /* \"#utility.yul\":3453:3532   */\n      tag_160\n      tag_137\n      jump\t// in\n    tag_160:\n        /* \"#utility.yul\":3415:3534   */\n    tag_159:\n        /* \"#utility.yul\":3573:3574   */\n      0x00\n        /* \"#utility.yul\":3598:3651   */\n      tag_161\n        /* \"#utility.yul\":3643:3650   */\n      dup5\n        /* \"#utility.yul\":3634:3640   */\n      dup3\n        /* \"#utility.yul\":3623:3632   */\n      dup6\n        /* \"#utility.yul\":3619:3641   */\n      add\n        /* \"#utility.yul\":3598:3651   */\n      tag_130\n      jump\t// in\n    tag_161:\n        /* \"#utility.yul\":3588:3651   */\n      swap2\n      pop\n        /* \"#utility.yul\":3544:3661   */\n      pop\n        /* \"#utility.yul\":3339:3668   */\n      swap3\n      swap2\n      pop\n      pop\n      jump\t// out\n        /* \"#utility.yul\":3674:3792   */\n    tag_162:\n        /* \"#utility.yul\":3761:3785   */\n      tag_164\n        /* \"#utility.yul\":3779:3784   */\n      dup2\n        /* \"#utility.yul\":3761:3785   */\n      tag_165\n      jump\t// in\n    tag_164:\n        /* \"#utility.yul\":3756:3759   */\n      dup3\n        /* \"#utility.yul\":3749:3786   */\n      mstore\n        /* \"#utility.yul\":3674:3792   */\n      pop\n      pop\n      jump\t// out\n        /* \"#utility.yul\":3798:3907   */\n    tag_166:\n        /* \"#utility.yul\":3879:3900   */\n      tag_168\n        /* \"#utility.yul\":3894:3899   */\n      dup2\n        /* \"#utility.yul\":3879:3900   */\n      tag_169\n      jump\t// in\n    tag_168:\n        /* \"#utility.yul\":3874:3877   */\n      dup3\n        /* \"#utility.yul\":3867:3901   */\n      mstore\n        /* \"#utility.yul\":3798:3907   */\n      pop\n      pop\n      jump\t// out\n        /* \"#utility.yul\":3913:4277   */\n    tag_170:\n        /* \"#utility.yul\":4001:4004   */\n      0x00\n        /* \"#utility.yul\":4029:4068   */\n      tag_172\n        /* \"#utility.yul\":4062:4067   */\n      dup3\n        /* \"#utility.yul\":4029:4068   */\n      tag_173\n      jump\t// in\n    tag_172:\n        /* \"#utility.yul\":4084:4155   */\n      tag_174\n        /* \"#utility.yul\":4148:4154   */\n      dup2\n        /* \"#utility.yul\":4143:4146   */\n      dup6\n        /* \"#utility.yul\":4084:4155   */\n      tag_175\n      jump\t// in\n    tag_174:\n        /* \"#utility.yul\":4077:4155   */\n      swap4\n      pop\n        /* \"#utility.yul\":4164:4216   */\n      tag_176\n        /* \"#utility.yul\":4209:4215   */\n      dup2\n        /* \"#utility.yul\":4204:4207   */\n      dup6\n        /* \"#utility.yul\":4197:4201   */\n      0x20\n        /* \"#utility.yul\":4190:4195   */\n      dup7\n        /* \"#utility.yul\":4186:4202   */\n      add\n        /* \"#utility.yul\":4164:4216   */\n      tag_177\n      jump\t// in\n    tag_176:\n        /* \"#utility.yul\":4241:4270   */\n      tag_178\n        /* \"#utility.yul\":4263:4269   */\n      dup2\n        /* \"#utility.yul\":4241:4270   */\n      tag_179\n      jump\t// in\n    tag_178:\n        /* \"#utility.yul\":4236:4239   */\n      dup5\n        /* \"#utility.yul\":4232:4271   */\n      add\n        /* \"#utility.yul\":4225:4271   */\n      swap2\n      pop\n        /* \"#utility.yul\":4005:4277   */\n      pop\n        /* \"#utility.yul\":3913:4277   */\n      swap3\n      swap2\n      pop\n      pop\n      jump\t// out\n        /* \"#utility.yul\":4283:4401   */\n    tag_180:\n        /* \"#utility.yul\":4370:4394   */\n      tag_182\n        /* \"#utility.yul\":4388:4393   */\n      dup2\n        /* \"#utility.yul\":4370:4394   */\n      tag_183\n      jump\t// in\n    tag_182:\n        /* \"#utility.yul\":4365:4368   */\n      dup3\n        /* \"#utility.yul\":4358:4395   */\n      mstore\n        /* \"#utility.yul\":4283:4401   */\n      pop\n      pop\n      jump\t// out\n        /* \"#utility.yul\":4407:4629   */\n    tag_23:\n        /* \"#utility.yul\":4500:4504   */\n      0x00\n        /* \"#utility.yul\":4538:4540   */\n      0x20\n        /* \"#utility.yul\":4527:4536   */\n      dup3\n        /* \"#utility.yul\":4523:4541   */\n      add\n        /* \"#utility.yul\":4515:4541   */\n      swap1\n      pop\n        /* \"#utility.yul\":4551:4622   */\n      tag_185\n        /* \"#utility.yul\":4619:4620   */\n      0x00\n        /* \"#utility.yul\":4608:4617   */\n      dup4\n        /* \"#utility.yul\":4604:4621   */\n      add\n        /* \"#utility.yul\":4595:4601   */\n      dup5\n        /* \"#utility.yul\":4551:4622   */\n      tag_162\n      jump\t// in\n    tag_185:\n        /* \"#utility.yul\":4407:4629   */\n      swap3\n      swap2\n      pop\n      pop\n      jump\t// out\n        /* \"#utility.yul\":4635:4845   */\n    tag_29:\n        /* \"#utility.yul\":4722:4726   */\n      0x00\n        /* \"#utility.yul\":4760:4762   */\n      0x20\n        /* \"#utility.yul\":4749:4758   */\n      dup3\n        /* \"#utility.yul\":4745:4763   */\n      add\n        /* \"#utility.yul\":4737:4763   */\n      swap1\n      pop\n        /* \"#utility.yul\":4773:4838   */\n      tag_187\n        /* \"#utility.yul\":4835:4836   */\n      0x00\n        /* \"#utility.yul\":4824:4833   */\n      dup4\n        /* \"#utility.yul\":4820:4837   */\n      add\n        /* \"#utility.yul\":4811:4817   */\n      dup5\n        /* \"#utility.yul\":4773:4838   */\n      tag_166\n      jump\t// in\n    tag_187:\n        /* \"#utility.yul\":4635:4845   */\n      swap3\n      swap2\n      pop\n      pop\n      jump\t// out\n        /* \"#utility.yul\":4851:5990   */\n    tag_13:\n        /* \"#utility.yul\":5164:5168   */\n      0x00\n        /* \"#utility.yul\":5202:5205   */\n      0xc0\n        /* \"#utility.yul\":5191:5200   */\n      dup3\n        /* \"#utility.yul\":5187:5206   */\n      add\n        /* \"#utility.yul\":5179:5206   */\n      swap1\n      pop\n        /* \"#utility.yul\":5252:5261   */\n      dup2\n        /* \"#utility.yul\":5246:5250   */\n      dup2\n        /* \"#utility.yul\":5242:5262   */\n      sub\n        /* \"#utility.yul\":5238:5239   */\n      0x00\n        /* \"#utility.yul\":5227:5236   */\n      dup4\n        /* \"#utility.yul\":5223:5240   */\n      add\n        /* \"#utility.yul\":5216:5263   */\n      mstore\n        /* \"#utility.yul\":5280:5358   */\n      tag_189\n        /* \"#utility.yul\":5353:5357   */\n      dup2\n        /* \"#utility.yul\":5344:5350   */\n      dup10\n        /* \"#utility.yul\":5280:5358   */\n      tag_170\n      jump\t// in\n    tag_189:\n        /* \"#utility.yul\":5272:5358   */\n      swap1\n      pop\n        /* \"#utility.yul\":5368:5440   */\n      tag_190\n        /* \"#utility.yul\":5436:5438   */\n      0x20\n        /* \"#utility.yul\":5425:5434   */\n      dup4\n        /* \"#utility.yul\":5421:5439   */\n      add\n        /* \"#utility.yul\":5412:5418   */\n      dup9\n        /* \"#utility.yul\":5368:5440   */\n      tag_180\n      jump\t// in\n    tag_190:\n        /* \"#utility.yul\":5487:5496   */\n      dup2\n        /* \"#utility.yul\":5481:5485   */\n      dup2\n        /* \"#utility.yul\":5477:5497   */\n      sub\n        /* \"#utility.yul\":5472:5474   */\n      0x40\n        /* \"#utility.yul\":5461:5470   */\n      dup4\n        /* \"#utility.yul\":5457:5475   */\n      add\n        /* \"#utility.yul\":5450:5498   */\n      mstore\n        /* \"#utility.yul\":5515:5593   */\n      tag_191\n        /* \"#utility.yul\":5588:5592   */\n      dup2\n        /* \"#utility.yul\":5579:5585   */\n      dup8\n        /* \"#utility.yul\":5515:5593   */\n      tag_170\n      jump\t// in\n    tag_191:\n        /* \"#utility.yul\":5507:5593   */\n      swap1\n      pop\n        /* \"#utility.yul\":5640:5649   */\n      dup2\n        /* \"#utility.yul\":5634:5638   */\n      dup2\n        /* \"#utility.yul\":5630:5650   */\n      sub\n        /* \"#utility.yul\":5625:5627   */\n      0x60\n        /* \"#utility.yul\":5614:5623   */\n      dup4\n        /* \"#utility.yul\":5610:5628   */\n      add\n        /* \"#utility.yul\":5603:5651   */\n      mstore\n        /* \"#utility.yul\":5668:5746   */\n      tag_192\n        /* \"#utility.yul\":5741:5745   */\n      dup2\n        /* \"#utility.yul\":5732:5738   */\n      dup7\n        /* \"#utility.yul\":5668:5746   */\n      tag_170\n      jump\t// in\n    tag_192:\n        /* \"#utility.yul\":5660:5746   */\n      swap1\n      pop\n        /* \"#utility.yul\":5794:5803   */\n      dup2\n        /* \"#utility.yul\":5788:5792   */\n      dup2\n        /* \"#utility.yul\":5784:5804   */\n      sub\n        /* \"#utility.yul\":5778:5781   */\n      0x80\n        /* \"#utility.yul\":5767:5776   */\n      dup4\n        /* \"#utility.yul\":5763:5782   */\n      add\n        /* \"#utility.yul\":5756:5805   */\n      mstore\n        /* \"#utility.yul\":5822:5900   */\n      tag_193\n        /* \"#utility.yul\":5895:5899   */\n      dup2\n        /* \"#utility.yul\":5886:5892   */\n      dup6\n        /* \"#utility.yul\":5822:5900   */\n      tag_170\n      jump\t// in\n    tag_193:\n        /* \"#utility.yul\":5814:5900   */\n      swap1\n      pop\n        /* \"#utility.yul\":5910:5983   */\n      tag_194\n        /* \"#utility.yul\":5978:5981   */\n      0xa0\n        /* \"#utility.yul\":5967:5976   */\n      dup4\n        /* \"#utility.yul\":5963:5982   */\n      add\n        /* \"#utility.yul\":5954:5960   */\n      dup5\n        /* \"#utility.yul\":5910:5983   */\n      tag_180\n      jump\t// in\n    tag_194:\n        /* \"#utility.yul\":4851:5990   */\n      swap8\n      swap7\n      pop\n      pop\n      pop\n      pop\n      pop\n      pop\n      pop\n      jump\t// out\n        /* \"#utility.yul\":5996:6125   */\n    tag_114:\n        /* \"#utility.yul\":6030:6036   */\n      0x00\n        /* \"#utility.yul\":6057:6077   */\n      tag_196\n      tag_197\n      jump\t// in\n    tag_196:\n        /* \"#utility.yul\":6047:6077   */\n      swap1\n      pop\n        /* \"#utility.yul\":6086:6119   */\n      tag_198\n        /* \"#utility.yul\":6114:6118   */\n      dup3\n        /* \"#utility.yul\":6106:6112   */\n      dup3\n        /* \"#utility.yul\":6086:6119   */\n      tag_199\n      jump\t// in\n    tag_198:\n        /* \"#utility.yul\":5996:6125   */\n      swap2\n      swap1\n      pop\n      jump\t// out\n        /* \"#utility.yul\":6131:6206   */\n    tag_197:\n        /* \"#utility.yul\":6164:6170   */\n      0x00\n        /* \"#utility.yul\":6197:6199   */\n      0x40\n        /* \"#utility.yul\":6191:6200   */\n      mload\n        /* \"#utility.yul\":6181:6200   */\n      swap1\n      pop\n        /* \"#utility.yul\":6131:6206   */\n      swap1\n      jump\t// out\n        /* \"#utility.yul\":6212:6520   */\n    tag_113:\n        /* \"#utility.yul\":6274:6278   */\n      0x00\n        /* \"#utility.yul\":6364:6382   */\n      0xffffffffffffffff\n        /* \"#utility.yul\":6356:6362   */\n      dup3\n        /* \"#utility.yul\":6353:6383   */\n      gt\n        /* \"#utility.yul\":6350:6406   */\n      iszero\n      tag_202\n      jumpi\n        /* \"#utility.yul\":6386:6404   */\n      tag_203\n      tag_204\n      jump\t// in\n    tag_203:\n        /* \"#utility.yul\":6350:6406   */\n    tag_202:\n        /* \"#utility.yul\":6424:6453   */\n      tag_205\n        /* \"#utility.yul\":6446:6452   */\n      dup3\n        /* \"#utility.yul\":6424:6453   */\n      tag_179\n      jump\t// in\n    tag_205:\n        /* \"#utility.yul\":6416:6453   */\n      swap1\n      pop\n        /* \"#utility.yul\":6508:6512   */\n      0x20\n        /* \"#utility.yul\":6502:6506   */\n      dup2\n        /* \"#utility.yul\":6498:6513   */\n      add\n        /* \"#utility.yul\":6490:6513   */\n      swap1\n      pop\n        /* \"#utility.yul\":6212:6520   */\n      swap2\n      swap1\n      pop\n      jump\t// out\n        /* \"#utility.yul\":6526:6625   */\n    tag_173:\n        /* \"#utility.yul\":6578:6584   */\n      0x00\n        /* \"#utility.yul\":6612:6617   */\n      dup2\n        /* \"#utility.yul\":6606:6618   */\n      mload\n        /* \"#utility.yul\":6596:6618   */\n      swap1\n      pop\n        /* \"#utility.yul\":6526:6625   */\n      swap2\n      swap1\n      pop\n      jump\t// out\n        /* \"#utility.yul\":6631:6800   */\n    tag_175:\n        /* \"#utility.yul\":6715:6726   */\n      0x00\n        /* \"#utility.yul\":6749:6755   */\n      dup3\n        /* \"#utility.yul\":6744:6747   */\n      dup3\n        /* \"#utility.yul\":6737:6756   */\n      mstore\n        /* \"#utility.yul\":6789:6793   */\n      0x20\n        /* \"#utility.yul\":6784:6787   */\n      dup3\n        /* \"#utility.yul\":6780:6794   */\n      add\n        /* \"#utility.yul\":6765:6794   */\n      swap1\n      pop\n        /* \"#utility.yul\":6631:6800   */\n      swap3\n      swap2\n      pop\n      pop\n      jump\t// out\n        /* \"#utility.yul\":6806:6902   */\n    tag_165:\n        /* \"#utility.yul\":6843:6850   */\n      0x00\n        /* \"#utility.yul\":6872:6896   */\n      tag_209\n        /* \"#utility.yul\":6890:6895   */\n      dup3\n        /* \"#utility.yul\":6872:6896   */\n      tag_210\n      jump\t// in\n    tag_209:\n        /* \"#utility.yul\":6861:6896   */\n      swap1\n      pop\n        /* \"#utility.yul\":6806:6902   */\n      swap2\n      swap1\n      pop\n      jump\t// out\n        /* \"#utility.yul\":6908:6998   */\n    tag_169:\n        /* \"#utility.yul\":6942:6949   */\n      0x00\n        /* \"#utility.yul\":6985:6990   */\n      dup2\n        /* \"#utility.yul\":6978:6991   */\n      iszero\n        /* \"#utility.yul\":6971:6992   */\n      iszero\n        /* \"#utility.yul\":6960:6992   */\n      swap1\n      pop\n        /* \"#utility.yul\":6908:6998   */\n      swap2\n      swap1\n      pop\n      jump\t// out\n        /* \"#utility.yul\":7004:7130   */\n    tag_210:\n        /* \"#utility.yul\":7041:7048   */\n      0x00\n        /* \"#utility.yul\":7081:7123   */\n      0xffffffffffffffffffffffffffffffffffffffff\n        /* \"#utility.yul\":7074:7079   */\n      dup3\n        /* \"#utility.yul\":7070:7124   */\n      and\n        /* \"#utility.yul\":7059:7124   */\n      swap1\n      pop\n        /* \"#utility.yul\":7004:7130   */\n      swap2\n      swap1\n      pop\n      jump\t// out\n        /* \"#utility.yul\":7136:7213   */\n    tag_183:\n        /* \"#utility.yul\":7173:7180   */\n      0x00\n        /* \"#utility.yul\":7202:7207   */\n      dup2\n        /* \"#utility.yul\":7191:7207   */\n      swap1\n      pop\n        /* \"#utility.yul\":7136:7213   */\n      swap2\n      swap1\n      pop\n      jump\t// out\n        /* \"#utility.yul\":7219:7373   */\n    tag_119:\n        /* \"#utility.yul\":7303:7309   */\n      dup3\n        /* \"#utility.yul\":7298:7301   */\n      dup2\n        /* \"#utility.yul\":7293:7296   */\n      dup4\n        /* \"#utility.yul\":7280:7310   */\n      calldatacopy\n        /* \"#utility.yul\":7365:7366   */\n      0x00\n        /* \"#utility.yul\":7356:7362   */\n      dup4\n        /* \"#utility.yul\":7351:7354   */\n      dup4\n        /* \"#utility.yul\":7347:7363   */\n      add\n        /* \"#utility.yul\":7340:7367   */\n      mstore\n        /* \"#utility.yul\":7219:7373   */\n      pop\n      pop\n      pop\n      jump\t// out\n        /* \"#utility.yul\":7379:7686   */\n    tag_177:\n        /* \"#utility.yul\":7447:7448   */\n      0x00\n        /* \"#utility.yul\":7457:7570   */\n    tag_216:\n        /* \"#utility.yul\":7471:7477   */\n      dup4\n        /* \"#utility.yul\":7468:7469   */\n      dup2\n        /* \"#utility.yul\":7465:7478   */\n      lt\n        /* \"#utility.yul\":7457:7570   */\n      iszero\n      tag_218\n      jumpi\n        /* \"#utility.yul\":7556:7557   */\n      dup1\n        /* \"#utility.yul\":7551:7554   */\n      dup3\n        /* \"#utility.yul\":7547:7558   */\n      add\n        /* \"#utility.yul\":7541:7559   */\n      mload\n        /* \"#utility.yul\":7537:7538   */\n      dup2\n        /* \"#utility.yul\":7532:7535   */\n      dup5\n        /* \"#utility.yul\":7528:7539   */\n      add\n        /* \"#utility.yul\":7521:7560   */\n      mstore\n        /* \"#utility.yul\":7493:7495   */\n      0x20\n        /* \"#utility.yul\":7490:7491   */\n      dup2\n        /* \"#utility.yul\":7486:7496   */\n      add\n        /* \"#utility.yul\":7481:7496   */\n      swap1\n      pop\n        /* \"#utility.yul\":7457:7570   */\n      jump(tag_216)\n    tag_218:\n        /* \"#utility.yul\":7588:7594   */\n      dup4\n        /* \"#utility.yul\":7585:7586   */\n      dup2\n        /* \"#utility.yul\":7582:7595   */\n      gt\n        /* \"#utility.yul\":7579:7680   */\n      iszero\n      tag_219\n      jumpi\n        /* \"#utility.yul\":7668:7669   */\n      0x00\n        /* \"#utility.yul\":7659:7665   */\n      dup5\n        /* \"#utility.yul\":7654:7657   */\n      dup5\n        /* \"#utility.yul\":7650:7666   */\n      add\n        /* \"#utility.yul\":7643:7670   */\n      mstore\n        /* \"#utility.yul\":7579:7680   */\n    tag_219:\n        /* \"#utility.yul\":7428:7686   */\n      pop\n        /* \"#utility.yul\":7379:7686   */\n      pop\n      pop\n      pop\n      jump\t// out\n        /* \"#utility.yul\":7692:8012   */\n    tag_37:\n        /* \"#utility.yul\":7736:7742   */\n      0x00\n        /* \"#utility.yul\":7773:7774   */\n      0x02\n        /* \"#utility.yul\":7767:7771   */\n      dup3\n        /* \"#utility.yul\":7763:7775   */\n      div\n        /* \"#utility.yul\":7753:7775   */\n      swap1\n      pop\n        /* \"#utility.yul\":7820:7821   */\n      0x01\n        /* \"#utility.yul\":7814:7818   */\n      dup3\n        /* \"#utility.yul\":7810:7822   */\n      and\n        /* \"#utility.yul\":7841:7859   */\n      dup1\n        /* \"#utility.yul\":7831:7912   */\n      tag_221\n      jumpi\n        /* \"#utility.yul\":7897:7901   */\n      0x7f\n        /* \"#utility.yul\":7889:7895   */\n      dup3\n        /* \"#utility.yul\":7885:7902   */\n      and\n        /* \"#utility.yul\":7875:7902   */\n      swap2\n      pop\n        /* \"#utility.yul\":7831:7912   */\n    tag_221:\n        /* \"#utility.yul\":7959:7961   */\n      0x20\n        /* \"#utility.yul\":7951:7957   */\n      dup3\n        /* \"#utility.yul\":7948:7962   */\n      lt\n        /* \"#utility.yul\":7928:7946   */\n      dup2\n        /* \"#utility.yul\":7925:7963   */\n      eq\n        /* \"#utility.yul\":7922:8006   */\n      iszero\n      tag_222\n      jumpi\n        /* \"#utility.yul\":7978:7996   */\n      tag_223\n      tag_224\n      jump\t// in\n    tag_223:\n        /* \"#utility.yul\":7922:8006   */\n    tag_222:\n        /* \"#utility.yul\":7743:8012   */\n      pop\n        /* \"#utility.yul\":7692:8012   */\n      swap2\n      swap1\n      pop\n      jump\t// out\n        /* \"#utility.yul\":8018:8299   */\n    tag_199:\n        /* \"#utility.yul\":8101:8128   */\n      tag_226\n        /* \"#utility.yul\":8123:8127   */\n      dup3\n        /* \"#utility.yul\":8101:8128   */\n      tag_179\n      jump\t// in\n    tag_226:\n        /* \"#utility.yul\":8093:8099   */\n      dup2\n        /* \"#utility.yul\":8089:8129   */\n      add\n        /* \"#utility.yul\":8231:8237   */\n      dup2\n        /* \"#utility.yul\":8219:8229   */\n      dup2\n        /* \"#utility.yul\":8216:8238   */\n      lt\n        /* \"#utility.yul\":8195:8213   */\n      0xffffffffffffffff\n        /* \"#utility.yul\":8183:8193   */\n      dup3\n        /* \"#utility.yul\":8180:8214   */\n      gt\n        /* \"#utility.yul\":8177:8239   */\n      or\n        /* \"#utility.yul\":8174:8262   */\n      iszero\n      tag_227\n      jumpi\n        /* \"#utility.yul\":8242:8260   */\n      tag_228\n      tag_204\n      jump\t// in\n    tag_228:\n        /* \"#utility.yul\":8174:8262   */\n    tag_227:\n        /* \"#utility.yul\":8282:8292   */\n      dup1\n        /* \"#utility.yul\":8278:8280   */\n      0x40\n        /* \"#utility.yul\":8271:8293   */\n      mstore\n        /* \"#utility.yul\":8061:8299   */\n      pop\n        /* \"#utility.yul\":8018:8299   */\n      pop\n      pop\n      jump\t// out\n        /* \"#utility.yul\":8730:8910   */\n    tag_224:\n        /* \"#utility.yul\":8778:8855   */\n      0x4e487b7100000000000000000000000000000000000000000000000000000000\n        /* \"#utility.yul\":8775:8776   */\n      0x00\n        /* \"#utility.yul\":8768:8856   */\n      mstore\n        /* \"#utility.yul\":8875:8879   */\n      0x22\n        /* \"#utility.yul\":8872:8873   */\n      0x04\n        /* \"#utility.yul\":8865:8880   */\n      mstore\n        /* \"#utility.yul\":8899:8903   */\n      0x24\n        /* \"#utility.yul\":8896:8897   */\n      0x00\n        /* \"#utility.yul\":8889:8904   */\n      revert\n        /* \"#utility.yul\":8916:9096   */\n    tag_93:\n        /* \"#utility.yul\":8964:9041   */\n      0x4e487b7100000000000000000000000000000000000000000000000000000000\n        /* \"#utility.yul\":8961:8962   */\n      0x00\n        /* \"#utility.yul\":8954:9042   */\n      mstore\n        /* \"#utility.yul\":9061:9065   */\n      0x32\n        /* \"#utility.yul\":9058:9059   */\n      0x04\n        /* \"#utility.yul\":9051:9066   */\n      mstore\n        /* \"#utility.yul\":9085:9089   */\n      0x24\n        /* \"#utility.yul\":9082:9083   */\n      0x00\n        /* \"#utility.yul\":9075:9090   */\n      revert\n        /* \"#utility.yul\":9102:9282   */\n    tag_204:\n        /* \"#utility.yul\":9150:9227   */\n      0x4e487b7100000000000000000000000000000000000000000000000000000000\n        /* \"#utility.yul\":9147:9148   */\n      0x00\n        /* \"#utility.yul\":9140:9228   */\n      mstore\n        /* \"#utility.yul\":9247:9251   */\n      0x41\n        /* \"#utility.yul\":9244:9245   */\n      0x04\n        /* \"#utility.yul\":9237:9252   */\n      mstore\n        /* \"#utility.yul\":9271:9275   */\n      0x24\n        /* \"#utility.yul\":9268:9269   */\n      0x00\n        /* \"#utility.yul\":9261:9276   */\n      revert\n        /* \"#utility.yul\":9288:9405   */\n    tag_128:\n        /* \"#utility.yul\":9397:9398   */\n      0x00\n        /* \"#utility.yul\":9394:9395   */\n      dup1\n        /* \"#utility.yul\":9387:9399   */\n      revert\n        /* \"#utility.yul\":9411:9528   */\n    tag_117:\n        /* \"#utility.yul\":9520:9521   */\n      0x00\n        /* \"#utility.yul\":9517:9518   */\n      dup1\n        /* \"#utility.yul\":9510:9522   */\n      revert\n        /* \"#utility.yul\":9534:9651   */\n    tag_145:\n        /* \"#utility.yul\":9643:9644   */\n      0x00\n        /* \"#utility.yul\":9640:9641   */\n      dup1\n        /* \"#utility.yul\":9633:9645   */\n      revert\n        /* \"#utility.yul\":9657:9774   */\n    tag_137:\n        /* \"#utility.yul\":9766:9767   */\n      0x00\n        /* \"#utility.yul\":9763:9764   */\n      dup1\n        /* \"#utility.yul\":9756:9768   */\n      revert\n        /* \"#utility.yul\":9780:9882   */\n    tag_179:\n        /* \"#utility.yul\":9821:9827   */\n      0x00\n        /* \"#utility.yul\":9872:9874   */\n      0x1f\n        /* \"#utility.yul\":9868:9875   */\n      not\n        /* \"#utility.yul\":9863:9865   */\n      0x1f\n        /* \"#utility.yul\":9856:9861   */\n      dup4\n        /* \"#utility.yul\":9852:9866   */\n      add\n        /* \"#utility.yul\":9848:9876   */\n      and\n        /* \"#utility.yul\":9838:9876   */\n      swap1\n      pop\n        /* \"#utility.yul\":9780:9882   */\n      swap2\n      swap1\n      pop\n      jump\t// out\n        /* \"#utility.yul\":9888:10010   */\n    tag_123:\n        /* \"#utility.yul\":9961:9985   */\n      tag_244\n        /* \"#utility.yul\":9979:9984   */\n      dup2\n        /* \"#utility.yul\":9961:9985   */\n      tag_165\n      jump\t// in\n    tag_244:\n        /* \"#utility.yul\":9954:9959   */\n      dup2\n        /* \"#utility.yul\":9951:9986   */\n      eq\n        /* \"#utility.yul\":9941:10004   */\n      tag_245\n      jumpi\n        /* \"#utility.yul\":10000:10001   */\n      0x00\n        /* \"#utility.yul\":9997:9998   */\n      dup1\n        /* \"#utility.yul\":9990:10002   */\n      revert\n        /* \"#utility.yul\":9941:10004   */\n    tag_245:\n        /* \"#utility.yul\":9888:10010   */\n      pop\n      jump\t// out\n        /* \"#utility.yul\":10016:10138   */\n    tag_133:\n        /* \"#utility.yul\":10089:10113   */\n      tag_247\n        /* \"#utility.yul\":10107:10112   */\n      dup2\n        /* \"#utility.yul\":10089:10113   */\n      tag_183\n      jump\t// in\n    tag_247:\n        /* \"#utility.yul\":10082:10087   */\n      dup2\n        /* \"#utility.yul\":10079:10114   */\n      eq\n        /* \"#utility.yul\":10069:10132   */\n      tag_248\n      jumpi\n        /* \"#utility.yul\":10128:10129   */\n      0x00\n        /* \"#utility.yul\":10125:10126   */\n      dup1\n        /* \"#utility.yul\":10118:10130   */\n      revert\n        /* \"#utility.yul\":10069:10132   */\n    tag_248:\n        /* \"#utility.yul\":10016:10138   */\n      pop\n      jump\t// out\n\n    auxdata: 0xa2646970667358221220b13730ed2f2abe84c1f316d27b020d1a5703619df6072e87fffd88ef491088d464736f6c63430008070033\n}\n",
				"bytecode": {
					"linkReferences": {},
					"object": "608060405234801561001057600080fd5b50610fca806100206000396000f3fe608060405234801561001057600080fd5b50600436106100575760003560e01c8063643f75361461005c578063827e0c9914610091578063c5d25fa9146100c6578063c9a52910146100f6578063dfc56c3e14610126575b600080fd5b61007660048036038101906100719190610c0f565b610156565b60405161008896959493929190610cd8565b60405180910390f35b6100ab60048036038101906100a69190610ad0565b6103c2565b6040516100bd96959493929190610cd8565b60405180910390f35b6100e060048036038101906100db9190610c0f565b61061e565b6040516100ed9190610ca2565b60405180910390f35b610110600480360381019061010b9190610afd565b61065d565b60405161011d9190610cbd565b60405180910390f35b610140600480360381019061013b9190610ad0565b6108f3565b60405161014d9190610cbd565b60405180910390f35b6000818154811061016657600080fd5b906000526020600020906006020160009150905080600001805461018990610e51565b80601f01602080910402602001604051908101604052809291908181526020018280546101b590610e51565b80156102025780601f106101d757610100808354040283529160200191610202565b820191906000526020600020905b8154815290600101906020018083116101e557829003601f168201915b50505050509080600101549080600201805461021d90610e51565b80601f016020809104026020016040519081016040528092919081815260200182805461024990610e51565b80156102965780601f1061026b57610100808354040283529160200191610296565b820191906000526020600020905b81548152906001019060200180831161027957829003601f168201915b5050505050908060030180546102ab90610e51565b80601f01602080910402602001604051908101604052809291908181526020018280546102d790610e51565b80156103245780601f106102f957610100808354040283529160200191610324565b820191906000526020600020905b81548152906001019060200180831161030757829003601f168201915b50505050509080600401805461033990610e51565b80601f016020809104026020016040519081016040528092919081815260200182805461036590610e51565b80156103b25780601f10610387576101008083540402835291602001916103b2565b820191906000526020600020905b81548152906001019060200180831161039557829003601f168201915b5050505050908060050154905086565b60016020528060005260406000206000915090508060000180546103e590610e51565b80601f016020809104026020016040519081016040528092919081815260200182805461041190610e51565b801561045e5780601f106104335761010080835404028352916020019161045e565b820191906000526020600020905b81548152906001019060200180831161044157829003601f168201915b50505050509080600101549080600201805461047990610e51565b80601f01602080910402602001604051908101604052809291908181526020018280546104a590610e51565b80156104f25780601f106104c7576101008083540402835291602001916104f2565b820191906000526020600020905b8154815290600101906020018083116104d557829003601f168201915b50505050509080600301805461050790610e51565b80601f016020809104026020016040519081016040528092919081815260200182805461053390610e51565b80156105805780601f1061055557610100808354040283529160200191610580565b820191906000526020600020905b81548152906001019060200180831161056357829003601f168201915b50505050509080600401805461059590610e51565b80601f01602080910402602001604051908101604052809291908181526020018280546105c190610e51565b801561060e5780601f106105e35761010080835404028352916020019161060e565b820191906000526020600020905b8154815290600101906020018083116105f157829003601f168201915b5050505050908060050154905086565b6002818154811061062e57600080fd5b906000526020600020016000915054906101000a900473ffffffffffffffffffffffffffffffffffffffff1681565b60003373ffffffffffffffffffffffffffffffffffffffff168873ffffffffffffffffffffffffffffffffffffffff161461069757600080fd5b86600160008a73ffffffffffffffffffffffffffffffffffffffff1673ffffffffffffffffffffffffffffffffffffffff16815260200190815260200160002060000190805190602001906106ed929190610993565b5085600160008a73ffffffffffffffffffffffffffffffffffffffff1673ffffffffffffffffffffffffffffffffffffffff1681526020019081526020016000206001018190555084600160008a73ffffffffffffffffffffffffffffffffffffffff1673ffffffffffffffffffffffffffffffffffffffff168152602001908152602001600020600201908051906020019061078b929190610993565b5083600160008a73ffffffffffffffffffffffffffffffffffffffff1673ffffffffffffffffffffffffffffffffffffffff16815260200190815260200160002060030190805190602001906107e2929190610993565b5082600160008a73ffffffffffffffffffffffffffffffffffffffff1673ffffffffffffffffffffffffffffffffffffffff1681526020019081526020016000206004019080519060200190610839929190610993565b5081600160008a73ffffffffffffffffffffffffffffffffffffffff1673ffffffffffffffffffffffffffffffffffffffff168152602001908152602001600020600501819055506002889080600181540180825580915050600190039060005260206000200160009091909190916101000a81548173ffffffffffffffffffffffffffffffffffffffff021916908373ffffffffffffffffffffffffffffffffffffffff16021790555060019050979650505050505050565b60008060009050600280549050811161098c576002818154811061091a57610919610ee3565b5b9060005260206000200160009054906101000a900473ffffffffffffffffffffffffffffffffffffffff1673ffffffffffffffffffffffffffffffffffffffff168373ffffffffffffffffffffffffffffffffffffffff16141561098257600191505061098e565b600091505061098e565b505b919050565b82805461099f90610e51565b90600052602060002090601f0160209004810192826109c15760008555610a08565b82601f106109da57805160ff1916838001178555610a08565b82800160010185558215610a08579182015b82811115610a075782518255916020019190600101906109ec565b5b509050610a159190610a19565b5090565b5b80821115610a32576000816000905550600101610a1a565b5090565b6000610a49610a4484610d7a565b610d55565b905082815260208101848484011115610a6557610a64610f46565b5b610a70848285610e0f565b509392505050565b600081359050610a8781610f66565b92915050565b600082601f830112610aa257610aa1610f41565b5b8135610ab2848260208601610a36565b91505092915050565b600081359050610aca81610f7d565b92915050565b600060208284031215610ae657610ae5610f50565b5b6000610af484828501610a78565b91505092915050565b600080600080600080600060e0888a031215610b1c57610b1b610f50565b5b6000610b2a8a828b01610a78565b975050602088013567ffffffffffffffff811115610b4b57610b4a610f4b565b5b610b578a828b01610a8d565b9650506040610b688a828b01610abb565b955050606088013567ffffffffffffffff811115610b8957610b88610f4b565b5b610b958a828b01610a8d565b945050608088013567ffffffffffffffff811115610bb657610bb5610f4b565b5b610bc28a828b01610a8d565b93505060a088013567ffffffffffffffff811115610be357610be2610f4b565b5b610bef8a828b01610a8d565b92505060c0610c008a828b01610abb565b91505092959891949750929550565b600060208284031215610c2557610c24610f50565b5b6000610c3384828501610abb565b91505092915050565b610c4581610dc7565b82525050565b610c5481610dd9565b82525050565b6000610c6582610dab565b610c6f8185610db6565b9350610c7f818560208601610e1e565b610c8881610f55565b840191505092915050565b610c9c81610e05565b82525050565b6000602082019050610cb76000830184610c3c565b92915050565b6000602082019050610cd26000830184610c4b565b92915050565b600060c0820190508181036000830152610cf28189610c5a565b9050610d016020830188610c93565b8181036040830152610d138187610c5a565b90508181036060830152610d278186610c5a565b90508181036080830152610d3b8185610c5a565b9050610d4a60a0830184610c93565b979650505050505050565b6000610d5f610d70565b9050610d6b8282610e83565b919050565b6000604051905090565b600067ffffffffffffffff821115610d9557610d94610f12565b5b610d9e82610f55565b9050602081019050919050565b600081519050919050565b600082825260208201905092915050565b6000610dd282610de5565b9050919050565b60008115159050919050565b600073ffffffffffffffffffffffffffffffffffffffff82169050919050565b6000819050919050565b82818337600083830152505050565b60005b83811015610e3c578082015181840152602081019050610e21565b83811115610e4b576000848401525b50505050565b60006002820490506001821680610e6957607f821691505b60208210811415610e7d57610e7c610eb4565b5b50919050565b610e8c82610f55565b810181811067ffffffffffffffff82111715610eab57610eaa610f12565b5b80604052505050565b7f4e487b7100000000000000000000000000000000000000000000000000000000600052602260045260246000fd5b7f4e487b7100000000000000000000000000000000000000000000000000000000600052603260045260246000fd5b7f4e487b7100000000000000000000000000000000000000000000000000000000600052604160045260246000fd5b600080fd5b600080fd5b600080fd5b600080fd5b6000601f19601f8301169050919050565b610f6f81610dc7565b8114610f7a57600080fd5b50565b610f8681610e05565b8114610f9157600080fd5b5056fea2646970667358221220b13730ed2f2abe84c1f316d27b020d1a5703619df6072e87fffd88ef491088d464736f6c63430008070033",
					"opcodes": "PUSH1 0x80 PUSH1 0x40 MSTORE CALLVALUE DUP1 ISZERO PUSH2 0x10 JUMPI PUSH1 0x0 DUP1 REVERT JUMPDEST POP PUSH2 0xFCA DUP1 PUSH2 0x20 PUSH1 0x0 CODECOPY PUSH1 0x0 RETURN INVALID PUSH1 0x80 PUSH1 0x40 MSTORE CALLVALUE DUP1 ISZERO PUSH2 0x10 JUMPI PUSH1 0x0 DUP1 REVERT JUMPDEST POP PUSH1 0x4 CALLDATASIZE LT PUSH2 0x57 JUMPI PUSH1 0x0 CALLDATALOAD PUSH1 0xE0 SHR DUP1 PUSH4 0x643F7536 EQ PUSH2 0x5C JUMPI DUP1 PUSH4 0x827E0C99 EQ PUSH2 0x91 JUMPI DUP1 PUSH4 0xC5D25FA9 EQ PUSH2 0xC6 JUMPI DUP1 PUSH4 0xC9A52910 EQ PUSH2 0xF6 JUMPI DUP1 PUSH4 0xDFC56C3E EQ PUSH2 0x126 JUMPI JUMPDEST PUSH1 0x0 DUP1 REVERT JUMPDEST PUSH2 0x76 PUSH1 0x4 DUP1 CALLDATASIZE SUB DUP2 ADD SWAP1 PUSH2 0x71 SWAP2 SWAP1 PUSH2 0xC0F JUMP JUMPDEST PUSH2 0x156 JUMP JUMPDEST PUSH1 0x40 MLOAD PUSH2 0x88 SWAP7 SWAP6 SWAP5 SWAP4 SWAP3 SWAP2 SWAP1 PUSH2 0xCD8 JUMP JUMPDEST PUSH1 0x40 MLOAD DUP1 SWAP2 SUB SWAP1 RETURN JUMPDEST PUSH2 0xAB PUSH1 0x4 DUP1 CALLDATASIZE SUB DUP2 ADD SWAP1 PUSH2 0xA6 SWAP2 SWAP1 PUSH2 0xAD0 JUMP JUMPDEST PUSH2 0x3C2 JUMP JUMPDEST PUSH1 0x40 MLOAD PUSH2 0xBD SWAP7 SWAP6 SWAP5 SWAP4 SWAP3 SWAP2 SWAP1 PUSH2 0xCD8 JUMP JUMPDEST PUSH1 0x40 MLOAD DUP1 SWAP2 SUB SWAP1 RETURN JUMPDEST PUSH2 0xE0 PUSH1 0x4 DUP1 CALLDATASIZE SUB DUP2 ADD SWAP1 PUSH2 0xDB SWAP2 SWAP1 PUSH2 0xC0F JUMP JUMPDEST PUSH2 0x61E JUMP JUMPDEST PUSH1 0x40 MLOAD PUSH2 0xED SWAP2 SWAP1 PUSH2 0xCA2 JUMP JUMPDEST PUSH1 0x40 MLOAD DUP1 SWAP2 SUB SWAP1 RETURN JUMPDEST PUSH2 0x110 PUSH1 0x4 DUP1 CALLDATASIZE SUB DUP2 ADD SWAP1 PUSH2 0x10B SWAP2 SWAP1 PUSH2 0xAFD JUMP JUMPDEST PUSH2 0x65D JUMP JUMPDEST PUSH1 0x40 MLOAD PUSH2 0x11D SWAP2 SWAP1 PUSH2 0xCBD JUMP JUMPDEST PUSH1 0x40 MLOAD DUP1 SWAP2 SUB SWAP1 RETURN JUMPDEST PUSH2 0x140 PUSH1 0x4 DUP1 CALLDATASIZE SUB DUP2 ADD SWAP1 PUSH2 0x13B SWAP2 SWAP1 PUSH2 0xAD0 JUMP JUMPDEST PUSH2 0x8F3 JUMP JUMPDEST PUSH1 0x40 MLOAD PUSH2 0x14D SWAP2 SWAP1 PUSH2 0xCBD JUMP JUMPDEST PUSH1 0x40 MLOAD DUP1 SWAP2 SUB SWAP1 RETURN JUMPDEST PUSH1 0x0 DUP2 DUP2 SLOAD DUP2 LT PUSH2 0x166 JUMPI PUSH1 0x0 DUP1 REVERT JUMPDEST SWAP1 PUSH1 0x0 MSTORE PUSH1 0x20 PUSH1 0x0 KECCAK256 SWAP1 PUSH1 0x6 MUL ADD PUSH1 0x0 SWAP2 POP SWAP1 POP DUP1 PUSH1 0x0 ADD DUP1 SLOAD PUSH2 0x189 SWAP1 PUSH2 0xE51 JUMP JUMPDEST DUP1 PUSH1 0x1F ADD PUSH1 0x20 DUP1 SWAP2 DIV MUL PUSH1 0x20 ADD PUSH1 0x40 MLOAD SWAP1 DUP2 ADD PUSH1 0x40 MSTORE DUP1 SWAP3 SWAP2 SWAP1 DUP2 DUP2 MSTORE PUSH1 0x20 ADD DUP3 DUP1 SLOAD PUSH2 0x1B5 SWAP1 PUSH2 0xE51 JUMP JUMPDEST DUP1 ISZERO PUSH2 0x202 JUMPI DUP1 PUSH1 0x1F LT PUSH2 0x1D7 JUMPI PUSH2 0x100 DUP1 DUP4 SLOAD DIV MUL DUP4 MSTORE SWAP2 PUSH1 0x20 ADD SWAP2 PUSH2 0x202 JUMP JUMPDEST DUP3 ADD SWAP2 SWAP1 PUSH1 0x0 MSTORE PUSH1 0x20 PUSH1 0x0 KECCAK256 SWAP1 JUMPDEST DUP2 SLOAD DUP2 MSTORE SWAP1 PUSH1 0x1 ADD SWAP1 PUSH1 0x20 ADD DUP1 DUP4 GT PUSH2 0x1E5 JUMPI DUP3 SWAP1 SUB PUSH1 0x1F AND DUP3 ADD SWAP2 JUMPDEST POP POP POP POP POP SWAP1 DUP1 PUSH1 0x1 ADD SLOAD SWAP1 DUP1 PUSH1 0x2 ADD DUP1 SLOAD PUSH2 0x21D SWAP1 PUSH2 0xE51 JUMP JUMPDEST DUP1 PUSH1 0x1F ADD PUSH1 0x20 DUP1 SWAP2 DIV MUL PUSH1 0x20 ADD PUSH1 0x40 MLOAD SWAP1 DUP2 ADD PUSH1 0x40 MSTORE DUP1 SWAP3 SWAP2 SWAP1 DUP2 DUP2 MSTORE PUSH1 0x20 ADD DUP3 DUP1 SLOAD PUSH2 0x249 SWAP1 PUSH2 0xE51 JUMP JUMPDEST DUP1 ISZERO PUSH2 0x296 JUMPI DUP1 PUSH1 0x1F LT PUSH2 0x26B JUMPI PUSH2 0x100 DUP1 DUP4 SLOAD DIV MUL DUP4 MSTORE SWAP2 PUSH1 0x20 ADD SWAP2 PUSH2 0x296 JUMP JUMPDEST DUP3 ADD SWAP2 SWAP1 PUSH1 0x0 MSTORE PUSH1 0x20 PUSH1 0x0 KECCAK256 SWAP1 JUMPDEST DUP2 SLOAD DUP2 MSTORE SWAP1 PUSH1 0x1 ADD SWAP1 PUSH1 0x20 ADD DUP1 DUP4 GT PUSH2 0x279 JUMPI DUP3 SWAP1 SUB PUSH1 0x1F AND DUP3 ADD SWAP2 JUMPDEST POP POP POP POP POP SWAP1 DUP1 PUSH1 0x3 ADD DUP1 SLOAD PUSH2 0x2AB SWAP1 PUSH2 0xE51 JUMP JUMPDEST DUP1 PUSH1 0x1F ADD PUSH1 0x20 DUP1 SWAP2 DIV MUL PUSH1 0x20 ADD PUSH1 0x40 MLOAD SWAP1 DUP2 ADD PUSH1 0x40 MSTORE DUP1 SWAP3 SWAP2 SWAP1 DUP2 DUP2 MSTORE PUSH1 0x20 ADD DUP3 DUP1 SLOAD PUSH2 0x2D7 SWAP1 PUSH2 0xE51 JUMP JUMPDEST DUP1 ISZERO PUSH2 0x324 JUMPI DUP1 PUSH1 0x1F LT PUSH2 0x2F9 JUMPI PUSH2 0x100 DUP1 DUP4 SLOAD DIV MUL DUP4 MSTORE SWAP2 PUSH1 0x20 ADD SWAP2 PUSH2 0x324 JUMP JUMPDEST DUP3 ADD SWAP2 SWAP1 PUSH1 0x0 MSTORE PUSH1 0x20 PUSH1 0x0 KECCAK256 SWAP1 JUMPDEST DUP2 SLOAD DUP2 MSTORE SWAP1 PUSH1 0x1 ADD SWAP1 PUSH1 0x20 ADD DUP1 DUP4 GT PUSH2 0x307 JUMPI DUP3 SWAP1 SUB PUSH1 0x1F AND DUP3 ADD SWAP2 JUMPDEST POP POP POP POP POP SWAP1 DUP1 PUSH1 0x4 ADD DUP1 SLOAD PUSH2 0x339 SWAP1 PUSH2 0xE51 JUMP JUMPDEST DUP1 PUSH1 0x1F ADD PUSH1 0x20 DUP1 SWAP2 DIV MUL PUSH1 0x20 ADD PUSH1 0x40 MLOAD SWAP1 DUP2 ADD PUSH1 0x40 MSTORE DUP1 SWAP3 SWAP2 SWAP1 DUP2 DUP2 MSTORE PUSH1 0x20 ADD DUP3 DUP1 SLOAD PUSH2 0x365 SWAP1 PUSH2 0xE51 JUMP JUMPDEST DUP1 ISZERO PUSH2 0x3B2 JUMPI DUP1 PUSH1 0x1F LT PUSH2 0x387 JUMPI PUSH2 0x100 DUP1 DUP4 SLOAD DIV MUL DUP4 MSTORE SWAP2 PUSH1 0x20 ADD SWAP2 PUSH2 0x3B2 JUMP JUMPDEST DUP3 ADD SWAP2 SWAP1 PUSH1 0x0 MSTORE PUSH1 0x20 PUSH1 0x0 KECCAK256 SWAP1 JUMPDEST DUP2 SLOAD DUP2 MSTORE SWAP1 PUSH1 0x1 ADD SWAP1 PUSH1 0x20 ADD DUP1 DUP4 GT PUSH2 0x395 JUMPI DUP3 SWAP1 SUB PUSH1 0x1F AND DUP3 ADD SWAP2 JUMPDEST POP POP POP POP POP SWAP1 DUP1 PUSH1 0x5 ADD SLOAD SWAP1 POP DUP7 JUMP JUMPDEST PUSH1 0x1 PUSH1 0x20 MSTORE DUP1 PUSH1 0x0 MSTORE PUSH1 0x40 PUSH1 0x0 KECCAK256 PUSH1 0x0 SWAP2 POP SWAP1 POP DUP1 PUSH1 0x0 ADD DUP1 SLOAD PUSH2 0x3E5 SWAP1 PUSH2 0xE51 JUMP JUMPDEST DUP1 PUSH1 0x1F ADD PUSH1 0x20 DUP1 SWAP2 DIV MUL PUSH1 0x20 ADD PUSH1 0x40 MLOAD SWAP1 DUP2 ADD PUSH1 0x40 MSTORE DUP1 SWAP3 SWAP2 SWAP1 DUP2 DUP2 MSTORE PUSH1 0x20 ADD DUP3 DUP1 SLOAD PUSH2 0x411 SWAP1 PUSH2 0xE51 JUMP JUMPDEST DUP1 ISZERO PUSH2 0x45E JUMPI DUP1 PUSH1 0x1F LT PUSH2 0x433 JUMPI PUSH2 0x100 DUP1 DUP4 SLOAD DIV MUL DUP4 MSTORE SWAP2 PUSH1 0x20 ADD SWAP2 PUSH2 0x45E JUMP JUMPDEST DUP3 ADD SWAP2 SWAP1 PUSH1 0x0 MSTORE PUSH1 0x20 PUSH1 0x0 KECCAK256 SWAP1 JUMPDEST DUP2 SLOAD DUP2 MSTORE SWAP1 PUSH1 0x1 ADD SWAP1 PUSH1 0x20 ADD DUP1 DUP4 GT PUSH2 0x441 JUMPI DUP3 SWAP1 SUB PUSH1 0x1F AND DUP3 ADD SWAP2 JUMPDEST POP POP POP POP POP SWAP1 DUP1 PUSH1 0x1 ADD SLOAD SWAP1 DUP1 PUSH1 0x2 ADD DUP1 SLOAD PUSH2 0x479 SWAP1 PUSH2 0xE51 JUMP JUMPDEST DUP1 PUSH1 0x1F ADD PUSH1 0x20 DUP1 SWAP2 DIV MUL PUSH1 0x20 ADD PUSH1 0x40 MLOAD SWAP1 DUP2 ADD PUSH1 0x40 MSTORE DUP1 SWAP3 SWAP2 SWAP1 DUP2 DUP2 MSTORE PUSH1 0x20 ADD DUP3 DUP1 SLOAD PUSH2 0x4A5 SWAP1 PUSH2 0xE51 JUMP JUMPDEST DUP1 ISZERO PUSH2 0x4F2 JUMPI DUP1 PUSH1 0x1F LT PUSH2 0x4C7 JUMPI PUSH2 0x100 DUP1 DUP4 SLOAD DIV MUL DUP4 MSTORE SWAP2 PUSH1 0x20 ADD SWAP2 PUSH2 0x4F2 JUMP JUMPDEST DUP3 ADD SWAP2 SWAP1 PUSH1 0x0 MSTORE PUSH1 0x20 PUSH1 0x0 KECCAK256 SWAP1 JUMPDEST DUP2 SLOAD DUP2 MSTORE SWAP1 PUSH1 0x1 ADD SWAP1 PUSH1 0x20 ADD DUP1 DUP4 GT PUSH2 0x4D5 JUMPI DUP3 SWAP1 SUB PUSH1 0x1F AND DUP3 ADD SWAP2 JUMPDEST POP POP POP POP POP SWAP1 DUP1 PUSH1 0x3 ADD DUP1 SLOAD PUSH2 0x507 SWAP1 PUSH2 0xE51 JUMP JUMPDEST DUP1 PUSH1 0x1F ADD PUSH1 0x20 DUP1 SWAP2 DIV MUL PUSH1 0x20 ADD PUSH1 0x40 MLOAD SWAP1 DUP2 ADD PUSH1 0x40 MSTORE DUP1 SWAP3 SWAP2 SWAP1 DUP2 DUP2 MSTORE PUSH1 0x20 ADD DUP3 DUP1 SLOAD PUSH2 0x533 SWAP1 PUSH2 0xE51 JUMP JUMPDEST DUP1 ISZERO PUSH2 0x580 JUMPI DUP1 PUSH1 0x1F LT PUSH2 0x555 JUMPI PUSH2 0x100 DUP1 DUP4 SLOAD DIV MUL DUP4 MSTORE SWAP2 PUSH1 0x20 ADD SWAP2 PUSH2 0x580 JUMP JUMPDEST DUP3 ADD SWAP2 SWAP1 PUSH1 0x0 MSTORE PUSH1 0x20 PUSH1 0x0 KECCAK256 SWAP1 JUMPDEST DUP2 SLOAD DUP2 MSTORE SWAP1 PUSH1 0x1 ADD SWAP1 PUSH1 0x20 ADD DUP1 DUP4 GT PUSH2 0x563 JUMPI DUP3 SWAP1 SUB PUSH1 0x1F AND DUP3 ADD SWAP2 JUMPDEST POP POP POP POP POP SWAP1 DUP1 PUSH1 0x4 ADD DUP1 SLOAD PUSH2 0x595 SWAP1 PUSH2 0xE51 JUMP JUMPDEST DUP1 PUSH1 0x1F ADD PUSH1 0x20 DUP1 SWAP2 DIV MUL PUSH1 0x20 ADD PUSH1 0x40 MLOAD SWAP1 DUP2 ADD PUSH1 0x40 MSTORE DUP1 SWAP3 SWAP2 SWAP1 DUP2 DUP2 MSTORE PUSH1 0x20 ADD DUP3 DUP1 SLOAD PUSH2 0x5C1 SWAP1 PUSH2 0xE51 JUMP JUMPDEST DUP1 ISZERO PUSH2 0x60E JUMPI DUP1 PUSH1 0x1F LT PUSH2 0x5E3 JUMPI PUSH2 0x100 DUP1 DUP4 SLOAD DIV MUL DUP4 MSTORE SWAP2 PUSH1 0x20 ADD SWAP2 PUSH2 0x60E JUMP JUMPDEST DUP3 ADD SWAP2 SWAP1 PUSH1 0x0 MSTORE PUSH1 0x20 PUSH1 0x0 KECCAK256 SWAP1 JUMPDEST DUP2 SLOAD DUP2 MSTORE SWAP1 PUSH1 0x1 ADD SWAP1 PUSH1 0x20 ADD DUP1 DUP4 GT PUSH2 0x5F1 JUMPI DUP3 SWAP1 SUB PUSH1 0x1F AND DUP3 ADD SWAP2 JUMPDEST POP POP POP POP POP SWAP1 DUP1 PUSH1 0x5 ADD SLOAD SWAP1 POP DUP7 JUMP JUMPDEST PUSH1 0x2 DUP2 DUP2 SLOAD DUP2 LT PUSH2 0x62E JUMPI PUSH1 0x0 DUP1 REVERT JUMPDEST SWAP1 PUSH1 0x0 MSTORE PUSH1 0x20 PUSH1 0x0 KECCAK256 ADD PUSH1 0x0 SWAP2 POP SLOAD SWAP1 PUSH2 0x100 EXP SWAP1 DIV PUSH20 0xFFFFFFFFFFFFFFFFFFFFFFFFFFFFFFFFFFFFFFFF AND DUP2 JUMP JUMPDEST PUSH1 0x0 CALLER PUSH20 0xFFFFFFFFFFFFFFFFFFFFFFFFFFFFFFFFFFFFFFFF AND DUP9 PUSH20 0xFFFFFFFFFFFFFFFFFFFFFFFFFFFFFFFFFFFFFFFF AND EQ PUSH2 0x697 JUMPI PUSH1 0x0 DUP1 REVERT JUMPDEST DUP7 PUSH1 0x1 PUSH1 0x0 DUP11 PUSH20 0xFFFFFFFFFFFFFFFFFFFFFFFFFFFFFFFFFFFFFFFF AND PUSH20 0xFFFFFFFFFFFFFFFFFFFFFFFFFFFFFFFFFFFFFFFF AND DUP2 MSTORE PUSH1 0x20 ADD SWAP1 DUP2 MSTORE PUSH1 0x20 ADD PUSH1 0x0 KECCAK256 PUSH1 0x0 ADD SWAP1 DUP1 MLOAD SWAP1 PUSH1 0x20 ADD SWAP1 PUSH2 0x6ED SWAP3 SWAP2 SWAP1 PUSH2 0x993 JUMP JUMPDEST POP DUP6 PUSH1 0x1 PUSH1 0x0 DUP11 PUSH20 0xFFFFFFFFFFFFFFFFFFFFFFFFFFFFFFFFFFFFFFFF AND PUSH20 0xFFFFFFFFFFFFFFFFFFFFFFFFFFFFFFFFFFFFFFFF AND DUP2 MSTORE PUSH1 0x20 ADD SWAP1 DUP2 MSTORE PUSH1 0x20 ADD PUSH1 0x0 KECCAK256 PUSH1 0x1 ADD DUP2 SWAP1 SSTORE POP DUP5 PUSH1 0x1 PUSH1 0x0 DUP11 PUSH20 0xFFFFFFFFFFFFFFFFFFFFFFFFFFFFFFFFFFFFFFFF AND PUSH20 0xFFFFFFFFFFFFFFFFFFFFFFFFFFFFFFFFFFFFFFFF AND DUP2 MSTORE PUSH1 0x20 ADD SWAP1 DUP2 MSTORE PUSH1 0x20 ADD PUSH1 0x0 KECCAK256 PUSH1 0x2 ADD SWAP1 DUP1 MLOAD SWAP1 PUSH1 0x20 ADD SWAP1 PUSH2 0x78B SWAP3 SWAP2 SWAP1 PUSH2 0x993 JUMP JUMPDEST POP DUP4 PUSH1 0x1 PUSH1 0x0 DUP11 PUSH20 0xFFFFFFFFFFFFFFFFFFFFFFFFFFFFFFFFFFFFFFFF AND PUSH20 0xFFFFFFFFFFFFFFFFFFFFFFFFFFFFFFFFFFFFFFFF AND DUP2 MSTORE PUSH1 0x20 ADD SWAP1 DUP2 MSTORE PUSH1 0x20 ADD PUSH1 0x0 KECCAK256 PUSH1 0x3 ADD SWAP1 DUP1 MLOAD SWAP1 PUSH1 0x20 ADD SWAP1 PUSH2 0x7E2 SWAP3 SWAP2 SWAP1 PUSH2 0x993 JUMP JUMPDEST POP DUP3 PUSH1 0x1 PUSH1 0x0 DUP11 PUSH20 0xFFFFFFFFFFFFFFFFFFFFFFFFFFFFFFFFFFFFFFFF AND PUSH20 0xFFFFFFFFFFFFFFFFFFFFFFFFFFFFFFFFFFFFFFFF AND DUP2 MSTORE PUSH1 0x20 ADD SWAP1 DUP2 MSTORE PUSH1 0x20 ADD PUSH1 0x0 KECCAK256 PUSH1 0x4 ADD SWAP1 DUP1 MLOAD SWAP1 PUSH1 0x20 ADD SWAP1 PUSH2 0x839 SWAP3 SWAP2 SWAP1 PUSH2 0x993 JUMP JUMPDEST POP DUP2 PUSH1 0x1 PUSH1 0x0 DUP11 PUSH20 0xFFFFFFFFFFFFFFFFFFFFFFFFFFFFFFFFFFFFFFFF AND PUSH20 0xFFFFFFFFFFFFFFFFFFFFFFFFFFFFFFFFFFFFFFFF AND DUP2 MSTORE PUSH1 0x20 ADD SWAP1 DUP2 MSTORE PUSH1 0x20 ADD PUSH1 0x0 KECCAK256 PUSH1 0x5 ADD DUP2 SWAP1 SSTORE POP PUSH1 0x2 DUP9 SWAP1 DUP1 PUSH1 0x1 DUP2 SLOAD ADD DUP1 DUP3 SSTORE DUP1 SWAP2 POP POP PUSH1 0x1 SWAP1 SUB SWAP1 PUSH1 0x0 MSTORE PUSH1 0x20 PUSH1 0x0 KECCAK256 ADD PUSH1 0x0 SWAP1 SWAP2 SWAP1 SWAP2 SWAP1 SWAP2 PUSH2 0x100 EXP DUP2 SLOAD DUP2 PUSH20 0xFFFFFFFFFFFFFFFFFFFFFFFFFFFFFFFFFFFFFFFF MUL NOT AND SWAP1 DUP4 PUSH20 0xFFFFFFFFFFFFFFFFFFFFFFFFFFFFFFFFFFFFFFFF AND MUL OR SWAP1 SSTORE POP PUSH1 0x1 SWAP1 POP SWAP8 SWAP7 POP POP POP POP POP POP POP JUMP JUMPDEST PUSH1 0x0 DUP1 PUSH1 0x0 SWAP1 POP PUSH1 0x2 DUP1 SLOAD SWAP1 POP DUP2 GT PUSH2 0x98C JUMPI PUSH1 0x2 DUP2 DUP2 SLOAD DUP2 LT PUSH2 0x91A JUMPI PUSH2 0x919 PUSH2 0xEE3 JUMP JUMPDEST JUMPDEST SWAP1 PUSH1 0x0 MSTORE PUSH1 0x20 PUSH1 0x0 KECCAK256 ADD PUSH1 0x0 SWAP1 SLOAD SWAP1 PUSH2 0x100 EXP SWAP1 DIV PUSH20 0xFFFFFFFFFFFFFFFFFFFFFFFFFFFFFFFFFFFFFFFF AND PUSH20 0xFFFFFFFFFFFFFFFFFFFFFFFFFFFFFFFFFFFFFFFF AND DUP4 PUSH20 0xFFFFFFFFFFFFFFFFFFFFFFFFFFFFFFFFFFFFFFFF AND EQ ISZERO PUSH2 0x982 JUMPI PUSH1 0x1 SWAP2 POP POP PUSH2 0x98E JUMP JUMPDEST PUSH1 0x0 SWAP2 POP POP PUSH2 0x98E JUMP JUMPDEST POP JUMPDEST SWAP2 SWAP1 POP JUMP JUMPDEST DUP3 DUP1 SLOAD PUSH2 0x99F SWAP1 PUSH2 0xE51 JUMP JUMPDEST SWAP1 PUSH1 0x0 MSTORE PUSH1 0x20 PUSH1 0x0 KECCAK256 SWAP1 PUSH1 0x1F ADD PUSH1 0x20 SWAP1 DIV DUP2 ADD SWAP3 DUP3 PUSH2 0x9C1 JUMPI PUSH1 0x0 DUP6 SSTORE PUSH2 0xA08 JUMP JUMPDEST DUP3 PUSH1 0x1F LT PUSH2 0x9DA JUMPI DUP1 MLOAD PUSH1 0xFF NOT AND DUP4 DUP1 ADD OR DUP6 SSTORE PUSH2 0xA08 JUMP JUMPDEST DUP3 DUP1 ADD PUSH1 0x1 ADD DUP6 SSTORE DUP3 ISZERO PUSH2 0xA08 JUMPI SWAP2 DUP3 ADD JUMPDEST DUP3 DUP2 GT ISZERO PUSH2 0xA07 JUMPI DUP3 MLOAD DUP3 SSTORE SWAP2 PUSH1 0x20 ADD SWAP2 SWAP1 PUSH1 0x1 ADD SWAP1 PUSH2 0x9EC JUMP JUMPDEST JUMPDEST POP SWAP1 POP PUSH2 0xA15 SWAP2 SWAP1 PUSH2 0xA19 JUMP JUMPDEST POP SWAP1 JUMP JUMPDEST JUMPDEST DUP1 DUP3 GT ISZERO PUSH2 0xA32 JUMPI PUSH1 0x0 DUP2 PUSH1 0x0 SWAP1 SSTORE POP PUSH1 0x1 ADD PUSH2 0xA1A JUMP JUMPDEST POP SWAP1 JUMP JUMPDEST PUSH1 0x0 PUSH2 0xA49 PUSH2 0xA44 DUP5 PUSH2 0xD7A JUMP JUMPDEST PUSH2 0xD55 JUMP JUMPDEST SWAP1 POP DUP3 DUP2 MSTORE PUSH1 0x20 DUP2 ADD DUP5 DUP5 DUP5 ADD GT ISZERO PUSH2 0xA65 JUMPI PUSH2 0xA64 PUSH2 0xF46 JUMP JUMPDEST JUMPDEST PUSH2 0xA70 DUP5 DUP3 DUP6 PUSH2 0xE0F JUMP JUMPDEST POP SWAP4 SWAP3 POP POP POP JUMP JUMPDEST PUSH1 0x0 DUP2 CALLDATALOAD SWAP1 POP PUSH2 0xA87 DUP2 PUSH2 0xF66 JUMP JUMPDEST SWAP3 SWAP2 POP POP JUMP JUMPDEST PUSH1 0x0 DUP3 PUSH1 0x1F DUP4 ADD SLT PUSH2 0xAA2 JUMPI PUSH2 0xAA1 PUSH2 0xF41 JUMP JUMPDEST JUMPDEST DUP2 CALLDATALOAD PUSH2 0xAB2 DUP5 DUP3 PUSH1 0x20 DUP7 ADD PUSH2 0xA36 JUMP JUMPDEST SWAP2 POP POP SWAP3 SWAP2 POP POP JUMP JUMPDEST PUSH1 0x0 DUP2 CALLDATALOAD SWAP1 POP PUSH2 0xACA DUP2 PUSH2 0xF7D JUMP JUMPDEST SWAP3 SWAP2 POP POP JUMP JUMPDEST PUSH1 0x0 PUSH1 0x20 DUP3 DUP5 SUB SLT ISZERO PUSH2 0xAE6 JUMPI PUSH2 0xAE5 PUSH2 0xF50 JUMP JUMPDEST JUMPDEST PUSH1 0x0 PUSH2 0xAF4 DUP5 DUP3 DUP6 ADD PUSH2 0xA78 JUMP JUMPDEST SWAP2 POP POP SWAP3 SWAP2 POP POP JUMP JUMPDEST PUSH1 0x0 DUP1 PUSH1 0x0 DUP1 PUSH1 0x0 DUP1 PUSH1 0x0 PUSH1 0xE0 DUP9 DUP11 SUB SLT ISZERO PUSH2 0xB1C JUMPI PUSH2 0xB1B PUSH2 0xF50 JUMP JUMPDEST JUMPDEST PUSH1 0x0 PUSH2 0xB2A DUP11 DUP3 DUP12 ADD PUSH2 0xA78 JUMP JUMPDEST SWAP8 POP POP PUSH1 0x20 DUP9 ADD CALLDATALOAD PUSH8 0xFFFFFFFFFFFFFFFF DUP2 GT ISZERO PUSH2 0xB4B JUMPI PUSH2 0xB4A PUSH2 0xF4B JUMP JUMPDEST JUMPDEST PUSH2 0xB57 DUP11 DUP3 DUP12 ADD PUSH2 0xA8D JUMP JUMPDEST SWAP7 POP POP PUSH1 0x40 PUSH2 0xB68 DUP11 DUP3 DUP12 ADD PUSH2 0xABB JUMP JUMPDEST SWAP6 POP POP PUSH1 0x60 DUP9 ADD CALLDATALOAD PUSH8 0xFFFFFFFFFFFFFFFF DUP2 GT ISZERO PUSH2 0xB89 JUMPI PUSH2 0xB88 PUSH2 0xF4B JUMP JUMPDEST JUMPDEST PUSH2 0xB95 DUP11 DUP3 DUP12 ADD PUSH2 0xA8D JUMP JUMPDEST SWAP5 POP POP PUSH1 0x80 DUP9 ADD CALLDATALOAD PUSH8 0xFFFFFFFFFFFFFFFF DUP2 GT ISZERO PUSH2 0xBB6 JUMPI PUSH2 0xBB5 PUSH2 0xF4B JUMP JUMPDEST JUMPDEST PUSH2 0xBC2 DUP11 DUP3 DUP12 ADD PUSH2 0xA8D JUMP JUMPDEST SWAP4 POP POP PUSH1 0xA0 DUP9 ADD CALLDATALOAD PUSH8 0xFFFFFFFFFFFFFFFF DUP2 GT ISZERO PUSH2 0xBE3 JUMPI PUSH2 0xBE2 PUSH2 0xF4B JUMP JUMPDEST JUMPDEST PUSH2 0xBEF DUP11 DUP3 DUP12 ADD PUSH2 0xA8D JUMP JUMPDEST SWAP3 POP POP PUSH1 0xC0 PUSH2 0xC00 DUP11 DUP3 DUP12 ADD PUSH2 0xABB JUMP JUMPDEST SWAP2 POP POP SWAP3 SWAP6 SWAP9 SWAP2 SWAP5 SWAP8 POP SWAP3 SWAP6 POP JUMP JUMPDEST PUSH1 0x0 PUSH1 0x20 DUP3 DUP5 SUB SLT ISZERO PUSH2 0xC25 JUMPI PUSH2 0xC24 PUSH2 0xF50 JUMP JUMPDEST JUMPDEST PUSH1 0x0 PUSH2 0xC33 DUP5 DUP3 DUP6 ADD PUSH2 0xABB JUMP JUMPDEST SWAP2 POP POP SWAP3 SWAP2 POP POP JUMP JUMPDEST PUSH2 0xC45 DUP2 PUSH2 0xDC7 JUMP JUMPDEST DUP3 MSTORE POP POP JUMP JUMPDEST PUSH2 0xC54 DUP2 PUSH2 0xDD9 JUMP JUMPDEST DUP3 MSTORE POP POP JUMP JUMPDEST PUSH1 0x0 PUSH2 0xC65 DUP3 PUSH2 0xDAB JUMP JUMPDEST PUSH2 0xC6F DUP2 DUP6 PUSH2 0xDB6 JUMP JUMPDEST SWAP4 POP PUSH2 0xC7F DUP2 DUP6 PUSH1 0x20 DUP7 ADD PUSH2 0xE1E JUMP JUMPDEST PUSH2 0xC88 DUP2 PUSH2 0xF55 JUMP JUMPDEST DUP5 ADD SWAP2 POP POP SWAP3 SWAP2 POP POP JUMP JUMPDEST PUSH2 0xC9C DUP2 PUSH2 0xE05 JUMP JUMPDEST DUP3 MSTORE POP POP JUMP JUMPDEST PUSH1 0x0 PUSH1 0x20 DUP3 ADD SWAP1 POP PUSH2 0xCB7 PUSH1 0x0 DUP4 ADD DUP5 PUSH2 0xC3C JUMP JUMPDEST SWAP3 SWAP2 POP POP JUMP JUMPDEST PUSH1 0x0 PUSH1 0x20 DUP3 ADD SWAP1 POP PUSH2 0xCD2 PUSH1 0x0 DUP4 ADD DUP5 PUSH2 0xC4B JUMP JUMPDEST SWAP3 SWAP2 POP POP JUMP JUMPDEST PUSH1 0x0 PUSH1 0xC0 DUP3 ADD SWAP1 POP DUP2 DUP2 SUB PUSH1 0x0 DUP4 ADD MSTORE PUSH2 0xCF2 DUP2 DUP10 PUSH2 0xC5A JUMP JUMPDEST SWAP1 POP PUSH2 0xD01 PUSH1 0x20 DUP4 ADD DUP9 PUSH2 0xC93 JUMP JUMPDEST DUP2 DUP2 SUB PUSH1 0x40 DUP4 ADD MSTORE PUSH2 0xD13 DUP2 DUP8 PUSH2 0xC5A JUMP JUMPDEST SWAP1 POP DUP2 DUP2 SUB PUSH1 0x60 DUP4 ADD MSTORE PUSH2 0xD27 DUP2 DUP7 PUSH2 0xC5A JUMP JUMPDEST SWAP1 POP DUP2 DUP2 SUB PUSH1 0x80 DUP4 ADD MSTORE PUSH2 0xD3B DUP2 DUP6 PUSH2 0xC5A JUMP JUMPDEST SWAP1 POP PUSH2 0xD4A PUSH1 0xA0 DUP4 ADD DUP5 PUSH2 0xC93 JUMP JUMPDEST SWAP8 SWAP7 POP POP POP POP POP POP POP JUMP JUMPDEST PUSH1 0x0 PUSH2 0xD5F PUSH2 0xD70 JUMP JUMPDEST SWAP1 POP PUSH2 0xD6B DUP3 DUP3 PUSH2 0xE83 JUMP JUMPDEST SWAP2 SWAP1 POP JUMP JUMPDEST PUSH1 0x0 PUSH1 0x40 MLOAD SWAP1 POP SWAP1 JUMP JUMPDEST PUSH1 0x0 PUSH8 0xFFFFFFFFFFFFFFFF DUP3 GT ISZERO PUSH2 0xD95 JUMPI PUSH2 0xD94 PUSH2 0xF12 JUMP JUMPDEST JUMPDEST PUSH2 0xD9E DUP3 PUSH2 0xF55 JUMP JUMPDEST SWAP1 POP PUSH1 0x20 DUP2 ADD SWAP1 POP SWAP2 SWAP1 POP JUMP JUMPDEST PUSH1 0x0 DUP2 MLOAD SWAP1 POP SWAP2 SWAP1 POP JUMP JUMPDEST PUSH1 0x0 DUP3 DUP3 MSTORE PUSH1 0x20 DUP3 ADD SWAP1 POP SWAP3 SWAP2 POP POP JUMP JUMPDEST PUSH1 0x0 PUSH2 0xDD2 DUP3 PUSH2 0xDE5 JUMP JUMPDEST SWAP1 POP SWAP2 SWAP1 POP JUMP JUMPDEST PUSH1 0x0 DUP2 ISZERO ISZERO SWAP1 POP SWAP2 SWAP1 POP JUMP JUMPDEST PUSH1 0x0 PUSH20 0xFFFFFFFFFFFFFFFFFFFFFFFFFFFFFFFFFFFFFFFF DUP3 AND SWAP1 POP SWAP2 SWAP1 POP JUMP JUMPDEST PUSH1 0x0 DUP2 SWAP1 POP SWAP2 SWAP1 POP JUMP JUMPDEST DUP3 DUP2 DUP4 CALLDATACOPY PUSH1 0x0 DUP4 DUP4 ADD MSTORE POP POP POP JUMP JUMPDEST PUSH1 0x0 JUMPDEST DUP4 DUP2 LT ISZERO PUSH2 0xE3C JUMPI DUP1 DUP3 ADD MLOAD DUP2 DUP5 ADD MSTORE PUSH1 0x20 DUP2 ADD SWAP1 POP PUSH2 0xE21 JUMP JUMPDEST DUP4 DUP2 GT ISZERO PUSH2 0xE4B JUMPI PUSH1 0x0 DUP5 DUP5 ADD MSTORE JUMPDEST POP POP POP POP JUMP JUMPDEST PUSH1 0x0 PUSH1 0x2 DUP3 DIV SWAP1 POP PUSH1 0x1 DUP3 AND DUP1 PUSH2 0xE69 JUMPI PUSH1 0x7F DUP3 AND SWAP2 POP JUMPDEST PUSH1 0x20 DUP3 LT DUP2 EQ ISZERO PUSH2 0xE7D JUMPI PUSH2 0xE7C PUSH2 0xEB4 JUMP JUMPDEST JUMPDEST POP SWAP2 SWAP1 POP JUMP JUMPDEST PUSH2 0xE8C DUP3 PUSH2 0xF55 JUMP JUMPDEST DUP2 ADD DUP2 DUP2 LT PUSH8 0xFFFFFFFFFFFFFFFF DUP3 GT OR ISZERO PUSH2 0xEAB JUMPI PUSH2 0xEAA PUSH2 0xF12 JUMP JUMPDEST JUMPDEST DUP1 PUSH1 0x40 MSTORE POP POP POP JUMP JUMPDEST PUSH32 0x4E487B7100000000000000000000000000000000000000000000000000000000 PUSH1 0x0 MSTORE PUSH1 0x22 PUSH1 0x4 MSTORE PUSH1 0x24 PUSH1 0x0 REVERT JUMPDEST PUSH32 0x4E487B7100000000000000000000000000000000000000000000000000000000 PUSH1 0x0 MSTORE PUSH1 0x32 PUSH1 0x4 MSTORE PUSH1 0x24 PUSH1 0x0 REVERT JUMPDEST PUSH32 0x4E487B7100000000000000000000000000000000000000000000000000000000 PUSH1 0x0 MSTORE PUSH1 0x41 PUSH1 0x4 MSTORE PUSH1 0x24 PUSH1 0x0 REVERT JUMPDEST PUSH1 0x0 DUP1 REVERT JUMPDEST PUSH1 0x0 DUP1 REVERT JUMPDEST PUSH1 0x0 DUP1 REVERT JUMPDEST PUSH1 0x0 DUP1 REVERT JUMPDEST PUSH1 0x0 PUSH1 0x1F NOT PUSH1 0x1F DUP4 ADD AND SWAP1 POP SWAP2 SWAP1 POP JUMP JUMPDEST PUSH2 0xF6F DUP2 PUSH2 0xDC7 JUMP JUMPDEST DUP2 EQ PUSH2 0xF7A JUMPI PUSH1 0x0 DUP1 REVERT JUMPDEST POP JUMP JUMPDEST PUSH2 0xF86 DUP2 PUSH2 0xE05 JUMP JUMPDEST DUP2 EQ PUSH2 0xF91 JUMPI PUSH1 0x0 DUP1 REVERT JUMPDEST POP JUMP INVALID LOG2 PUSH5 0x6970667358 0x22 SLT KECCAK256 0xB1 CALLDATACOPY ADDRESS 0xED 0x2F 0x2A 0xBE DUP5 0xC1 RETURN AND 0xD2 PUSH28 0x20D1A5703619DF6072E87FFFD88EF491088D464736F6C6343000807 STOP CALLER "
				},
				"gasEstimates": {
					"creation": {
						"codeDepositCost": "808400",
						"executionCost": "844",
						"totalCost": "809244"
					},
					"external": {
						"PubKeyInstitutionInfoMap(address)": "infinite",
						"initInstitutionMap(address,string,uint256,string,string,string,uint256)": "infinite",
						"institutionBlockAddressArray(uint256)": "4978",
						"institutionInfoMap(uint256)": "infinite",
						"isExistInstitution(address)": "7232"
					}
				},
				"methodIdentifiers": {
					"PubKeyInstitutionInfoMap(address)": "827e0c99",
					"initInstitutionMap(address,string,uint256,string,string,string,uint256)": "c9a52910",
					"institutionBlockAddressArray(uint256)": "c5d25fa9",
					"institutionInfoMap(uint256)": "643f7536",
					"isExistInstitution(address)": "dfc56c3e"
				}
			},
			"storageLayout": {
				"storage": [
					{
						"astId": 18,
						"contract": "contracts/EduID_contract.sol:ISSC",
						"label": "institutionInfoMap",
						"offset": 0,
						"slot": "0",
						"type": "t_array(t_struct(InstitutionInfo)14_storage)dyn_storage"
					},
					{
						"astId": 23,
						"contract": "contracts/EduID_contract.sol:ISSC",
						"label": "PubKeyInstitutionInfoMap",
						"offset": 0,
						"slot": "1",
						"type": "t_mapping(t_address,t_struct(InstitutionInfo)14_storage)"
					},
					{
						"astId": 26,
						"contract": "contracts/EduID_contract.sol:ISSC",
						"label": "institutionBlockAddressArray",
						"offset": 0,
						"slot": "2",
						"type": "t_array(t_address)dyn_storage"
					}
				],
				"types": {
					"t_address": {
						"encoding": "inplace",
						"label": "address",
						"numberOfBytes": "20"
					},
					"t_array(t_address)dyn_storage": {
						"base": "t_address",
						"encoding": "dynamic_array",
						"label": "address[]",
						"numberOfBytes": "32"
					},
					"t_array(t_struct(InstitutionInfo)14_storage)dyn_storage": {
						"base": "t_struct(InstitutionInfo)14_storage",
						"encoding": "dynamic_array",
						"label": "struct ISSC.InstitutionInfo[]",
						"numberOfBytes": "32"
					},
					"t_mapping(t_address,t_struct(InstitutionInfo)14_storage)": {
						"encoding": "mapping",
						"key": "t_address",
						"label": "mapping(address => struct ISSC.InstitutionInfo)",
						"numberOfBytes": "32",
						"value": "t_struct(InstitutionInfo)14_storage"
					},
					"t_string_storage": {
						"encoding": "bytes",
						"label": "string",
						"numberOfBytes": "32"
					},
					"t_struct(InstitutionInfo)14_storage": {
						"encoding": "inplace",
						"label": "struct ISSC.InstitutionInfo",
						"members": [
							{
								"astId": 3,
								"contract": "contracts/EduID_contract.sol:ISSC",
								"label": "namaInstitusi",
								"offset": 0,
								"slot": "0",
								"type": "t_string_storage"
							},
							{
								"astId": 5,
								"contract": "contracts/EduID_contract.sol:ISSC",
								"label": "NPSN",
								"offset": 0,
								"slot": "1",
								"type": "t_uint256"
							},
							{
								"astId": 7,
								"contract": "contracts/EduID_contract.sol:ISSC",
								"label": "akreditasi",
								"offset": 0,
								"slot": "2",
								"type": "t_string_storage"
							},
							{
								"astId": 9,
								"contract": "contracts/EduID_contract.sol:ISSC",
								"label": "jenisSekolah",
								"offset": 0,
								"slot": "3",
								"type": "t_string_storage"
							},
							{
								"astId": 11,
								"contract": "contracts/EduID_contract.sol:ISSC",
								"label": "alamatInstitusi",
								"offset": 0,
								"slot": "4",
								"type": "t_string_storage"
							},
							{
								"astId": 13,
								"contract": "contracts/EduID_contract.sol:ISSC",
								"label": "nomorTelepon",
								"offset": 0,
								"slot": "5",
								"type": "t_uint256"
							}
						],
						"numberOfBytes": "192"
					},
					"t_uint256": {
						"encoding": "inplace",
						"label": "uint256",
						"numberOfBytes": "32"
					}
				}
			},
			"userdoc": {
				"kind": "user",
				"methods": {},
				"version": 1
			}
		}
	}
}