{
	"contracts/EduID_contract.sol": {
		"RPCC": {
			"abi": [
				{
					"inputs": [
						{
							"internalType": "uint256",
							"name": "",
							"type": "uint256"
						}
					],
					"name": "RdPermissionHashArray",
					"outputs": [
						{
							"internalType": "string",
							"name": "",
							"type": "string"
						}
					],
					"stateMutability": "view",
					"type": "function"
				},
				{
					"inputs": [
						{
							"internalType": "string",
							"name": "",
							"type": "string"
						}
					],
					"name": "RdPermissionMap",
					"outputs": [
						{
							"internalType": "string",
							"name": "rdId",
							"type": "string"
						},
						{
							"internalType": "string",
							"name": "rdHash",
							"type": "string"
						},
						{
							"internalType": "uint256",
							"name": "permissionType",
							"type": "uint256"
						}
					],
					"stateMutability": "view",
					"type": "function"
				},
				{
					"inputs": [
						{
							"internalType": "string",
							"name": "_rdHash",
							"type": "string"
						},
						{
							"internalType": "address",
							"name": "blockAddress",
							"type": "address"
						}
					],
					"name": "isExistPermission",
					"outputs": [
						{
							"internalType": "bool",
							"name": "",
							"type": "bool"
						}
					],
					"stateMutability": "view",
					"type": "function"
				},
				{
					"inputs": [
						{
							"internalType": "string",
							"name": "_rdHash",
							"type": "string"
						},
						{
							"internalType": "address",
							"name": "blockAddress",
							"type": "address"
						},
						{
							"internalType": "uint256",
							"name": "operation",
							"type": "uint256"
						}
					],
					"name": "updateRdPermissions",
					"outputs": [
						{
							"internalType": "bool",
							"name": "",
							"type": "bool"
						}
					],
					"stateMutability": "nonpayable",
					"type": "function"
				}
			],
			"devdoc": {
				"kind": "dev",
				"methods": {},
				"version": 1
			},
			"evm": {
				"assembly": "    /* \"contracts/EduID_contract.sol\":2580:4199  contract RPCC {\r... */\n  mstore(0x40, 0x80)\n  callvalue\n  dup1\n  iszero\n  tag_1\n  jumpi\n  0x00\n  dup1\n  revert\ntag_1:\n  pop\n  dataSize(sub_0)\n  dup1\n  dataOffset(sub_0)\n  0x00\n  codecopy\n  0x00\n  return\nstop\n\nsub_0: assembly {\n        /* \"contracts/EduID_contract.sol\":2580:4199  contract RPCC {\r... */\n      mstore(0x40, 0x80)\n      callvalue\n      dup1\n      iszero\n      tag_1\n      jumpi\n      0x00\n      dup1\n      revert\n    tag_1:\n      pop\n      jumpi(tag_2, lt(calldatasize, 0x04))\n      shr(0xe0, calldataload(0x00))\n      dup1\n      0x13f8d418\n      eq\n      tag_3\n      jumpi\n      dup1\n      0x4bb6b1e6\n      eq\n      tag_4\n      jumpi\n      dup1\n      0x9df16320\n      eq\n      tag_5\n      jumpi\n      dup1\n      0x9e77a49a\n      eq\n      tag_6\n      jumpi\n    tag_2:\n      0x00\n      dup1\n      revert\n        /* \"contracts/EduID_contract.sol\":3981:4196  function isExistPermission(string memory _rdHash, address blockAddress) public view returns (bool) {\r... */\n    tag_3:\n      tag_7\n      0x04\n      dup1\n      calldatasize\n      sub\n      dup2\n      add\n      swap1\n      tag_8\n      swap2\n      swap1\n      tag_9\n      jump\t// in\n    tag_8:\n      tag_10\n      jump\t// in\n    tag_7:\n      mload(0x40)\n      tag_11\n      swap2\n      swap1\n      tag_12\n      jump\t// in\n    tag_11:\n      mload(0x40)\n      dup1\n      swap2\n      sub\n      swap1\n      return\n        /* \"contracts/EduID_contract.sol\":2936:2993  mapping (string => PermissionInfo) public RdPermissionMap */\n    tag_4:\n      tag_13\n      0x04\n      dup1\n      calldatasize\n      sub\n      dup2\n      add\n      swap1\n      tag_14\n      swap2\n      swap1\n      tag_15\n      jump\t// in\n    tag_14:\n      tag_16\n      jump\t// in\n    tag_13:\n      mload(0x40)\n      tag_17\n      swap4\n      swap3\n      swap2\n      swap1\n      tag_18\n      jump\t// in\n    tag_17:\n      mload(0x40)\n      dup1\n      swap2\n      sub\n      swap1\n      return\n        /* \"contracts/EduID_contract.sol\":3046:3973  function updateRdPermissions(string memory _rdHash, address blockAddress, uint operation) public returns (bool) {\r... */\n    tag_5:\n      tag_19\n      0x04\n      dup1\n      calldatasize\n      sub\n      dup2\n      add\n      swap1\n      tag_20\n      swap2\n      swap1\n      tag_21\n      jump\t// in\n    tag_20:\n      tag_22\n      jump\t// in\n    tag_19:\n      mload(0x40)\n      tag_23\n      swap2\n      swap1\n      tag_12\n      jump\t// in\n    tag_23:\n      mload(0x40)\n      dup1\n      swap2\n      sub\n      swap1\n      return\n        /* \"contracts/EduID_contract.sol\":3000:3037  string[] public RdPermissionHashArray */\n    tag_6:\n      tag_24\n      0x04\n      dup1\n      calldatasize\n      sub\n      dup2\n      add\n      swap1\n      tag_25\n      swap2\n      swap1\n      tag_26\n      jump\t// in\n    tag_25:\n      tag_27\n      jump\t// in\n    tag_24:\n      mload(0x40)\n      tag_28\n      swap2\n      swap1\n      tag_29\n      jump\t// in\n    tag_28:\n      mload(0x40)\n      dup1\n      swap2\n      sub\n      swap1\n      return\n        /* \"contracts/EduID_contract.sol\":3981:4196  function isExistPermission(string memory _rdHash, address blockAddress) public view returns (bool) {\r... */\n    tag_10:\n        /* \"contracts/EduID_contract.sol\":4074:4078  bool */\n      0x00\n        /* \"contracts/EduID_contract.sol\":4138:4139  1 */\n      0x01\n        /* \"contracts/EduID_contract.sol\":4095:4110  RdPermissionMap */\n      0x00\n        /* \"contracts/EduID_contract.sol\":4111:4118  _rdHash */\n      dup5\n        /* \"contracts/EduID_contract.sol\":4095:4119  RdPermissionMap[_rdHash] */\n      mload(0x40)\n      tag_31\n      swap2\n      swap1\n      tag_32\n      jump\t// in\n    tag_31:\n      swap1\n      dup2\n      mstore\n      0x20\n      add\n      mload(0x40)\n      dup1\n      swap2\n      sub\n      swap1\n      keccak256\n        /* \"contracts/EduID_contract.sol\":4095:4134  RdPermissionMap[_rdHash].permissionType */\n      0x03\n      add\n      sload\n        /* \"contracts/EduID_contract.sol\":4095:4139  RdPermissionMap[_rdHash].permissionType == 1 */\n      eq\n        /* \"contracts/EduID_contract.sol\":4091:4179  if (RdPermissionMap[_rdHash].permissionType == 1) {\r... */\n      iszero\n      tag_33\n      jumpi\n        /* \"contracts/EduID_contract.sol\":4163:4167  true */\n      0x01\n        /* \"contracts/EduID_contract.sol\":4156:4167  return true */\n      swap1\n      pop\n      jump(tag_30)\n        /* \"contracts/EduID_contract.sol\":4091:4179  if (RdPermissionMap[_rdHash].permissionType == 1) {\r... */\n    tag_33:\n        /* \"contracts/EduID_contract.sol\":3981:4196  function isExistPermission(string memory _rdHash, address blockAddress) public view returns (bool) {\r... */\n    tag_30:\n      swap3\n      swap2\n      pop\n      pop\n      jump\t// out\n        /* \"contracts/EduID_contract.sol\":2936:2993  mapping (string => PermissionInfo) public RdPermissionMap */\n    tag_16:\n      0x00\n      dup2\n      dup1\n      mload\n      0x20\n      dup2\n      add\n      dup3\n      add\n      dup1\n      mload\n      dup5\n      dup3\n      mstore\n      0x20\n      dup4\n      add\n      0x20\n      dup6\n      add\n      keccak256\n      dup2\n      dup4\n      mstore\n      dup1\n      swap6\n      pop\n      pop\n      pop\n      pop\n      pop\n      pop\n      0x00\n      swap2\n      pop\n      swap1\n      pop\n      dup1\n      0x00\n      add\n      dup1\n      sload\n      tag_34\n      swap1\n      tag_35\n      jump\t// in\n    tag_34:\n      dup1\n      0x1f\n      add\n      0x20\n      dup1\n      swap2\n      div\n      mul\n      0x20\n      add\n      mload(0x40)\n      swap1\n      dup2\n      add\n      0x40\n      mstore\n      dup1\n      swap3\n      swap2\n      swap1\n      dup2\n      dup2\n      mstore\n      0x20\n      add\n      dup3\n      dup1\n      sload\n      tag_36\n      swap1\n      tag_35\n      jump\t// in\n    tag_36:\n      dup1\n      iszero\n      tag_37\n      jumpi\n      dup1\n      0x1f\n      lt\n      tag_38\n      jumpi\n      0x0100\n      dup1\n      dup4\n      sload\n      div\n      mul\n      dup4\n      mstore\n      swap2\n      0x20\n      add\n      swap2\n      jump(tag_37)\n    tag_38:\n      dup3\n      add\n      swap2\n      swap1\n      0x00\n      mstore\n      keccak256(0x00, 0x20)\n      swap1\n    tag_39:\n      dup2\n      sload\n      dup2\n      mstore\n      swap1\n      0x01\n      add\n      swap1\n      0x20\n      add\n      dup1\n      dup4\n      gt\n      tag_39\n      jumpi\n      dup3\n      swap1\n      sub\n      0x1f\n      and\n      dup3\n      add\n      swap2\n    tag_37:\n      pop\n      pop\n      pop\n      pop\n      pop\n      swap1\n      dup1\n      0x01\n      add\n      dup1\n      sload\n      tag_40\n      swap1\n      tag_35\n      jump\t// in\n    tag_40:\n      dup1\n      0x1f\n      add\n      0x20\n      dup1\n      swap2\n      div\n      mul\n      0x20\n      add\n      mload(0x40)\n      swap1\n      dup2\n      add\n      0x40\n      mstore\n      dup1\n      swap3\n      swap2\n      swap1\n      dup2\n      dup2\n      mstore\n      0x20\n      add\n      dup3\n      dup1\n      sload\n      tag_41\n      swap1\n      tag_35\n      jump\t// in\n    tag_41:\n      dup1\n      iszero\n      tag_42\n      jumpi\n      dup1\n      0x1f\n      lt\n      tag_43\n      jumpi\n      0x0100\n      dup1\n      dup4\n      sload\n      div\n      mul\n      dup4\n      mstore\n      swap2\n      0x20\n      add\n      swap2\n      jump(tag_42)\n    tag_43:\n      dup3\n      add\n      swap2\n      swap1\n      0x00\n      mstore\n      keccak256(0x00, 0x20)\n      swap1\n    tag_44:\n      dup2\n      sload\n      dup2\n      mstore\n      swap1\n      0x01\n      add\n      swap1\n      0x20\n      add\n      dup1\n      dup4\n      gt\n      tag_44\n      jumpi\n      dup3\n      swap1\n      sub\n      0x1f\n      and\n      dup3\n      add\n      swap2\n    tag_42:\n      pop\n      pop\n      pop\n      pop\n      pop\n      swap1\n      dup1\n      0x03\n      add\n      sload\n      swap1\n      pop\n      dup4\n      jump\t// out\n        /* \"contracts/EduID_contract.sol\":3046:3973  function updateRdPermissions(string memory _rdHash, address blockAddress, uint operation) public returns (bool) {\r... */\n    tag_22:\n        /* \"contracts/EduID_contract.sol\":3152:3156  bool */\n      0x00\n        /* \"contracts/EduID_contract.sol\":3186:3187  1 */\n      0x01\n        /* \"contracts/EduID_contract.sol\":3173:3182  operation */\n      dup3\n        /* \"contracts/EduID_contract.sol\":3173:3187  operation == 1 */\n      eq\n        /* \"contracts/EduID_contract.sol\":3169:3520  if (operation == 1) {\r... */\n      iszero\n      tag_46\n      jumpi\n        /* \"contracts/EduID_contract.sol\":3251:3252  1 */\n      0x01\n        /* \"contracts/EduID_contract.sol\":3208:3223  RdPermissionMap */\n      0x00\n        /* \"contracts/EduID_contract.sol\":3224:3231  _rdHash */\n      dup6\n        /* \"contracts/EduID_contract.sol\":3208:3232  RdPermissionMap[_rdHash] */\n      mload(0x40)\n      tag_47\n      swap2\n      swap1\n      tag_32\n      jump\t// in\n    tag_47:\n      swap1\n      dup2\n      mstore\n      0x20\n      add\n      mload(0x40)\n      dup1\n      swap2\n      sub\n      swap1\n      keccak256\n        /* \"contracts/EduID_contract.sol\":3208:3247  RdPermissionMap[_rdHash].permissionType */\n      0x03\n      add\n      sload\n        /* \"contracts/EduID_contract.sol\":3208:3252  RdPermissionMap[_rdHash].permissionType == 1 */\n      eq\n        /* \"contracts/EduID_contract.sol\":3204:3300  if (RdPermissionMap[_rdHash].permissionType == 1) {\r... */\n      iszero\n      tag_48\n      jumpi\n        /* \"contracts/EduID_contract.sol\":3280:3284  true */\n      0x01\n        /* \"contracts/EduID_contract.sol\":3273:3284  return true */\n      swap1\n      pop\n      jump(tag_45)\n        /* \"contracts/EduID_contract.sol\":3204:3300  if (RdPermissionMap[_rdHash].permissionType == 1) {\r... */\n    tag_48:\n        /* \"contracts/EduID_contract.sol\":3361:3362  0 */\n      0x00\n        /* \"contracts/EduID_contract.sol\":3318:3333  RdPermissionMap */\n      dup1\n        /* \"contracts/EduID_contract.sol\":3334:3341  _rdHash */\n      dup6\n        /* \"contracts/EduID_contract.sol\":3318:3342  RdPermissionMap[_rdHash] */\n      mload(0x40)\n      tag_49\n      swap2\n      swap1\n      tag_32\n      jump\t// in\n    tag_49:\n      swap1\n      dup2\n      mstore\n      0x20\n      add\n      mload(0x40)\n      dup1\n      swap2\n      sub\n      swap1\n      keccak256\n        /* \"contracts/EduID_contract.sol\":3318:3357  RdPermissionMap[_rdHash].permissionType */\n      0x03\n      add\n      sload\n        /* \"contracts/EduID_contract.sol\":3318:3362  RdPermissionMap[_rdHash].permissionType == 0 */\n      eq\n        /* \"contracts/EduID_contract.sol\":3314:3411  if (RdPermissionMap[_rdHash].permissionType == 0) {\r... */\n      iszero\n      tag_50\n      jumpi\n        /* \"contracts/EduID_contract.sol\":3390:3395  false */\n      0x00\n        /* \"contracts/EduID_contract.sol\":3383:3395  return false */\n      swap1\n      pop\n      jump(tag_45)\n        /* \"contracts/EduID_contract.sol\":3314:3411  if (RdPermissionMap[_rdHash].permissionType == 0) {\r... */\n    tag_50:\n        /* \"contracts/EduID_contract.sol\":3425:3440  RdPermissionMap */\n      0x00\n        /* \"contracts/EduID_contract.sol\":3441:3448  _rdHash */\n      dup5\n        /* \"contracts/EduID_contract.sol\":3425:3449  RdPermissionMap[_rdHash] */\n      mload(0x40)\n      tag_51\n      swap2\n      swap1\n      tag_32\n      jump\t// in\n    tag_51:\n      swap1\n      dup2\n      mstore\n      0x20\n      add\n      mload(0x40)\n      dup1\n      swap2\n      sub\n      swap1\n      keccak256\n        /* \"contracts/EduID_contract.sol\":3425:3463  RdPermissionMap[_rdHash].rdPermissions */\n      0x02\n      add\n        /* \"contracts/EduID_contract.sol\":3469:3481  blockAddress */\n      dup4\n        /* \"contracts/EduID_contract.sol\":3425:3482  RdPermissionMap[_rdHash].rdPermissions.push(blockAddress) */\n      swap1\n      dup1\n      0x01\n      dup2\n      sload\n      add\n      dup1\n      dup3\n      sstore\n      dup1\n      swap2\n      pop\n      pop\n      0x01\n      swap1\n      sub\n      swap1\n      0x00\n      mstore\n      keccak256(0x00, 0x20)\n      add\n      0x00\n      swap1\n      swap2\n      swap1\n      swap2\n      swap1\n      swap2\n      0x0100\n      exp\n      dup2\n      sload\n      dup2\n      0xffffffffffffffffffffffffffffffffffffffff\n      mul\n      not\n      and\n      swap1\n      dup4\n      0xffffffffffffffffffffffffffffffffffffffff\n      and\n      mul\n      or\n      swap1\n      sstore\n      pop\n        /* \"contracts/EduID_contract.sol\":3504:3508  true */\n      0x01\n        /* \"contracts/EduID_contract.sol\":3497:3508  return true */\n      swap1\n      pop\n      jump(tag_45)\n        /* \"contracts/EduID_contract.sol\":3169:3520  if (operation == 1) {\r... */\n    tag_46:\n        /* \"contracts/EduID_contract.sol\":3548:3549  0 */\n      0x00\n        /* \"contracts/EduID_contract.sol\":3535:3544  operation */\n      dup3\n        /* \"contracts/EduID_contract.sol\":3535:3549  operation == 0 */\n      eq\n        /* \"contracts/EduID_contract.sol\":3532:3966  if(operation == 0) {\r... */\n      iszero\n      tag_53\n      jumpi\n        /* \"contracts/EduID_contract.sol\":3571:3577  uint i */\n      0x00\n        /* \"contracts/EduID_contract.sol\":3585:3600  RdPermissionMap */\n      dup1\n        /* \"contracts/EduID_contract.sol\":3601:3608  _rdHash */\n      dup6\n        /* \"contracts/EduID_contract.sol\":3585:3609  RdPermissionMap[_rdHash] */\n      mload(0x40)\n      tag_57\n      swap2\n      swap1\n      tag_32\n      jump\t// in\n    tag_57:\n      swap1\n      dup2\n      mstore\n      0x20\n      add\n      mload(0x40)\n      dup1\n      swap2\n      sub\n      swap1\n      keccak256\n        /* \"contracts/EduID_contract.sol\":3585:3623  RdPermissionMap[_rdHash].rdPermissions */\n      0x02\n      add\n        /* \"contracts/EduID_contract.sol\":3585:3630  RdPermissionMap[_rdHash].rdPermissions.length */\n      dup1\n      sload\n      swap1\n      pop\n        /* \"contracts/EduID_contract.sol\":3582:3583  i */\n      dup2\n        /* \"contracts/EduID_contract.sol\":3582:3630  i<=RdPermissionMap[_rdHash].rdPermissions.length */\n      gt\n        /* \"contracts/EduID_contract.sol\":3566:3955  for (uint i =0; i<=RdPermissionMap[_rdHash].rdPermissions.length; i++) {\r... */\n      tag_55\n      jumpi\n        /* \"contracts/EduID_contract.sol\":3705:3717  blockAddress */\n      dup4\n        /* \"contracts/EduID_contract.sol\":3660:3717  RdPermissionMap[_rdHash].rdPermissions[i] == blockAddress */\n      0xffffffffffffffffffffffffffffffffffffffff\n      and\n        /* \"contracts/EduID_contract.sol\":3660:3675  RdPermissionMap */\n      0x00\n        /* \"contracts/EduID_contract.sol\":3676:3683  _rdHash */\n      dup7\n        /* \"contracts/EduID_contract.sol\":3660:3684  RdPermissionMap[_rdHash] */\n      mload(0x40)\n      tag_58\n      swap2\n      swap1\n      tag_32\n      jump\t// in\n    tag_58:\n      swap1\n      dup2\n      mstore\n      0x20\n      add\n      mload(0x40)\n      dup1\n      swap2\n      sub\n      swap1\n      keccak256\n        /* \"contracts/EduID_contract.sol\":3660:3698  RdPermissionMap[_rdHash].rdPermissions */\n      0x02\n      add\n        /* \"contracts/EduID_contract.sol\":3699:3700  i */\n      dup3\n        /* \"contracts/EduID_contract.sol\":3660:3701  RdPermissionMap[_rdHash].rdPermissions[i] */\n      dup2\n      sload\n      dup2\n      lt\n      tag_59\n      jumpi\n      tag_60\n      tag_61\n      jump\t// in\n    tag_60:\n    tag_59:\n      swap1\n      0x00\n      mstore\n      keccak256(0x00, 0x20)\n      add\n      0x00\n      swap1\n      sload\n      swap1\n      0x0100\n      exp\n      swap1\n      div\n      0xffffffffffffffffffffffffffffffffffffffff\n      and\n        /* \"contracts/EduID_contract.sol\":3660:3717  RdPermissionMap[_rdHash].rdPermissions[i] == blockAddress */\n      0xffffffffffffffffffffffffffffffffffffffff\n      and\n      eq\n        /* \"contracts/EduID_contract.sol\":3656:3909  if (RdPermissionMap[_rdHash].rdPermissions[i] == blockAddress) {\r... */\n      iszero\n      tag_63\n      jumpi\n        /* \"contracts/EduID_contract.sol\":3749:3764  RdPermissionMap */\n      0x00\n        /* \"contracts/EduID_contract.sol\":3765:3772  _rdHash */\n      dup6\n        /* \"contracts/EduID_contract.sol\":3749:3773  RdPermissionMap[_rdHash] */\n      mload(0x40)\n      tag_64\n      swap2\n      swap1\n      tag_32\n      jump\t// in\n    tag_64:\n      swap1\n      dup2\n      mstore\n      0x20\n      add\n      mload(0x40)\n      dup1\n      swap2\n      sub\n      swap1\n      keccak256\n        /* \"contracts/EduID_contract.sol\":3749:3787  RdPermissionMap[_rdHash].rdPermissions */\n      0x02\n      add\n        /* \"contracts/EduID_contract.sol\":3788:3789  i */\n      dup2\n        /* \"contracts/EduID_contract.sol\":3749:3790  RdPermissionMap[_rdHash].rdPermissions[i] */\n      dup2\n      sload\n      dup2\n      lt\n      tag_65\n      jumpi\n      tag_66\n      tag_61\n      jump\t// in\n    tag_66:\n    tag_65:\n      swap1\n      0x00\n      mstore\n      keccak256(0x00, 0x20)\n      add\n      0x00\n        /* \"contracts/EduID_contract.sol\":3742:3790  delete RdPermissionMap[_rdHash].rdPermissions[i] */\n      0x0100\n      exp\n      dup2\n      sload\n      swap1\n      0xffffffffffffffffffffffffffffffffffffffff\n      mul\n      not\n      and\n      swap1\n      sstore\n        /* \"contracts/EduID_contract.sol\":3813:3828  RdPermissionMap */\n      0x00\n        /* \"contracts/EduID_contract.sol\":3829:3836  _rdHash */\n      dup6\n        /* \"contracts/EduID_contract.sol\":3813:3837  RdPermissionMap[_rdHash] */\n      mload(0x40)\n      tag_68\n      swap2\n      swap1\n      tag_32\n      jump\t// in\n    tag_68:\n      swap1\n      dup2\n      mstore\n      0x20\n      add\n      mload(0x40)\n      dup1\n      swap2\n      sub\n      swap1\n      keccak256\n        /* \"contracts/EduID_contract.sol\":3813:3851  RdPermissionMap[_rdHash].rdPermissions */\n      pop\n        /* \"contracts/EduID_contract.sol\":3885:3889  true */\n      0x01\n        /* \"contracts/EduID_contract.sol\":3878:3889  return true */\n      swap2\n      pop\n      pop\n      jump(tag_45)\n        /* \"contracts/EduID_contract.sol\":3656:3909  if (RdPermissionMap[_rdHash].rdPermissions[i] == blockAddress) {\r... */\n    tag_63:\n        /* \"contracts/EduID_contract.sol\":3934:3939  false */\n      0x00\n        /* \"contracts/EduID_contract.sol\":3927:3939  return false */\n      swap2\n      pop\n      pop\n      jump(tag_45)\n        /* \"contracts/EduID_contract.sol\":3566:3955  for (uint i =0; i<=RdPermissionMap[_rdHash].rdPermissions.length; i++) {\r... */\n    tag_55:\n      pop\n        /* \"contracts/EduID_contract.sol\":3532:3966  if(operation == 0) {\r... */\n    tag_53:\n        /* \"contracts/EduID_contract.sol\":3046:3973  function updateRdPermissions(string memory _rdHash, address blockAddress, uint operation) public returns (bool) {\r... */\n    tag_45:\n      swap4\n      swap3\n      pop\n      pop\n      pop\n      jump\t// out\n        /* \"contracts/EduID_contract.sol\":3000:3037  string[] public RdPermissionHashArray */\n    tag_27:\n      0x01\n      dup2\n      dup2\n      sload\n      dup2\n      lt\n      tag_71\n      jumpi\n      0x00\n      dup1\n      revert\n    tag_71:\n      swap1\n      0x00\n      mstore\n      keccak256(0x00, 0x20)\n      add\n      0x00\n      swap2\n      pop\n      swap1\n      pop\n      dup1\n      sload\n      tag_73\n      swap1\n      tag_35\n      jump\t// in\n    tag_73:\n      dup1\n      0x1f\n      add\n      0x20\n      dup1\n      swap2\n      div\n      mul\n      0x20\n      add\n      mload(0x40)\n      swap1\n      dup2\n      add\n      0x40\n      mstore\n      dup1\n      swap3\n      swap2\n      swap1\n      dup2\n      dup2\n      mstore\n      0x20\n      add\n      dup3\n      dup1\n      sload\n      tag_74\n      swap1\n      tag_35\n      jump\t// in\n    tag_74:\n      dup1\n      iszero\n      tag_75\n      jumpi\n      dup1\n      0x1f\n      lt\n      tag_76\n      jumpi\n      0x0100\n      dup1\n      dup4\n      sload\n      div\n      mul\n      dup4\n      mstore\n      swap2\n      0x20\n      add\n      swap2\n      jump(tag_75)\n    tag_76:\n      dup3\n      add\n      swap2\n      swap1\n      0x00\n      mstore\n      keccak256(0x00, 0x20)\n      swap1\n    tag_77:\n      dup2\n      sload\n      dup2\n      mstore\n      swap1\n      0x01\n      add\n      swap1\n      0x20\n      add\n      dup1\n      dup4\n      gt\n      tag_77\n      jumpi\n      dup3\n      swap1\n      sub\n      0x1f\n      and\n      dup3\n      add\n      swap2\n    tag_75:\n      pop\n      pop\n      pop\n      pop\n      pop\n      dup2\n      jump\t// out\n        /* \"#utility.yul\":7:419   */\n    tag_79:\n        /* \"#utility.yul\":85:90   */\n      0x00\n        /* \"#utility.yul\":110:176   */\n      tag_81\n        /* \"#utility.yul\":126:175   */\n      tag_82\n        /* \"#utility.yul\":168:174   */\n      dup5\n        /* \"#utility.yul\":126:175   */\n      tag_83\n      jump\t// in\n    tag_82:\n        /* \"#utility.yul\":110:176   */\n      tag_84\n      jump\t// in\n    tag_81:\n        /* \"#utility.yul\":101:176   */\n      swap1\n      pop\n        /* \"#utility.yul\":199:205   */\n      dup3\n        /* \"#utility.yul\":192:197   */\n      dup2\n        /* \"#utility.yul\":185:206   */\n      mstore\n        /* \"#utility.yul\":237:241   */\n      0x20\n        /* \"#utility.yul\":230:235   */\n      dup2\n        /* \"#utility.yul\":226:242   */\n      add\n        /* \"#utility.yul\":275:278   */\n      dup5\n        /* \"#utility.yul\":266:272   */\n      dup5\n        /* \"#utility.yul\":261:264   */\n      dup5\n        /* \"#utility.yul\":257:273   */\n      add\n        /* \"#utility.yul\":254:279   */\n      gt\n        /* \"#utility.yul\":251:363   */\n      iszero\n      tag_85\n      jumpi\n        /* \"#utility.yul\":282:361   */\n      tag_86\n      tag_87\n      jump\t// in\n    tag_86:\n        /* \"#utility.yul\":251:363   */\n    tag_85:\n        /* \"#utility.yul\":372:413   */\n      tag_88\n        /* \"#utility.yul\":406:412   */\n      dup5\n        /* \"#utility.yul\":401:404   */\n      dup3\n        /* \"#utility.yul\":396:399   */\n      dup6\n        /* \"#utility.yul\":372:413   */\n      tag_89\n      jump\t// in\n    tag_88:\n        /* \"#utility.yul\":91:419   */\n      pop\n        /* \"#utility.yul\":7:419   */\n      swap4\n      swap3\n      pop\n      pop\n      pop\n      jump\t// out\n        /* \"#utility.yul\":425:564   */\n    tag_90:\n        /* \"#utility.yul\":471:476   */\n      0x00\n        /* \"#utility.yul\":509:515   */\n      dup2\n        /* \"#utility.yul\":496:516   */\n      calldataload\n        /* \"#utility.yul\":487:516   */\n      swap1\n      pop\n        /* \"#utility.yul\":525:558   */\n      tag_92\n        /* \"#utility.yul\":552:557   */\n      dup2\n        /* \"#utility.yul\":525:558   */\n      tag_93\n      jump\t// in\n    tag_92:\n        /* \"#utility.yul\":425:564   */\n      swap3\n      swap2\n      pop\n      pop\n      jump\t// out\n        /* \"#utility.yul\":584:924   */\n    tag_94:\n        /* \"#utility.yul\":640:645   */\n      0x00\n        /* \"#utility.yul\":689:692   */\n      dup3\n        /* \"#utility.yul\":682:686   */\n      0x1f\n        /* \"#utility.yul\":674:680   */\n      dup4\n        /* \"#utility.yul\":670:687   */\n      add\n        /* \"#utility.yul\":666:693   */\n      slt\n        /* \"#utility.yul\":656:778   */\n      tag_96\n      jumpi\n        /* \"#utility.yul\":697:776   */\n      tag_97\n      tag_98\n      jump\t// in\n    tag_97:\n        /* \"#utility.yul\":656:778   */\n    tag_96:\n        /* \"#utility.yul\":814:820   */\n      dup2\n        /* \"#utility.yul\":801:821   */\n      calldataload\n        /* \"#utility.yul\":839:918   */\n      tag_99\n        /* \"#utility.yul\":914:917   */\n      dup5\n        /* \"#utility.yul\":906:912   */\n      dup3\n        /* \"#utility.yul\":899:903   */\n      0x20\n        /* \"#utility.yul\":891:897   */\n      dup7\n        /* \"#utility.yul\":887:904   */\n      add\n        /* \"#utility.yul\":839:918   */\n      tag_79\n      jump\t// in\n    tag_99:\n        /* \"#utility.yul\":830:918   */\n      swap2\n      pop\n        /* \"#utility.yul\":646:924   */\n      pop\n        /* \"#utility.yul\":584:924   */\n      swap3\n      swap2\n      pop\n      pop\n      jump\t// out\n        /* \"#utility.yul\":930:1069   */\n    tag_100:\n        /* \"#utility.yul\":976:981   */\n      0x00\n        /* \"#utility.yul\":1014:1020   */\n      dup2\n        /* \"#utility.yul\":1001:1021   */\n      calldataload\n        /* \"#utility.yul\":992:1021   */\n      swap1\n      pop\n        /* \"#utility.yul\":1030:1063   */\n      tag_102\n        /* \"#utility.yul\":1057:1062   */\n      dup2\n        /* \"#utility.yul\":1030:1063   */\n      tag_103\n      jump\t// in\n    tag_102:\n        /* \"#utility.yul\":930:1069   */\n      swap3\n      swap2\n      pop\n      pop\n      jump\t// out\n        /* \"#utility.yul\":1075:1584   */\n    tag_15:\n        /* \"#utility.yul\":1144:1150   */\n      0x00\n        /* \"#utility.yul\":1193:1195   */\n      0x20\n        /* \"#utility.yul\":1181:1190   */\n      dup3\n        /* \"#utility.yul\":1172:1179   */\n      dup5\n        /* \"#utility.yul\":1168:1191   */\n      sub\n        /* \"#utility.yul\":1164:1196   */\n      slt\n        /* \"#utility.yul\":1161:1280   */\n      iszero\n      tag_105\n      jumpi\n        /* \"#utility.yul\":1199:1278   */\n      tag_106\n      tag_107\n      jump\t// in\n    tag_106:\n        /* \"#utility.yul\":1161:1280   */\n    tag_105:\n        /* \"#utility.yul\":1347:1348   */\n      0x00\n        /* \"#utility.yul\":1336:1345   */\n      dup3\n        /* \"#utility.yul\":1332:1349   */\n      add\n        /* \"#utility.yul\":1319:1350   */\n      calldataload\n        /* \"#utility.yul\":1377:1395   */\n      0xffffffffffffffff\n        /* \"#utility.yul\":1369:1375   */\n      dup2\n        /* \"#utility.yul\":1366:1396   */\n      gt\n        /* \"#utility.yul\":1363:1480   */\n      iszero\n      tag_108\n      jumpi\n        /* \"#utility.yul\":1399:1478   */\n      tag_109\n      tag_110\n      jump\t// in\n    tag_109:\n        /* \"#utility.yul\":1363:1480   */\n    tag_108:\n        /* \"#utility.yul\":1504:1567   */\n      tag_111\n        /* \"#utility.yul\":1559:1566   */\n      dup5\n        /* \"#utility.yul\":1550:1556   */\n      dup3\n        /* \"#utility.yul\":1539:1548   */\n      dup6\n        /* \"#utility.yul\":1535:1557   */\n      add\n        /* \"#utility.yul\":1504:1567   */\n      tag_94\n      jump\t// in\n    tag_111:\n        /* \"#utility.yul\":1494:1567   */\n      swap2\n      pop\n        /* \"#utility.yul\":1290:1577   */\n      pop\n        /* \"#utility.yul\":1075:1584   */\n      swap3\n      swap2\n      pop\n      pop\n      jump\t// out\n        /* \"#utility.yul\":1590:2244   */\n    tag_9:\n        /* \"#utility.yul\":1668:1674   */\n      0x00\n        /* \"#utility.yul\":1676:1682   */\n      dup1\n        /* \"#utility.yul\":1725:1727   */\n      0x40\n        /* \"#utility.yul\":1713:1722   */\n      dup4\n        /* \"#utility.yul\":1704:1711   */\n      dup6\n        /* \"#utility.yul\":1700:1723   */\n      sub\n        /* \"#utility.yul\":1696:1728   */\n      slt\n        /* \"#utility.yul\":1693:1812   */\n      iszero\n      tag_113\n      jumpi\n        /* \"#utility.yul\":1731:1810   */\n      tag_114\n      tag_107\n      jump\t// in\n    tag_114:\n        /* \"#utility.yul\":1693:1812   */\n    tag_113:\n        /* \"#utility.yul\":1879:1880   */\n      0x00\n        /* \"#utility.yul\":1868:1877   */\n      dup4\n        /* \"#utility.yul\":1864:1881   */\n      add\n        /* \"#utility.yul\":1851:1882   */\n      calldataload\n        /* \"#utility.yul\":1909:1927   */\n      0xffffffffffffffff\n        /* \"#utility.yul\":1901:1907   */\n      dup2\n        /* \"#utility.yul\":1898:1928   */\n      gt\n        /* \"#utility.yul\":1895:2012   */\n      iszero\n      tag_115\n      jumpi\n        /* \"#utility.yul\":1931:2010   */\n      tag_116\n      tag_110\n      jump\t// in\n    tag_116:\n        /* \"#utility.yul\":1895:2012   */\n    tag_115:\n        /* \"#utility.yul\":2036:2099   */\n      tag_117\n        /* \"#utility.yul\":2091:2098   */\n      dup6\n        /* \"#utility.yul\":2082:2088   */\n      dup3\n        /* \"#utility.yul\":2071:2080   */\n      dup7\n        /* \"#utility.yul\":2067:2089   */\n      add\n        /* \"#utility.yul\":2036:2099   */\n      tag_94\n      jump\t// in\n    tag_117:\n        /* \"#utility.yul\":2026:2099   */\n      swap3\n      pop\n        /* \"#utility.yul\":1822:2109   */\n      pop\n        /* \"#utility.yul\":2148:2150   */\n      0x20\n        /* \"#utility.yul\":2174:2227   */\n      tag_118\n        /* \"#utility.yul\":2219:2226   */\n      dup6\n        /* \"#utility.yul\":2210:2216   */\n      dup3\n        /* \"#utility.yul\":2199:2208   */\n      dup7\n        /* \"#utility.yul\":2195:2217   */\n      add\n        /* \"#utility.yul\":2174:2227   */\n      tag_90\n      jump\t// in\n    tag_118:\n        /* \"#utility.yul\":2164:2227   */\n      swap2\n      pop\n        /* \"#utility.yul\":2119:2237   */\n      pop\n        /* \"#utility.yul\":1590:2244   */\n      swap3\n      pop\n      swap3\n      swap1\n      pop\n      jump\t// out\n        /* \"#utility.yul\":2250:3049   */\n    tag_21:\n        /* \"#utility.yul\":2337:2343   */\n      0x00\n        /* \"#utility.yul\":2345:2351   */\n      dup1\n        /* \"#utility.yul\":2353:2359   */\n      0x00\n        /* \"#utility.yul\":2402:2404   */\n      0x60\n        /* \"#utility.yul\":2390:2399   */\n      dup5\n        /* \"#utility.yul\":2381:2388   */\n      dup7\n        /* \"#utility.yul\":2377:2400   */\n      sub\n        /* \"#utility.yul\":2373:2405   */\n      slt\n        /* \"#utility.yul\":2370:2489   */\n      iszero\n      tag_120\n      jumpi\n        /* \"#utility.yul\":2408:2487   */\n      tag_121\n      tag_107\n      jump\t// in\n    tag_121:\n        /* \"#utility.yul\":2370:2489   */\n    tag_120:\n        /* \"#utility.yul\":2556:2557   */\n      0x00\n        /* \"#utility.yul\":2545:2554   */\n      dup5\n        /* \"#utility.yul\":2541:2558   */\n      add\n        /* \"#utility.yul\":2528:2559   */\n      calldataload\n        /* \"#utility.yul\":2586:2604   */\n      0xffffffffffffffff\n        /* \"#utility.yul\":2578:2584   */\n      dup2\n        /* \"#utility.yul\":2575:2605   */\n      gt\n        /* \"#utility.yul\":2572:2689   */\n      iszero\n      tag_122\n      jumpi\n        /* \"#utility.yul\":2608:2687   */\n      tag_123\n      tag_110\n      jump\t// in\n    tag_123:\n        /* \"#utility.yul\":2572:2689   */\n    tag_122:\n        /* \"#utility.yul\":2713:2776   */\n      tag_124\n        /* \"#utility.yul\":2768:2775   */\n      dup7\n        /* \"#utility.yul\":2759:2765   */\n      dup3\n        /* \"#utility.yul\":2748:2757   */\n      dup8\n        /* \"#utility.yul\":2744:2766   */\n      add\n        /* \"#utility.yul\":2713:2776   */\n      tag_94\n      jump\t// in\n    tag_124:\n        /* \"#utility.yul\":2703:2776   */\n      swap4\n      pop\n        /* \"#utility.yul\":2499:2786   */\n      pop\n        /* \"#utility.yul\":2825:2827   */\n      0x20\n        /* \"#utility.yul\":2851:2904   */\n      tag_125\n        /* \"#utility.yul\":2896:2903   */\n      dup7\n        /* \"#utility.yul\":2887:2893   */\n      dup3\n        /* \"#utility.yul\":2876:2885   */\n      dup8\n        /* \"#utility.yul\":2872:2894   */\n      add\n        /* \"#utility.yul\":2851:2904   */\n      tag_90\n      jump\t// in\n    tag_125:\n        /* \"#utility.yul\":2841:2904   */\n      swap3\n      pop\n        /* \"#utility.yul\":2796:2914   */\n      pop\n        /* \"#utility.yul\":2953:2955   */\n      0x40\n        /* \"#utility.yul\":2979:3032   */\n      tag_126\n        /* \"#utility.yul\":3024:3031   */\n      dup7\n        /* \"#utility.yul\":3015:3021   */\n      dup3\n        /* \"#utility.yul\":3004:3013   */\n      dup8\n        /* \"#utility.yul\":3000:3022   */\n      add\n        /* \"#utility.yul\":2979:3032   */\n      tag_100\n      jump\t// in\n    tag_126:\n        /* \"#utility.yul\":2969:3032   */\n      swap2\n      pop\n        /* \"#utility.yul\":2924:3042   */\n      pop\n        /* \"#utility.yul\":2250:3049   */\n      swap3\n      pop\n      swap3\n      pop\n      swap3\n      jump\t// out\n        /* \"#utility.yul\":3055:3384   */\n    tag_26:\n        /* \"#utility.yul\":3114:3120   */\n      0x00\n        /* \"#utility.yul\":3163:3165   */\n      0x20\n        /* \"#utility.yul\":3151:3160   */\n      dup3\n        /* \"#utility.yul\":3142:3149   */\n      dup5\n        /* \"#utility.yul\":3138:3161   */\n      sub\n        /* \"#utility.yul\":3134:3166   */\n      slt\n        /* \"#utility.yul\":3131:3250   */\n      iszero\n      tag_128\n      jumpi\n        /* \"#utility.yul\":3169:3248   */\n      tag_129\n      tag_107\n      jump\t// in\n    tag_129:\n        /* \"#utility.yul\":3131:3250   */\n    tag_128:\n        /* \"#utility.yul\":3289:3290   */\n      0x00\n        /* \"#utility.yul\":3314:3367   */\n      tag_130\n        /* \"#utility.yul\":3359:3366   */\n      dup5\n        /* \"#utility.yul\":3350:3356   */\n      dup3\n        /* \"#utility.yul\":3339:3348   */\n      dup6\n        /* \"#utility.yul\":3335:3357   */\n      add\n        /* \"#utility.yul\":3314:3367   */\n      tag_100\n      jump\t// in\n    tag_130:\n        /* \"#utility.yul\":3304:3367   */\n      swap2\n      pop\n        /* \"#utility.yul\":3260:3377   */\n      pop\n        /* \"#utility.yul\":3055:3384   */\n      swap3\n      swap2\n      pop\n      pop\n      jump\t// out\n        /* \"#utility.yul\":3390:3499   */\n    tag_131:\n        /* \"#utility.yul\":3471:3492   */\n      tag_133\n        /* \"#utility.yul\":3486:3491   */\n      dup2\n        /* \"#utility.yul\":3471:3492   */\n      tag_134\n      jump\t// in\n    tag_133:\n        /* \"#utility.yul\":3466:3469   */\n      dup3\n        /* \"#utility.yul\":3459:3493   */\n      mstore\n        /* \"#utility.yul\":3390:3499   */\n      pop\n      pop\n      jump\t// out\n        /* \"#utility.yul\":3505:3869   */\n    tag_135:\n        /* \"#utility.yul\":3593:3596   */\n      0x00\n        /* \"#utility.yul\":3621:3660   */\n      tag_137\n        /* \"#utility.yul\":3654:3659   */\n      dup3\n        /* \"#utility.yul\":3621:3660   */\n      tag_138\n      jump\t// in\n    tag_137:\n        /* \"#utility.yul\":3676:3747   */\n      tag_139\n        /* \"#utility.yul\":3740:3746   */\n      dup2\n        /* \"#utility.yul\":3735:3738   */\n      dup6\n        /* \"#utility.yul\":3676:3747   */\n      tag_140\n      jump\t// in\n    tag_139:\n        /* \"#utility.yul\":3669:3747   */\n      swap4\n      pop\n        /* \"#utility.yul\":3756:3808   */\n      tag_141\n        /* \"#utility.yul\":3801:3807   */\n      dup2\n        /* \"#utility.yul\":3796:3799   */\n      dup6\n        /* \"#utility.yul\":3789:3793   */\n      0x20\n        /* \"#utility.yul\":3782:3787   */\n      dup7\n        /* \"#utility.yul\":3778:3794   */\n      add\n        /* \"#utility.yul\":3756:3808   */\n      tag_142\n      jump\t// in\n    tag_141:\n        /* \"#utility.yul\":3833:3862   */\n      tag_143\n        /* \"#utility.yul\":3855:3861   */\n      dup2\n        /* \"#utility.yul\":3833:3862   */\n      tag_144\n      jump\t// in\n    tag_143:\n        /* \"#utility.yul\":3828:3831   */\n      dup5\n        /* \"#utility.yul\":3824:3863   */\n      add\n        /* \"#utility.yul\":3817:3863   */\n      swap2\n      pop\n        /* \"#utility.yul\":3597:3869   */\n      pop\n        /* \"#utility.yul\":3505:3869   */\n      swap3\n      swap2\n      pop\n      pop\n      jump\t// out\n        /* \"#utility.yul\":3875:4252   */\n    tag_145:\n        /* \"#utility.yul\":3981:3984   */\n      0x00\n        /* \"#utility.yul\":4009:4048   */\n      tag_147\n        /* \"#utility.yul\":4042:4047   */\n      dup3\n        /* \"#utility.yul\":4009:4048   */\n      tag_138\n      jump\t// in\n    tag_147:\n        /* \"#utility.yul\":4064:4153   */\n      tag_148\n        /* \"#utility.yul\":4146:4152   */\n      dup2\n        /* \"#utility.yul\":4141:4144   */\n      dup6\n        /* \"#utility.yul\":4064:4153   */\n      tag_149\n      jump\t// in\n    tag_148:\n        /* \"#utility.yul\":4057:4153   */\n      swap4\n      pop\n        /* \"#utility.yul\":4162:4214   */\n      tag_150\n        /* \"#utility.yul\":4207:4213   */\n      dup2\n        /* \"#utility.yul\":4202:4205   */\n      dup6\n        /* \"#utility.yul\":4195:4199   */\n      0x20\n        /* \"#utility.yul\":4188:4193   */\n      dup7\n        /* \"#utility.yul\":4184:4200   */\n      add\n        /* \"#utility.yul\":4162:4214   */\n      tag_142\n      jump\t// in\n    tag_150:\n        /* \"#utility.yul\":4239:4245   */\n      dup1\n        /* \"#utility.yul\":4234:4237   */\n      dup5\n        /* \"#utility.yul\":4230:4246   */\n      add\n        /* \"#utility.yul\":4223:4246   */\n      swap2\n      pop\n        /* \"#utility.yul\":3985:4252   */\n      pop\n        /* \"#utility.yul\":3875:4252   */\n      swap3\n      swap2\n      pop\n      pop\n      jump\t// out\n        /* \"#utility.yul\":4258:4376   */\n    tag_151:\n        /* \"#utility.yul\":4345:4369   */\n      tag_153\n        /* \"#utility.yul\":4363:4368   */\n      dup2\n        /* \"#utility.yul\":4345:4369   */\n      tag_154\n      jump\t// in\n    tag_153:\n        /* \"#utility.yul\":4340:4343   */\n      dup3\n        /* \"#utility.yul\":4333:4370   */\n      mstore\n        /* \"#utility.yul\":4258:4376   */\n      pop\n      pop\n      jump\t// out\n        /* \"#utility.yul\":4382:4657   */\n    tag_32:\n        /* \"#utility.yul\":4514:4517   */\n      0x00\n        /* \"#utility.yul\":4536:4631   */\n      tag_156\n        /* \"#utility.yul\":4627:4630   */\n      dup3\n        /* \"#utility.yul\":4618:4624   */\n      dup5\n        /* \"#utility.yul\":4536:4631   */\n      tag_145\n      jump\t// in\n    tag_156:\n        /* \"#utility.yul\":4529:4631   */\n      swap2\n      pop\n        /* \"#utility.yul\":4648:4651   */\n      dup2\n        /* \"#utility.yul\":4641:4651   */\n      swap1\n      pop\n        /* \"#utility.yul\":4382:4657   */\n      swap3\n      swap2\n      pop\n      pop\n      jump\t// out\n        /* \"#utility.yul\":4663:4873   */\n    tag_12:\n        /* \"#utility.yul\":4750:4754   */\n      0x00\n        /* \"#utility.yul\":4788:4790   */\n      0x20\n        /* \"#utility.yul\":4777:4786   */\n      dup3\n        /* \"#utility.yul\":4773:4791   */\n      add\n        /* \"#utility.yul\":4765:4791   */\n      swap1\n      pop\n        /* \"#utility.yul\":4801:4866   */\n      tag_158\n        /* \"#utility.yul\":4863:4864   */\n      0x00\n        /* \"#utility.yul\":4852:4861   */\n      dup4\n        /* \"#utility.yul\":4848:4865   */\n      add\n        /* \"#utility.yul\":4839:4845   */\n      dup5\n        /* \"#utility.yul\":4801:4866   */\n      tag_131\n      jump\t// in\n    tag_158:\n        /* \"#utility.yul\":4663:4873   */\n      swap3\n      swap2\n      pop\n      pop\n      jump\t// out\n        /* \"#utility.yul\":4879:5192   */\n    tag_29:\n        /* \"#utility.yul\":4992:4996   */\n      0x00\n        /* \"#utility.yul\":5030:5032   */\n      0x20\n        /* \"#utility.yul\":5019:5028   */\n      dup3\n        /* \"#utility.yul\":5015:5033   */\n      add\n        /* \"#utility.yul\":5007:5033   */\n      swap1\n      pop\n        /* \"#utility.yul\":5079:5088   */\n      dup2\n        /* \"#utility.yul\":5073:5077   */\n      dup2\n        /* \"#utility.yul\":5069:5089   */\n      sub\n        /* \"#utility.yul\":5065:5066   */\n      0x00\n        /* \"#utility.yul\":5054:5063   */\n      dup4\n        /* \"#utility.yul\":5050:5067   */\n      add\n        /* \"#utility.yul\":5043:5090   */\n      mstore\n        /* \"#utility.yul\":5107:5185   */\n      tag_160\n        /* \"#utility.yul\":5180:5184   */\n      dup2\n        /* \"#utility.yul\":5171:5177   */\n      dup5\n        /* \"#utility.yul\":5107:5185   */\n      tag_135\n      jump\t// in\n    tag_160:\n        /* \"#utility.yul\":5099:5185   */\n      swap1\n      pop\n        /* \"#utility.yul\":4879:5192   */\n      swap3\n      swap2\n      pop\n      pop\n      jump\t// out\n        /* \"#utility.yul\":5198:5822   */\n    tag_18:\n        /* \"#utility.yul\":5387:5391   */\n      0x00\n        /* \"#utility.yul\":5425:5427   */\n      0x60\n        /* \"#utility.yul\":5414:5423   */\n      dup3\n        /* \"#utility.yul\":5410:5428   */\n      add\n        /* \"#utility.yul\":5402:5428   */\n      swap1\n      pop\n        /* \"#utility.yul\":5474:5483   */\n      dup2\n        /* \"#utility.yul\":5468:5472   */\n      dup2\n        /* \"#utility.yul\":5464:5484   */\n      sub\n        /* \"#utility.yul\":5460:5461   */\n      0x00\n        /* \"#utility.yul\":5449:5458   */\n      dup4\n        /* \"#utility.yul\":5445:5462   */\n      add\n        /* \"#utility.yul\":5438:5485   */\n      mstore\n        /* \"#utility.yul\":5502:5580   */\n      tag_162\n        /* \"#utility.yul\":5575:5579   */\n      dup2\n        /* \"#utility.yul\":5566:5572   */\n      dup7\n        /* \"#utility.yul\":5502:5580   */\n      tag_135\n      jump\t// in\n    tag_162:\n        /* \"#utility.yul\":5494:5580   */\n      swap1\n      pop\n        /* \"#utility.yul\":5627:5636   */\n      dup2\n        /* \"#utility.yul\":5621:5625   */\n      dup2\n        /* \"#utility.yul\":5617:5637   */\n      sub\n        /* \"#utility.yul\":5612:5614   */\n      0x20\n        /* \"#utility.yul\":5601:5610   */\n      dup4\n        /* \"#utility.yul\":5597:5615   */\n      add\n        /* \"#utility.yul\":5590:5638   */\n      mstore\n        /* \"#utility.yul\":5655:5733   */\n      tag_163\n        /* \"#utility.yul\":5728:5732   */\n      dup2\n        /* \"#utility.yul\":5719:5725   */\n      dup6\n        /* \"#utility.yul\":5655:5733   */\n      tag_135\n      jump\t// in\n    tag_163:\n        /* \"#utility.yul\":5647:5733   */\n      swap1\n      pop\n        /* \"#utility.yul\":5743:5815   */\n      tag_164\n        /* \"#utility.yul\":5811:5813   */\n      0x40\n        /* \"#utility.yul\":5800:5809   */\n      dup4\n        /* \"#utility.yul\":5796:5814   */\n      add\n        /* \"#utility.yul\":5787:5793   */\n      dup5\n        /* \"#utility.yul\":5743:5815   */\n      tag_151\n      jump\t// in\n    tag_164:\n        /* \"#utility.yul\":5198:5822   */\n      swap5\n      swap4\n      pop\n      pop\n      pop\n      pop\n      jump\t// out\n        /* \"#utility.yul\":5828:5957   */\n    tag_84:\n        /* \"#utility.yul\":5862:5868   */\n      0x00\n        /* \"#utility.yul\":5889:5909   */\n      tag_166\n      tag_167\n      jump\t// in\n    tag_166:\n        /* \"#utility.yul\":5879:5909   */\n      swap1\n      pop\n        /* \"#utility.yul\":5918:5951   */\n      tag_168\n        /* \"#utility.yul\":5946:5950   */\n      dup3\n        /* \"#utility.yul\":5938:5944   */\n      dup3\n        /* \"#utility.yul\":5918:5951   */\n      tag_169\n      jump\t// in\n    tag_168:\n        /* \"#utility.yul\":5828:5957   */\n      swap2\n      swap1\n      pop\n      jump\t// out\n        /* \"#utility.yul\":5963:6038   */\n    tag_167:\n        /* \"#utility.yul\":5996:6002   */\n      0x00\n        /* \"#utility.yul\":6029:6031   */\n      0x40\n        /* \"#utility.yul\":6023:6032   */\n      mload\n        /* \"#utility.yul\":6013:6032   */\n      swap1\n      pop\n        /* \"#utility.yul\":5963:6038   */\n      swap1\n      jump\t// out\n        /* \"#utility.yul\":6044:6352   */\n    tag_83:\n        /* \"#utility.yul\":6106:6110   */\n      0x00\n        /* \"#utility.yul\":6196:6214   */\n      0xffffffffffffffff\n        /* \"#utility.yul\":6188:6194   */\n      dup3\n        /* \"#utility.yul\":6185:6215   */\n      gt\n        /* \"#utility.yul\":6182:6238   */\n      iszero\n      tag_172\n      jumpi\n        /* \"#utility.yul\":6218:6236   */\n      tag_173\n      tag_174\n      jump\t// in\n    tag_173:\n        /* \"#utility.yul\":6182:6238   */\n    tag_172:\n        /* \"#utility.yul\":6256:6285   */\n      tag_175\n        /* \"#utility.yul\":6278:6284   */\n      dup3\n        /* \"#utility.yul\":6256:6285   */\n      tag_144\n      jump\t// in\n    tag_175:\n        /* \"#utility.yul\":6248:6285   */\n      swap1\n      pop\n        /* \"#utility.yul\":6340:6344   */\n      0x20\n        /* \"#utility.yul\":6334:6338   */\n      dup2\n        /* \"#utility.yul\":6330:6345   */\n      add\n        /* \"#utility.yul\":6322:6345   */\n      swap1\n      pop\n        /* \"#utility.yul\":6044:6352   */\n      swap2\n      swap1\n      pop\n      jump\t// out\n        /* \"#utility.yul\":6358:6457   */\n    tag_138:\n        /* \"#utility.yul\":6410:6416   */\n      0x00\n        /* \"#utility.yul\":6444:6449   */\n      dup2\n        /* \"#utility.yul\":6438:6450   */\n      mload\n        /* \"#utility.yul\":6428:6450   */\n      swap1\n      pop\n        /* \"#utility.yul\":6358:6457   */\n      swap2\n      swap1\n      pop\n      jump\t// out\n        /* \"#utility.yul\":6463:6632   */\n    tag_140:\n        /* \"#utility.yul\":6547:6558   */\n      0x00\n        /* \"#utility.yul\":6581:6587   */\n      dup3\n        /* \"#utility.yul\":6576:6579   */\n      dup3\n        /* \"#utility.yul\":6569:6588   */\n      mstore\n        /* \"#utility.yul\":6621:6625   */\n      0x20\n        /* \"#utility.yul\":6616:6619   */\n      dup3\n        /* \"#utility.yul\":6612:6626   */\n      add\n        /* \"#utility.yul\":6597:6626   */\n      swap1\n      pop\n        /* \"#utility.yul\":6463:6632   */\n      swap3\n      swap2\n      pop\n      pop\n      jump\t// out\n        /* \"#utility.yul\":6638:6786   */\n    tag_149:\n        /* \"#utility.yul\":6740:6751   */\n      0x00\n        /* \"#utility.yul\":6777:6780   */\n      dup2\n        /* \"#utility.yul\":6762:6780   */\n      swap1\n      pop\n        /* \"#utility.yul\":6638:6786   */\n      swap3\n      swap2\n      pop\n      pop\n      jump\t// out\n        /* \"#utility.yul\":6792:6888   */\n    tag_179:\n        /* \"#utility.yul\":6829:6836   */\n      0x00\n        /* \"#utility.yul\":6858:6882   */\n      tag_181\n        /* \"#utility.yul\":6876:6881   */\n      dup3\n        /* \"#utility.yul\":6858:6882   */\n      tag_182\n      jump\t// in\n    tag_181:\n        /* \"#utility.yul\":6847:6882   */\n      swap1\n      pop\n        /* \"#utility.yul\":6792:6888   */\n      swap2\n      swap1\n      pop\n      jump\t// out\n        /* \"#utility.yul\":6894:6984   */\n    tag_134:\n        /* \"#utility.yul\":6928:6935   */\n      0x00\n        /* \"#utility.yul\":6971:6976   */\n      dup2\n        /* \"#utility.yul\":6964:6977   */\n      iszero\n        /* \"#utility.yul\":6957:6978   */\n      iszero\n        /* \"#utility.yul\":6946:6978   */\n      swap1\n      pop\n        /* \"#utility.yul\":6894:6984   */\n      swap2\n      swap1\n      pop\n      jump\t// out\n        /* \"#utility.yul\":6990:7116   */\n    tag_182:\n        /* \"#utility.yul\":7027:7034   */\n      0x00\n        /* \"#utility.yul\":7067:7109   */\n      0xffffffffffffffffffffffffffffffffffffffff\n        /* \"#utility.yul\":7060:7065   */\n      dup3\n        /* \"#utility.yul\":7056:7110   */\n      and\n        /* \"#utility.yul\":7045:7110   */\n      swap1\n      pop\n        /* \"#utility.yul\":6990:7116   */\n      swap2\n      swap1\n      pop\n      jump\t// out\n        /* \"#utility.yul\":7122:7199   */\n    tag_154:\n        /* \"#utility.yul\":7159:7166   */\n      0x00\n        /* \"#utility.yul\":7188:7193   */\n      dup2\n        /* \"#utility.yul\":7177:7193   */\n      swap1\n      pop\n        /* \"#utility.yul\":7122:7199   */\n      swap2\n      swap1\n      pop\n      jump\t// out\n        /* \"#utility.yul\":7205:7359   */\n    tag_89:\n        /* \"#utility.yul\":7289:7295   */\n      dup3\n        /* \"#utility.yul\":7284:7287   */\n      dup2\n        /* \"#utility.yul\":7279:7282   */\n      dup4\n        /* \"#utility.yul\":7266:7296   */\n      calldatacopy\n        /* \"#utility.yul\":7351:7352   */\n      0x00\n        /* \"#utility.yul\":7342:7348   */\n      dup4\n        /* \"#utility.yul\":7337:7340   */\n      dup4\n        /* \"#utility.yul\":7333:7349   */\n      add\n        /* \"#utility.yul\":7326:7353   */\n      mstore\n        /* \"#utility.yul\":7205:7359   */\n      pop\n      pop\n      pop\n      jump\t// out\n        /* \"#utility.yul\":7365:7672   */\n    tag_142:\n        /* \"#utility.yul\":7433:7434   */\n      0x00\n        /* \"#utility.yul\":7443:7556   */\n    tag_188:\n        /* \"#utility.yul\":7457:7463   */\n      dup4\n        /* \"#utility.yul\":7454:7455   */\n      dup2\n        /* \"#utility.yul\":7451:7464   */\n      lt\n        /* \"#utility.yul\":7443:7556   */\n      iszero\n      tag_190\n      jumpi\n        /* \"#utility.yul\":7542:7543   */\n      dup1\n        /* \"#utility.yul\":7537:7540   */\n      dup3\n        /* \"#utility.yul\":7533:7544   */\n      add\n        /* \"#utility.yul\":7527:7545   */\n      mload\n        /* \"#utility.yul\":7523:7524   */\n      dup2\n        /* \"#utility.yul\":7518:7521   */\n      dup5\n        /* \"#utility.yul\":7514:7525   */\n      add\n        /* \"#utility.yul\":7507:7546   */\n      mstore\n        /* \"#utility.yul\":7479:7481   */\n      0x20\n        /* \"#utility.yul\":7476:7477   */\n      dup2\n        /* \"#utility.yul\":7472:7482   */\n      add\n        /* \"#utility.yul\":7467:7482   */\n      swap1\n      pop\n        /* \"#utility.yul\":7443:7556   */\n      jump(tag_188)\n    tag_190:\n        /* \"#utility.yul\":7574:7580   */\n      dup4\n        /* \"#utility.yul\":7571:7572   */\n      dup2\n        /* \"#utility.yul\":7568:7581   */\n      gt\n        /* \"#utility.yul\":7565:7666   */\n      iszero\n      tag_191\n      jumpi\n        /* \"#utility.yul\":7654:7655   */\n      0x00\n        /* \"#utility.yul\":7645:7651   */\n      dup5\n        /* \"#utility.yul\":7640:7643   */\n      dup5\n        /* \"#utility.yul\":7636:7652   */\n      add\n        /* \"#utility.yul\":7629:7656   */\n      mstore\n        /* \"#utility.yul\":7565:7666   */\n    tag_191:\n        /* \"#utility.yul\":7414:7672   */\n      pop\n        /* \"#utility.yul\":7365:7672   */\n      pop\n      pop\n      pop\n      jump\t// out\n        /* \"#utility.yul\":7678:7998   */\n    tag_35:\n        /* \"#utility.yul\":7722:7728   */\n      0x00\n        /* \"#utility.yul\":7759:7760   */\n      0x02\n        /* \"#utility.yul\":7753:7757   */\n      dup3\n        /* \"#utility.yul\":7749:7761   */\n      div\n        /* \"#utility.yul\":7739:7761   */\n      swap1\n      pop\n        /* \"#utility.yul\":7806:7807   */\n      0x01\n        /* \"#utility.yul\":7800:7804   */\n      dup3\n        /* \"#utility.yul\":7796:7808   */\n      and\n        /* \"#utility.yul\":7827:7845   */\n      dup1\n        /* \"#utility.yul\":7817:7898   */\n      tag_193\n      jumpi\n        /* \"#utility.yul\":7883:7887   */\n      0x7f\n        /* \"#utility.yul\":7875:7881   */\n      dup3\n        /* \"#utility.yul\":7871:7888   */\n      and\n        /* \"#utility.yul\":7861:7888   */\n      swap2\n      pop\n        /* \"#utility.yul\":7817:7898   */\n    tag_193:\n        /* \"#utility.yul\":7945:7947   */\n      0x20\n        /* \"#utility.yul\":7937:7943   */\n      dup3\n        /* \"#utility.yul\":7934:7948   */\n      lt\n        /* \"#utility.yul\":7914:7932   */\n      dup2\n        /* \"#utility.yul\":7911:7949   */\n      eq\n        /* \"#utility.yul\":7908:7992   */\n      iszero\n      tag_194\n      jumpi\n        /* \"#utility.yul\":7964:7982   */\n      tag_195\n      tag_196\n      jump\t// in\n    tag_195:\n        /* \"#utility.yul\":7908:7992   */\n    tag_194:\n        /* \"#utility.yul\":7729:7998   */\n      pop\n        /* \"#utility.yul\":7678:7998   */\n      swap2\n      swap1\n      pop\n      jump\t// out\n        /* \"#utility.yul\":8004:8285   */\n    tag_169:\n        /* \"#utility.yul\":8087:8114   */\n      tag_198\n        /* \"#utility.yul\":8109:8113   */\n      dup3\n        /* \"#utility.yul\":8087:8114   */\n      tag_144\n      jump\t// in\n    tag_198:\n        /* \"#utility.yul\":8079:8085   */\n      dup2\n        /* \"#utility.yul\":8075:8115   */\n      add\n        /* \"#utility.yul\":8217:8223   */\n      dup2\n        /* \"#utility.yul\":8205:8215   */\n      dup2\n        /* \"#utility.yul\":8202:8224   */\n      lt\n        /* \"#utility.yul\":8181:8199   */\n      0xffffffffffffffff\n        /* \"#utility.yul\":8169:8179   */\n      dup3\n        /* \"#utility.yul\":8166:8200   */\n      gt\n        /* \"#utility.yul\":8163:8225   */\n      or\n        /* \"#utility.yul\":8160:8248   */\n      iszero\n      tag_199\n      jumpi\n        /* \"#utility.yul\":8228:8246   */\n      tag_200\n      tag_174\n      jump\t// in\n    tag_200:\n        /* \"#utility.yul\":8160:8248   */\n    tag_199:\n        /* \"#utility.yul\":8268:8278   */\n      dup1\n        /* \"#utility.yul\":8264:8266   */\n      0x40\n        /* \"#utility.yul\":8257:8279   */\n      mstore\n        /* \"#utility.yul\":8047:8285   */\n      pop\n        /* \"#utility.yul\":8004:8285   */\n      pop\n      pop\n      jump\t// out\n        /* \"#utility.yul\":8716:8896   */\n    tag_196:\n        /* \"#utility.yul\":8764:8841   */\n      0x4e487b7100000000000000000000000000000000000000000000000000000000\n        /* \"#utility.yul\":8761:8762   */\n      0x00\n        /* \"#utility.yul\":8754:8842   */\n      mstore\n        /* \"#utility.yul\":8861:8865   */\n      0x22\n        /* \"#utility.yul\":8858:8859   */\n      0x04\n        /* \"#utility.yul\":8851:8866   */\n      mstore\n        /* \"#utility.yul\":8885:8889   */\n      0x24\n        /* \"#utility.yul\":8882:8883   */\n      0x00\n        /* \"#utility.yul\":8875:8890   */\n      revert\n        /* \"#utility.yul\":8902:9082   */\n    tag_61:\n        /* \"#utility.yul\":8950:9027   */\n      0x4e487b7100000000000000000000000000000000000000000000000000000000\n        /* \"#utility.yul\":8947:8948   */\n      0x00\n        /* \"#utility.yul\":8940:9028   */\n      mstore\n        /* \"#utility.yul\":9047:9051   */\n      0x32\n        /* \"#utility.yul\":9044:9045   */\n      0x04\n        /* \"#utility.yul\":9037:9052   */\n      mstore\n        /* \"#utility.yul\":9071:9075   */\n      0x24\n        /* \"#utility.yul\":9068:9069   */\n      0x00\n        /* \"#utility.yul\":9061:9076   */\n      revert\n        /* \"#utility.yul\":9088:9268   */\n    tag_174:\n        /* \"#utility.yul\":9136:9213   */\n      0x4e487b7100000000000000000000000000000000000000000000000000000000\n        /* \"#utility.yul\":9133:9134   */\n      0x00\n        /* \"#utility.yul\":9126:9214   */\n      mstore\n        /* \"#utility.yul\":9233:9237   */\n      0x41\n        /* \"#utility.yul\":9230:9231   */\n      0x04\n        /* \"#utility.yul\":9223:9238   */\n      mstore\n        /* \"#utility.yul\":9257:9261   */\n      0x24\n        /* \"#utility.yul\":9254:9255   */\n      0x00\n        /* \"#utility.yul\":9247:9262   */\n      revert\n        /* \"#utility.yul\":9274:9391   */\n    tag_98:\n        /* \"#utility.yul\":9383:9384   */\n      0x00\n        /* \"#utility.yul\":9380:9381   */\n      dup1\n        /* \"#utility.yul\":9373:9385   */\n      revert\n        /* \"#utility.yul\":9397:9514   */\n    tag_87:\n        /* \"#utility.yul\":9506:9507   */\n      0x00\n        /* \"#utility.yul\":9503:9504   */\n      dup1\n        /* \"#utility.yul\":9496:9508   */\n      revert\n        /* \"#utility.yul\":9520:9637   */\n    tag_110:\n        /* \"#utility.yul\":9629:9630   */\n      0x00\n        /* \"#utility.yul\":9626:9627   */\n      dup1\n        /* \"#utility.yul\":9619:9631   */\n      revert\n        /* \"#utility.yul\":9643:9760   */\n    tag_107:\n        /* \"#utility.yul\":9752:9753   */\n      0x00\n        /* \"#utility.yul\":9749:9750   */\n      dup1\n        /* \"#utility.yul\":9742:9754   */\n      revert\n        /* \"#utility.yul\":9766:9868   */\n    tag_144:\n        /* \"#utility.yul\":9807:9813   */\n      0x00\n        /* \"#utility.yul\":9858:9860   */\n      0x1f\n        /* \"#utility.yul\":9854:9861   */\n      not\n        /* \"#utility.yul\":9849:9851   */\n      0x1f\n        /* \"#utility.yul\":9842:9847   */\n      dup4\n        /* \"#utility.yul\":9838:9852   */\n      add\n        /* \"#utility.yul\":9834:9862   */\n      and\n        /* \"#utility.yul\":9824:9862   */\n      swap1\n      pop\n        /* \"#utility.yul\":9766:9868   */\n      swap2\n      swap1\n      pop\n      jump\t// out\n        /* \"#utility.yul\":9874:9996   */\n    tag_93:\n        /* \"#utility.yul\":9947:9971   */\n      tag_216\n        /* \"#utility.yul\":9965:9970   */\n      dup2\n        /* \"#utility.yul\":9947:9971   */\n      tag_179\n      jump\t// in\n    tag_216:\n        /* \"#utility.yul\":9940:9945   */\n      dup2\n        /* \"#utility.yul\":9937:9972   */\n      eq\n        /* \"#utility.yul\":9927:9990   */\n      tag_217\n      jumpi\n        /* \"#utility.yul\":9986:9987   */\n      0x00\n        /* \"#utility.yul\":9983:9984   */\n      dup1\n        /* \"#utility.yul\":9976:9988   */\n      revert\n        /* \"#utility.yul\":9927:9990   */\n    tag_217:\n        /* \"#utility.yul\":9874:9996   */\n      pop\n      jump\t// out\n        /* \"#utility.yul\":10002:10124   */\n    tag_103:\n        /* \"#utility.yul\":10075:10099   */\n      tag_219\n        /* \"#utility.yul\":10093:10098   */\n      dup2\n        /* \"#utility.yul\":10075:10099   */\n      tag_154\n      jump\t// in\n    tag_219:\n        /* \"#utility.yul\":10068:10073   */\n      dup2\n        /* \"#utility.yul\":10065:10100   */\n      eq\n        /* \"#utility.yul\":10055:10118   */\n      tag_220\n      jumpi\n        /* \"#utility.yul\":10114:10115   */\n      0x00\n        /* \"#utility.yul\":10111:10112   */\n      dup1\n        /* \"#utility.yul\":10104:10116   */\n      revert\n        /* \"#utility.yul\":10055:10118   */\n    tag_220:\n        /* \"#utility.yul\":10002:10124   */\n      pop\n      jump\t// out\n\n    auxdata: 0xa264697066735822122020b4778f55aca26954f0bd5ebc4c3a95ae41b3dbde788a007aa2f947330af82964736f6c63430008070033\n}\n",
				"bytecode": {
					"linkReferences": {},
					"object": "608060405234801561001057600080fd5b50610b25806100206000396000f3fe608060405234801561001057600080fd5b506004361061004c5760003560e01c806313f8d418146100515780634bb6b1e6146100815780639df16320146100b35780639e77a49a146100e3575b600080fd5b61006b6004803603810190610066919061068c565b610113565b6040516100789190610823565b60405180910390f35b61009b60048036038101906100969190610643565b61014f565b6040516100aa93929190610860565b60405180910390f35b6100cd60048036038101906100c891906106e8565b61029f565b6040516100da9190610823565b60405180910390f35b6100fd60048036038101906100f89190610757565b6104fd565b60405161010a919061083e565b60405180910390f35b60006001600084604051610127919061080c565b90815260200160405180910390206003015414156101485760019050610149565b5b92915050565b600081805160208101820180518482526020830160208501208183528095505050505050600091509050806000018054610188906109ac565b80601f01602080910402602001604051908101604052809291908181526020018280546101b4906109ac565b80156102015780601f106101d657610100808354040283529160200191610201565b820191906000526020600020905b8154815290600101906020018083116101e457829003601f168201915b505050505090806001018054610216906109ac565b80601f0160208091040260200160405190810160405280929190818152602001828054610242906109ac565b801561028f5780601f106102645761010080835404028352916020019161028f565b820191906000526020600020905b81548152906001019060200180831161027257829003601f168201915b5050505050908060030154905083565b6000600182141561039a5760016000856040516102bc919061080c565b90815260200160405180910390206003015414156102dd57600190506104f6565b600080856040516102ee919061080c565b908152602001604051809103902060030154141561030f57600090506104f6565b60008460405161031f919061080c565b9081526020016040518091039020600201839080600181540180825580915050600190039060005260206000200160009091909190916101000a81548173ffffffffffffffffffffffffffffffffffffffff021916908373ffffffffffffffffffffffffffffffffffffffff160217905550600190506104f6565b60008214156104f557600080856040516103b4919061080c565b90815260200160405180910390206002018054905081116104f3578373ffffffffffffffffffffffffffffffffffffffff166000866040516103f6919061080c565b9081526020016040518091039020600201828154811061041957610418610a3e565b5b9060005260206000200160009054906101000a900473ffffffffffffffffffffffffffffffffffffffff1673ffffffffffffffffffffffffffffffffffffffff1614156104e957600085604051610470919061080c565b9081526020016040518091039020600201818154811061049357610492610a3e565b5b9060005260206000200160006101000a81549073ffffffffffffffffffffffffffffffffffffffff02191690556000856040516104d0919061080c565b90815260200160405180910390205060019150506104f6565b60009150506104f6565b505b5b9392505050565b6001818154811061050d57600080fd5b906000526020600020016000915090508054610528906109ac565b80601f0160208091040260200160405190810160405280929190818152602001828054610554906109ac565b80156105a15780601f10610576576101008083540402835291602001916105a1565b820191906000526020600020905b81548152906001019060200180831161058457829003601f168201915b505050505081565b60006105bc6105b7846108ca565b6108a5565b9050828152602081018484840111156105d8576105d7610aa1565b5b6105e384828561096a565b509392505050565b6000813590506105fa81610ac1565b92915050565b600082601f83011261061557610614610a9c565b5b81356106258482602086016105a9565b91505092915050565b60008135905061063d81610ad8565b92915050565b60006020828403121561065957610658610aab565b5b600082013567ffffffffffffffff81111561067757610676610aa6565b5b61068384828501610600565b91505092915050565b600080604083850312156106a3576106a2610aab565b5b600083013567ffffffffffffffff8111156106c1576106c0610aa6565b5b6106cd85828601610600565b92505060206106de858286016105eb565b9150509250929050565b60008060006060848603121561070157610700610aab565b5b600084013567ffffffffffffffff81111561071f5761071e610aa6565b5b61072b86828701610600565b935050602061073c868287016105eb565b925050604061074d8682870161062e565b9150509250925092565b60006020828403121561076d5761076c610aab565b5b600061077b8482850161062e565b91505092915050565b61078d81610934565b82525050565b600061079e826108fb565b6107a88185610906565b93506107b8818560208601610979565b6107c181610ab0565b840191505092915050565b60006107d7826108fb565b6107e18185610917565b93506107f1818560208601610979565b80840191505092915050565b61080681610960565b82525050565b600061081882846107cc565b915081905092915050565b60006020820190506108386000830184610784565b92915050565b600060208201905081810360008301526108588184610793565b905092915050565b6000606082019050818103600083015261087a8186610793565b9050818103602083015261088e8185610793565b905061089d60408301846107fd565b949350505050565b60006108af6108c0565b90506108bb82826109de565b919050565b6000604051905090565b600067ffffffffffffffff8211156108e5576108e4610a6d565b5b6108ee82610ab0565b9050602081019050919050565b600081519050919050565b600082825260208201905092915050565b600081905092915050565b600061092d82610940565b9050919050565b60008115159050919050565b600073ffffffffffffffffffffffffffffffffffffffff82169050919050565b6000819050919050565b82818337600083830152505050565b60005b8381101561099757808201518184015260208101905061097c565b838111156109a6576000848401525b50505050565b600060028204905060018216806109c457607f821691505b602082108114156109d8576109d7610a0f565b5b50919050565b6109e782610ab0565b810181811067ffffffffffffffff82111715610a0657610a05610a6d565b5b80604052505050565b7f4e487b7100000000000000000000000000000000000000000000000000000000600052602260045260246000fd5b7f4e487b7100000000000000000000000000000000000000000000000000000000600052603260045260246000fd5b7f4e487b7100000000000000000000000000000000000000000000000000000000600052604160045260246000fd5b600080fd5b600080fd5b600080fd5b600080fd5b6000601f19601f8301169050919050565b610aca81610922565b8114610ad557600080fd5b50565b610ae181610960565b8114610aec57600080fd5b5056fea264697066735822122020b4778f55aca26954f0bd5ebc4c3a95ae41b3dbde788a007aa2f947330af82964736f6c63430008070033",
					"opcodes": "PUSH1 0x80 PUSH1 0x40 MSTORE CALLVALUE DUP1 ISZERO PUSH2 0x10 JUMPI PUSH1 0x0 DUP1 REVERT JUMPDEST POP PUSH2 0xB25 DUP1 PUSH2 0x20 PUSH1 0x0 CODECOPY PUSH1 0x0 RETURN INVALID PUSH1 0x80 PUSH1 0x40 MSTORE CALLVALUE DUP1 ISZERO PUSH2 0x10 JUMPI PUSH1 0x0 DUP1 REVERT JUMPDEST POP PUSH1 0x4 CALLDATASIZE LT PUSH2 0x4C JUMPI PUSH1 0x0 CALLDATALOAD PUSH1 0xE0 SHR DUP1 PUSH4 0x13F8D418 EQ PUSH2 0x51 JUMPI DUP1 PUSH4 0x4BB6B1E6 EQ PUSH2 0x81 JUMPI DUP1 PUSH4 0x9DF16320 EQ PUSH2 0xB3 JUMPI DUP1 PUSH4 0x9E77A49A EQ PUSH2 0xE3 JUMPI JUMPDEST PUSH1 0x0 DUP1 REVERT JUMPDEST PUSH2 0x6B PUSH1 0x4 DUP1 CALLDATASIZE SUB DUP2 ADD SWAP1 PUSH2 0x66 SWAP2 SWAP1 PUSH2 0x68C JUMP JUMPDEST PUSH2 0x113 JUMP JUMPDEST PUSH1 0x40 MLOAD PUSH2 0x78 SWAP2 SWAP1 PUSH2 0x823 JUMP JUMPDEST PUSH1 0x40 MLOAD DUP1 SWAP2 SUB SWAP1 RETURN JUMPDEST PUSH2 0x9B PUSH1 0x4 DUP1 CALLDATASIZE SUB DUP2 ADD SWAP1 PUSH2 0x96 SWAP2 SWAP1 PUSH2 0x643 JUMP JUMPDEST PUSH2 0x14F JUMP JUMPDEST PUSH1 0x40 MLOAD PUSH2 0xAA SWAP4 SWAP3 SWAP2 SWAP1 PUSH2 0x860 JUMP JUMPDEST PUSH1 0x40 MLOAD DUP1 SWAP2 SUB SWAP1 RETURN JUMPDEST PUSH2 0xCD PUSH1 0x4 DUP1 CALLDATASIZE SUB DUP2 ADD SWAP1 PUSH2 0xC8 SWAP2 SWAP1 PUSH2 0x6E8 JUMP JUMPDEST PUSH2 0x29F JUMP JUMPDEST PUSH1 0x40 MLOAD PUSH2 0xDA SWAP2 SWAP1 PUSH2 0x823 JUMP JUMPDEST PUSH1 0x40 MLOAD DUP1 SWAP2 SUB SWAP1 RETURN JUMPDEST PUSH2 0xFD PUSH1 0x4 DUP1 CALLDATASIZE SUB DUP2 ADD SWAP1 PUSH2 0xF8 SWAP2 SWAP1 PUSH2 0x757 JUMP JUMPDEST PUSH2 0x4FD JUMP JUMPDEST PUSH1 0x40 MLOAD PUSH2 0x10A SWAP2 SWAP1 PUSH2 0x83E JUMP JUMPDEST PUSH1 0x40 MLOAD DUP1 SWAP2 SUB SWAP1 RETURN JUMPDEST PUSH1 0x0 PUSH1 0x1 PUSH1 0x0 DUP5 PUSH1 0x40 MLOAD PUSH2 0x127 SWAP2 SWAP1 PUSH2 0x80C JUMP JUMPDEST SWAP1 DUP2 MSTORE PUSH1 0x20 ADD PUSH1 0x40 MLOAD DUP1 SWAP2 SUB SWAP1 KECCAK256 PUSH1 0x3 ADD SLOAD EQ ISZERO PUSH2 0x148 JUMPI PUSH1 0x1 SWAP1 POP PUSH2 0x149 JUMP JUMPDEST JUMPDEST SWAP3 SWAP2 POP POP JUMP JUMPDEST PUSH1 0x0 DUP2 DUP1 MLOAD PUSH1 0x20 DUP2 ADD DUP3 ADD DUP1 MLOAD DUP5 DUP3 MSTORE PUSH1 0x20 DUP4 ADD PUSH1 0x20 DUP6 ADD KECCAK256 DUP2 DUP4 MSTORE DUP1 SWAP6 POP POP POP POP POP POP PUSH1 0x0 SWAP2 POP SWAP1 POP DUP1 PUSH1 0x0 ADD DUP1 SLOAD PUSH2 0x188 SWAP1 PUSH2 0x9AC JUMP JUMPDEST DUP1 PUSH1 0x1F ADD PUSH1 0x20 DUP1 SWAP2 DIV MUL PUSH1 0x20 ADD PUSH1 0x40 MLOAD SWAP1 DUP2 ADD PUSH1 0x40 MSTORE DUP1 SWAP3 SWAP2 SWAP1 DUP2 DUP2 MSTORE PUSH1 0x20 ADD DUP3 DUP1 SLOAD PUSH2 0x1B4 SWAP1 PUSH2 0x9AC JUMP JUMPDEST DUP1 ISZERO PUSH2 0x201 JUMPI DUP1 PUSH1 0x1F LT PUSH2 0x1D6 JUMPI PUSH2 0x100 DUP1 DUP4 SLOAD DIV MUL DUP4 MSTORE SWAP2 PUSH1 0x20 ADD SWAP2 PUSH2 0x201 JUMP JUMPDEST DUP3 ADD SWAP2 SWAP1 PUSH1 0x0 MSTORE PUSH1 0x20 PUSH1 0x0 KECCAK256 SWAP1 JUMPDEST DUP2 SLOAD DUP2 MSTORE SWAP1 PUSH1 0x1 ADD SWAP1 PUSH1 0x20 ADD DUP1 DUP4 GT PUSH2 0x1E4 JUMPI DUP3 SWAP1 SUB PUSH1 0x1F AND DUP3 ADD SWAP2 JUMPDEST POP POP POP POP POP SWAP1 DUP1 PUSH1 0x1 ADD DUP1 SLOAD PUSH2 0x216 SWAP1 PUSH2 0x9AC JUMP JUMPDEST DUP1 PUSH1 0x1F ADD PUSH1 0x20 DUP1 SWAP2 DIV MUL PUSH1 0x20 ADD PUSH1 0x40 MLOAD SWAP1 DUP2 ADD PUSH1 0x40 MSTORE DUP1 SWAP3 SWAP2 SWAP1 DUP2 DUP2 MSTORE PUSH1 0x20 ADD DUP3 DUP1 SLOAD PUSH2 0x242 SWAP1 PUSH2 0x9AC JUMP JUMPDEST DUP1 ISZERO PUSH2 0x28F JUMPI DUP1 PUSH1 0x1F LT PUSH2 0x264 JUMPI PUSH2 0x100 DUP1 DUP4 SLOAD DIV MUL DUP4 MSTORE SWAP2 PUSH1 0x20 ADD SWAP2 PUSH2 0x28F JUMP JUMPDEST DUP3 ADD SWAP2 SWAP1 PUSH1 0x0 MSTORE PUSH1 0x20 PUSH1 0x0 KECCAK256 SWAP1 JUMPDEST DUP2 SLOAD DUP2 MSTORE SWAP1 PUSH1 0x1 ADD SWAP1 PUSH1 0x20 ADD DUP1 DUP4 GT PUSH2 0x272 JUMPI DUP3 SWAP1 SUB PUSH1 0x1F AND DUP3 ADD SWAP2 JUMPDEST POP POP POP POP POP SWAP1 DUP1 PUSH1 0x3 ADD SLOAD SWAP1 POP DUP4 JUMP JUMPDEST PUSH1 0x0 PUSH1 0x1 DUP3 EQ ISZERO PUSH2 0x39A JUMPI PUSH1 0x1 PUSH1 0x0 DUP6 PUSH1 0x40 MLOAD PUSH2 0x2BC SWAP2 SWAP1 PUSH2 0x80C JUMP JUMPDEST SWAP1 DUP2 MSTORE PUSH1 0x20 ADD PUSH1 0x40 MLOAD DUP1 SWAP2 SUB SWAP1 KECCAK256 PUSH1 0x3 ADD SLOAD EQ ISZERO PUSH2 0x2DD JUMPI PUSH1 0x1 SWAP1 POP PUSH2 0x4F6 JUMP JUMPDEST PUSH1 0x0 DUP1 DUP6 PUSH1 0x40 MLOAD PUSH2 0x2EE SWAP2 SWAP1 PUSH2 0x80C JUMP JUMPDEST SWAP1 DUP2 MSTORE PUSH1 0x20 ADD PUSH1 0x40 MLOAD DUP1 SWAP2 SUB SWAP1 KECCAK256 PUSH1 0x3 ADD SLOAD EQ ISZERO PUSH2 0x30F JUMPI PUSH1 0x0 SWAP1 POP PUSH2 0x4F6 JUMP JUMPDEST PUSH1 0x0 DUP5 PUSH1 0x40 MLOAD PUSH2 0x31F SWAP2 SWAP1 PUSH2 0x80C JUMP JUMPDEST SWAP1 DUP2 MSTORE PUSH1 0x20 ADD PUSH1 0x40 MLOAD DUP1 SWAP2 SUB SWAP1 KECCAK256 PUSH1 0x2 ADD DUP4 SWAP1 DUP1 PUSH1 0x1 DUP2 SLOAD ADD DUP1 DUP3 SSTORE DUP1 SWAP2 POP POP PUSH1 0x1 SWAP1 SUB SWAP1 PUSH1 0x0 MSTORE PUSH1 0x20 PUSH1 0x0 KECCAK256 ADD PUSH1 0x0 SWAP1 SWAP2 SWAP1 SWAP2 SWAP1 SWAP2 PUSH2 0x100 EXP DUP2 SLOAD DUP2 PUSH20 0xFFFFFFFFFFFFFFFFFFFFFFFFFFFFFFFFFFFFFFFF MUL NOT AND SWAP1 DUP4 PUSH20 0xFFFFFFFFFFFFFFFFFFFFFFFFFFFFFFFFFFFFFFFF AND MUL OR SWAP1 SSTORE POP PUSH1 0x1 SWAP1 POP PUSH2 0x4F6 JUMP JUMPDEST PUSH1 0x0 DUP3 EQ ISZERO PUSH2 0x4F5 JUMPI PUSH1 0x0 DUP1 DUP6 PUSH1 0x40 MLOAD PUSH2 0x3B4 SWAP2 SWAP1 PUSH2 0x80C JUMP JUMPDEST SWAP1 DUP2 MSTORE PUSH1 0x20 ADD PUSH1 0x40 MLOAD DUP1 SWAP2 SUB SWAP1 KECCAK256 PUSH1 0x2 ADD DUP1 SLOAD SWAP1 POP DUP2 GT PUSH2 0x4F3 JUMPI DUP4 PUSH20 0xFFFFFFFFFFFFFFFFFFFFFFFFFFFFFFFFFFFFFFFF AND PUSH1 0x0 DUP7 PUSH1 0x40 MLOAD PUSH2 0x3F6 SWAP2 SWAP1 PUSH2 0x80C JUMP JUMPDEST SWAP1 DUP2 MSTORE PUSH1 0x20 ADD PUSH1 0x40 MLOAD DUP1 SWAP2 SUB SWAP1 KECCAK256 PUSH1 0x2 ADD DUP3 DUP2 SLOAD DUP2 LT PUSH2 0x419 JUMPI PUSH2 0x418 PUSH2 0xA3E JUMP JUMPDEST JUMPDEST SWAP1 PUSH1 0x0 MSTORE PUSH1 0x20 PUSH1 0x0 KECCAK256 ADD PUSH1 0x0 SWAP1 SLOAD SWAP1 PUSH2 0x100 EXP SWAP1 DIV PUSH20 0xFFFFFFFFFFFFFFFFFFFFFFFFFFFFFFFFFFFFFFFF AND PUSH20 0xFFFFFFFFFFFFFFFFFFFFFFFFFFFFFFFFFFFFFFFF AND EQ ISZERO PUSH2 0x4E9 JUMPI PUSH1 0x0 DUP6 PUSH1 0x40 MLOAD PUSH2 0x470 SWAP2 SWAP1 PUSH2 0x80C JUMP JUMPDEST SWAP1 DUP2 MSTORE PUSH1 0x20 ADD PUSH1 0x40 MLOAD DUP1 SWAP2 SUB SWAP1 KECCAK256 PUSH1 0x2 ADD DUP2 DUP2 SLOAD DUP2 LT PUSH2 0x493 JUMPI PUSH2 0x492 PUSH2 0xA3E JUMP JUMPDEST JUMPDEST SWAP1 PUSH1 0x0 MSTORE PUSH1 0x20 PUSH1 0x0 KECCAK256 ADD PUSH1 0x0 PUSH2 0x100 EXP DUP2 SLOAD SWAP1 PUSH20 0xFFFFFFFFFFFFFFFFFFFFFFFFFFFFFFFFFFFFFFFF MUL NOT AND SWAP1 SSTORE PUSH1 0x0 DUP6 PUSH1 0x40 MLOAD PUSH2 0x4D0 SWAP2 SWAP1 PUSH2 0x80C JUMP JUMPDEST SWAP1 DUP2 MSTORE PUSH1 0x20 ADD PUSH1 0x40 MLOAD DUP1 SWAP2 SUB SWAP1 KECCAK256 POP PUSH1 0x1 SWAP2 POP POP PUSH2 0x4F6 JUMP JUMPDEST PUSH1 0x0 SWAP2 POP POP PUSH2 0x4F6 JUMP JUMPDEST POP JUMPDEST JUMPDEST SWAP4 SWAP3 POP POP POP JUMP JUMPDEST PUSH1 0x1 DUP2 DUP2 SLOAD DUP2 LT PUSH2 0x50D JUMPI PUSH1 0x0 DUP1 REVERT JUMPDEST SWAP1 PUSH1 0x0 MSTORE PUSH1 0x20 PUSH1 0x0 KECCAK256 ADD PUSH1 0x0 SWAP2 POP SWAP1 POP DUP1 SLOAD PUSH2 0x528 SWAP1 PUSH2 0x9AC JUMP JUMPDEST DUP1 PUSH1 0x1F ADD PUSH1 0x20 DUP1 SWAP2 DIV MUL PUSH1 0x20 ADD PUSH1 0x40 MLOAD SWAP1 DUP2 ADD PUSH1 0x40 MSTORE DUP1 SWAP3 SWAP2 SWAP1 DUP2 DUP2 MSTORE PUSH1 0x20 ADD DUP3 DUP1 SLOAD PUSH2 0x554 SWAP1 PUSH2 0x9AC JUMP JUMPDEST DUP1 ISZERO PUSH2 0x5A1 JUMPI DUP1 PUSH1 0x1F LT PUSH2 0x576 JUMPI PUSH2 0x100 DUP1 DUP4 SLOAD DIV MUL DUP4 MSTORE SWAP2 PUSH1 0x20 ADD SWAP2 PUSH2 0x5A1 JUMP JUMPDEST DUP3 ADD SWAP2 SWAP1 PUSH1 0x0 MSTORE PUSH1 0x20 PUSH1 0x0 KECCAK256 SWAP1 JUMPDEST DUP2 SLOAD DUP2 MSTORE SWAP1 PUSH1 0x1 ADD SWAP1 PUSH1 0x20 ADD DUP1 DUP4 GT PUSH2 0x584 JUMPI DUP3 SWAP1 SUB PUSH1 0x1F AND DUP3 ADD SWAP2 JUMPDEST POP POP POP POP POP DUP2 JUMP JUMPDEST PUSH1 0x0 PUSH2 0x5BC PUSH2 0x5B7 DUP5 PUSH2 0x8CA JUMP JUMPDEST PUSH2 0x8A5 JUMP JUMPDEST SWAP1 POP DUP3 DUP2 MSTORE PUSH1 0x20 DUP2 ADD DUP5 DUP5 DUP5 ADD GT ISZERO PUSH2 0x5D8 JUMPI PUSH2 0x5D7 PUSH2 0xAA1 JUMP JUMPDEST JUMPDEST PUSH2 0x5E3 DUP5 DUP3 DUP6 PUSH2 0x96A JUMP JUMPDEST POP SWAP4 SWAP3 POP POP POP JUMP JUMPDEST PUSH1 0x0 DUP2 CALLDATALOAD SWAP1 POP PUSH2 0x5FA DUP2 PUSH2 0xAC1 JUMP JUMPDEST SWAP3 SWAP2 POP POP JUMP JUMPDEST PUSH1 0x0 DUP3 PUSH1 0x1F DUP4 ADD SLT PUSH2 0x615 JUMPI PUSH2 0x614 PUSH2 0xA9C JUMP JUMPDEST JUMPDEST DUP2 CALLDATALOAD PUSH2 0x625 DUP5 DUP3 PUSH1 0x20 DUP7 ADD PUSH2 0x5A9 JUMP JUMPDEST SWAP2 POP POP SWAP3 SWAP2 POP POP JUMP JUMPDEST PUSH1 0x0 DUP2 CALLDATALOAD SWAP1 POP PUSH2 0x63D DUP2 PUSH2 0xAD8 JUMP JUMPDEST SWAP3 SWAP2 POP POP JUMP JUMPDEST PUSH1 0x0 PUSH1 0x20 DUP3 DUP5 SUB SLT ISZERO PUSH2 0x659 JUMPI PUSH2 0x658 PUSH2 0xAAB JUMP JUMPDEST JUMPDEST PUSH1 0x0 DUP3 ADD CALLDATALOAD PUSH8 0xFFFFFFFFFFFFFFFF DUP2 GT ISZERO PUSH2 0x677 JUMPI PUSH2 0x676 PUSH2 0xAA6 JUMP JUMPDEST JUMPDEST PUSH2 0x683 DUP5 DUP3 DUP6 ADD PUSH2 0x600 JUMP JUMPDEST SWAP2 POP POP SWAP3 SWAP2 POP POP JUMP JUMPDEST PUSH1 0x0 DUP1 PUSH1 0x40 DUP4 DUP6 SUB SLT ISZERO PUSH2 0x6A3 JUMPI PUSH2 0x6A2 PUSH2 0xAAB JUMP JUMPDEST JUMPDEST PUSH1 0x0 DUP4 ADD CALLDATALOAD PUSH8 0xFFFFFFFFFFFFFFFF DUP2 GT ISZERO PUSH2 0x6C1 JUMPI PUSH2 0x6C0 PUSH2 0xAA6 JUMP JUMPDEST JUMPDEST PUSH2 0x6CD DUP6 DUP3 DUP7 ADD PUSH2 0x600 JUMP JUMPDEST SWAP3 POP POP PUSH1 0x20 PUSH2 0x6DE DUP6 DUP3 DUP7 ADD PUSH2 0x5EB JUMP JUMPDEST SWAP2 POP POP SWAP3 POP SWAP3 SWAP1 POP JUMP JUMPDEST PUSH1 0x0 DUP1 PUSH1 0x0 PUSH1 0x60 DUP5 DUP7 SUB SLT ISZERO PUSH2 0x701 JUMPI PUSH2 0x700 PUSH2 0xAAB JUMP JUMPDEST JUMPDEST PUSH1 0x0 DUP5 ADD CALLDATALOAD PUSH8 0xFFFFFFFFFFFFFFFF DUP2 GT ISZERO PUSH2 0x71F JUMPI PUSH2 0x71E PUSH2 0xAA6 JUMP JUMPDEST JUMPDEST PUSH2 0x72B DUP7 DUP3 DUP8 ADD PUSH2 0x600 JUMP JUMPDEST SWAP4 POP POP PUSH1 0x20 PUSH2 0x73C DUP7 DUP3 DUP8 ADD PUSH2 0x5EB JUMP JUMPDEST SWAP3 POP POP PUSH1 0x40 PUSH2 0x74D DUP7 DUP3 DUP8 ADD PUSH2 0x62E JUMP JUMPDEST SWAP2 POP POP SWAP3 POP SWAP3 POP SWAP3 JUMP JUMPDEST PUSH1 0x0 PUSH1 0x20 DUP3 DUP5 SUB SLT ISZERO PUSH2 0x76D JUMPI PUSH2 0x76C PUSH2 0xAAB JUMP JUMPDEST JUMPDEST PUSH1 0x0 PUSH2 0x77B DUP5 DUP3 DUP6 ADD PUSH2 0x62E JUMP JUMPDEST SWAP2 POP POP SWAP3 SWAP2 POP POP JUMP JUMPDEST PUSH2 0x78D DUP2 PUSH2 0x934 JUMP JUMPDEST DUP3 MSTORE POP POP JUMP JUMPDEST PUSH1 0x0 PUSH2 0x79E DUP3 PUSH2 0x8FB JUMP JUMPDEST PUSH2 0x7A8 DUP2 DUP6 PUSH2 0x906 JUMP JUMPDEST SWAP4 POP PUSH2 0x7B8 DUP2 DUP6 PUSH1 0x20 DUP7 ADD PUSH2 0x979 JUMP JUMPDEST PUSH2 0x7C1 DUP2 PUSH2 0xAB0 JUMP JUMPDEST DUP5 ADD SWAP2 POP POP SWAP3 SWAP2 POP POP JUMP JUMPDEST PUSH1 0x0 PUSH2 0x7D7 DUP3 PUSH2 0x8FB JUMP JUMPDEST PUSH2 0x7E1 DUP2 DUP6 PUSH2 0x917 JUMP JUMPDEST SWAP4 POP PUSH2 0x7F1 DUP2 DUP6 PUSH1 0x20 DUP7 ADD PUSH2 0x979 JUMP JUMPDEST DUP1 DUP5 ADD SWAP2 POP POP SWAP3 SWAP2 POP POP JUMP JUMPDEST PUSH2 0x806 DUP2 PUSH2 0x960 JUMP JUMPDEST DUP3 MSTORE POP POP JUMP JUMPDEST PUSH1 0x0 PUSH2 0x818 DUP3 DUP5 PUSH2 0x7CC JUMP JUMPDEST SWAP2 POP DUP2 SWAP1 POP SWAP3 SWAP2 POP POP JUMP JUMPDEST PUSH1 0x0 PUSH1 0x20 DUP3 ADD SWAP1 POP PUSH2 0x838 PUSH1 0x0 DUP4 ADD DUP5 PUSH2 0x784 JUMP JUMPDEST SWAP3 SWAP2 POP POP JUMP JUMPDEST PUSH1 0x0 PUSH1 0x20 DUP3 ADD SWAP1 POP DUP2 DUP2 SUB PUSH1 0x0 DUP4 ADD MSTORE PUSH2 0x858 DUP2 DUP5 PUSH2 0x793 JUMP JUMPDEST SWAP1 POP SWAP3 SWAP2 POP POP JUMP JUMPDEST PUSH1 0x0 PUSH1 0x60 DUP3 ADD SWAP1 POP DUP2 DUP2 SUB PUSH1 0x0 DUP4 ADD MSTORE PUSH2 0x87A DUP2 DUP7 PUSH2 0x793 JUMP JUMPDEST SWAP1 POP DUP2 DUP2 SUB PUSH1 0x20 DUP4 ADD MSTORE PUSH2 0x88E DUP2 DUP6 PUSH2 0x793 JUMP JUMPDEST SWAP1 POP PUSH2 0x89D PUSH1 0x40 DUP4 ADD DUP5 PUSH2 0x7FD JUMP JUMPDEST SWAP5 SWAP4 POP POP POP POP JUMP JUMPDEST PUSH1 0x0 PUSH2 0x8AF PUSH2 0x8C0 JUMP JUMPDEST SWAP1 POP PUSH2 0x8BB DUP3 DUP3 PUSH2 0x9DE JUMP JUMPDEST SWAP2 SWAP1 POP JUMP JUMPDEST PUSH1 0x0 PUSH1 0x40 MLOAD SWAP1 POP SWAP1 JUMP JUMPDEST PUSH1 0x0 PUSH8 0xFFFFFFFFFFFFFFFF DUP3 GT ISZERO PUSH2 0x8E5 JUMPI PUSH2 0x8E4 PUSH2 0xA6D JUMP JUMPDEST JUMPDEST PUSH2 0x8EE DUP3 PUSH2 0xAB0 JUMP JUMPDEST SWAP1 POP PUSH1 0x20 DUP2 ADD SWAP1 POP SWAP2 SWAP1 POP JUMP JUMPDEST PUSH1 0x0 DUP2 MLOAD SWAP1 POP SWAP2 SWAP1 POP JUMP JUMPDEST PUSH1 0x0 DUP3 DUP3 MSTORE PUSH1 0x20 DUP3 ADD SWAP1 POP SWAP3 SWAP2 POP POP JUMP JUMPDEST PUSH1 0x0 DUP2 SWAP1 POP SWAP3 SWAP2 POP POP JUMP JUMPDEST PUSH1 0x0 PUSH2 0x92D DUP3 PUSH2 0x940 JUMP JUMPDEST SWAP1 POP SWAP2 SWAP1 POP JUMP JUMPDEST PUSH1 0x0 DUP2 ISZERO ISZERO SWAP1 POP SWAP2 SWAP1 POP JUMP JUMPDEST PUSH1 0x0 PUSH20 0xFFFFFFFFFFFFFFFFFFFFFFFFFFFFFFFFFFFFFFFF DUP3 AND SWAP1 POP SWAP2 SWAP1 POP JUMP JUMPDEST PUSH1 0x0 DUP2 SWAP1 POP SWAP2 SWAP1 POP JUMP JUMPDEST DUP3 DUP2 DUP4 CALLDATACOPY PUSH1 0x0 DUP4 DUP4 ADD MSTORE POP POP POP JUMP JUMPDEST PUSH1 0x0 JUMPDEST DUP4 DUP2 LT ISZERO PUSH2 0x997 JUMPI DUP1 DUP3 ADD MLOAD DUP2 DUP5 ADD MSTORE PUSH1 0x20 DUP2 ADD SWAP1 POP PUSH2 0x97C JUMP JUMPDEST DUP4 DUP2 GT ISZERO PUSH2 0x9A6 JUMPI PUSH1 0x0 DUP5 DUP5 ADD MSTORE JUMPDEST POP POP POP POP JUMP JUMPDEST PUSH1 0x0 PUSH1 0x2 DUP3 DIV SWAP1 POP PUSH1 0x1 DUP3 AND DUP1 PUSH2 0x9C4 JUMPI PUSH1 0x7F DUP3 AND SWAP2 POP JUMPDEST PUSH1 0x20 DUP3 LT DUP2 EQ ISZERO PUSH2 0x9D8 JUMPI PUSH2 0x9D7 PUSH2 0xA0F JUMP JUMPDEST JUMPDEST POP SWAP2 SWAP1 POP JUMP JUMPDEST PUSH2 0x9E7 DUP3 PUSH2 0xAB0 JUMP JUMPDEST DUP2 ADD DUP2 DUP2 LT PUSH8 0xFFFFFFFFFFFFFFFF DUP3 GT OR ISZERO PUSH2 0xA06 JUMPI PUSH2 0xA05 PUSH2 0xA6D JUMP JUMPDEST JUMPDEST DUP1 PUSH1 0x40 MSTORE POP POP POP JUMP JUMPDEST PUSH32 0x4E487B7100000000000000000000000000000000000000000000000000000000 PUSH1 0x0 MSTORE PUSH1 0x22 PUSH1 0x4 MSTORE PUSH1 0x24 PUSH1 0x0 REVERT JUMPDEST PUSH32 0x4E487B7100000000000000000000000000000000000000000000000000000000 PUSH1 0x0 MSTORE PUSH1 0x32 PUSH1 0x4 MSTORE PUSH1 0x24 PUSH1 0x0 REVERT JUMPDEST PUSH32 0x4E487B7100000000000000000000000000000000000000000000000000000000 PUSH1 0x0 MSTORE PUSH1 0x41 PUSH1 0x4 MSTORE PUSH1 0x24 PUSH1 0x0 REVERT JUMPDEST PUSH1 0x0 DUP1 REVERT JUMPDEST PUSH1 0x0 DUP1 REVERT JUMPDEST PUSH1 0x0 DUP1 REVERT JUMPDEST PUSH1 0x0 DUP1 REVERT JUMPDEST PUSH1 0x0 PUSH1 0x1F NOT PUSH1 0x1F DUP4 ADD AND SWAP1 POP SWAP2 SWAP1 POP JUMP JUMPDEST PUSH2 0xACA DUP2 PUSH2 0x922 JUMP JUMPDEST DUP2 EQ PUSH2 0xAD5 JUMPI PUSH1 0x0 DUP1 REVERT JUMPDEST POP JUMP JUMPDEST PUSH2 0xAE1 DUP2 PUSH2 0x960 JUMP JUMPDEST DUP2 EQ PUSH2 0xAEC JUMPI PUSH1 0x0 DUP1 REVERT JUMPDEST POP JUMP INVALID LOG2 PUSH5 0x6970667358 0x22 SLT KECCAK256 KECCAK256 0xB4 PUSH24 0x8F55ACA26954F0BD5EBC4C3A95AE41B3DBDE788A007AA2F9 SELFBALANCE CALLER EXP 0xF8 0x29 PUSH5 0x736F6C6343 STOP ADDMOD SMOD STOP CALLER "
				},
				"gasEstimates": {
					"creation": {
						"codeDepositCost": "570600",
						"executionCost": "606",
						"totalCost": "571206"
					},
					"external": {
						"RdPermissionHashArray(uint256)": "infinite",
						"RdPermissionMap(string)": "infinite",
						"isExistPermission(string,address)": "infinite",
						"updateRdPermissions(string,address,uint256)": "infinite"
					}
				},
				"methodIdentifiers": {
					"RdPermissionHashArray(uint256)": "9e77a49a",
					"RdPermissionMap(string)": "4bb6b1e6",
					"isExistPermission(string,address)": "13f8d418",
					"updateRdPermissions(string,address,uint256)": "9df16320"
				}
			},
			"storageLayout": {
				"storage": [
					{
						"astId": 151,
						"contract": "contracts/EduID_contract.sol:RPCC",
						"label": "RdPermissionMap",
						"offset": 0,
						"slot": "0",
						"type": "t_mapping(t_string_memory_ptr,t_struct(PermissionInfo)146_storage)"
					},
					{
						"astId": 154,
						"contract": "contracts/EduID_contract.sol:RPCC",
						"label": "RdPermissionHashArray",
						"offset": 0,
						"slot": "1",
						"type": "t_array(t_string_storage)dyn_storage"
					}
				],
				"types": {
					"t_address": {
						"encoding": "inplace",
						"label": "address",
						"numberOfBytes": "20"
					},
					"t_array(t_address)dyn_storage": {
						"base": "t_address",
						"encoding": "dynamic_array",
						"label": "address[]",
						"numberOfBytes": "32"
					},
					"t_array(t_string_storage)dyn_storage": {
						"base": "t_string_storage",
						"encoding": "dynamic_array",
						"label": "string[]",
						"numberOfBytes": "32"
					},
					"t_mapping(t_string_memory_ptr,t_struct(PermissionInfo)146_storage)": {
						"encoding": "mapping",
						"key": "t_string_memory_ptr",
						"label": "mapping(string => struct RPCC.PermissionInfo)",
						"numberOfBytes": "32",
						"value": "t_struct(PermissionInfo)146_storage"
					},
					"t_string_memory_ptr": {
						"encoding": "bytes",
						"label": "string",
						"numberOfBytes": "32"
					},
					"t_string_storage": {
						"encoding": "bytes",
						"label": "string",
						"numberOfBytes": "32"
					},
					"t_struct(PermissionInfo)146_storage": {
						"encoding": "inplace",
						"label": "struct RPCC.PermissionInfo",
						"members": [
							{
								"astId": 138,
								"contract": "contracts/EduID_contract.sol:RPCC",
								"label": "rdId",
								"offset": 0,
								"slot": "0",
								"type": "t_string_storage"
							},
							{
								"astId": 140,
								"contract": "contracts/EduID_contract.sol:RPCC",
								"label": "rdHash",
								"offset": 0,
								"slot": "1",
								"type": "t_string_storage"
							},
							{
								"astId": 143,
								"contract": "contracts/EduID_contract.sol:RPCC",
								"label": "rdPermissions",
								"offset": 0,
								"slot": "2",
								"type": "t_array(t_address)dyn_storage"
							},
							{
								"astId": 145,
								"contract": "contracts/EduID_contract.sol:RPCC",
								"label": "permissionType",
								"offset": 0,
								"slot": "3",
								"type": "t_uint256"
							}
						],
						"numberOfBytes": "128"
					},
					"t_uint256": {
						"encoding": "inplace",
						"label": "uint256",
						"numberOfBytes": "32"
					}
				}
			},
			"userdoc": {
				"kind": "user",
				"methods": {},
				"version": 1
			}
		}
	}
}