{
	"contracts/EduID_contract.sol": {
		"ISSC": {
			"abi": [
				{
					"inputs": [
						{
							"internalType": "address",
							"name": "",
							"type": "address"
						}
					],
					"name": "PubKeyInstitutionInfoMap",
					"outputs": [
						{
							"internalType": "string",
							"name": "namaInstitusi",
							"type": "string"
						},
						{
							"internalType": "uint256",
							"name": "NPSN",
							"type": "uint256"
						},
						{
							"internalType": "string",
							"name": "akreditasi",
							"type": "string"
						},
						{
							"internalType": "string",
							"name": "jenisSekolah",
							"type": "string"
						},
						{
							"internalType": "string",
							"name": "alamatInstitusi",
							"type": "string"
						},
						{
							"internalType": "uint256",
							"name": "nomorTelepon",
							"type": "uint256"
						},
						{
							"internalType": "bool",
							"name": "agreeToJoin",
							"type": "bool"
						}
					],
					"stateMutability": "view",
					"type": "function"
				},
				{
					"inputs": [
						{
							"internalType": "address",
							"name": "blockAddress",
							"type": "address"
						},
						{
							"internalType": "string",
							"name": "_namaInstitusi",
							"type": "string"
						},
						{
							"internalType": "uint256",
							"name": "_NPSN",
							"type": "uint256"
						},
						{
							"internalType": "string",
							"name": "_akreditasi",
							"type": "string"
						},
						{
							"internalType": "string",
							"name": "_jenisSekolah",
							"type": "string"
						},
						{
							"internalType": "string",
							"name": "_alamatInstitusi",
							"type": "string"
						},
						{
							"internalType": "uint256",
							"name": "_nomorTelepon",
							"type": "uint256"
						},
						{
							"internalType": "bool",
							"name": "_agreeToJoin",
							"type": "bool"
						}
					],
					"name": "initInstitutionMap",
					"outputs": [
						{
							"internalType": "bool",
							"name": "",
							"type": "bool"
						}
					],
					"stateMutability": "nonpayable",
					"type": "function"
				},
				{
					"inputs": [
						{
							"internalType": "uint256",
							"name": "",
							"type": "uint256"
						}
					],
					"name": "institutionBlockAddressArray",
					"outputs": [
						{
							"internalType": "address",
							"name": "",
							"type": "address"
						}
					],
					"stateMutability": "view",
					"type": "function"
				},
				{
					"inputs": [
						{
							"internalType": "uint256",
							"name": "",
							"type": "uint256"
						}
					],
					"name": "institutionInfoMap",
					"outputs": [
						{
							"internalType": "string",
							"name": "namaInstitusi",
							"type": "string"
						},
						{
							"internalType": "uint256",
							"name": "NPSN",
							"type": "uint256"
						},
						{
							"internalType": "string",
							"name": "akreditasi",
							"type": "string"
						},
						{
							"internalType": "string",
							"name": "jenisSekolah",
							"type": "string"
						},
						{
							"internalType": "string",
							"name": "alamatInstitusi",
							"type": "string"
						},
						{
							"internalType": "uint256",
							"name": "nomorTelepon",
							"type": "uint256"
						},
						{
							"internalType": "bool",
							"name": "agreeToJoin",
							"type": "bool"
						}
					],
					"stateMutability": "view",
					"type": "function"
				},
				{
					"inputs": [
						{
							"internalType": "uint256",
							"name": "_NPSN",
							"type": "uint256"
						}
					],
					"name": "isExistInstitution",
					"outputs": [
						{
							"internalType": "bool",
							"name": "",
							"type": "bool"
						}
					],
					"stateMutability": "view",
					"type": "function"
				}
			],
			"devdoc": {
				"kind": "dev",
				"methods": {},
				"version": 1
			},
			"evm": {
				"assembly": "    /* \"contracts/EduID_contract.sol\":70:1618  contract ISSC {\r... */\n  mstore(0x40, 0x80)\n  callvalue\n  dup1\n  iszero\n  tag_1\n  jumpi\n  0x00\n  dup1\n  revert\ntag_1:\n  pop\n  dataSize(sub_0)\n  dup1\n  dataOffset(sub_0)\n  0x00\n  codecopy\n  0x00\n  return\nstop\n\nsub_0: assembly {\n        /* \"contracts/EduID_contract.sol\":70:1618  contract ISSC {\r... */\n      mstore(0x40, 0x80)\n      callvalue\n      dup1\n      iszero\n      tag_1\n      jumpi\n      0x00\n      dup1\n      revert\n    tag_1:\n      pop\n      jumpi(tag_2, lt(calldatasize, 0x04))\n      shr(0xe0, calldataload(0x00))\n      dup1\n      0x50b6e787\n      eq\n      tag_3\n      jumpi\n      dup1\n      0x643f7536\n      eq\n      tag_4\n      jumpi\n      dup1\n      0x751fc87e\n      eq\n      tag_5\n      jumpi\n      dup1\n      0x827e0c99\n      eq\n      tag_6\n      jumpi\n      dup1\n      0xc5d25fa9\n      eq\n      tag_7\n      jumpi\n    tag_2:\n      0x00\n      dup1\n      revert\n        /* \"contracts/EduID_contract.sol\":1342:1615  function isExistInstitution(uint _NPSN) public view returns (bool) {\r... */\n    tag_3:\n      tag_8\n      0x04\n      dup1\n      calldatasize\n      sub\n      dup2\n      add\n      swap1\n      tag_9\n      swap2\n      swap1\n      tag_10\n      jump\t// in\n    tag_9:\n      tag_11\n      jump\t// in\n    tag_8:\n      mload(0x40)\n      tag_12\n      swap2\n      swap1\n      tag_13\n      jump\t// in\n    tag_12:\n      mload(0x40)\n      dup1\n      swap2\n      sub\n      swap1\n      return\n        /* \"contracts/EduID_contract.sol\":326:369  InstitutionInfo[] public institutionInfoMap */\n    tag_4:\n      tag_14\n      0x04\n      dup1\n      calldatasize\n      sub\n      dup2\n      add\n      swap1\n      tag_15\n      swap2\n      swap1\n      tag_10\n      jump\t// in\n    tag_15:\n      tag_16\n      jump\t// in\n    tag_14:\n      mload(0x40)\n      tag_17\n      swap8\n      swap7\n      swap6\n      swap5\n      swap4\n      swap3\n      swap2\n      swap1\n      tag_18\n      jump\t// in\n    tag_17:\n      mload(0x40)\n      dup1\n      swap2\n      sub\n      swap1\n      return\n        /* \"contracts/EduID_contract.sol\":508:1330  function initInstitutionMap(\r... */\n    tag_5:\n      tag_19\n      0x04\n      dup1\n      calldatasize\n      sub\n      dup2\n      add\n      swap1\n      tag_20\n      swap2\n      swap1\n      tag_21\n      jump\t// in\n    tag_20:\n      tag_22\n      jump\t// in\n    tag_19:\n      mload(0x40)\n      tag_23\n      swap2\n      swap1\n      tag_13\n      jump\t// in\n    tag_23:\n      mload(0x40)\n      dup1\n      swap2\n      sub\n      swap1\n      return\n        /* \"contracts/EduID_contract.sol\":378:445  mapping(address => InstitutionInfo) public PubKeyInstitutionInfoMap */\n    tag_6:\n      tag_24\n      0x04\n      dup1\n      calldatasize\n      sub\n      dup2\n      add\n      swap1\n      tag_25\n      swap2\n      swap1\n      tag_26\n      jump\t// in\n    tag_25:\n      tag_27\n      jump\t// in\n    tag_24:\n      mload(0x40)\n      tag_28\n      swap8\n      swap7\n      swap6\n      swap5\n      swap4\n      swap3\n      swap2\n      swap1\n      tag_18\n      jump\t// in\n    tag_28:\n      mload(0x40)\n      dup1\n      swap2\n      sub\n      swap1\n      return\n        /* \"contracts/EduID_contract.sol\":454:499  address[] public institutionBlockAddressArray */\n    tag_7:\n      tag_29\n      0x04\n      dup1\n      calldatasize\n      sub\n      dup2\n      add\n      swap1\n      tag_30\n      swap2\n      swap1\n      tag_10\n      jump\t// in\n    tag_30:\n      tag_31\n      jump\t// in\n    tag_29:\n      mload(0x40)\n      tag_32\n      swap2\n      swap1\n      tag_33\n      jump\t// in\n    tag_32:\n      mload(0x40)\n      dup1\n      swap2\n      sub\n      swap1\n      return\n        /* \"contracts/EduID_contract.sol\":1342:1615  function isExistInstitution(uint _NPSN) public view returns (bool) {\r... */\n    tag_11:\n        /* \"contracts/EduID_contract.sol\":1403:1407  bool */\n      0x00\n        /* \"contracts/EduID_contract.sol\":1425:1431  uint i */\n      dup1\n        /* \"contracts/EduID_contract.sol\":1432:1433  0 */\n      0x00\n        /* \"contracts/EduID_contract.sol\":1425:1433  uint i=0 */\n      swap1\n      pop\n        /* \"contracts/EduID_contract.sol\":1440:1458  institutionInfoMap */\n      0x00\n        /* \"contracts/EduID_contract.sol\":1440:1465  institutionInfoMap.length */\n      dup1\n      sload\n      swap1\n      pop\n        /* \"contracts/EduID_contract.sol\":1435:1436  i */\n      dup2\n        /* \"contracts/EduID_contract.sol\":1435:1465  i <= institutionInfoMap.length */\n      gt\n        /* \"contracts/EduID_contract.sol\":1420:1608  for (uint i=0; i <= institutionInfoMap.length; i++) {\r... */\n      tag_36\n      jumpi\n        /* \"contracts/EduID_contract.sol\":1521:1526  _NPSN */\n      dup3\n        /* \"contracts/EduID_contract.sol\":1491:1509  institutionInfoMap */\n      0x00\n        /* \"contracts/EduID_contract.sol\":1510:1511  i */\n      dup3\n        /* \"contracts/EduID_contract.sol\":1491:1512  institutionInfoMap[i] */\n      dup2\n      sload\n      dup2\n      lt\n      tag_38\n      jumpi\n      tag_39\n      tag_40\n      jump\t// in\n    tag_39:\n    tag_38:\n      swap1\n      0x00\n      mstore\n      keccak256(0x00, 0x20)\n      swap1\n      0x07\n      mul\n      add\n        /* \"contracts/EduID_contract.sol\":1491:1517  institutionInfoMap[i].NPSN */\n      0x01\n      add\n      sload\n        /* \"contracts/EduID_contract.sol\":1491:1526  institutionInfoMap[i].NPSN == _NPSN */\n      eq\n        /* \"contracts/EduID_contract.sol\":1487:1574  if (institutionInfoMap[i].NPSN == _NPSN) {\r... */\n      iszero\n      tag_42\n      jumpi\n        /* \"contracts/EduID_contract.sol\":1554:1558  true */\n      0x01\n        /* \"contracts/EduID_contract.sol\":1547:1558  return true */\n      swap2\n      pop\n      pop\n      jump(tag_34)\n        /* \"contracts/EduID_contract.sol\":1487:1574  if (institutionInfoMap[i].NPSN == _NPSN) {\r... */\n    tag_42:\n        /* \"contracts/EduID_contract.sol\":1591:1596  false */\n      0x00\n        /* \"contracts/EduID_contract.sol\":1584:1596  return false */\n      swap2\n      pop\n      pop\n      jump(tag_34)\n        /* \"contracts/EduID_contract.sol\":1420:1608  for (uint i=0; i <= institutionInfoMap.length; i++) {\r... */\n    tag_36:\n      pop\n        /* \"contracts/EduID_contract.sol\":1342:1615  function isExistInstitution(uint _NPSN) public view returns (bool) {\r... */\n    tag_34:\n      swap2\n      swap1\n      pop\n      jump\t// out\n        /* \"contracts/EduID_contract.sol\":326:369  InstitutionInfo[] public institutionInfoMap */\n    tag_16:\n      0x00\n      dup2\n      dup2\n      sload\n      dup2\n      lt\n      tag_45\n      jumpi\n      0x00\n      dup1\n      revert\n    tag_45:\n      swap1\n      0x00\n      mstore\n      keccak256(0x00, 0x20)\n      swap1\n      0x07\n      mul\n      add\n      0x00\n      swap2\n      pop\n      swap1\n      pop\n      dup1\n      0x00\n      add\n      dup1\n      sload\n      tag_47\n      swap1\n      tag_48\n      jump\t// in\n    tag_47:\n      dup1\n      0x1f\n      add\n      0x20\n      dup1\n      swap2\n      div\n      mul\n      0x20\n      add\n      mload(0x40)\n      swap1\n      dup2\n      add\n      0x40\n      mstore\n      dup1\n      swap3\n      swap2\n      swap1\n      dup2\n      dup2\n      mstore\n      0x20\n      add\n      dup3\n      dup1\n      sload\n      tag_49\n      swap1\n      tag_48\n      jump\t// in\n    tag_49:\n      dup1\n      iszero\n      tag_50\n      jumpi\n      dup1\n      0x1f\n      lt\n      tag_51\n      jumpi\n      0x0100\n      dup1\n      dup4\n      sload\n      div\n      mul\n      dup4\n      mstore\n      swap2\n      0x20\n      add\n      swap2\n      jump(tag_50)\n    tag_51:\n      dup3\n      add\n      swap2\n      swap1\n      0x00\n      mstore\n      keccak256(0x00, 0x20)\n      swap1\n    tag_52:\n      dup2\n      sload\n      dup2\n      mstore\n      swap1\n      0x01\n      add\n      swap1\n      0x20\n      add\n      dup1\n      dup4\n      gt\n      tag_52\n      jumpi\n      dup3\n      swap1\n      sub\n      0x1f\n      and\n      dup3\n      add\n      swap2\n    tag_50:\n      pop\n      pop\n      pop\n      pop\n      pop\n      swap1\n      dup1\n      0x01\n      add\n      sload\n      swap1\n      dup1\n      0x02\n      add\n      dup1\n      sload\n      tag_53\n      swap1\n      tag_48\n      jump\t// in\n    tag_53:\n      dup1\n      0x1f\n      add\n      0x20\n      dup1\n      swap2\n      div\n      mul\n      0x20\n      add\n      mload(0x40)\n      swap1\n      dup2\n      add\n      0x40\n      mstore\n      dup1\n      swap3\n      swap2\n      swap1\n      dup2\n      dup2\n      mstore\n      0x20\n      add\n      dup3\n      dup1\n      sload\n      tag_54\n      swap1\n      tag_48\n      jump\t// in\n    tag_54:\n      dup1\n      iszero\n      tag_55\n      jumpi\n      dup1\n      0x1f\n      lt\n      tag_56\n      jumpi\n      0x0100\n      dup1\n      dup4\n      sload\n      div\n      mul\n      dup4\n      mstore\n      swap2\n      0x20\n      add\n      swap2\n      jump(tag_55)\n    tag_56:\n      dup3\n      add\n      swap2\n      swap1\n      0x00\n      mstore\n      keccak256(0x00, 0x20)\n      swap1\n    tag_57:\n      dup2\n      sload\n      dup2\n      mstore\n      swap1\n      0x01\n      add\n      swap1\n      0x20\n      add\n      dup1\n      dup4\n      gt\n      tag_57\n      jumpi\n      dup3\n      swap1\n      sub\n      0x1f\n      and\n      dup3\n      add\n      swap2\n    tag_55:\n      pop\n      pop\n      pop\n      pop\n      pop\n      swap1\n      dup1\n      0x03\n      add\n      dup1\n      sload\n      tag_58\n      swap1\n      tag_48\n      jump\t// in\n    tag_58:\n      dup1\n      0x1f\n      add\n      0x20\n      dup1\n      swap2\n      div\n      mul\n      0x20\n      add\n      mload(0x40)\n      swap1\n      dup2\n      add\n      0x40\n      mstore\n      dup1\n      swap3\n      swap2\n      swap1\n      dup2\n      dup2\n      mstore\n      0x20\n      add\n      dup3\n      dup1\n      sload\n      tag_59\n      swap1\n      tag_48\n      jump\t// in\n    tag_59:\n      dup1\n      iszero\n      tag_60\n      jumpi\n      dup1\n      0x1f\n      lt\n      tag_61\n      jumpi\n      0x0100\n      dup1\n      dup4\n      sload\n      div\n      mul\n      dup4\n      mstore\n      swap2\n      0x20\n      add\n      swap2\n      jump(tag_60)\n    tag_61:\n      dup3\n      add\n      swap2\n      swap1\n      0x00\n      mstore\n      keccak256(0x00, 0x20)\n      swap1\n    tag_62:\n      dup2\n      sload\n      dup2\n      mstore\n      swap1\n      0x01\n      add\n      swap1\n      0x20\n      add\n      dup1\n      dup4\n      gt\n      tag_62\n      jumpi\n      dup3\n      swap1\n      sub\n      0x1f\n      and\n      dup3\n      add\n      swap2\n    tag_60:\n      pop\n      pop\n      pop\n      pop\n      pop\n      swap1\n      dup1\n      0x04\n      add\n      dup1\n      sload\n      tag_63\n      swap1\n      tag_48\n      jump\t// in\n    tag_63:\n      dup1\n      0x1f\n      add\n      0x20\n      dup1\n      swap2\n      div\n      mul\n      0x20\n      add\n      mload(0x40)\n      swap1\n      dup2\n      add\n      0x40\n      mstore\n      dup1\n      swap3\n      swap2\n      swap1\n      dup2\n      dup2\n      mstore\n      0x20\n      add\n      dup3\n      dup1\n      sload\n      tag_64\n      swap1\n      tag_48\n      jump\t// in\n    tag_64:\n      dup1\n      iszero\n      tag_65\n      jumpi\n      dup1\n      0x1f\n      lt\n      tag_66\n      jumpi\n      0x0100\n      dup1\n      dup4\n      sload\n      div\n      mul\n      dup4\n      mstore\n      swap2\n      0x20\n      add\n      swap2\n      jump(tag_65)\n    tag_66:\n      dup3\n      add\n      swap2\n      swap1\n      0x00\n      mstore\n      keccak256(0x00, 0x20)\n      swap1\n    tag_67:\n      dup2\n      sload\n      dup2\n      mstore\n      swap1\n      0x01\n      add\n      swap1\n      0x20\n      add\n      dup1\n      dup4\n      gt\n      tag_67\n      jumpi\n      dup3\n      swap1\n      sub\n      0x1f\n      and\n      dup3\n      add\n      swap2\n    tag_65:\n      pop\n      pop\n      pop\n      pop\n      pop\n      swap1\n      dup1\n      0x05\n      add\n      sload\n      swap1\n      dup1\n      0x06\n      add\n      0x00\n      swap1\n      sload\n      swap1\n      0x0100\n      exp\n      swap1\n      div\n      0xff\n      and\n      swap1\n      pop\n      dup8\n      jump\t// out\n        /* \"contracts/EduID_contract.sol\":508:1330  function initInstitutionMap(\r... */\n    tag_22:\n        /* \"contracts/EduID_contract.sol\":817:821  bool */\n      0x00\n        /* \"contracts/EduID_contract.sol\":876:886  msg.sender */\n      caller\n        /* \"contracts/EduID_contract.sol\":860:886  blockAddress == msg.sender */\n      0xffffffffffffffffffffffffffffffffffffffff\n      and\n        /* \"contracts/EduID_contract.sol\":860:872  blockAddress */\n      dup10\n        /* \"contracts/EduID_contract.sol\":860:886  blockAddress == msg.sender */\n      0xffffffffffffffffffffffffffffffffffffffff\n      and\n      eq\n        /* \"contracts/EduID_contract.sol\":852:895  require(blockAddress == msg.sender, \"This\") */\n      tag_69\n      jumpi\n      mload(0x40)\n      0x08c379a000000000000000000000000000000000000000000000000000000000\n      dup2\n      mstore\n      0x04\n      add\n      tag_70\n      swap1\n      tag_71\n      jump\t// in\n    tag_70:\n      mload(0x40)\n      dup1\n      swap2\n      sub\n      swap1\n      revert\n    tag_69:\n        /* \"contracts/EduID_contract.sol\":508:1330  function initInstitutionMap(\r... */\n      swap9\n      swap8\n      pop\n      pop\n      pop\n      pop\n      pop\n      pop\n      pop\n      pop\n      jump\t// out\n        /* \"contracts/EduID_contract.sol\":378:445  mapping(address => InstitutionInfo) public PubKeyInstitutionInfoMap */\n    tag_27:\n      mstore(0x20, 0x01)\n      dup1\n      0x00\n      mstore\n      keccak256(0x00, 0x40)\n      0x00\n      swap2\n      pop\n      swap1\n      pop\n      dup1\n      0x00\n      add\n      dup1\n      sload\n      tag_72\n      swap1\n      tag_48\n      jump\t// in\n    tag_72:\n      dup1\n      0x1f\n      add\n      0x20\n      dup1\n      swap2\n      div\n      mul\n      0x20\n      add\n      mload(0x40)\n      swap1\n      dup2\n      add\n      0x40\n      mstore\n      dup1\n      swap3\n      swap2\n      swap1\n      dup2\n      dup2\n      mstore\n      0x20\n      add\n      dup3\n      dup1\n      sload\n      tag_73\n      swap1\n      tag_48\n      jump\t// in\n    tag_73:\n      dup1\n      iszero\n      tag_74\n      jumpi\n      dup1\n      0x1f\n      lt\n      tag_75\n      jumpi\n      0x0100\n      dup1\n      dup4\n      sload\n      div\n      mul\n      dup4\n      mstore\n      swap2\n      0x20\n      add\n      swap2\n      jump(tag_74)\n    tag_75:\n      dup3\n      add\n      swap2\n      swap1\n      0x00\n      mstore\n      keccak256(0x00, 0x20)\n      swap1\n    tag_76:\n      dup2\n      sload\n      dup2\n      mstore\n      swap1\n      0x01\n      add\n      swap1\n      0x20\n      add\n      dup1\n      dup4\n      gt\n      tag_76\n      jumpi\n      dup3\n      swap1\n      sub\n      0x1f\n      and\n      dup3\n      add\n      swap2\n    tag_74:\n      pop\n      pop\n      pop\n      pop\n      pop\n      swap1\n      dup1\n      0x01\n      add\n      sload\n      swap1\n      dup1\n      0x02\n      add\n      dup1\n      sload\n      tag_77\n      swap1\n      tag_48\n      jump\t// in\n    tag_77:\n      dup1\n      0x1f\n      add\n      0x20\n      dup1\n      swap2\n      div\n      mul\n      0x20\n      add\n      mload(0x40)\n      swap1\n      dup2\n      add\n      0x40\n      mstore\n      dup1\n      swap3\n      swap2\n      swap1\n      dup2\n      dup2\n      mstore\n      0x20\n      add\n      dup3\n      dup1\n      sload\n      tag_78\n      swap1\n      tag_48\n      jump\t// in\n    tag_78:\n      dup1\n      iszero\n      tag_79\n      jumpi\n      dup1\n      0x1f\n      lt\n      tag_80\n      jumpi\n      0x0100\n      dup1\n      dup4\n      sload\n      div\n      mul\n      dup4\n      mstore\n      swap2\n      0x20\n      add\n      swap2\n      jump(tag_79)\n    tag_80:\n      dup3\n      add\n      swap2\n      swap1\n      0x00\n      mstore\n      keccak256(0x00, 0x20)\n      swap1\n    tag_81:\n      dup2\n      sload\n      dup2\n      mstore\n      swap1\n      0x01\n      add\n      swap1\n      0x20\n      add\n      dup1\n      dup4\n      gt\n      tag_81\n      jumpi\n      dup3\n      swap1\n      sub\n      0x1f\n      and\n      dup3\n      add\n      swap2\n    tag_79:\n      pop\n      pop\n      pop\n      pop\n      pop\n      swap1\n      dup1\n      0x03\n      add\n      dup1\n      sload\n      tag_82\n      swap1\n      tag_48\n      jump\t// in\n    tag_82:\n      dup1\n      0x1f\n      add\n      0x20\n      dup1\n      swap2\n      div\n      mul\n      0x20\n      add\n      mload(0x40)\n      swap1\n      dup2\n      add\n      0x40\n      mstore\n      dup1\n      swap3\n      swap2\n      swap1\n      dup2\n      dup2\n      mstore\n      0x20\n      add\n      dup3\n      dup1\n      sload\n      tag_83\n      swap1\n      tag_48\n      jump\t// in\n    tag_83:\n      dup1\n      iszero\n      tag_84\n      jumpi\n      dup1\n      0x1f\n      lt\n      tag_85\n      jumpi\n      0x0100\n      dup1\n      dup4\n      sload\n      div\n      mul\n      dup4\n      mstore\n      swap2\n      0x20\n      add\n      swap2\n      jump(tag_84)\n    tag_85:\n      dup3\n      add\n      swap2\n      swap1\n      0x00\n      mstore\n      keccak256(0x00, 0x20)\n      swap1\n    tag_86:\n      dup2\n      sload\n      dup2\n      mstore\n      swap1\n      0x01\n      add\n      swap1\n      0x20\n      add\n      dup1\n      dup4\n      gt\n      tag_86\n      jumpi\n      dup3\n      swap1\n      sub\n      0x1f\n      and\n      dup3\n      add\n      swap2\n    tag_84:\n      pop\n      pop\n      pop\n      pop\n      pop\n      swap1\n      dup1\n      0x04\n      add\n      dup1\n      sload\n      tag_87\n      swap1\n      tag_48\n      jump\t// in\n    tag_87:\n      dup1\n      0x1f\n      add\n      0x20\n      dup1\n      swap2\n      div\n      mul\n      0x20\n      add\n      mload(0x40)\n      swap1\n      dup2\n      add\n      0x40\n      mstore\n      dup1\n      swap3\n      swap2\n      swap1\n      dup2\n      dup2\n      mstore\n      0x20\n      add\n      dup3\n      dup1\n      sload\n      tag_88\n      swap1\n      tag_48\n      jump\t// in\n    tag_88:\n      dup1\n      iszero\n      tag_89\n      jumpi\n      dup1\n      0x1f\n      lt\n      tag_90\n      jumpi\n      0x0100\n      dup1\n      dup4\n      sload\n      div\n      mul\n      dup4\n      mstore\n      swap2\n      0x20\n      add\n      swap2\n      jump(tag_89)\n    tag_90:\n      dup3\n      add\n      swap2\n      swap1\n      0x00\n      mstore\n      keccak256(0x00, 0x20)\n      swap1\n    tag_91:\n      dup2\n      sload\n      dup2\n      mstore\n      swap1\n      0x01\n      add\n      swap1\n      0x20\n      add\n      dup1\n      dup4\n      gt\n      tag_91\n      jumpi\n      dup3\n      swap1\n      sub\n      0x1f\n      and\n      dup3\n      add\n      swap2\n    tag_89:\n      pop\n      pop\n      pop\n      pop\n      pop\n      swap1\n      dup1\n      0x05\n      add\n      sload\n      swap1\n      dup1\n      0x06\n      add\n      0x00\n      swap1\n      sload\n      swap1\n      0x0100\n      exp\n      swap1\n      div\n      0xff\n      and\n      swap1\n      pop\n      dup8\n      jump\t// out\n        /* \"contracts/EduID_contract.sol\":454:499  address[] public institutionBlockAddressArray */\n    tag_31:\n      0x02\n      dup2\n      dup2\n      sload\n      dup2\n      lt\n      tag_92\n      jumpi\n      0x00\n      dup1\n      revert\n    tag_92:\n      swap1\n      0x00\n      mstore\n      keccak256(0x00, 0x20)\n      add\n      0x00\n      swap2\n      pop\n      sload\n      swap1\n      0x0100\n      exp\n      swap1\n      div\n      0xffffffffffffffffffffffffffffffffffffffff\n      and\n      dup2\n      jump\t// out\n        /* \"#utility.yul\":7:419   */\n    tag_95:\n        /* \"#utility.yul\":85:90   */\n      0x00\n        /* \"#utility.yul\":110:176   */\n      tag_97\n        /* \"#utility.yul\":126:175   */\n      tag_98\n        /* \"#utility.yul\":168:174   */\n      dup5\n        /* \"#utility.yul\":126:175   */\n      tag_99\n      jump\t// in\n    tag_98:\n        /* \"#utility.yul\":110:176   */\n      tag_100\n      jump\t// in\n    tag_97:\n        /* \"#utility.yul\":101:176   */\n      swap1\n      pop\n        /* \"#utility.yul\":199:205   */\n      dup3\n        /* \"#utility.yul\":192:197   */\n      dup2\n        /* \"#utility.yul\":185:206   */\n      mstore\n        /* \"#utility.yul\":237:241   */\n      0x20\n        /* \"#utility.yul\":230:235   */\n      dup2\n        /* \"#utility.yul\":226:242   */\n      add\n        /* \"#utility.yul\":275:278   */\n      dup5\n        /* \"#utility.yul\":266:272   */\n      dup5\n        /* \"#utility.yul\":261:264   */\n      dup5\n        /* \"#utility.yul\":257:273   */\n      add\n        /* \"#utility.yul\":254:279   */\n      gt\n        /* \"#utility.yul\":251:363   */\n      iszero\n      tag_101\n      jumpi\n        /* \"#utility.yul\":282:361   */\n      tag_102\n      tag_103\n      jump\t// in\n    tag_102:\n        /* \"#utility.yul\":251:363   */\n    tag_101:\n        /* \"#utility.yul\":372:413   */\n      tag_104\n        /* \"#utility.yul\":406:412   */\n      dup5\n        /* \"#utility.yul\":401:404   */\n      dup3\n        /* \"#utility.yul\":396:399   */\n      dup6\n        /* \"#utility.yul\":372:413   */\n      tag_105\n      jump\t// in\n    tag_104:\n        /* \"#utility.yul\":91:419   */\n      pop\n        /* \"#utility.yul\":7:419   */\n      swap4\n      swap3\n      pop\n      pop\n      pop\n      jump\t// out\n        /* \"#utility.yul\":425:564   */\n    tag_106:\n        /* \"#utility.yul\":471:476   */\n      0x00\n        /* \"#utility.yul\":509:515   */\n      dup2\n        /* \"#utility.yul\":496:516   */\n      calldataload\n        /* \"#utility.yul\":487:516   */\n      swap1\n      pop\n        /* \"#utility.yul\":525:558   */\n      tag_108\n        /* \"#utility.yul\":552:557   */\n      dup2\n        /* \"#utility.yul\":525:558   */\n      tag_109\n      jump\t// in\n    tag_108:\n        /* \"#utility.yul\":425:564   */\n      swap3\n      swap2\n      pop\n      pop\n      jump\t// out\n        /* \"#utility.yul\":570:703   */\n    tag_110:\n        /* \"#utility.yul\":613:618   */\n      0x00\n        /* \"#utility.yul\":651:657   */\n      dup2\n        /* \"#utility.yul\":638:658   */\n      calldataload\n        /* \"#utility.yul\":629:658   */\n      swap1\n      pop\n        /* \"#utility.yul\":667:697   */\n      tag_112\n        /* \"#utility.yul\":691:696   */\n      dup2\n        /* \"#utility.yul\":667:697   */\n      tag_113\n      jump\t// in\n    tag_112:\n        /* \"#utility.yul\":570:703   */\n      swap3\n      swap2\n      pop\n      pop\n      jump\t// out\n        /* \"#utility.yul\":723:1063   */\n    tag_114:\n        /* \"#utility.yul\":779:784   */\n      0x00\n        /* \"#utility.yul\":828:831   */\n      dup3\n        /* \"#utility.yul\":821:825   */\n      0x1f\n        /* \"#utility.yul\":813:819   */\n      dup4\n        /* \"#utility.yul\":809:826   */\n      add\n        /* \"#utility.yul\":805:832   */\n      slt\n        /* \"#utility.yul\":795:917   */\n      tag_116\n      jumpi\n        /* \"#utility.yul\":836:915   */\n      tag_117\n      tag_118\n      jump\t// in\n    tag_117:\n        /* \"#utility.yul\":795:917   */\n    tag_116:\n        /* \"#utility.yul\":953:959   */\n      dup2\n        /* \"#utility.yul\":940:960   */\n      calldataload\n        /* \"#utility.yul\":978:1057   */\n      tag_119\n        /* \"#utility.yul\":1053:1056   */\n      dup5\n        /* \"#utility.yul\":1045:1051   */\n      dup3\n        /* \"#utility.yul\":1038:1042   */\n      0x20\n        /* \"#utility.yul\":1030:1036   */\n      dup7\n        /* \"#utility.yul\":1026:1043   */\n      add\n        /* \"#utility.yul\":978:1057   */\n      tag_95\n      jump\t// in\n    tag_119:\n        /* \"#utility.yul\":969:1057   */\n      swap2\n      pop\n        /* \"#utility.yul\":785:1063   */\n      pop\n        /* \"#utility.yul\":723:1063   */\n      swap3\n      swap2\n      pop\n      pop\n      jump\t// out\n        /* \"#utility.yul\":1069:1208   */\n    tag_120:\n        /* \"#utility.yul\":1115:1120   */\n      0x00\n        /* \"#utility.yul\":1153:1159   */\n      dup2\n        /* \"#utility.yul\":1140:1160   */\n      calldataload\n        /* \"#utility.yul\":1131:1160   */\n      swap1\n      pop\n        /* \"#utility.yul\":1169:1202   */\n      tag_122\n        /* \"#utility.yul\":1196:1201   */\n      dup2\n        /* \"#utility.yul\":1169:1202   */\n      tag_123\n      jump\t// in\n    tag_122:\n        /* \"#utility.yul\":1069:1208   */\n      swap3\n      swap2\n      pop\n      pop\n      jump\t// out\n        /* \"#utility.yul\":1214:1543   */\n    tag_26:\n        /* \"#utility.yul\":1273:1279   */\n      0x00\n        /* \"#utility.yul\":1322:1324   */\n      0x20\n        /* \"#utility.yul\":1310:1319   */\n      dup3\n        /* \"#utility.yul\":1301:1308   */\n      dup5\n        /* \"#utility.yul\":1297:1320   */\n      sub\n        /* \"#utility.yul\":1293:1325   */\n      slt\n        /* \"#utility.yul\":1290:1409   */\n      iszero\n      tag_125\n      jumpi\n        /* \"#utility.yul\":1328:1407   */\n      tag_126\n      tag_127\n      jump\t// in\n    tag_126:\n        /* \"#utility.yul\":1290:1409   */\n    tag_125:\n        /* \"#utility.yul\":1448:1449   */\n      0x00\n        /* \"#utility.yul\":1473:1526   */\n      tag_128\n        /* \"#utility.yul\":1518:1525   */\n      dup5\n        /* \"#utility.yul\":1509:1515   */\n      dup3\n        /* \"#utility.yul\":1498:1507   */\n      dup6\n        /* \"#utility.yul\":1494:1516   */\n      add\n        /* \"#utility.yul\":1473:1526   */\n      tag_106\n      jump\t// in\n    tag_128:\n        /* \"#utility.yul\":1463:1526   */\n      swap2\n      pop\n        /* \"#utility.yul\":1419:1536   */\n      pop\n        /* \"#utility.yul\":1214:1543   */\n      swap3\n      swap2\n      pop\n      pop\n      jump\t// out\n        /* \"#utility.yul\":1549:3612   */\n    tag_21:\n        /* \"#utility.yul\":1708:1714   */\n      0x00\n        /* \"#utility.yul\":1716:1722   */\n      dup1\n        /* \"#utility.yul\":1724:1730   */\n      0x00\n        /* \"#utility.yul\":1732:1738   */\n      dup1\n        /* \"#utility.yul\":1740:1746   */\n      0x00\n        /* \"#utility.yul\":1748:1754   */\n      dup1\n        /* \"#utility.yul\":1756:1762   */\n      0x00\n        /* \"#utility.yul\":1764:1770   */\n      dup1\n        /* \"#utility.yul\":1813:1816   */\n      0x0100\n        /* \"#utility.yul\":1801:1810   */\n      dup10\n        /* \"#utility.yul\":1792:1799   */\n      dup12\n        /* \"#utility.yul\":1788:1811   */\n      sub\n        /* \"#utility.yul\":1784:1817   */\n      slt\n        /* \"#utility.yul\":1781:1901   */\n      iszero\n      tag_130\n      jumpi\n        /* \"#utility.yul\":1820:1899   */\n      tag_131\n      tag_127\n      jump\t// in\n    tag_131:\n        /* \"#utility.yul\":1781:1901   */\n    tag_130:\n        /* \"#utility.yul\":1940:1941   */\n      0x00\n        /* \"#utility.yul\":1965:2018   */\n      tag_132\n        /* \"#utility.yul\":2010:2017   */\n      dup12\n        /* \"#utility.yul\":2001:2007   */\n      dup3\n        /* \"#utility.yul\":1990:1999   */\n      dup13\n        /* \"#utility.yul\":1986:2008   */\n      add\n        /* \"#utility.yul\":1965:2018   */\n      tag_106\n      jump\t// in\n    tag_132:\n        /* \"#utility.yul\":1955:2018   */\n      swap9\n      pop\n        /* \"#utility.yul\":1911:2028   */\n      pop\n        /* \"#utility.yul\":2095:2097   */\n      0x20\n        /* \"#utility.yul\":2084:2093   */\n      dup10\n        /* \"#utility.yul\":2080:2098   */\n      add\n        /* \"#utility.yul\":2067:2099   */\n      calldataload\n        /* \"#utility.yul\":2126:2144   */\n      0xffffffffffffffff\n        /* \"#utility.yul\":2118:2124   */\n      dup2\n        /* \"#utility.yul\":2115:2145   */\n      gt\n        /* \"#utility.yul\":2112:2229   */\n      iszero\n      tag_133\n      jumpi\n        /* \"#utility.yul\":2148:2227   */\n      tag_134\n      tag_135\n      jump\t// in\n    tag_134:\n        /* \"#utility.yul\":2112:2229   */\n    tag_133:\n        /* \"#utility.yul\":2253:2316   */\n      tag_136\n        /* \"#utility.yul\":2308:2315   */\n      dup12\n        /* \"#utility.yul\":2299:2305   */\n      dup3\n        /* \"#utility.yul\":2288:2297   */\n      dup13\n        /* \"#utility.yul\":2284:2306   */\n      add\n        /* \"#utility.yul\":2253:2316   */\n      tag_114\n      jump\t// in\n    tag_136:\n        /* \"#utility.yul\":2243:2316   */\n      swap8\n      pop\n        /* \"#utility.yul\":2038:2326   */\n      pop\n        /* \"#utility.yul\":2365:2367   */\n      0x40\n        /* \"#utility.yul\":2391:2444   */\n      tag_137\n        /* \"#utility.yul\":2436:2443   */\n      dup12\n        /* \"#utility.yul\":2427:2433   */\n      dup3\n        /* \"#utility.yul\":2416:2425   */\n      dup13\n        /* \"#utility.yul\":2412:2434   */\n      add\n        /* \"#utility.yul\":2391:2444   */\n      tag_120\n      jump\t// in\n    tag_137:\n        /* \"#utility.yul\":2381:2444   */\n      swap7\n      pop\n        /* \"#utility.yul\":2336:2454   */\n      pop\n        /* \"#utility.yul\":2521:2523   */\n      0x60\n        /* \"#utility.yul\":2510:2519   */\n      dup10\n        /* \"#utility.yul\":2506:2524   */\n      add\n        /* \"#utility.yul\":2493:2525   */\n      calldataload\n        /* \"#utility.yul\":2552:2570   */\n      0xffffffffffffffff\n        /* \"#utility.yul\":2544:2550   */\n      dup2\n        /* \"#utility.yul\":2541:2571   */\n      gt\n        /* \"#utility.yul\":2538:2655   */\n      iszero\n      tag_138\n      jumpi\n        /* \"#utility.yul\":2574:2653   */\n      tag_139\n      tag_135\n      jump\t// in\n    tag_139:\n        /* \"#utility.yul\":2538:2655   */\n    tag_138:\n        /* \"#utility.yul\":2679:2742   */\n      tag_140\n        /* \"#utility.yul\":2734:2741   */\n      dup12\n        /* \"#utility.yul\":2725:2731   */\n      dup3\n        /* \"#utility.yul\":2714:2723   */\n      dup13\n        /* \"#utility.yul\":2710:2732   */\n      add\n        /* \"#utility.yul\":2679:2742   */\n      tag_114\n      jump\t// in\n    tag_140:\n        /* \"#utility.yul\":2669:2742   */\n      swap6\n      pop\n        /* \"#utility.yul\":2464:2752   */\n      pop\n        /* \"#utility.yul\":2819:2822   */\n      0x80\n        /* \"#utility.yul\":2808:2817   */\n      dup10\n        /* \"#utility.yul\":2804:2823   */\n      add\n        /* \"#utility.yul\":2791:2824   */\n      calldataload\n        /* \"#utility.yul\":2851:2869   */\n      0xffffffffffffffff\n        /* \"#utility.yul\":2843:2849   */\n      dup2\n        /* \"#utility.yul\":2840:2870   */\n      gt\n        /* \"#utility.yul\":2837:2954   */\n      iszero\n      tag_141\n      jumpi\n        /* \"#utility.yul\":2873:2952   */\n      tag_142\n      tag_135\n      jump\t// in\n    tag_142:\n        /* \"#utility.yul\":2837:2954   */\n    tag_141:\n        /* \"#utility.yul\":2978:3041   */\n      tag_143\n        /* \"#utility.yul\":3033:3040   */\n      dup12\n        /* \"#utility.yul\":3024:3030   */\n      dup3\n        /* \"#utility.yul\":3013:3022   */\n      dup13\n        /* \"#utility.yul\":3009:3031   */\n      add\n        /* \"#utility.yul\":2978:3041   */\n      tag_114\n      jump\t// in\n    tag_143:\n        /* \"#utility.yul\":2968:3041   */\n      swap5\n      pop\n        /* \"#utility.yul\":2762:3051   */\n      pop\n        /* \"#utility.yul\":3118:3121   */\n      0xa0\n        /* \"#utility.yul\":3107:3116   */\n      dup10\n        /* \"#utility.yul\":3103:3122   */\n      add\n        /* \"#utility.yul\":3090:3123   */\n      calldataload\n        /* \"#utility.yul\":3150:3168   */\n      0xffffffffffffffff\n        /* \"#utility.yul\":3142:3148   */\n      dup2\n        /* \"#utility.yul\":3139:3169   */\n      gt\n        /* \"#utility.yul\":3136:3253   */\n      iszero\n      tag_144\n      jumpi\n        /* \"#utility.yul\":3172:3251   */\n      tag_145\n      tag_135\n      jump\t// in\n    tag_145:\n        /* \"#utility.yul\":3136:3253   */\n    tag_144:\n        /* \"#utility.yul\":3277:3340   */\n      tag_146\n        /* \"#utility.yul\":3332:3339   */\n      dup12\n        /* \"#utility.yul\":3323:3329   */\n      dup3\n        /* \"#utility.yul\":3312:3321   */\n      dup13\n        /* \"#utility.yul\":3308:3330   */\n      add\n        /* \"#utility.yul\":3277:3340   */\n      tag_114\n      jump\t// in\n    tag_146:\n        /* \"#utility.yul\":3267:3340   */\n      swap4\n      pop\n        /* \"#utility.yul\":3061:3350   */\n      pop\n        /* \"#utility.yul\":3389:3392   */\n      0xc0\n        /* \"#utility.yul\":3416:3469   */\n      tag_147\n        /* \"#utility.yul\":3461:3468   */\n      dup12\n        /* \"#utility.yul\":3452:3458   */\n      dup3\n        /* \"#utility.yul\":3441:3450   */\n      dup13\n        /* \"#utility.yul\":3437:3459   */\n      add\n        /* \"#utility.yul\":3416:3469   */\n      tag_120\n      jump\t// in\n    tag_147:\n        /* \"#utility.yul\":3406:3469   */\n      swap3\n      pop\n        /* \"#utility.yul\":3360:3479   */\n      pop\n        /* \"#utility.yul\":3518:3521   */\n      0xe0\n        /* \"#utility.yul\":3545:3595   */\n      tag_148\n        /* \"#utility.yul\":3587:3594   */\n      dup12\n        /* \"#utility.yul\":3578:3584   */\n      dup3\n        /* \"#utility.yul\":3567:3576   */\n      dup13\n        /* \"#utility.yul\":3563:3585   */\n      add\n        /* \"#utility.yul\":3545:3595   */\n      tag_110\n      jump\t// in\n    tag_148:\n        /* \"#utility.yul\":3535:3595   */\n      swap2\n      pop\n        /* \"#utility.yul\":3489:3605   */\n      pop\n        /* \"#utility.yul\":1549:3612   */\n      swap3\n      swap6\n      swap9\n      pop\n      swap3\n      swap6\n      swap9\n      swap1\n      swap4\n      swap7\n      pop\n      jump\t// out\n        /* \"#utility.yul\":3618:3947   */\n    tag_10:\n        /* \"#utility.yul\":3677:3683   */\n      0x00\n        /* \"#utility.yul\":3726:3728   */\n      0x20\n        /* \"#utility.yul\":3714:3723   */\n      dup3\n        /* \"#utility.yul\":3705:3712   */\n      dup5\n        /* \"#utility.yul\":3701:3724   */\n      sub\n        /* \"#utility.yul\":3697:3729   */\n      slt\n        /* \"#utility.yul\":3694:3813   */\n      iszero\n      tag_150\n      jumpi\n        /* \"#utility.yul\":3732:3811   */\n      tag_151\n      tag_127\n      jump\t// in\n    tag_151:\n        /* \"#utility.yul\":3694:3813   */\n    tag_150:\n        /* \"#utility.yul\":3852:3853   */\n      0x00\n        /* \"#utility.yul\":3877:3930   */\n      tag_152\n        /* \"#utility.yul\":3922:3929   */\n      dup5\n        /* \"#utility.yul\":3913:3919   */\n      dup3\n        /* \"#utility.yul\":3902:3911   */\n      dup6\n        /* \"#utility.yul\":3898:3920   */\n      add\n        /* \"#utility.yul\":3877:3930   */\n      tag_120\n      jump\t// in\n    tag_152:\n        /* \"#utility.yul\":3867:3930   */\n      swap2\n      pop\n        /* \"#utility.yul\":3823:3940   */\n      pop\n        /* \"#utility.yul\":3618:3947   */\n      swap3\n      swap2\n      pop\n      pop\n      jump\t// out\n        /* \"#utility.yul\":3953:4071   */\n    tag_153:\n        /* \"#utility.yul\":4040:4064   */\n      tag_155\n        /* \"#utility.yul\":4058:4063   */\n      dup2\n        /* \"#utility.yul\":4040:4064   */\n      tag_156\n      jump\t// in\n    tag_155:\n        /* \"#utility.yul\":4035:4038   */\n      dup3\n        /* \"#utility.yul\":4028:4065   */\n      mstore\n        /* \"#utility.yul\":3953:4071   */\n      pop\n      pop\n      jump\t// out\n        /* \"#utility.yul\":4077:4186   */\n    tag_157:\n        /* \"#utility.yul\":4158:4179   */\n      tag_159\n        /* \"#utility.yul\":4173:4178   */\n      dup2\n        /* \"#utility.yul\":4158:4179   */\n      tag_160\n      jump\t// in\n    tag_159:\n        /* \"#utility.yul\":4153:4156   */\n      dup3\n        /* \"#utility.yul\":4146:4180   */\n      mstore\n        /* \"#utility.yul\":4077:4186   */\n      pop\n      pop\n      jump\t// out\n        /* \"#utility.yul\":4192:4556   */\n    tag_161:\n        /* \"#utility.yul\":4280:4283   */\n      0x00\n        /* \"#utility.yul\":4308:4347   */\n      tag_163\n        /* \"#utility.yul\":4341:4346   */\n      dup3\n        /* \"#utility.yul\":4308:4347   */\n      tag_164\n      jump\t// in\n    tag_163:\n        /* \"#utility.yul\":4363:4434   */\n      tag_165\n        /* \"#utility.yul\":4427:4433   */\n      dup2\n        /* \"#utility.yul\":4422:4425   */\n      dup6\n        /* \"#utility.yul\":4363:4434   */\n      tag_166\n      jump\t// in\n    tag_165:\n        /* \"#utility.yul\":4356:4434   */\n      swap4\n      pop\n        /* \"#utility.yul\":4443:4495   */\n      tag_167\n        /* \"#utility.yul\":4488:4494   */\n      dup2\n        /* \"#utility.yul\":4483:4486   */\n      dup6\n        /* \"#utility.yul\":4476:4480   */\n      0x20\n        /* \"#utility.yul\":4469:4474   */\n      dup7\n        /* \"#utility.yul\":4465:4481   */\n      add\n        /* \"#utility.yul\":4443:4495   */\n      tag_168\n      jump\t// in\n    tag_167:\n        /* \"#utility.yul\":4520:4549   */\n      tag_169\n        /* \"#utility.yul\":4542:4548   */\n      dup2\n        /* \"#utility.yul\":4520:4549   */\n      tag_170\n      jump\t// in\n    tag_169:\n        /* \"#utility.yul\":4515:4518   */\n      dup5\n        /* \"#utility.yul\":4511:4550   */\n      add\n        /* \"#utility.yul\":4504:4550   */\n      swap2\n      pop\n        /* \"#utility.yul\":4284:4556   */\n      pop\n        /* \"#utility.yul\":4192:4556   */\n      swap3\n      swap2\n      pop\n      pop\n      jump\t// out\n        /* \"#utility.yul\":4562:4927   */\n    tag_171:\n        /* \"#utility.yul\":4704:4707   */\n      0x00\n        /* \"#utility.yul\":4725:4791   */\n      tag_173\n        /* \"#utility.yul\":4789:4790   */\n      0x04\n        /* \"#utility.yul\":4784:4787   */\n      dup4\n        /* \"#utility.yul\":4725:4791   */\n      tag_166\n      jump\t// in\n    tag_173:\n        /* \"#utility.yul\":4718:4791   */\n      swap2\n      pop\n        /* \"#utility.yul\":4800:4893   */\n      tag_174\n        /* \"#utility.yul\":4889:4892   */\n      dup3\n        /* \"#utility.yul\":4800:4893   */\n      tag_175\n      jump\t// in\n    tag_174:\n        /* \"#utility.yul\":4918:4920   */\n      0x20\n        /* \"#utility.yul\":4913:4916   */\n      dup3\n        /* \"#utility.yul\":4909:4921   */\n      add\n        /* \"#utility.yul\":4902:4921   */\n      swap1\n      pop\n        /* \"#utility.yul\":4562:4927   */\n      swap2\n      swap1\n      pop\n      jump\t// out\n        /* \"#utility.yul\":4933:5051   */\n    tag_176:\n        /* \"#utility.yul\":5020:5044   */\n      tag_178\n        /* \"#utility.yul\":5038:5043   */\n      dup2\n        /* \"#utility.yul\":5020:5044   */\n      tag_179\n      jump\t// in\n    tag_178:\n        /* \"#utility.yul\":5015:5018   */\n      dup3\n        /* \"#utility.yul\":5008:5045   */\n      mstore\n        /* \"#utility.yul\":4933:5051   */\n      pop\n      pop\n      jump\t// out\n        /* \"#utility.yul\":5057:5279   */\n    tag_33:\n        /* \"#utility.yul\":5150:5154   */\n      0x00\n        /* \"#utility.yul\":5188:5190   */\n      0x20\n        /* \"#utility.yul\":5177:5186   */\n      dup3\n        /* \"#utility.yul\":5173:5191   */\n      add\n        /* \"#utility.yul\":5165:5191   */\n      swap1\n      pop\n        /* \"#utility.yul\":5201:5272   */\n      tag_181\n        /* \"#utility.yul\":5269:5270   */\n      0x00\n        /* \"#utility.yul\":5258:5267   */\n      dup4\n        /* \"#utility.yul\":5254:5271   */\n      add\n        /* \"#utility.yul\":5245:5251   */\n      dup5\n        /* \"#utility.yul\":5201:5272   */\n      tag_153\n      jump\t// in\n    tag_181:\n        /* \"#utility.yul\":5057:5279   */\n      swap3\n      swap2\n      pop\n      pop\n      jump\t// out\n        /* \"#utility.yul\":5285:5495   */\n    tag_13:\n        /* \"#utility.yul\":5372:5376   */\n      0x00\n        /* \"#utility.yul\":5410:5412   */\n      0x20\n        /* \"#utility.yul\":5399:5408   */\n      dup3\n        /* \"#utility.yul\":5395:5413   */\n      add\n        /* \"#utility.yul\":5387:5413   */\n      swap1\n      pop\n        /* \"#utility.yul\":5423:5488   */\n      tag_183\n        /* \"#utility.yul\":5485:5486   */\n      0x00\n        /* \"#utility.yul\":5474:5483   */\n      dup4\n        /* \"#utility.yul\":5470:5487   */\n      add\n        /* \"#utility.yul\":5461:5467   */\n      dup5\n        /* \"#utility.yul\":5423:5488   */\n      tag_157\n      jump\t// in\n    tag_183:\n        /* \"#utility.yul\":5285:5495   */\n      swap3\n      swap2\n      pop\n      pop\n      jump\t// out\n        /* \"#utility.yul\":5501:6739   */\n    tag_18:\n        /* \"#utility.yul\":5836:5840   */\n      0x00\n        /* \"#utility.yul\":5874:5877   */\n      0xe0\n        /* \"#utility.yul\":5863:5872   */\n      dup3\n        /* \"#utility.yul\":5859:5878   */\n      add\n        /* \"#utility.yul\":5851:5878   */\n      swap1\n      pop\n        /* \"#utility.yul\":5924:5933   */\n      dup2\n        /* \"#utility.yul\":5918:5922   */\n      dup2\n        /* \"#utility.yul\":5914:5934   */\n      sub\n        /* \"#utility.yul\":5910:5911   */\n      0x00\n        /* \"#utility.yul\":5899:5908   */\n      dup4\n        /* \"#utility.yul\":5895:5912   */\n      add\n        /* \"#utility.yul\":5888:5935   */\n      mstore\n        /* \"#utility.yul\":5952:6030   */\n      tag_185\n        /* \"#utility.yul\":6025:6029   */\n      dup2\n        /* \"#utility.yul\":6016:6022   */\n      dup11\n        /* \"#utility.yul\":5952:6030   */\n      tag_161\n      jump\t// in\n    tag_185:\n        /* \"#utility.yul\":5944:6030   */\n      swap1\n      pop\n        /* \"#utility.yul\":6040:6112   */\n      tag_186\n        /* \"#utility.yul\":6108:6110   */\n      0x20\n        /* \"#utility.yul\":6097:6106   */\n      dup4\n        /* \"#utility.yul\":6093:6111   */\n      add\n        /* \"#utility.yul\":6084:6090   */\n      dup10\n        /* \"#utility.yul\":6040:6112   */\n      tag_176\n      jump\t// in\n    tag_186:\n        /* \"#utility.yul\":6159:6168   */\n      dup2\n        /* \"#utility.yul\":6153:6157   */\n      dup2\n        /* \"#utility.yul\":6149:6169   */\n      sub\n        /* \"#utility.yul\":6144:6146   */\n      0x40\n        /* \"#utility.yul\":6133:6142   */\n      dup4\n        /* \"#utility.yul\":6129:6147   */\n      add\n        /* \"#utility.yul\":6122:6170   */\n      mstore\n        /* \"#utility.yul\":6187:6265   */\n      tag_187\n        /* \"#utility.yul\":6260:6264   */\n      dup2\n        /* \"#utility.yul\":6251:6257   */\n      dup9\n        /* \"#utility.yul\":6187:6265   */\n      tag_161\n      jump\t// in\n    tag_187:\n        /* \"#utility.yul\":6179:6265   */\n      swap1\n      pop\n        /* \"#utility.yul\":6312:6321   */\n      dup2\n        /* \"#utility.yul\":6306:6310   */\n      dup2\n        /* \"#utility.yul\":6302:6322   */\n      sub\n        /* \"#utility.yul\":6297:6299   */\n      0x60\n        /* \"#utility.yul\":6286:6295   */\n      dup4\n        /* \"#utility.yul\":6282:6300   */\n      add\n        /* \"#utility.yul\":6275:6323   */\n      mstore\n        /* \"#utility.yul\":6340:6418   */\n      tag_188\n        /* \"#utility.yul\":6413:6417   */\n      dup2\n        /* \"#utility.yul\":6404:6410   */\n      dup8\n        /* \"#utility.yul\":6340:6418   */\n      tag_161\n      jump\t// in\n    tag_188:\n        /* \"#utility.yul\":6332:6418   */\n      swap1\n      pop\n        /* \"#utility.yul\":6466:6475   */\n      dup2\n        /* \"#utility.yul\":6460:6464   */\n      dup2\n        /* \"#utility.yul\":6456:6476   */\n      sub\n        /* \"#utility.yul\":6450:6453   */\n      0x80\n        /* \"#utility.yul\":6439:6448   */\n      dup4\n        /* \"#utility.yul\":6435:6454   */\n      add\n        /* \"#utility.yul\":6428:6477   */\n      mstore\n        /* \"#utility.yul\":6494:6572   */\n      tag_189\n        /* \"#utility.yul\":6567:6571   */\n      dup2\n        /* \"#utility.yul\":6558:6564   */\n      dup7\n        /* \"#utility.yul\":6494:6572   */\n      tag_161\n      jump\t// in\n    tag_189:\n        /* \"#utility.yul\":6486:6572   */\n      swap1\n      pop\n        /* \"#utility.yul\":6582:6655   */\n      tag_190\n        /* \"#utility.yul\":6650:6653   */\n      0xa0\n        /* \"#utility.yul\":6639:6648   */\n      dup4\n        /* \"#utility.yul\":6635:6654   */\n      add\n        /* \"#utility.yul\":6626:6632   */\n      dup6\n        /* \"#utility.yul\":6582:6655   */\n      tag_176\n      jump\t// in\n    tag_190:\n        /* \"#utility.yul\":6665:6732   */\n      tag_191\n        /* \"#utility.yul\":6727:6730   */\n      0xc0\n        /* \"#utility.yul\":6716:6725   */\n      dup4\n        /* \"#utility.yul\":6712:6731   */\n      add\n        /* \"#utility.yul\":6703:6709   */\n      dup5\n        /* \"#utility.yul\":6665:6732   */\n      tag_157\n      jump\t// in\n    tag_191:\n        /* \"#utility.yul\":5501:6739   */\n      swap9\n      swap8\n      pop\n      pop\n      pop\n      pop\n      pop\n      pop\n      pop\n      pop\n      jump\t// out\n        /* \"#utility.yul\":6745:7164   */\n    tag_71:\n        /* \"#utility.yul\":6911:6915   */\n      0x00\n        /* \"#utility.yul\":6949:6951   */\n      0x20\n        /* \"#utility.yul\":6938:6947   */\n      dup3\n        /* \"#utility.yul\":6934:6952   */\n      add\n        /* \"#utility.yul\":6926:6952   */\n      swap1\n      pop\n        /* \"#utility.yul\":6998:7007   */\n      dup2\n        /* \"#utility.yul\":6992:6996   */\n      dup2\n        /* \"#utility.yul\":6988:7008   */\n      sub\n        /* \"#utility.yul\":6984:6985   */\n      0x00\n        /* \"#utility.yul\":6973:6982   */\n      dup4\n        /* \"#utility.yul\":6969:6986   */\n      add\n        /* \"#utility.yul\":6962:7009   */\n      mstore\n        /* \"#utility.yul\":7026:7157   */\n      tag_193\n        /* \"#utility.yul\":7152:7156   */\n      dup2\n        /* \"#utility.yul\":7026:7157   */\n      tag_171\n      jump\t// in\n    tag_193:\n        /* \"#utility.yul\":7018:7157   */\n      swap1\n      pop\n        /* \"#utility.yul\":6745:7164   */\n      swap2\n      swap1\n      pop\n      jump\t// out\n        /* \"#utility.yul\":7170:7299   */\n    tag_100:\n        /* \"#utility.yul\":7204:7210   */\n      0x00\n        /* \"#utility.yul\":7231:7251   */\n      tag_195\n      tag_196\n      jump\t// in\n    tag_195:\n        /* \"#utility.yul\":7221:7251   */\n      swap1\n      pop\n        /* \"#utility.yul\":7260:7293   */\n      tag_197\n        /* \"#utility.yul\":7288:7292   */\n      dup3\n        /* \"#utility.yul\":7280:7286   */\n      dup3\n        /* \"#utility.yul\":7260:7293   */\n      tag_198\n      jump\t// in\n    tag_197:\n        /* \"#utility.yul\":7170:7299   */\n      swap2\n      swap1\n      pop\n      jump\t// out\n        /* \"#utility.yul\":7305:7380   */\n    tag_196:\n        /* \"#utility.yul\":7338:7344   */\n      0x00\n        /* \"#utility.yul\":7371:7373   */\n      0x40\n        /* \"#utility.yul\":7365:7374   */\n      mload\n        /* \"#utility.yul\":7355:7374   */\n      swap1\n      pop\n        /* \"#utility.yul\":7305:7380   */\n      swap1\n      jump\t// out\n        /* \"#utility.yul\":7386:7694   */\n    tag_99:\n        /* \"#utility.yul\":7448:7452   */\n      0x00\n        /* \"#utility.yul\":7538:7556   */\n      0xffffffffffffffff\n        /* \"#utility.yul\":7530:7536   */\n      dup3\n        /* \"#utility.yul\":7527:7557   */\n      gt\n        /* \"#utility.yul\":7524:7580   */\n      iszero\n      tag_201\n      jumpi\n        /* \"#utility.yul\":7560:7578   */\n      tag_202\n      tag_203\n      jump\t// in\n    tag_202:\n        /* \"#utility.yul\":7524:7580   */\n    tag_201:\n        /* \"#utility.yul\":7598:7627   */\n      tag_204\n        /* \"#utility.yul\":7620:7626   */\n      dup3\n        /* \"#utility.yul\":7598:7627   */\n      tag_170\n      jump\t// in\n    tag_204:\n        /* \"#utility.yul\":7590:7627   */\n      swap1\n      pop\n        /* \"#utility.yul\":7682:7686   */\n      0x20\n        /* \"#utility.yul\":7676:7680   */\n      dup2\n        /* \"#utility.yul\":7672:7687   */\n      add\n        /* \"#utility.yul\":7664:7687   */\n      swap1\n      pop\n        /* \"#utility.yul\":7386:7694   */\n      swap2\n      swap1\n      pop\n      jump\t// out\n        /* \"#utility.yul\":7700:7799   */\n    tag_164:\n        /* \"#utility.yul\":7752:7758   */\n      0x00\n        /* \"#utility.yul\":7786:7791   */\n      dup2\n        /* \"#utility.yul\":7780:7792   */\n      mload\n        /* \"#utility.yul\":7770:7792   */\n      swap1\n      pop\n        /* \"#utility.yul\":7700:7799   */\n      swap2\n      swap1\n      pop\n      jump\t// out\n        /* \"#utility.yul\":7805:7974   */\n    tag_166:\n        /* \"#utility.yul\":7889:7900   */\n      0x00\n        /* \"#utility.yul\":7923:7929   */\n      dup3\n        /* \"#utility.yul\":7918:7921   */\n      dup3\n        /* \"#utility.yul\":7911:7930   */\n      mstore\n        /* \"#utility.yul\":7963:7967   */\n      0x20\n        /* \"#utility.yul\":7958:7961   */\n      dup3\n        /* \"#utility.yul\":7954:7968   */\n      add\n        /* \"#utility.yul\":7939:7968   */\n      swap1\n      pop\n        /* \"#utility.yul\":7805:7974   */\n      swap3\n      swap2\n      pop\n      pop\n      jump\t// out\n        /* \"#utility.yul\":7980:8076   */\n    tag_156:\n        /* \"#utility.yul\":8017:8024   */\n      0x00\n        /* \"#utility.yul\":8046:8070   */\n      tag_208\n        /* \"#utility.yul\":8064:8069   */\n      dup3\n        /* \"#utility.yul\":8046:8070   */\n      tag_209\n      jump\t// in\n    tag_208:\n        /* \"#utility.yul\":8035:8070   */\n      swap1\n      pop\n        /* \"#utility.yul\":7980:8076   */\n      swap2\n      swap1\n      pop\n      jump\t// out\n        /* \"#utility.yul\":8082:8172   */\n    tag_160:\n        /* \"#utility.yul\":8116:8123   */\n      0x00\n        /* \"#utility.yul\":8159:8164   */\n      dup2\n        /* \"#utility.yul\":8152:8165   */\n      iszero\n        /* \"#utility.yul\":8145:8166   */\n      iszero\n        /* \"#utility.yul\":8134:8166   */\n      swap1\n      pop\n        /* \"#utility.yul\":8082:8172   */\n      swap2\n      swap1\n      pop\n      jump\t// out\n        /* \"#utility.yul\":8178:8304   */\n    tag_209:\n        /* \"#utility.yul\":8215:8222   */\n      0x00\n        /* \"#utility.yul\":8255:8297   */\n      0xffffffffffffffffffffffffffffffffffffffff\n        /* \"#utility.yul\":8248:8253   */\n      dup3\n        /* \"#utility.yul\":8244:8298   */\n      and\n        /* \"#utility.yul\":8233:8298   */\n      swap1\n      pop\n        /* \"#utility.yul\":8178:8304   */\n      swap2\n      swap1\n      pop\n      jump\t// out\n        /* \"#utility.yul\":8310:8387   */\n    tag_179:\n        /* \"#utility.yul\":8347:8354   */\n      0x00\n        /* \"#utility.yul\":8376:8381   */\n      dup2\n        /* \"#utility.yul\":8365:8381   */\n      swap1\n      pop\n        /* \"#utility.yul\":8310:8387   */\n      swap2\n      swap1\n      pop\n      jump\t// out\n        /* \"#utility.yul\":8393:8547   */\n    tag_105:\n        /* \"#utility.yul\":8477:8483   */\n      dup3\n        /* \"#utility.yul\":8472:8475   */\n      dup2\n        /* \"#utility.yul\":8467:8470   */\n      dup4\n        /* \"#utility.yul\":8454:8484   */\n      calldatacopy\n        /* \"#utility.yul\":8539:8540   */\n      0x00\n        /* \"#utility.yul\":8530:8536   */\n      dup4\n        /* \"#utility.yul\":8525:8528   */\n      dup4\n        /* \"#utility.yul\":8521:8537   */\n      add\n        /* \"#utility.yul\":8514:8541   */\n      mstore\n        /* \"#utility.yul\":8393:8547   */\n      pop\n      pop\n      pop\n      jump\t// out\n        /* \"#utility.yul\":8553:8860   */\n    tag_168:\n        /* \"#utility.yul\":8621:8622   */\n      0x00\n        /* \"#utility.yul\":8631:8744   */\n    tag_215:\n        /* \"#utility.yul\":8645:8651   */\n      dup4\n        /* \"#utility.yul\":8642:8643   */\n      dup2\n        /* \"#utility.yul\":8639:8652   */\n      lt\n        /* \"#utility.yul\":8631:8744   */\n      iszero\n      tag_217\n      jumpi\n        /* \"#utility.yul\":8730:8731   */\n      dup1\n        /* \"#utility.yul\":8725:8728   */\n      dup3\n        /* \"#utility.yul\":8721:8732   */\n      add\n        /* \"#utility.yul\":8715:8733   */\n      mload\n        /* \"#utility.yul\":8711:8712   */\n      dup2\n        /* \"#utility.yul\":8706:8709   */\n      dup5\n        /* \"#utility.yul\":8702:8713   */\n      add\n        /* \"#utility.yul\":8695:8734   */\n      mstore\n        /* \"#utility.yul\":8667:8669   */\n      0x20\n        /* \"#utility.yul\":8664:8665   */\n      dup2\n        /* \"#utility.yul\":8660:8670   */\n      add\n        /* \"#utility.yul\":8655:8670   */\n      swap1\n      pop\n        /* \"#utility.yul\":8631:8744   */\n      jump(tag_215)\n    tag_217:\n        /* \"#utility.yul\":8762:8768   */\n      dup4\n        /* \"#utility.yul\":8759:8760   */\n      dup2\n        /* \"#utility.yul\":8756:8769   */\n      gt\n        /* \"#utility.yul\":8753:8854   */\n      iszero\n      tag_218\n      jumpi\n        /* \"#utility.yul\":8842:8843   */\n      0x00\n        /* \"#utility.yul\":8833:8839   */\n      dup5\n        /* \"#utility.yul\":8828:8831   */\n      dup5\n        /* \"#utility.yul\":8824:8840   */\n      add\n        /* \"#utility.yul\":8817:8844   */\n      mstore\n        /* \"#utility.yul\":8753:8854   */\n    tag_218:\n        /* \"#utility.yul\":8602:8860   */\n      pop\n        /* \"#utility.yul\":8553:8860   */\n      pop\n      pop\n      pop\n      jump\t// out\n        /* \"#utility.yul\":8866:9186   */\n    tag_48:\n        /* \"#utility.yul\":8910:8916   */\n      0x00\n        /* \"#utility.yul\":8947:8948   */\n      0x02\n        /* \"#utility.yul\":8941:8945   */\n      dup3\n        /* \"#utility.yul\":8937:8949   */\n      div\n        /* \"#utility.yul\":8927:8949   */\n      swap1\n      pop\n        /* \"#utility.yul\":8994:8995   */\n      0x01\n        /* \"#utility.yul\":8988:8992   */\n      dup3\n        /* \"#utility.yul\":8984:8996   */\n      and\n        /* \"#utility.yul\":9015:9033   */\n      dup1\n        /* \"#utility.yul\":9005:9086   */\n      tag_220\n      jumpi\n        /* \"#utility.yul\":9071:9075   */\n      0x7f\n        /* \"#utility.yul\":9063:9069   */\n      dup3\n        /* \"#utility.yul\":9059:9076   */\n      and\n        /* \"#utility.yul\":9049:9076   */\n      swap2\n      pop\n        /* \"#utility.yul\":9005:9086   */\n    tag_220:\n        /* \"#utility.yul\":9133:9135   */\n      0x20\n        /* \"#utility.yul\":9125:9131   */\n      dup3\n        /* \"#utility.yul\":9122:9136   */\n      lt\n        /* \"#utility.yul\":9102:9120   */\n      dup2\n        /* \"#utility.yul\":9099:9137   */\n      eq\n        /* \"#utility.yul\":9096:9180   */\n      iszero\n      tag_221\n      jumpi\n        /* \"#utility.yul\":9152:9170   */\n      tag_222\n      tag_223\n      jump\t// in\n    tag_222:\n        /* \"#utility.yul\":9096:9180   */\n    tag_221:\n        /* \"#utility.yul\":8917:9186   */\n      pop\n        /* \"#utility.yul\":8866:9186   */\n      swap2\n      swap1\n      pop\n      jump\t// out\n        /* \"#utility.yul\":9192:9473   */\n    tag_198:\n        /* \"#utility.yul\":9275:9302   */\n      tag_225\n        /* \"#utility.yul\":9297:9301   */\n      dup3\n        /* \"#utility.yul\":9275:9302   */\n      tag_170\n      jump\t// in\n    tag_225:\n        /* \"#utility.yul\":9267:9273   */\n      dup2\n        /* \"#utility.yul\":9263:9303   */\n      add\n        /* \"#utility.yul\":9405:9411   */\n      dup2\n        /* \"#utility.yul\":9393:9403   */\n      dup2\n        /* \"#utility.yul\":9390:9412   */\n      lt\n        /* \"#utility.yul\":9369:9387   */\n      0xffffffffffffffff\n        /* \"#utility.yul\":9357:9367   */\n      dup3\n        /* \"#utility.yul\":9354:9388   */\n      gt\n        /* \"#utility.yul\":9351:9413   */\n      or\n        /* \"#utility.yul\":9348:9436   */\n      iszero\n      tag_226\n      jumpi\n        /* \"#utility.yul\":9416:9434   */\n      tag_227\n      tag_203\n      jump\t// in\n    tag_227:\n        /* \"#utility.yul\":9348:9436   */\n    tag_226:\n        /* \"#utility.yul\":9456:9466   */\n      dup1\n        /* \"#utility.yul\":9452:9454   */\n      0x40\n        /* \"#utility.yul\":9445:9467   */\n      mstore\n        /* \"#utility.yul\":9235:9473   */\n      pop\n        /* \"#utility.yul\":9192:9473   */\n      pop\n      pop\n      jump\t// out\n        /* \"#utility.yul\":9904:10084   */\n    tag_223:\n        /* \"#utility.yul\":9952:10029   */\n      0x4e487b7100000000000000000000000000000000000000000000000000000000\n        /* \"#utility.yul\":9949:9950   */\n      0x00\n        /* \"#utility.yul\":9942:10030   */\n      mstore\n        /* \"#utility.yul\":10049:10053   */\n      0x22\n        /* \"#utility.yul\":10046:10047   */\n      0x04\n        /* \"#utility.yul\":10039:10054   */\n      mstore\n        /* \"#utility.yul\":10073:10077   */\n      0x24\n        /* \"#utility.yul\":10070:10071   */\n      0x00\n        /* \"#utility.yul\":10063:10078   */\n      revert\n        /* \"#utility.yul\":10090:10270   */\n    tag_40:\n        /* \"#utility.yul\":10138:10215   */\n      0x4e487b7100000000000000000000000000000000000000000000000000000000\n        /* \"#utility.yul\":10135:10136   */\n      0x00\n        /* \"#utility.yul\":10128:10216   */\n      mstore\n        /* \"#utility.yul\":10235:10239   */\n      0x32\n        /* \"#utility.yul\":10232:10233   */\n      0x04\n        /* \"#utility.yul\":10225:10240   */\n      mstore\n        /* \"#utility.yul\":10259:10263   */\n      0x24\n        /* \"#utility.yul\":10256:10257   */\n      0x00\n        /* \"#utility.yul\":10249:10264   */\n      revert\n        /* \"#utility.yul\":10276:10456   */\n    tag_203:\n        /* \"#utility.yul\":10324:10401   */\n      0x4e487b7100000000000000000000000000000000000000000000000000000000\n        /* \"#utility.yul\":10321:10322   */\n      0x00\n        /* \"#utility.yul\":10314:10402   */\n      mstore\n        /* \"#utility.yul\":10421:10425   */\n      0x41\n        /* \"#utility.yul\":10418:10419   */\n      0x04\n        /* \"#utility.yul\":10411:10426   */\n      mstore\n        /* \"#utility.yul\":10445:10449   */\n      0x24\n        /* \"#utility.yul\":10442:10443   */\n      0x00\n        /* \"#utility.yul\":10435:10450   */\n      revert\n        /* \"#utility.yul\":10462:10579   */\n    tag_118:\n        /* \"#utility.yul\":10571:10572   */\n      0x00\n        /* \"#utility.yul\":10568:10569   */\n      dup1\n        /* \"#utility.yul\":10561:10573   */\n      revert\n        /* \"#utility.yul\":10585:10702   */\n    tag_103:\n        /* \"#utility.yul\":10694:10695   */\n      0x00\n        /* \"#utility.yul\":10691:10692   */\n      dup1\n        /* \"#utility.yul\":10684:10696   */\n      revert\n        /* \"#utility.yul\":10708:10825   */\n    tag_135:\n        /* \"#utility.yul\":10817:10818   */\n      0x00\n        /* \"#utility.yul\":10814:10815   */\n      dup1\n        /* \"#utility.yul\":10807:10819   */\n      revert\n        /* \"#utility.yul\":10831:10948   */\n    tag_127:\n        /* \"#utility.yul\":10940:10941   */\n      0x00\n        /* \"#utility.yul\":10937:10938   */\n      dup1\n        /* \"#utility.yul\":10930:10942   */\n      revert\n        /* \"#utility.yul\":10954:11056   */\n    tag_170:\n        /* \"#utility.yul\":10995:11001   */\n      0x00\n        /* \"#utility.yul\":11046:11048   */\n      0x1f\n        /* \"#utility.yul\":11042:11049   */\n      not\n        /* \"#utility.yul\":11037:11039   */\n      0x1f\n        /* \"#utility.yul\":11030:11035   */\n      dup4\n        /* \"#utility.yul\":11026:11040   */\n      add\n        /* \"#utility.yul\":11022:11050   */\n      and\n        /* \"#utility.yul\":11012:11050   */\n      swap1\n      pop\n        /* \"#utility.yul\":10954:11056   */\n      swap2\n      swap1\n      pop\n      jump\t// out\n        /* \"#utility.yul\":11062:11216   */\n    tag_175:\n        /* \"#utility.yul\":11202:11208   */\n      0x5468697300000000000000000000000000000000000000000000000000000000\n        /* \"#utility.yul\":11198:11199   */\n      0x00\n        /* \"#utility.yul\":11190:11196   */\n      dup3\n        /* \"#utility.yul\":11186:11200   */\n      add\n        /* \"#utility.yul\":11179:11209   */\n      mstore\n        /* \"#utility.yul\":11062:11216   */\n      pop\n      jump\t// out\n        /* \"#utility.yul\":11222:11344   */\n    tag_109:\n        /* \"#utility.yul\":11295:11319   */\n      tag_244\n        /* \"#utility.yul\":11313:11318   */\n      dup2\n        /* \"#utility.yul\":11295:11319   */\n      tag_156\n      jump\t// in\n    tag_244:\n        /* \"#utility.yul\":11288:11293   */\n      dup2\n        /* \"#utility.yul\":11285:11320   */\n      eq\n        /* \"#utility.yul\":11275:11338   */\n      tag_245\n      jumpi\n        /* \"#utility.yul\":11334:11335   */\n      0x00\n        /* \"#utility.yul\":11331:11332   */\n      dup1\n        /* \"#utility.yul\":11324:11336   */\n      revert\n        /* \"#utility.yul\":11275:11338   */\n    tag_245:\n        /* \"#utility.yul\":11222:11344   */\n      pop\n      jump\t// out\n        /* \"#utility.yul\":11350:11466   */\n    tag_113:\n        /* \"#utility.yul\":11420:11441   */\n      tag_247\n        /* \"#utility.yul\":11435:11440   */\n      dup2\n        /* \"#utility.yul\":11420:11441   */\n      tag_160\n      jump\t// in\n    tag_247:\n        /* \"#utility.yul\":11413:11418   */\n      dup2\n        /* \"#utility.yul\":11410:11442   */\n      eq\n        /* \"#utility.yul\":11400:11460   */\n      tag_248\n      jumpi\n        /* \"#utility.yul\":11456:11457   */\n      0x00\n        /* \"#utility.yul\":11453:11454   */\n      dup1\n        /* \"#utility.yul\":11446:11458   */\n      revert\n        /* \"#utility.yul\":11400:11460   */\n    tag_248:\n        /* \"#utility.yul\":11350:11466   */\n      pop\n      jump\t// out\n        /* \"#utility.yul\":11472:11594   */\n    tag_123:\n        /* \"#utility.yul\":11545:11569   */\n      tag_250\n        /* \"#utility.yul\":11563:11568   */\n      dup2\n        /* \"#utility.yul\":11545:11569   */\n      tag_179\n      jump\t// in\n    tag_250:\n        /* \"#utility.yul\":11538:11543   */\n      dup2\n        /* \"#utility.yul\":11535:11570   */\n      eq\n        /* \"#utility.yul\":11525:11588   */\n      tag_251\n      jumpi\n        /* \"#utility.yul\":11584:11585   */\n      0x00\n        /* \"#utility.yul\":11581:11582   */\n      dup1\n        /* \"#utility.yul\":11574:11586   */\n      revert\n        /* \"#utility.yul\":11525:11588   */\n    tag_251:\n        /* \"#utility.yul\":11472:11594   */\n      pop\n      jump\t// out\n\n    auxdata: 0xa2646970667358221220d9abd1dd5db43b012a51cb38342190cd9fc5ed7bd13eea267c3e241d823f4a4964736f6c63430008070033\n}\n",
				"bytecode": {
					"linkReferences": {},
					"object": "608060405234801561001057600080fd5b50610daa806100206000396000f3fe608060405234801561001057600080fd5b50600436106100575760003560e01c806350b6e7871461005c578063643f75361461008c578063751fc87e146100c2578063827e0c99146100f2578063c5d25fa914610128575b600080fd5b6100766004803603810190610071919061095e565b610158565b6040516100839190610a2f565b60405180910390f35b6100a660048036038101906100a1919061095e565b6101b3565b6040516100b99796959493929190610a4a565b60405180910390f35b6100dc60048036038101906100d79190610838565b610432565b6040516100e99190610a2f565b60405180910390f35b61010c6004803603810190610107919061080b565b6104ae565b60405161011f9796959493929190610a4a565b60405180910390f35b610142600480360381019061013d919061095e565b61071d565b60405161014f9190610a14565b60405180910390f35b6000806000905060008054905081116101ac5782600082815481106101805761017f610c83565b5b90600052602060002090600702016001015414156101a25760019150506101ae565b60009150506101ae565b505b919050565b600081815481106101c357600080fd5b90600052602060002090600702016000915090508060000180546101e690610bf1565b80601f016020809104026020016040519081016040528092919081815260200182805461021290610bf1565b801561025f5780601f106102345761010080835404028352916020019161025f565b820191906000526020600020905b81548152906001019060200180831161024257829003601f168201915b50505050509080600101549080600201805461027a90610bf1565b80601f01602080910402602001604051908101604052809291908181526020018280546102a690610bf1565b80156102f35780601f106102c8576101008083540402835291602001916102f3565b820191906000526020600020905b8154815290600101906020018083116102d657829003601f168201915b50505050509080600301805461030890610bf1565b80601f016020809104026020016040519081016040528092919081815260200182805461033490610bf1565b80156103815780601f1061035657610100808354040283529160200191610381565b820191906000526020600020905b81548152906001019060200180831161036457829003601f168201915b50505050509080600401805461039690610bf1565b80601f01602080910402602001604051908101604052809291908181526020018280546103c290610bf1565b801561040f5780601f106103e45761010080835404028352916020019161040f565b820191906000526020600020905b8154815290600101906020018083116103f257829003601f168201915b5050505050908060050154908060060160009054906101000a900460ff16905087565b60003373ffffffffffffffffffffffffffffffffffffffff168973ffffffffffffffffffffffffffffffffffffffff16146104a2576040517f08c379a000000000000000000000000000000000000000000000000000000000815260040161049990610ad5565b60405180910390fd5b98975050505050505050565b60016020528060005260406000206000915090508060000180546104d190610bf1565b80601f01602080910402602001604051908101604052809291908181526020018280546104fd90610bf1565b801561054a5780601f1061051f5761010080835404028352916020019161054a565b820191906000526020600020905b81548152906001019060200180831161052d57829003601f168201915b50505050509080600101549080600201805461056590610bf1565b80601f016020809104026020016040519081016040528092919081815260200182805461059190610bf1565b80156105de5780601f106105b3576101008083540402835291602001916105de565b820191906000526020600020905b8154815290600101906020018083116105c157829003601f168201915b5050505050908060030180546105f390610bf1565b80601f016020809104026020016040519081016040528092919081815260200182805461061f90610bf1565b801561066c5780601f106106415761010080835404028352916020019161066c565b820191906000526020600020905b81548152906001019060200180831161064f57829003601f168201915b50505050509080600401805461068190610bf1565b80601f01602080910402602001604051908101604052809291908181526020018280546106ad90610bf1565b80156106fa5780601f106106cf576101008083540402835291602001916106fa565b820191906000526020600020905b8154815290600101906020018083116106dd57829003601f168201915b5050505050908060050154908060060160009054906101000a900460ff16905087565b6002818154811061072d57600080fd5b906000526020600020016000915054906101000a900473ffffffffffffffffffffffffffffffffffffffff1681565b600061076f61076a84610b1a565b610af5565b90508281526020810184848401111561078b5761078a610ce6565b5b610796848285610baf565b509392505050565b6000813590506107ad81610d2f565b92915050565b6000813590506107c281610d46565b92915050565b600082601f8301126107dd576107dc610ce1565b5b81356107ed84826020860161075c565b91505092915050565b60008135905061080581610d5d565b92915050565b60006020828403121561082157610820610cf0565b5b600061082f8482850161079e565b91505092915050565b600080600080600080600080610100898b03121561085957610858610cf0565b5b60006108678b828c0161079e565b985050602089013567ffffffffffffffff81111561088857610887610ceb565b5b6108948b828c016107c8565b97505060406108a58b828c016107f6565b965050606089013567ffffffffffffffff8111156108c6576108c5610ceb565b5b6108d28b828c016107c8565b955050608089013567ffffffffffffffff8111156108f3576108f2610ceb565b5b6108ff8b828c016107c8565b94505060a089013567ffffffffffffffff8111156109205761091f610ceb565b5b61092c8b828c016107c8565b93505060c061093d8b828c016107f6565b92505060e061094e8b828c016107b3565b9150509295985092959890939650565b60006020828403121561097457610973610cf0565b5b6000610982848285016107f6565b91505092915050565b61099481610b67565b82525050565b6109a381610b79565b82525050565b60006109b482610b4b565b6109be8185610b56565b93506109ce818560208601610bbe565b6109d781610cf5565b840191505092915050565b60006109ef600483610b56565b91506109fa82610d06565b602082019050919050565b610a0e81610ba5565b82525050565b6000602082019050610a29600083018461098b565b92915050565b6000602082019050610a44600083018461099a565b92915050565b600060e0820190508181036000830152610a64818a6109a9565b9050610a736020830189610a05565b8181036040830152610a8581886109a9565b90508181036060830152610a9981876109a9565b90508181036080830152610aad81866109a9565b9050610abc60a0830185610a05565b610ac960c083018461099a565b98975050505050505050565b60006020820190508181036000830152610aee816109e2565b9050919050565b6000610aff610b10565b9050610b0b8282610c23565b919050565b6000604051905090565b600067ffffffffffffffff821115610b3557610b34610cb2565b5b610b3e82610cf5565b9050602081019050919050565b600081519050919050565b600082825260208201905092915050565b6000610b7282610b85565b9050919050565b60008115159050919050565b600073ffffffffffffffffffffffffffffffffffffffff82169050919050565b6000819050919050565b82818337600083830152505050565b60005b83811015610bdc578082015181840152602081019050610bc1565b83811115610beb576000848401525b50505050565b60006002820490506001821680610c0957607f821691505b60208210811415610c1d57610c1c610c54565b5b50919050565b610c2c82610cf5565b810181811067ffffffffffffffff82111715610c4b57610c4a610cb2565b5b80604052505050565b7f4e487b7100000000000000000000000000000000000000000000000000000000600052602260045260246000fd5b7f4e487b7100000000000000000000000000000000000000000000000000000000600052603260045260246000fd5b7f4e487b7100000000000000000000000000000000000000000000000000000000600052604160045260246000fd5b600080fd5b600080fd5b600080fd5b600080fd5b6000601f19601f8301169050919050565b7f5468697300000000000000000000000000000000000000000000000000000000600082015250565b610d3881610b67565b8114610d4357600080fd5b50565b610d4f81610b79565b8114610d5a57600080fd5b50565b610d6681610ba5565b8114610d7157600080fd5b5056fea2646970667358221220d9abd1dd5db43b012a51cb38342190cd9fc5ed7bd13eea267c3e241d823f4a4964736f6c63430008070033",
					"opcodes": "PUSH1 0x80 PUSH1 0x40 MSTORE CALLVALUE DUP1 ISZERO PUSH2 0x10 JUMPI PUSH1 0x0 DUP1 REVERT JUMPDEST POP PUSH2 0xDAA DUP1 PUSH2 0x20 PUSH1 0x0 CODECOPY PUSH1 0x0 RETURN INVALID PUSH1 0x80 PUSH1 0x40 MSTORE CALLVALUE DUP1 ISZERO PUSH2 0x10 JUMPI PUSH1 0x0 DUP1 REVERT JUMPDEST POP PUSH1 0x4 CALLDATASIZE LT PUSH2 0x57 JUMPI PUSH1 0x0 CALLDATALOAD PUSH1 0xE0 SHR DUP1 PUSH4 0x50B6E787 EQ PUSH2 0x5C JUMPI DUP1 PUSH4 0x643F7536 EQ PUSH2 0x8C JUMPI DUP1 PUSH4 0x751FC87E EQ PUSH2 0xC2 JUMPI DUP1 PUSH4 0x827E0C99 EQ PUSH2 0xF2 JUMPI DUP1 PUSH4 0xC5D25FA9 EQ PUSH2 0x128 JUMPI JUMPDEST PUSH1 0x0 DUP1 REVERT JUMPDEST PUSH2 0x76 PUSH1 0x4 DUP1 CALLDATASIZE SUB DUP2 ADD SWAP1 PUSH2 0x71 SWAP2 SWAP1 PUSH2 0x95E JUMP JUMPDEST PUSH2 0x158 JUMP JUMPDEST PUSH1 0x40 MLOAD PUSH2 0x83 SWAP2 SWAP1 PUSH2 0xA2F JUMP JUMPDEST PUSH1 0x40 MLOAD DUP1 SWAP2 SUB SWAP1 RETURN JUMPDEST PUSH2 0xA6 PUSH1 0x4 DUP1 CALLDATASIZE SUB DUP2 ADD SWAP1 PUSH2 0xA1 SWAP2 SWAP1 PUSH2 0x95E JUMP JUMPDEST PUSH2 0x1B3 JUMP JUMPDEST PUSH1 0x40 MLOAD PUSH2 0xB9 SWAP8 SWAP7 SWAP6 SWAP5 SWAP4 SWAP3 SWAP2 SWAP1 PUSH2 0xA4A JUMP JUMPDEST PUSH1 0x40 MLOAD DUP1 SWAP2 SUB SWAP1 RETURN JUMPDEST PUSH2 0xDC PUSH1 0x4 DUP1 CALLDATASIZE SUB DUP2 ADD SWAP1 PUSH2 0xD7 SWAP2 SWAP1 PUSH2 0x838 JUMP JUMPDEST PUSH2 0x432 JUMP JUMPDEST PUSH1 0x40 MLOAD PUSH2 0xE9 SWAP2 SWAP1 PUSH2 0xA2F JUMP JUMPDEST PUSH1 0x40 MLOAD DUP1 SWAP2 SUB SWAP1 RETURN JUMPDEST PUSH2 0x10C PUSH1 0x4 DUP1 CALLDATASIZE SUB DUP2 ADD SWAP1 PUSH2 0x107 SWAP2 SWAP1 PUSH2 0x80B JUMP JUMPDEST PUSH2 0x4AE JUMP JUMPDEST PUSH1 0x40 MLOAD PUSH2 0x11F SWAP8 SWAP7 SWAP6 SWAP5 SWAP4 SWAP3 SWAP2 SWAP1 PUSH2 0xA4A JUMP JUMPDEST PUSH1 0x40 MLOAD DUP1 SWAP2 SUB SWAP1 RETURN JUMPDEST PUSH2 0x142 PUSH1 0x4 DUP1 CALLDATASIZE SUB DUP2 ADD SWAP1 PUSH2 0x13D SWAP2 SWAP1 PUSH2 0x95E JUMP JUMPDEST PUSH2 0x71D JUMP JUMPDEST PUSH1 0x40 MLOAD PUSH2 0x14F SWAP2 SWAP1 PUSH2 0xA14 JUMP JUMPDEST PUSH1 0x40 MLOAD DUP1 SWAP2 SUB SWAP1 RETURN JUMPDEST PUSH1 0x0 DUP1 PUSH1 0x0 SWAP1 POP PUSH1 0x0 DUP1 SLOAD SWAP1 POP DUP2 GT PUSH2 0x1AC JUMPI DUP3 PUSH1 0x0 DUP3 DUP2 SLOAD DUP2 LT PUSH2 0x180 JUMPI PUSH2 0x17F PUSH2 0xC83 JUMP JUMPDEST JUMPDEST SWAP1 PUSH1 0x0 MSTORE PUSH1 0x20 PUSH1 0x0 KECCAK256 SWAP1 PUSH1 0x7 MUL ADD PUSH1 0x1 ADD SLOAD EQ ISZERO PUSH2 0x1A2 JUMPI PUSH1 0x1 SWAP2 POP POP PUSH2 0x1AE JUMP JUMPDEST PUSH1 0x0 SWAP2 POP POP PUSH2 0x1AE JUMP JUMPDEST POP JUMPDEST SWAP2 SWAP1 POP JUMP JUMPDEST PUSH1 0x0 DUP2 DUP2 SLOAD DUP2 LT PUSH2 0x1C3 JUMPI PUSH1 0x0 DUP1 REVERT JUMPDEST SWAP1 PUSH1 0x0 MSTORE PUSH1 0x20 PUSH1 0x0 KECCAK256 SWAP1 PUSH1 0x7 MUL ADD PUSH1 0x0 SWAP2 POP SWAP1 POP DUP1 PUSH1 0x0 ADD DUP1 SLOAD PUSH2 0x1E6 SWAP1 PUSH2 0xBF1 JUMP JUMPDEST DUP1 PUSH1 0x1F ADD PUSH1 0x20 DUP1 SWAP2 DIV MUL PUSH1 0x20 ADD PUSH1 0x40 MLOAD SWAP1 DUP2 ADD PUSH1 0x40 MSTORE DUP1 SWAP3 SWAP2 SWAP1 DUP2 DUP2 MSTORE PUSH1 0x20 ADD DUP3 DUP1 SLOAD PUSH2 0x212 SWAP1 PUSH2 0xBF1 JUMP JUMPDEST DUP1 ISZERO PUSH2 0x25F JUMPI DUP1 PUSH1 0x1F LT PUSH2 0x234 JUMPI PUSH2 0x100 DUP1 DUP4 SLOAD DIV MUL DUP4 MSTORE SWAP2 PUSH1 0x20 ADD SWAP2 PUSH2 0x25F JUMP JUMPDEST DUP3 ADD SWAP2 SWAP1 PUSH1 0x0 MSTORE PUSH1 0x20 PUSH1 0x0 KECCAK256 SWAP1 JUMPDEST DUP2 SLOAD DUP2 MSTORE SWAP1 PUSH1 0x1 ADD SWAP1 PUSH1 0x20 ADD DUP1 DUP4 GT PUSH2 0x242 JUMPI DUP3 SWAP1 SUB PUSH1 0x1F AND DUP3 ADD SWAP2 JUMPDEST POP POP POP POP POP SWAP1 DUP1 PUSH1 0x1 ADD SLOAD SWAP1 DUP1 PUSH1 0x2 ADD DUP1 SLOAD PUSH2 0x27A SWAP1 PUSH2 0xBF1 JUMP JUMPDEST DUP1 PUSH1 0x1F ADD PUSH1 0x20 DUP1 SWAP2 DIV MUL PUSH1 0x20 ADD PUSH1 0x40 MLOAD SWAP1 DUP2 ADD PUSH1 0x40 MSTORE DUP1 SWAP3 SWAP2 SWAP1 DUP2 DUP2 MSTORE PUSH1 0x20 ADD DUP3 DUP1 SLOAD PUSH2 0x2A6 SWAP1 PUSH2 0xBF1 JUMP JUMPDEST DUP1 ISZERO PUSH2 0x2F3 JUMPI DUP1 PUSH1 0x1F LT PUSH2 0x2C8 JUMPI PUSH2 0x100 DUP1 DUP4 SLOAD DIV MUL DUP4 MSTORE SWAP2 PUSH1 0x20 ADD SWAP2 PUSH2 0x2F3 JUMP JUMPDEST DUP3 ADD SWAP2 SWAP1 PUSH1 0x0 MSTORE PUSH1 0x20 PUSH1 0x0 KECCAK256 SWAP1 JUMPDEST DUP2 SLOAD DUP2 MSTORE SWAP1 PUSH1 0x1 ADD SWAP1 PUSH1 0x20 ADD DUP1 DUP4 GT PUSH2 0x2D6 JUMPI DUP3 SWAP1 SUB PUSH1 0x1F AND DUP3 ADD SWAP2 JUMPDEST POP POP POP POP POP SWAP1 DUP1 PUSH1 0x3 ADD DUP1 SLOAD PUSH2 0x308 SWAP1 PUSH2 0xBF1 JUMP JUMPDEST DUP1 PUSH1 0x1F ADD PUSH1 0x20 DUP1 SWAP2 DIV MUL PUSH1 0x20 ADD PUSH1 0x40 MLOAD SWAP1 DUP2 ADD PUSH1 0x40 MSTORE DUP1 SWAP3 SWAP2 SWAP1 DUP2 DUP2 MSTORE PUSH1 0x20 ADD DUP3 DUP1 SLOAD PUSH2 0x334 SWAP1 PUSH2 0xBF1 JUMP JUMPDEST DUP1 ISZERO PUSH2 0x381 JUMPI DUP1 PUSH1 0x1F LT PUSH2 0x356 JUMPI PUSH2 0x100 DUP1 DUP4 SLOAD DIV MUL DUP4 MSTORE SWAP2 PUSH1 0x20 ADD SWAP2 PUSH2 0x381 JUMP JUMPDEST DUP3 ADD SWAP2 SWAP1 PUSH1 0x0 MSTORE PUSH1 0x20 PUSH1 0x0 KECCAK256 SWAP1 JUMPDEST DUP2 SLOAD DUP2 MSTORE SWAP1 PUSH1 0x1 ADD SWAP1 PUSH1 0x20 ADD DUP1 DUP4 GT PUSH2 0x364 JUMPI DUP3 SWAP1 SUB PUSH1 0x1F AND DUP3 ADD SWAP2 JUMPDEST POP POP POP POP POP SWAP1 DUP1 PUSH1 0x4 ADD DUP1 SLOAD PUSH2 0x396 SWAP1 PUSH2 0xBF1 JUMP JUMPDEST DUP1 PUSH1 0x1F ADD PUSH1 0x20 DUP1 SWAP2 DIV MUL PUSH1 0x20 ADD PUSH1 0x40 MLOAD SWAP1 DUP2 ADD PUSH1 0x40 MSTORE DUP1 SWAP3 SWAP2 SWAP1 DUP2 DUP2 MSTORE PUSH1 0x20 ADD DUP3 DUP1 SLOAD PUSH2 0x3C2 SWAP1 PUSH2 0xBF1 JUMP JUMPDEST DUP1 ISZERO PUSH2 0x40F JUMPI DUP1 PUSH1 0x1F LT PUSH2 0x3E4 JUMPI PUSH2 0x100 DUP1 DUP4 SLOAD DIV MUL DUP4 MSTORE SWAP2 PUSH1 0x20 ADD SWAP2 PUSH2 0x40F JUMP JUMPDEST DUP3 ADD SWAP2 SWAP1 PUSH1 0x0 MSTORE PUSH1 0x20 PUSH1 0x0 KECCAK256 SWAP1 JUMPDEST DUP2 SLOAD DUP2 MSTORE SWAP1 PUSH1 0x1 ADD SWAP1 PUSH1 0x20 ADD DUP1 DUP4 GT PUSH2 0x3F2 JUMPI DUP3 SWAP1 SUB PUSH1 0x1F AND DUP3 ADD SWAP2 JUMPDEST POP POP POP POP POP SWAP1 DUP1 PUSH1 0x5 ADD SLOAD SWAP1 DUP1 PUSH1 0x6 ADD PUSH1 0x0 SWAP1 SLOAD SWAP1 PUSH2 0x100 EXP SWAP1 DIV PUSH1 0xFF AND SWAP1 POP DUP8 JUMP JUMPDEST PUSH1 0x0 CALLER PUSH20 0xFFFFFFFFFFFFFFFFFFFFFFFFFFFFFFFFFFFFFFFF AND DUP10 PUSH20 0xFFFFFFFFFFFFFFFFFFFFFFFFFFFFFFFFFFFFFFFF AND EQ PUSH2 0x4A2 JUMPI PUSH1 0x40 MLOAD PUSH32 0x8C379A000000000000000000000000000000000000000000000000000000000 DUP2 MSTORE PUSH1 0x4 ADD PUSH2 0x499 SWAP1 PUSH2 0xAD5 JUMP JUMPDEST PUSH1 0x40 MLOAD DUP1 SWAP2 SUB SWAP1 REVERT JUMPDEST SWAP9 SWAP8 POP POP POP POP POP POP POP POP JUMP JUMPDEST PUSH1 0x1 PUSH1 0x20 MSTORE DUP1 PUSH1 0x0 MSTORE PUSH1 0x40 PUSH1 0x0 KECCAK256 PUSH1 0x0 SWAP2 POP SWAP1 POP DUP1 PUSH1 0x0 ADD DUP1 SLOAD PUSH2 0x4D1 SWAP1 PUSH2 0xBF1 JUMP JUMPDEST DUP1 PUSH1 0x1F ADD PUSH1 0x20 DUP1 SWAP2 DIV MUL PUSH1 0x20 ADD PUSH1 0x40 MLOAD SWAP1 DUP2 ADD PUSH1 0x40 MSTORE DUP1 SWAP3 SWAP2 SWAP1 DUP2 DUP2 MSTORE PUSH1 0x20 ADD DUP3 DUP1 SLOAD PUSH2 0x4FD SWAP1 PUSH2 0xBF1 JUMP JUMPDEST DUP1 ISZERO PUSH2 0x54A JUMPI DUP1 PUSH1 0x1F LT PUSH2 0x51F JUMPI PUSH2 0x100 DUP1 DUP4 SLOAD DIV MUL DUP4 MSTORE SWAP2 PUSH1 0x20 ADD SWAP2 PUSH2 0x54A JUMP JUMPDEST DUP3 ADD SWAP2 SWAP1 PUSH1 0x0 MSTORE PUSH1 0x20 PUSH1 0x0 KECCAK256 SWAP1 JUMPDEST DUP2 SLOAD DUP2 MSTORE SWAP1 PUSH1 0x1 ADD SWAP1 PUSH1 0x20 ADD DUP1 DUP4 GT PUSH2 0x52D JUMPI DUP3 SWAP1 SUB PUSH1 0x1F AND DUP3 ADD SWAP2 JUMPDEST POP POP POP POP POP SWAP1 DUP1 PUSH1 0x1 ADD SLOAD SWAP1 DUP1 PUSH1 0x2 ADD DUP1 SLOAD PUSH2 0x565 SWAP1 PUSH2 0xBF1 JUMP JUMPDEST DUP1 PUSH1 0x1F ADD PUSH1 0x20 DUP1 SWAP2 DIV MUL PUSH1 0x20 ADD PUSH1 0x40 MLOAD SWAP1 DUP2 ADD PUSH1 0x40 MSTORE DUP1 SWAP3 SWAP2 SWAP1 DUP2 DUP2 MSTORE PUSH1 0x20 ADD DUP3 DUP1 SLOAD PUSH2 0x591 SWAP1 PUSH2 0xBF1 JUMP JUMPDEST DUP1 ISZERO PUSH2 0x5DE JUMPI DUP1 PUSH1 0x1F LT PUSH2 0x5B3 JUMPI PUSH2 0x100 DUP1 DUP4 SLOAD DIV MUL DUP4 MSTORE SWAP2 PUSH1 0x20 ADD SWAP2 PUSH2 0x5DE JUMP JUMPDEST DUP3 ADD SWAP2 SWAP1 PUSH1 0x0 MSTORE PUSH1 0x20 PUSH1 0x0 KECCAK256 SWAP1 JUMPDEST DUP2 SLOAD DUP2 MSTORE SWAP1 PUSH1 0x1 ADD SWAP1 PUSH1 0x20 ADD DUP1 DUP4 GT PUSH2 0x5C1 JUMPI DUP3 SWAP1 SUB PUSH1 0x1F AND DUP3 ADD SWAP2 JUMPDEST POP POP POP POP POP SWAP1 DUP1 PUSH1 0x3 ADD DUP1 SLOAD PUSH2 0x5F3 SWAP1 PUSH2 0xBF1 JUMP JUMPDEST DUP1 PUSH1 0x1F ADD PUSH1 0x20 DUP1 SWAP2 DIV MUL PUSH1 0x20 ADD PUSH1 0x40 MLOAD SWAP1 DUP2 ADD PUSH1 0x40 MSTORE DUP1 SWAP3 SWAP2 SWAP1 DUP2 DUP2 MSTORE PUSH1 0x20 ADD DUP3 DUP1 SLOAD PUSH2 0x61F SWAP1 PUSH2 0xBF1 JUMP JUMPDEST DUP1 ISZERO PUSH2 0x66C JUMPI DUP1 PUSH1 0x1F LT PUSH2 0x641 JUMPI PUSH2 0x100 DUP1 DUP4 SLOAD DIV MUL DUP4 MSTORE SWAP2 PUSH1 0x20 ADD SWAP2 PUSH2 0x66C JUMP JUMPDEST DUP3 ADD SWAP2 SWAP1 PUSH1 0x0 MSTORE PUSH1 0x20 PUSH1 0x0 KECCAK256 SWAP1 JUMPDEST DUP2 SLOAD DUP2 MSTORE SWAP1 PUSH1 0x1 ADD SWAP1 PUSH1 0x20 ADD DUP1 DUP4 GT PUSH2 0x64F JUMPI DUP3 SWAP1 SUB PUSH1 0x1F AND DUP3 ADD SWAP2 JUMPDEST POP POP POP POP POP SWAP1 DUP1 PUSH1 0x4 ADD DUP1 SLOAD PUSH2 0x681 SWAP1 PUSH2 0xBF1 JUMP JUMPDEST DUP1 PUSH1 0x1F ADD PUSH1 0x20 DUP1 SWAP2 DIV MUL PUSH1 0x20 ADD PUSH1 0x40 MLOAD SWAP1 DUP2 ADD PUSH1 0x40 MSTORE DUP1 SWAP3 SWAP2 SWAP1 DUP2 DUP2 MSTORE PUSH1 0x20 ADD DUP3 DUP1 SLOAD PUSH2 0x6AD SWAP1 PUSH2 0xBF1 JUMP JUMPDEST DUP1 ISZERO PUSH2 0x6FA JUMPI DUP1 PUSH1 0x1F LT PUSH2 0x6CF JUMPI PUSH2 0x100 DUP1 DUP4 SLOAD DIV MUL DUP4 MSTORE SWAP2 PUSH1 0x20 ADD SWAP2 PUSH2 0x6FA JUMP JUMPDEST DUP3 ADD SWAP2 SWAP1 PUSH1 0x0 MSTORE PUSH1 0x20 PUSH1 0x0 KECCAK256 SWAP1 JUMPDEST DUP2 SLOAD DUP2 MSTORE SWAP1 PUSH1 0x1 ADD SWAP1 PUSH1 0x20 ADD DUP1 DUP4 GT PUSH2 0x6DD JUMPI DUP3 SWAP1 SUB PUSH1 0x1F AND DUP3 ADD SWAP2 JUMPDEST POP POP POP POP POP SWAP1 DUP1 PUSH1 0x5 ADD SLOAD SWAP1 DUP1 PUSH1 0x6 ADD PUSH1 0x0 SWAP1 SLOAD SWAP1 PUSH2 0x100 EXP SWAP1 DIV PUSH1 0xFF AND SWAP1 POP DUP8 JUMP JUMPDEST PUSH1 0x2 DUP2 DUP2 SLOAD DUP2 LT PUSH2 0x72D JUMPI PUSH1 0x0 DUP1 REVERT JUMPDEST SWAP1 PUSH1 0x0 MSTORE PUSH1 0x20 PUSH1 0x0 KECCAK256 ADD PUSH1 0x0 SWAP2 POP SLOAD SWAP1 PUSH2 0x100 EXP SWAP1 DIV PUSH20 0xFFFFFFFFFFFFFFFFFFFFFFFFFFFFFFFFFFFFFFFF AND DUP2 JUMP JUMPDEST PUSH1 0x0 PUSH2 0x76F PUSH2 0x76A DUP5 PUSH2 0xB1A JUMP JUMPDEST PUSH2 0xAF5 JUMP JUMPDEST SWAP1 POP DUP3 DUP2 MSTORE PUSH1 0x20 DUP2 ADD DUP5 DUP5 DUP5 ADD GT ISZERO PUSH2 0x78B JUMPI PUSH2 0x78A PUSH2 0xCE6 JUMP JUMPDEST JUMPDEST PUSH2 0x796 DUP5 DUP3 DUP6 PUSH2 0xBAF JUMP JUMPDEST POP SWAP4 SWAP3 POP POP POP JUMP JUMPDEST PUSH1 0x0 DUP2 CALLDATALOAD SWAP1 POP PUSH2 0x7AD DUP2 PUSH2 0xD2F JUMP JUMPDEST SWAP3 SWAP2 POP POP JUMP JUMPDEST PUSH1 0x0 DUP2 CALLDATALOAD SWAP1 POP PUSH2 0x7C2 DUP2 PUSH2 0xD46 JUMP JUMPDEST SWAP3 SWAP2 POP POP JUMP JUMPDEST PUSH1 0x0 DUP3 PUSH1 0x1F DUP4 ADD SLT PUSH2 0x7DD JUMPI PUSH2 0x7DC PUSH2 0xCE1 JUMP JUMPDEST JUMPDEST DUP2 CALLDATALOAD PUSH2 0x7ED DUP5 DUP3 PUSH1 0x20 DUP7 ADD PUSH2 0x75C JUMP JUMPDEST SWAP2 POP POP SWAP3 SWAP2 POP POP JUMP JUMPDEST PUSH1 0x0 DUP2 CALLDATALOAD SWAP1 POP PUSH2 0x805 DUP2 PUSH2 0xD5D JUMP JUMPDEST SWAP3 SWAP2 POP POP JUMP JUMPDEST PUSH1 0x0 PUSH1 0x20 DUP3 DUP5 SUB SLT ISZERO PUSH2 0x821 JUMPI PUSH2 0x820 PUSH2 0xCF0 JUMP JUMPDEST JUMPDEST PUSH1 0x0 PUSH2 0x82F DUP5 DUP3 DUP6 ADD PUSH2 0x79E JUMP JUMPDEST SWAP2 POP POP SWAP3 SWAP2 POP POP JUMP JUMPDEST PUSH1 0x0 DUP1 PUSH1 0x0 DUP1 PUSH1 0x0 DUP1 PUSH1 0x0 DUP1 PUSH2 0x100 DUP10 DUP12 SUB SLT ISZERO PUSH2 0x859 JUMPI PUSH2 0x858 PUSH2 0xCF0 JUMP JUMPDEST JUMPDEST PUSH1 0x0 PUSH2 0x867 DUP12 DUP3 DUP13 ADD PUSH2 0x79E JUMP JUMPDEST SWAP9 POP POP PUSH1 0x20 DUP10 ADD CALLDATALOAD PUSH8 0xFFFFFFFFFFFFFFFF DUP2 GT ISZERO PUSH2 0x888 JUMPI PUSH2 0x887 PUSH2 0xCEB JUMP JUMPDEST JUMPDEST PUSH2 0x894 DUP12 DUP3 DUP13 ADD PUSH2 0x7C8 JUMP JUMPDEST SWAP8 POP POP PUSH1 0x40 PUSH2 0x8A5 DUP12 DUP3 DUP13 ADD PUSH2 0x7F6 JUMP JUMPDEST SWAP7 POP POP PUSH1 0x60 DUP10 ADD CALLDATALOAD PUSH8 0xFFFFFFFFFFFFFFFF DUP2 GT ISZERO PUSH2 0x8C6 JUMPI PUSH2 0x8C5 PUSH2 0xCEB JUMP JUMPDEST JUMPDEST PUSH2 0x8D2 DUP12 DUP3 DUP13 ADD PUSH2 0x7C8 JUMP JUMPDEST SWAP6 POP POP PUSH1 0x80 DUP10 ADD CALLDATALOAD PUSH8 0xFFFFFFFFFFFFFFFF DUP2 GT ISZERO PUSH2 0x8F3 JUMPI PUSH2 0x8F2 PUSH2 0xCEB JUMP JUMPDEST JUMPDEST PUSH2 0x8FF DUP12 DUP3 DUP13 ADD PUSH2 0x7C8 JUMP JUMPDEST SWAP5 POP POP PUSH1 0xA0 DUP10 ADD CALLDATALOAD PUSH8 0xFFFFFFFFFFFFFFFF DUP2 GT ISZERO PUSH2 0x920 JUMPI PUSH2 0x91F PUSH2 0xCEB JUMP JUMPDEST JUMPDEST PUSH2 0x92C DUP12 DUP3 DUP13 ADD PUSH2 0x7C8 JUMP JUMPDEST SWAP4 POP POP PUSH1 0xC0 PUSH2 0x93D DUP12 DUP3 DUP13 ADD PUSH2 0x7F6 JUMP JUMPDEST SWAP3 POP POP PUSH1 0xE0 PUSH2 0x94E DUP12 DUP3 DUP13 ADD PUSH2 0x7B3 JUMP JUMPDEST SWAP2 POP POP SWAP3 SWAP6 SWAP9 POP SWAP3 SWAP6 SWAP9 SWAP1 SWAP4 SWAP7 POP JUMP JUMPDEST PUSH1 0x0 PUSH1 0x20 DUP3 DUP5 SUB SLT ISZERO PUSH2 0x974 JUMPI PUSH2 0x973 PUSH2 0xCF0 JUMP JUMPDEST JUMPDEST PUSH1 0x0 PUSH2 0x982 DUP5 DUP3 DUP6 ADD PUSH2 0x7F6 JUMP JUMPDEST SWAP2 POP POP SWAP3 SWAP2 POP POP JUMP JUMPDEST PUSH2 0x994 DUP2 PUSH2 0xB67 JUMP JUMPDEST DUP3 MSTORE POP POP JUMP JUMPDEST PUSH2 0x9A3 DUP2 PUSH2 0xB79 JUMP JUMPDEST DUP3 MSTORE POP POP JUMP JUMPDEST PUSH1 0x0 PUSH2 0x9B4 DUP3 PUSH2 0xB4B JUMP JUMPDEST PUSH2 0x9BE DUP2 DUP6 PUSH2 0xB56 JUMP JUMPDEST SWAP4 POP PUSH2 0x9CE DUP2 DUP6 PUSH1 0x20 DUP7 ADD PUSH2 0xBBE JUMP JUMPDEST PUSH2 0x9D7 DUP2 PUSH2 0xCF5 JUMP JUMPDEST DUP5 ADD SWAP2 POP POP SWAP3 SWAP2 POP POP JUMP JUMPDEST PUSH1 0x0 PUSH2 0x9EF PUSH1 0x4 DUP4 PUSH2 0xB56 JUMP JUMPDEST SWAP2 POP PUSH2 0x9FA DUP3 PUSH2 0xD06 JUMP JUMPDEST PUSH1 0x20 DUP3 ADD SWAP1 POP SWAP2 SWAP1 POP JUMP JUMPDEST PUSH2 0xA0E DUP2 PUSH2 0xBA5 JUMP JUMPDEST DUP3 MSTORE POP POP JUMP JUMPDEST PUSH1 0x0 PUSH1 0x20 DUP3 ADD SWAP1 POP PUSH2 0xA29 PUSH1 0x0 DUP4 ADD DUP5 PUSH2 0x98B JUMP JUMPDEST SWAP3 SWAP2 POP POP JUMP JUMPDEST PUSH1 0x0 PUSH1 0x20 DUP3 ADD SWAP1 POP PUSH2 0xA44 PUSH1 0x0 DUP4 ADD DUP5 PUSH2 0x99A JUMP JUMPDEST SWAP3 SWAP2 POP POP JUMP JUMPDEST PUSH1 0x0 PUSH1 0xE0 DUP3 ADD SWAP1 POP DUP2 DUP2 SUB PUSH1 0x0 DUP4 ADD MSTORE PUSH2 0xA64 DUP2 DUP11 PUSH2 0x9A9 JUMP JUMPDEST SWAP1 POP PUSH2 0xA73 PUSH1 0x20 DUP4 ADD DUP10 PUSH2 0xA05 JUMP JUMPDEST DUP2 DUP2 SUB PUSH1 0x40 DUP4 ADD MSTORE PUSH2 0xA85 DUP2 DUP9 PUSH2 0x9A9 JUMP JUMPDEST SWAP1 POP DUP2 DUP2 SUB PUSH1 0x60 DUP4 ADD MSTORE PUSH2 0xA99 DUP2 DUP8 PUSH2 0x9A9 JUMP JUMPDEST SWAP1 POP DUP2 DUP2 SUB PUSH1 0x80 DUP4 ADD MSTORE PUSH2 0xAAD DUP2 DUP7 PUSH2 0x9A9 JUMP JUMPDEST SWAP1 POP PUSH2 0xABC PUSH1 0xA0 DUP4 ADD DUP6 PUSH2 0xA05 JUMP JUMPDEST PUSH2 0xAC9 PUSH1 0xC0 DUP4 ADD DUP5 PUSH2 0x99A JUMP JUMPDEST SWAP9 SWAP8 POP POP POP POP POP POP POP POP JUMP JUMPDEST PUSH1 0x0 PUSH1 0x20 DUP3 ADD SWAP1 POP DUP2 DUP2 SUB PUSH1 0x0 DUP4 ADD MSTORE PUSH2 0xAEE DUP2 PUSH2 0x9E2 JUMP JUMPDEST SWAP1 POP SWAP2 SWAP1 POP JUMP JUMPDEST PUSH1 0x0 PUSH2 0xAFF PUSH2 0xB10 JUMP JUMPDEST SWAP1 POP PUSH2 0xB0B DUP3 DUP3 PUSH2 0xC23 JUMP JUMPDEST SWAP2 SWAP1 POP JUMP JUMPDEST PUSH1 0x0 PUSH1 0x40 MLOAD SWAP1 POP SWAP1 JUMP JUMPDEST PUSH1 0x0 PUSH8 0xFFFFFFFFFFFFFFFF DUP3 GT ISZERO PUSH2 0xB35 JUMPI PUSH2 0xB34 PUSH2 0xCB2 JUMP JUMPDEST JUMPDEST PUSH2 0xB3E DUP3 PUSH2 0xCF5 JUMP JUMPDEST SWAP1 POP PUSH1 0x20 DUP2 ADD SWAP1 POP SWAP2 SWAP1 POP JUMP JUMPDEST PUSH1 0x0 DUP2 MLOAD SWAP1 POP SWAP2 SWAP1 POP JUMP JUMPDEST PUSH1 0x0 DUP3 DUP3 MSTORE PUSH1 0x20 DUP3 ADD SWAP1 POP SWAP3 SWAP2 POP POP JUMP JUMPDEST PUSH1 0x0 PUSH2 0xB72 DUP3 PUSH2 0xB85 JUMP JUMPDEST SWAP1 POP SWAP2 SWAP1 POP JUMP JUMPDEST PUSH1 0x0 DUP2 ISZERO ISZERO SWAP1 POP SWAP2 SWAP1 POP JUMP JUMPDEST PUSH1 0x0 PUSH20 0xFFFFFFFFFFFFFFFFFFFFFFFFFFFFFFFFFFFFFFFF DUP3 AND SWAP1 POP SWAP2 SWAP1 POP JUMP JUMPDEST PUSH1 0x0 DUP2 SWAP1 POP SWAP2 SWAP1 POP JUMP JUMPDEST DUP3 DUP2 DUP4 CALLDATACOPY PUSH1 0x0 DUP4 DUP4 ADD MSTORE POP POP POP JUMP JUMPDEST PUSH1 0x0 JUMPDEST DUP4 DUP2 LT ISZERO PUSH2 0xBDC JUMPI DUP1 DUP3 ADD MLOAD DUP2 DUP5 ADD MSTORE PUSH1 0x20 DUP2 ADD SWAP1 POP PUSH2 0xBC1 JUMP JUMPDEST DUP4 DUP2 GT ISZERO PUSH2 0xBEB JUMPI PUSH1 0x0 DUP5 DUP5 ADD MSTORE JUMPDEST POP POP POP POP JUMP JUMPDEST PUSH1 0x0 PUSH1 0x2 DUP3 DIV SWAP1 POP PUSH1 0x1 DUP3 AND DUP1 PUSH2 0xC09 JUMPI PUSH1 0x7F DUP3 AND SWAP2 POP JUMPDEST PUSH1 0x20 DUP3 LT DUP2 EQ ISZERO PUSH2 0xC1D JUMPI PUSH2 0xC1C PUSH2 0xC54 JUMP JUMPDEST JUMPDEST POP SWAP2 SWAP1 POP JUMP JUMPDEST PUSH2 0xC2C DUP3 PUSH2 0xCF5 JUMP JUMPDEST DUP2 ADD DUP2 DUP2 LT PUSH8 0xFFFFFFFFFFFFFFFF DUP3 GT OR ISZERO PUSH2 0xC4B JUMPI PUSH2 0xC4A PUSH2 0xCB2 JUMP JUMPDEST JUMPDEST DUP1 PUSH1 0x40 MSTORE POP POP POP JUMP JUMPDEST PUSH32 0x4E487B7100000000000000000000000000000000000000000000000000000000 PUSH1 0x0 MSTORE PUSH1 0x22 PUSH1 0x4 MSTORE PUSH1 0x24 PUSH1 0x0 REVERT JUMPDEST PUSH32 0x4E487B7100000000000000000000000000000000000000000000000000000000 PUSH1 0x0 MSTORE PUSH1 0x32 PUSH1 0x4 MSTORE PUSH1 0x24 PUSH1 0x0 REVERT JUMPDEST PUSH32 0x4E487B7100000000000000000000000000000000000000000000000000000000 PUSH1 0x0 MSTORE PUSH1 0x41 PUSH1 0x4 MSTORE PUSH1 0x24 PUSH1 0x0 REVERT JUMPDEST PUSH1 0x0 DUP1 REVERT JUMPDEST PUSH1 0x0 DUP1 REVERT JUMPDEST PUSH1 0x0 DUP1 REVERT JUMPDEST PUSH1 0x0 DUP1 REVERT JUMPDEST PUSH1 0x0 PUSH1 0x1F NOT PUSH1 0x1F DUP4 ADD AND SWAP1 POP SWAP2 SWAP1 POP JUMP JUMPDEST PUSH32 0x5468697300000000000000000000000000000000000000000000000000000000 PUSH1 0x0 DUP3 ADD MSTORE POP JUMP JUMPDEST PUSH2 0xD38 DUP2 PUSH2 0xB67 JUMP JUMPDEST DUP2 EQ PUSH2 0xD43 JUMPI PUSH1 0x0 DUP1 REVERT JUMPDEST POP JUMP JUMPDEST PUSH2 0xD4F DUP2 PUSH2 0xB79 JUMP JUMPDEST DUP2 EQ PUSH2 0xD5A JUMPI PUSH1 0x0 DUP1 REVERT JUMPDEST POP JUMP JUMPDEST PUSH2 0xD66 DUP2 PUSH2 0xBA5 JUMP JUMPDEST DUP2 EQ PUSH2 0xD71 JUMPI PUSH1 0x0 DUP1 REVERT JUMPDEST POP JUMP INVALID LOG2 PUSH5 0x6970667358 0x22 SLT KECCAK256 0xD9 0xAB 0xD1 0xDD 0x5D 0xB4 EXTCODESIZE ADD 0x2A MLOAD 0xCB CODESIZE CALLVALUE 0x21 SWAP1 0xCD SWAP16 0xC5 0xED PUSH28 0xD13EEA267C3E241D823F4A4964736F6C634300080700330000000000 "
				},
				"gasEstimates": {
					"creation": {
						"codeDepositCost": "699600",
						"executionCost": "734",
						"totalCost": "700334"
					},
					"external": {
						"PubKeyInstitutionInfoMap(address)": "infinite",
						"initInstitutionMap(address,string,uint256,string,string,string,uint256,bool)": "infinite",
						"institutionBlockAddressArray(uint256)": "5022",
						"institutionInfoMap(uint256)": "infinite",
						"isExistInstitution(uint256)": "7064"
					}
				},
				"methodIdentifiers": {
					"PubKeyInstitutionInfoMap(address)": "827e0c99",
					"initInstitutionMap(address,string,uint256,string,string,string,uint256,bool)": "751fc87e",
					"institutionBlockAddressArray(uint256)": "c5d25fa9",
					"institutionInfoMap(uint256)": "643f7536",
					"isExistInstitution(uint256)": "50b6e787"
				}
			},
			"storageLayout": {
				"storage": [
					{
						"astId": 20,
						"contract": "contracts/EduID_contract.sol:ISSC",
						"label": "institutionInfoMap",
						"offset": 0,
						"slot": "0",
						"type": "t_array(t_struct(InstitutionInfo)16_storage)dyn_storage"
					},
					{
						"astId": 25,
						"contract": "contracts/EduID_contract.sol:ISSC",
						"label": "PubKeyInstitutionInfoMap",
						"offset": 0,
						"slot": "1",
						"type": "t_mapping(t_address,t_struct(InstitutionInfo)16_storage)"
					},
					{
						"astId": 28,
						"contract": "contracts/EduID_contract.sol:ISSC",
						"label": "institutionBlockAddressArray",
						"offset": 0,
						"slot": "2",
						"type": "t_array(t_address)dyn_storage"
					}
				],
				"types": {
					"t_address": {
						"encoding": "inplace",
						"label": "address",
						"numberOfBytes": "20"
					},
					"t_array(t_address)dyn_storage": {
						"base": "t_address",
						"encoding": "dynamic_array",
						"label": "address[]",
						"numberOfBytes": "32"
					},
					"t_array(t_struct(InstitutionInfo)16_storage)dyn_storage": {
						"base": "t_struct(InstitutionInfo)16_storage",
						"encoding": "dynamic_array",
						"label": "struct ISSC.InstitutionInfo[]",
						"numberOfBytes": "32"
					},
					"t_bool": {
						"encoding": "inplace",
						"label": "bool",
						"numberOfBytes": "1"
					},
					"t_mapping(t_address,t_struct(InstitutionInfo)16_storage)": {
						"encoding": "mapping",
						"key": "t_address",
						"label": "mapping(address => struct ISSC.InstitutionInfo)",
						"numberOfBytes": "32",
						"value": "t_struct(InstitutionInfo)16_storage"
					},
					"t_string_storage": {
						"encoding": "bytes",
						"label": "string",
						"numberOfBytes": "32"
					},
					"t_struct(InstitutionInfo)16_storage": {
						"encoding": "inplace",
						"label": "struct ISSC.InstitutionInfo",
						"members": [
							{
								"astId": 3,
								"contract": "contracts/EduID_contract.sol:ISSC",
								"label": "namaInstitusi",
								"offset": 0,
								"slot": "0",
								"type": "t_string_storage"
							},
							{
								"astId": 5,
								"contract": "contracts/EduID_contract.sol:ISSC",
								"label": "NPSN",
								"offset": 0,
								"slot": "1",
								"type": "t_uint256"
							},
							{
								"astId": 7,
								"contract": "contracts/EduID_contract.sol:ISSC",
								"label": "akreditasi",
								"offset": 0,
								"slot": "2",
								"type": "t_string_storage"
							},
							{
								"astId": 9,
								"contract": "contracts/EduID_contract.sol:ISSC",
								"label": "jenisSekolah",
								"offset": 0,
								"slot": "3",
								"type": "t_string_storage"
							},
							{
								"astId": 11,
								"contract": "contracts/EduID_contract.sol:ISSC",
								"label": "alamatInstitusi",
								"offset": 0,
								"slot": "4",
								"type": "t_string_storage"
							},
							{
								"astId": 13,
								"contract": "contracts/EduID_contract.sol:ISSC",
								"label": "nomorTelepon",
								"offset": 0,
								"slot": "5",
								"type": "t_uint256"
							},
							{
								"astId": 15,
								"contract": "contracts/EduID_contract.sol:ISSC",
								"label": "agreeToJoin",
								"offset": 0,
								"slot": "6",
								"type": "t_bool"
							}
						],
						"numberOfBytes": "224"
					},
					"t_uint256": {
						"encoding": "inplace",
						"label": "uint256",
						"numberOfBytes": "32"
					}
				}
			},
			"userdoc": {
				"kind": "user",
				"methods": {},
				"version": 1
			}
		}
	}
}