{
	"contracts/EduID_contract.sol": {
		"RPCC": {
			"abi": [
				{
					"inputs": [
						{
							"internalType": "uint256",
							"name": "",
							"type": "uint256"
						}
					],
					"name": "RdPermissionHashArray",
					"outputs": [
						{
							"internalType": "string",
							"name": "",
							"type": "string"
						}
					],
					"stateMutability": "view",
					"type": "function"
				},
				{
					"inputs": [
						{
							"internalType": "string",
							"name": "",
							"type": "string"
						}
					],
					"name": "RdPermissionMap",
					"outputs": [
						{
							"internalType": "string",
							"name": "rdId",
							"type": "string"
						},
						{
							"internalType": "string",
							"name": "rdHash",
							"type": "string"
						},
						{
							"internalType": "uint256",
							"name": "permissionType",
							"type": "uint256"
						}
					],
					"stateMutability": "view",
					"type": "function"
				},
				{
					"inputs": [
						{
							"internalType": "string",
							"name": "_rdHash",
							"type": "string"
						},
						{
							"internalType": "address",
							"name": "blockAddress",
							"type": "address"
						},
						{
							"internalType": "uint256",
							"name": "operation",
							"type": "uint256"
						}
					],
					"name": "updateRdPermissions",
					"outputs": [
						{
							"internalType": "bool",
							"name": "",
							"type": "bool"
						}
					],
					"stateMutability": "nonpayable",
					"type": "function"
				}
			],
			"devdoc": {
				"kind": "dev",
				"methods": {},
				"version": 1
			},
			"evm": {
				"assembly": "    /* \"contracts/EduID_contract.sol\":2580:3567  contract RPCC {\r... */\n  mstore(0x40, 0x80)\n  callvalue\n  dup1\n  iszero\n  tag_1\n  jumpi\n  0x00\n  dup1\n  revert\ntag_1:\n  pop\n  dataSize(sub_0)\n  dup1\n  dataOffset(sub_0)\n  0x00\n  codecopy\n  0x00\n  return\nstop\n\nsub_0: assembly {\n        /* \"contracts/EduID_contract.sol\":2580:3567  contract RPCC {\r... */\n      mstore(0x40, 0x80)\n      callvalue\n      dup1\n      iszero\n      tag_1\n      jumpi\n      0x00\n      dup1\n      revert\n    tag_1:\n      pop\n      jumpi(tag_2, lt(calldatasize, 0x04))\n      shr(0xe0, calldataload(0x00))\n      dup1\n      0x4bb6b1e6\n      eq\n      tag_3\n      jumpi\n      dup1\n      0x9df16320\n      eq\n      tag_4\n      jumpi\n      dup1\n      0x9e77a49a\n      eq\n      tag_5\n      jumpi\n    tag_2:\n      0x00\n      dup1\n      revert\n        /* \"contracts/EduID_contract.sol\":2936:2993  mapping (string => PermissionInfo) public RdPermissionMap */\n    tag_3:\n      tag_6\n      0x04\n      dup1\n      calldatasize\n      sub\n      dup2\n      add\n      swap1\n      tag_7\n      swap2\n      swap1\n      tag_8\n      jump\t// in\n    tag_7:\n      tag_9\n      jump\t// in\n    tag_6:\n      mload(0x40)\n      tag_10\n      swap4\n      swap3\n      swap2\n      swap1\n      tag_11\n      jump\t// in\n    tag_10:\n      mload(0x40)\n      dup1\n      swap2\n      sub\n      swap1\n      return\n        /* \"contracts/EduID_contract.sol\":3046:3558  function updateRdPermissions(string memory _rdHash, address blockAddress, uint operation) public returns (bool) {\r... */\n    tag_4:\n      tag_12\n      0x04\n      dup1\n      calldatasize\n      sub\n      dup2\n      add\n      swap1\n      tag_13\n      swap2\n      swap1\n      tag_14\n      jump\t// in\n    tag_13:\n      tag_15\n      jump\t// in\n    tag_12:\n      mload(0x40)\n      tag_16\n      swap2\n      swap1\n      tag_17\n      jump\t// in\n    tag_16:\n      mload(0x40)\n      dup1\n      swap2\n      sub\n      swap1\n      return\n        /* \"contracts/EduID_contract.sol\":3000:3037  string[] public RdPermissionHashArray */\n    tag_5:\n      tag_18\n      0x04\n      dup1\n      calldatasize\n      sub\n      dup2\n      add\n      swap1\n      tag_19\n      swap2\n      swap1\n      tag_20\n      jump\t// in\n    tag_19:\n      tag_21\n      jump\t// in\n    tag_18:\n      mload(0x40)\n      tag_22\n      swap2\n      swap1\n      tag_23\n      jump\t// in\n    tag_22:\n      mload(0x40)\n      dup1\n      swap2\n      sub\n      swap1\n      return\n        /* \"contracts/EduID_contract.sol\":2936:2993  mapping (string => PermissionInfo) public RdPermissionMap */\n    tag_9:\n      0x00\n      dup2\n      dup1\n      mload\n      0x20\n      dup2\n      add\n      dup3\n      add\n      dup1\n      mload\n      dup5\n      dup3\n      mstore\n      0x20\n      dup4\n      add\n      0x20\n      dup6\n      add\n      keccak256\n      dup2\n      dup4\n      mstore\n      dup1\n      swap6\n      pop\n      pop\n      pop\n      pop\n      pop\n      pop\n      0x00\n      swap2\n      pop\n      swap1\n      pop\n      dup1\n      0x00\n      add\n      dup1\n      sload\n      tag_24\n      swap1\n      tag_25\n      jump\t// in\n    tag_24:\n      dup1\n      0x1f\n      add\n      0x20\n      dup1\n      swap2\n      div\n      mul\n      0x20\n      add\n      mload(0x40)\n      swap1\n      dup2\n      add\n      0x40\n      mstore\n      dup1\n      swap3\n      swap2\n      swap1\n      dup2\n      dup2\n      mstore\n      0x20\n      add\n      dup3\n      dup1\n      sload\n      tag_26\n      swap1\n      tag_25\n      jump\t// in\n    tag_26:\n      dup1\n      iszero\n      tag_27\n      jumpi\n      dup1\n      0x1f\n      lt\n      tag_28\n      jumpi\n      0x0100\n      dup1\n      dup4\n      sload\n      div\n      mul\n      dup4\n      mstore\n      swap2\n      0x20\n      add\n      swap2\n      jump(tag_27)\n    tag_28:\n      dup3\n      add\n      swap2\n      swap1\n      0x00\n      mstore\n      keccak256(0x00, 0x20)\n      swap1\n    tag_29:\n      dup2\n      sload\n      dup2\n      mstore\n      swap1\n      0x01\n      add\n      swap1\n      0x20\n      add\n      dup1\n      dup4\n      gt\n      tag_29\n      jumpi\n      dup3\n      swap1\n      sub\n      0x1f\n      and\n      dup3\n      add\n      swap2\n    tag_27:\n      pop\n      pop\n      pop\n      pop\n      pop\n      swap1\n      dup1\n      0x01\n      add\n      dup1\n      sload\n      tag_30\n      swap1\n      tag_25\n      jump\t// in\n    tag_30:\n      dup1\n      0x1f\n      add\n      0x20\n      dup1\n      swap2\n      div\n      mul\n      0x20\n      add\n      mload(0x40)\n      swap1\n      dup2\n      add\n      0x40\n      mstore\n      dup1\n      swap3\n      swap2\n      swap1\n      dup2\n      dup2\n      mstore\n      0x20\n      add\n      dup3\n      dup1\n      sload\n      tag_31\n      swap1\n      tag_25\n      jump\t// in\n    tag_31:\n      dup1\n      iszero\n      tag_32\n      jumpi\n      dup1\n      0x1f\n      lt\n      tag_33\n      jumpi\n      0x0100\n      dup1\n      dup4\n      sload\n      div\n      mul\n      dup4\n      mstore\n      swap2\n      0x20\n      add\n      swap2\n      jump(tag_32)\n    tag_33:\n      dup3\n      add\n      swap2\n      swap1\n      0x00\n      mstore\n      keccak256(0x00, 0x20)\n      swap1\n    tag_34:\n      dup2\n      sload\n      dup2\n      mstore\n      swap1\n      0x01\n      add\n      swap1\n      0x20\n      add\n      dup1\n      dup4\n      gt\n      tag_34\n      jumpi\n      dup3\n      swap1\n      sub\n      0x1f\n      and\n      dup3\n      add\n      swap2\n    tag_32:\n      pop\n      pop\n      pop\n      pop\n      pop\n      swap1\n      dup1\n      0x03\n      add\n      sload\n      swap1\n      pop\n      dup4\n      jump\t// out\n        /* \"contracts/EduID_contract.sol\":3046:3558  function updateRdPermissions(string memory _rdHash, address blockAddress, uint operation) public returns (bool) {\r... */\n    tag_15:\n        /* \"contracts/EduID_contract.sol\":3152:3156  bool */\n      0x00\n        /* \"contracts/EduID_contract.sol\":3186:3187  1 */\n      0x01\n        /* \"contracts/EduID_contract.sol\":3173:3182  operation */\n      dup3\n        /* \"contracts/EduID_contract.sol\":3173:3187  operation == 1 */\n      eq\n        /* \"contracts/EduID_contract.sol\":3169:3494  if (operation == 1) {\r... */\n      iszero\n      tag_36\n      jumpi\n        /* \"contracts/EduID_contract.sol\":3251:3252  1 */\n      0x01\n        /* \"contracts/EduID_contract.sol\":3208:3223  RdPermissionMap */\n      0x00\n        /* \"contracts/EduID_contract.sol\":3224:3231  _rdHash */\n      dup6\n        /* \"contracts/EduID_contract.sol\":3208:3232  RdPermissionMap[_rdHash] */\n      mload(0x40)\n      tag_37\n      swap2\n      swap1\n      tag_38\n      jump\t// in\n    tag_37:\n      swap1\n      dup2\n      mstore\n      0x20\n      add\n      mload(0x40)\n      dup1\n      swap2\n      sub\n      swap1\n      keccak256\n        /* \"contracts/EduID_contract.sol\":3208:3247  RdPermissionMap[_rdHash].permissionType */\n      0x03\n      add\n      sload\n        /* \"contracts/EduID_contract.sol\":3208:3252  RdPermissionMap[_rdHash].permissionType == 1 */\n      eq\n        /* \"contracts/EduID_contract.sol\":3204:3300  if (RdPermissionMap[_rdHash].permissionType == 1) {\r... */\n      iszero\n      tag_39\n      jumpi\n        /* \"contracts/EduID_contract.sol\":3280:3284  true */\n      0x01\n        /* \"contracts/EduID_contract.sol\":3273:3284  return true */\n      swap1\n      pop\n      jump(tag_35)\n        /* \"contracts/EduID_contract.sol\":3204:3300  if (RdPermissionMap[_rdHash].permissionType == 1) {\r... */\n    tag_39:\n        /* \"contracts/EduID_contract.sol\":3361:3362  0 */\n      0x00\n        /* \"contracts/EduID_contract.sol\":3318:3333  RdPermissionMap */\n      dup1\n        /* \"contracts/EduID_contract.sol\":3334:3341  _rdHash */\n      dup6\n        /* \"contracts/EduID_contract.sol\":3318:3342  RdPermissionMap[_rdHash] */\n      mload(0x40)\n      tag_40\n      swap2\n      swap1\n      tag_38\n      jump\t// in\n    tag_40:\n      swap1\n      dup2\n      mstore\n      0x20\n      add\n      mload(0x40)\n      dup1\n      swap2\n      sub\n      swap1\n      keccak256\n        /* \"contracts/EduID_contract.sol\":3318:3357  RdPermissionMap[_rdHash].permissionType */\n      0x03\n      add\n      sload\n        /* \"contracts/EduID_contract.sol\":3318:3362  RdPermissionMap[_rdHash].permissionType == 0 */\n      eq\n        /* \"contracts/EduID_contract.sol\":3314:3411  if (RdPermissionMap[_rdHash].permissionType == 0) {\r... */\n      iszero\n      tag_41\n      jumpi\n        /* \"contracts/EduID_contract.sol\":3390:3395  false */\n      0x00\n        /* \"contracts/EduID_contract.sol\":3383:3395  return false */\n      swap1\n      pop\n      jump(tag_35)\n        /* \"contracts/EduID_contract.sol\":3314:3411  if (RdPermissionMap[_rdHash].permissionType == 0) {\r... */\n    tag_41:\n        /* \"contracts/EduID_contract.sol\":3425:3440  RdPermissionMap */\n      0x00\n        /* \"contracts/EduID_contract.sol\":3441:3448  _rdHash */\n      dup5\n        /* \"contracts/EduID_contract.sol\":3425:3449  RdPermissionMap[_rdHash] */\n      mload(0x40)\n      tag_42\n      swap2\n      swap1\n      tag_38\n      jump\t// in\n    tag_42:\n      swap1\n      dup2\n      mstore\n      0x20\n      add\n      mload(0x40)\n      dup1\n      swap2\n      sub\n      swap1\n      keccak256\n        /* \"contracts/EduID_contract.sol\":3425:3463  RdPermissionMap[_rdHash].rdPermissions */\n      0x02\n      add\n        /* \"contracts/EduID_contract.sol\":3469:3481  blockAddress */\n      dup4\n        /* \"contracts/EduID_contract.sol\":3425:3482  RdPermissionMap[_rdHash].rdPermissions.push(blockAddress) */\n      swap1\n      dup1\n      0x01\n      dup2\n      sload\n      add\n      dup1\n      dup3\n      sstore\n      dup1\n      swap2\n      pop\n      pop\n      0x01\n      swap1\n      sub\n      swap1\n      0x00\n      mstore\n      keccak256(0x00, 0x20)\n      add\n      0x00\n      swap1\n      swap2\n      swap1\n      swap2\n      swap1\n      swap2\n      0x0100\n      exp\n      dup2\n      sload\n      dup2\n      0xffffffffffffffffffffffffffffffffffffffff\n      mul\n      not\n      and\n      swap1\n      dup4\n      0xffffffffffffffffffffffffffffffffffffffff\n      and\n      mul\n      or\n      swap1\n      sstore\n      pop\n        /* \"contracts/EduID_contract.sol\":3169:3494  if (operation == 1) {\r... */\n    tag_36:\n        /* \"contracts/EduID_contract.sol\":3046:3558  function updateRdPermissions(string memory _rdHash, address blockAddress, uint operation) public returns (bool) {\r... */\n    tag_35:\n      swap4\n      swap3\n      pop\n      pop\n      pop\n      jump\t// out\n        /* \"contracts/EduID_contract.sol\":3000:3037  string[] public RdPermissionHashArray */\n    tag_21:\n      0x01\n      dup2\n      dup2\n      sload\n      dup2\n      lt\n      tag_45\n      jumpi\n      0x00\n      dup1\n      revert\n    tag_45:\n      swap1\n      0x00\n      mstore\n      keccak256(0x00, 0x20)\n      add\n      0x00\n      swap2\n      pop\n      swap1\n      pop\n      dup1\n      sload\n      tag_47\n      swap1\n      tag_25\n      jump\t// in\n    tag_47:\n      dup1\n      0x1f\n      add\n      0x20\n      dup1\n      swap2\n      div\n      mul\n      0x20\n      add\n      mload(0x40)\n      swap1\n      dup2\n      add\n      0x40\n      mstore\n      dup1\n      swap3\n      swap2\n      swap1\n      dup2\n      dup2\n      mstore\n      0x20\n      add\n      dup3\n      dup1\n      sload\n      tag_48\n      swap1\n      tag_25\n      jump\t// in\n    tag_48:\n      dup1\n      iszero\n      tag_49\n      jumpi\n      dup1\n      0x1f\n      lt\n      tag_50\n      jumpi\n      0x0100\n      dup1\n      dup4\n      sload\n      div\n      mul\n      dup4\n      mstore\n      swap2\n      0x20\n      add\n      swap2\n      jump(tag_49)\n    tag_50:\n      dup3\n      add\n      swap2\n      swap1\n      0x00\n      mstore\n      keccak256(0x00, 0x20)\n      swap1\n    tag_51:\n      dup2\n      sload\n      dup2\n      mstore\n      swap1\n      0x01\n      add\n      swap1\n      0x20\n      add\n      dup1\n      dup4\n      gt\n      tag_51\n      jumpi\n      dup3\n      swap1\n      sub\n      0x1f\n      and\n      dup3\n      add\n      swap2\n    tag_49:\n      pop\n      pop\n      pop\n      pop\n      pop\n      dup2\n      jump\t// out\n        /* \"#utility.yul\":7:419   */\n    tag_53:\n        /* \"#utility.yul\":85:90   */\n      0x00\n        /* \"#utility.yul\":110:176   */\n      tag_55\n        /* \"#utility.yul\":126:175   */\n      tag_56\n        /* \"#utility.yul\":168:174   */\n      dup5\n        /* \"#utility.yul\":126:175   */\n      tag_57\n      jump\t// in\n    tag_56:\n        /* \"#utility.yul\":110:176   */\n      tag_58\n      jump\t// in\n    tag_55:\n        /* \"#utility.yul\":101:176   */\n      swap1\n      pop\n        /* \"#utility.yul\":199:205   */\n      dup3\n        /* \"#utility.yul\":192:197   */\n      dup2\n        /* \"#utility.yul\":185:206   */\n      mstore\n        /* \"#utility.yul\":237:241   */\n      0x20\n        /* \"#utility.yul\":230:235   */\n      dup2\n        /* \"#utility.yul\":226:242   */\n      add\n        /* \"#utility.yul\":275:278   */\n      dup5\n        /* \"#utility.yul\":266:272   */\n      dup5\n        /* \"#utility.yul\":261:264   */\n      dup5\n        /* \"#utility.yul\":257:273   */\n      add\n        /* \"#utility.yul\":254:279   */\n      gt\n        /* \"#utility.yul\":251:363   */\n      iszero\n      tag_59\n      jumpi\n        /* \"#utility.yul\":282:361   */\n      tag_60\n      tag_61\n      jump\t// in\n    tag_60:\n        /* \"#utility.yul\":251:363   */\n    tag_59:\n        /* \"#utility.yul\":372:413   */\n      tag_62\n        /* \"#utility.yul\":406:412   */\n      dup5\n        /* \"#utility.yul\":401:404   */\n      dup3\n        /* \"#utility.yul\":396:399   */\n      dup6\n        /* \"#utility.yul\":372:413   */\n      tag_63\n      jump\t// in\n    tag_62:\n        /* \"#utility.yul\":91:419   */\n      pop\n        /* \"#utility.yul\":7:419   */\n      swap4\n      swap3\n      pop\n      pop\n      pop\n      jump\t// out\n        /* \"#utility.yul\":425:564   */\n    tag_64:\n        /* \"#utility.yul\":471:476   */\n      0x00\n        /* \"#utility.yul\":509:515   */\n      dup2\n        /* \"#utility.yul\":496:516   */\n      calldataload\n        /* \"#utility.yul\":487:516   */\n      swap1\n      pop\n        /* \"#utility.yul\":525:558   */\n      tag_66\n        /* \"#utility.yul\":552:557   */\n      dup2\n        /* \"#utility.yul\":525:558   */\n      tag_67\n      jump\t// in\n    tag_66:\n        /* \"#utility.yul\":425:564   */\n      swap3\n      swap2\n      pop\n      pop\n      jump\t// out\n        /* \"#utility.yul\":584:924   */\n    tag_68:\n        /* \"#utility.yul\":640:645   */\n      0x00\n        /* \"#utility.yul\":689:692   */\n      dup3\n        /* \"#utility.yul\":682:686   */\n      0x1f\n        /* \"#utility.yul\":674:680   */\n      dup4\n        /* \"#utility.yul\":670:687   */\n      add\n        /* \"#utility.yul\":666:693   */\n      slt\n        /* \"#utility.yul\":656:778   */\n      tag_70\n      jumpi\n        /* \"#utility.yul\":697:776   */\n      tag_71\n      tag_72\n      jump\t// in\n    tag_71:\n        /* \"#utility.yul\":656:778   */\n    tag_70:\n        /* \"#utility.yul\":814:820   */\n      dup2\n        /* \"#utility.yul\":801:821   */\n      calldataload\n        /* \"#utility.yul\":839:918   */\n      tag_73\n        /* \"#utility.yul\":914:917   */\n      dup5\n        /* \"#utility.yul\":906:912   */\n      dup3\n        /* \"#utility.yul\":899:903   */\n      0x20\n        /* \"#utility.yul\":891:897   */\n      dup7\n        /* \"#utility.yul\":887:904   */\n      add\n        /* \"#utility.yul\":839:918   */\n      tag_53\n      jump\t// in\n    tag_73:\n        /* \"#utility.yul\":830:918   */\n      swap2\n      pop\n        /* \"#utility.yul\":646:924   */\n      pop\n        /* \"#utility.yul\":584:924   */\n      swap3\n      swap2\n      pop\n      pop\n      jump\t// out\n        /* \"#utility.yul\":930:1069   */\n    tag_74:\n        /* \"#utility.yul\":976:981   */\n      0x00\n        /* \"#utility.yul\":1014:1020   */\n      dup2\n        /* \"#utility.yul\":1001:1021   */\n      calldataload\n        /* \"#utility.yul\":992:1021   */\n      swap1\n      pop\n        /* \"#utility.yul\":1030:1063   */\n      tag_76\n        /* \"#utility.yul\":1057:1062   */\n      dup2\n        /* \"#utility.yul\":1030:1063   */\n      tag_77\n      jump\t// in\n    tag_76:\n        /* \"#utility.yul\":930:1069   */\n      swap3\n      swap2\n      pop\n      pop\n      jump\t// out\n        /* \"#utility.yul\":1075:1584   */\n    tag_8:\n        /* \"#utility.yul\":1144:1150   */\n      0x00\n        /* \"#utility.yul\":1193:1195   */\n      0x20\n        /* \"#utility.yul\":1181:1190   */\n      dup3\n        /* \"#utility.yul\":1172:1179   */\n      dup5\n        /* \"#utility.yul\":1168:1191   */\n      sub\n        /* \"#utility.yul\":1164:1196   */\n      slt\n        /* \"#utility.yul\":1161:1280   */\n      iszero\n      tag_79\n      jumpi\n        /* \"#utility.yul\":1199:1278   */\n      tag_80\n      tag_81\n      jump\t// in\n    tag_80:\n        /* \"#utility.yul\":1161:1280   */\n    tag_79:\n        /* \"#utility.yul\":1347:1348   */\n      0x00\n        /* \"#utility.yul\":1336:1345   */\n      dup3\n        /* \"#utility.yul\":1332:1349   */\n      add\n        /* \"#utility.yul\":1319:1350   */\n      calldataload\n        /* \"#utility.yul\":1377:1395   */\n      0xffffffffffffffff\n        /* \"#utility.yul\":1369:1375   */\n      dup2\n        /* \"#utility.yul\":1366:1396   */\n      gt\n        /* \"#utility.yul\":1363:1480   */\n      iszero\n      tag_82\n      jumpi\n        /* \"#utility.yul\":1399:1478   */\n      tag_83\n      tag_84\n      jump\t// in\n    tag_83:\n        /* \"#utility.yul\":1363:1480   */\n    tag_82:\n        /* \"#utility.yul\":1504:1567   */\n      tag_85\n        /* \"#utility.yul\":1559:1566   */\n      dup5\n        /* \"#utility.yul\":1550:1556   */\n      dup3\n        /* \"#utility.yul\":1539:1548   */\n      dup6\n        /* \"#utility.yul\":1535:1557   */\n      add\n        /* \"#utility.yul\":1504:1567   */\n      tag_68\n      jump\t// in\n    tag_85:\n        /* \"#utility.yul\":1494:1567   */\n      swap2\n      pop\n        /* \"#utility.yul\":1290:1577   */\n      pop\n        /* \"#utility.yul\":1075:1584   */\n      swap3\n      swap2\n      pop\n      pop\n      jump\t// out\n        /* \"#utility.yul\":1590:2389   */\n    tag_14:\n        /* \"#utility.yul\":1677:1683   */\n      0x00\n        /* \"#utility.yul\":1685:1691   */\n      dup1\n        /* \"#utility.yul\":1693:1699   */\n      0x00\n        /* \"#utility.yul\":1742:1744   */\n      0x60\n        /* \"#utility.yul\":1730:1739   */\n      dup5\n        /* \"#utility.yul\":1721:1728   */\n      dup7\n        /* \"#utility.yul\":1717:1740   */\n      sub\n        /* \"#utility.yul\":1713:1745   */\n      slt\n        /* \"#utility.yul\":1710:1829   */\n      iszero\n      tag_87\n      jumpi\n        /* \"#utility.yul\":1748:1827   */\n      tag_88\n      tag_81\n      jump\t// in\n    tag_88:\n        /* \"#utility.yul\":1710:1829   */\n    tag_87:\n        /* \"#utility.yul\":1896:1897   */\n      0x00\n        /* \"#utility.yul\":1885:1894   */\n      dup5\n        /* \"#utility.yul\":1881:1898   */\n      add\n        /* \"#utility.yul\":1868:1899   */\n      calldataload\n        /* \"#utility.yul\":1926:1944   */\n      0xffffffffffffffff\n        /* \"#utility.yul\":1918:1924   */\n      dup2\n        /* \"#utility.yul\":1915:1945   */\n      gt\n        /* \"#utility.yul\":1912:2029   */\n      iszero\n      tag_89\n      jumpi\n        /* \"#utility.yul\":1948:2027   */\n      tag_90\n      tag_84\n      jump\t// in\n    tag_90:\n        /* \"#utility.yul\":1912:2029   */\n    tag_89:\n        /* \"#utility.yul\":2053:2116   */\n      tag_91\n        /* \"#utility.yul\":2108:2115   */\n      dup7\n        /* \"#utility.yul\":2099:2105   */\n      dup3\n        /* \"#utility.yul\":2088:2097   */\n      dup8\n        /* \"#utility.yul\":2084:2106   */\n      add\n        /* \"#utility.yul\":2053:2116   */\n      tag_68\n      jump\t// in\n    tag_91:\n        /* \"#utility.yul\":2043:2116   */\n      swap4\n      pop\n        /* \"#utility.yul\":1839:2126   */\n      pop\n        /* \"#utility.yul\":2165:2167   */\n      0x20\n        /* \"#utility.yul\":2191:2244   */\n      tag_92\n        /* \"#utility.yul\":2236:2243   */\n      dup7\n        /* \"#utility.yul\":2227:2233   */\n      dup3\n        /* \"#utility.yul\":2216:2225   */\n      dup8\n        /* \"#utility.yul\":2212:2234   */\n      add\n        /* \"#utility.yul\":2191:2244   */\n      tag_64\n      jump\t// in\n    tag_92:\n        /* \"#utility.yul\":2181:2244   */\n      swap3\n      pop\n        /* \"#utility.yul\":2136:2254   */\n      pop\n        /* \"#utility.yul\":2293:2295   */\n      0x40\n        /* \"#utility.yul\":2319:2372   */\n      tag_93\n        /* \"#utility.yul\":2364:2371   */\n      dup7\n        /* \"#utility.yul\":2355:2361   */\n      dup3\n        /* \"#utility.yul\":2344:2353   */\n      dup8\n        /* \"#utility.yul\":2340:2362   */\n      add\n        /* \"#utility.yul\":2319:2372   */\n      tag_74\n      jump\t// in\n    tag_93:\n        /* \"#utility.yul\":2309:2372   */\n      swap2\n      pop\n        /* \"#utility.yul\":2264:2382   */\n      pop\n        /* \"#utility.yul\":1590:2389   */\n      swap3\n      pop\n      swap3\n      pop\n      swap3\n      jump\t// out\n        /* \"#utility.yul\":2395:2724   */\n    tag_20:\n        /* \"#utility.yul\":2454:2460   */\n      0x00\n        /* \"#utility.yul\":2503:2505   */\n      0x20\n        /* \"#utility.yul\":2491:2500   */\n      dup3\n        /* \"#utility.yul\":2482:2489   */\n      dup5\n        /* \"#utility.yul\":2478:2501   */\n      sub\n        /* \"#utility.yul\":2474:2506   */\n      slt\n        /* \"#utility.yul\":2471:2590   */\n      iszero\n      tag_95\n      jumpi\n        /* \"#utility.yul\":2509:2588   */\n      tag_96\n      tag_81\n      jump\t// in\n    tag_96:\n        /* \"#utility.yul\":2471:2590   */\n    tag_95:\n        /* \"#utility.yul\":2629:2630   */\n      0x00\n        /* \"#utility.yul\":2654:2707   */\n      tag_97\n        /* \"#utility.yul\":2699:2706   */\n      dup5\n        /* \"#utility.yul\":2690:2696   */\n      dup3\n        /* \"#utility.yul\":2679:2688   */\n      dup6\n        /* \"#utility.yul\":2675:2697   */\n      add\n        /* \"#utility.yul\":2654:2707   */\n      tag_74\n      jump\t// in\n    tag_97:\n        /* \"#utility.yul\":2644:2707   */\n      swap2\n      pop\n        /* \"#utility.yul\":2600:2717   */\n      pop\n        /* \"#utility.yul\":2395:2724   */\n      swap3\n      swap2\n      pop\n      pop\n      jump\t// out\n        /* \"#utility.yul\":2730:2839   */\n    tag_98:\n        /* \"#utility.yul\":2811:2832   */\n      tag_100\n        /* \"#utility.yul\":2826:2831   */\n      dup2\n        /* \"#utility.yul\":2811:2832   */\n      tag_101\n      jump\t// in\n    tag_100:\n        /* \"#utility.yul\":2806:2809   */\n      dup3\n        /* \"#utility.yul\":2799:2833   */\n      mstore\n        /* \"#utility.yul\":2730:2839   */\n      pop\n      pop\n      jump\t// out\n        /* \"#utility.yul\":2845:3209   */\n    tag_102:\n        /* \"#utility.yul\":2933:2936   */\n      0x00\n        /* \"#utility.yul\":2961:3000   */\n      tag_104\n        /* \"#utility.yul\":2994:2999   */\n      dup3\n        /* \"#utility.yul\":2961:3000   */\n      tag_105\n      jump\t// in\n    tag_104:\n        /* \"#utility.yul\":3016:3087   */\n      tag_106\n        /* \"#utility.yul\":3080:3086   */\n      dup2\n        /* \"#utility.yul\":3075:3078   */\n      dup6\n        /* \"#utility.yul\":3016:3087   */\n      tag_107\n      jump\t// in\n    tag_106:\n        /* \"#utility.yul\":3009:3087   */\n      swap4\n      pop\n        /* \"#utility.yul\":3096:3148   */\n      tag_108\n        /* \"#utility.yul\":3141:3147   */\n      dup2\n        /* \"#utility.yul\":3136:3139   */\n      dup6\n        /* \"#utility.yul\":3129:3133   */\n      0x20\n        /* \"#utility.yul\":3122:3127   */\n      dup7\n        /* \"#utility.yul\":3118:3134   */\n      add\n        /* \"#utility.yul\":3096:3148   */\n      tag_109\n      jump\t// in\n    tag_108:\n        /* \"#utility.yul\":3173:3202   */\n      tag_110\n        /* \"#utility.yul\":3195:3201   */\n      dup2\n        /* \"#utility.yul\":3173:3202   */\n      tag_111\n      jump\t// in\n    tag_110:\n        /* \"#utility.yul\":3168:3171   */\n      dup5\n        /* \"#utility.yul\":3164:3203   */\n      add\n        /* \"#utility.yul\":3157:3203   */\n      swap2\n      pop\n        /* \"#utility.yul\":2937:3209   */\n      pop\n        /* \"#utility.yul\":2845:3209   */\n      swap3\n      swap2\n      pop\n      pop\n      jump\t// out\n        /* \"#utility.yul\":3215:3592   */\n    tag_112:\n        /* \"#utility.yul\":3321:3324   */\n      0x00\n        /* \"#utility.yul\":3349:3388   */\n      tag_114\n        /* \"#utility.yul\":3382:3387   */\n      dup3\n        /* \"#utility.yul\":3349:3388   */\n      tag_105\n      jump\t// in\n    tag_114:\n        /* \"#utility.yul\":3404:3493   */\n      tag_115\n        /* \"#utility.yul\":3486:3492   */\n      dup2\n        /* \"#utility.yul\":3481:3484   */\n      dup6\n        /* \"#utility.yul\":3404:3493   */\n      tag_116\n      jump\t// in\n    tag_115:\n        /* \"#utility.yul\":3397:3493   */\n      swap4\n      pop\n        /* \"#utility.yul\":3502:3554   */\n      tag_117\n        /* \"#utility.yul\":3547:3553   */\n      dup2\n        /* \"#utility.yul\":3542:3545   */\n      dup6\n        /* \"#utility.yul\":3535:3539   */\n      0x20\n        /* \"#utility.yul\":3528:3533   */\n      dup7\n        /* \"#utility.yul\":3524:3540   */\n      add\n        /* \"#utility.yul\":3502:3554   */\n      tag_109\n      jump\t// in\n    tag_117:\n        /* \"#utility.yul\":3579:3585   */\n      dup1\n        /* \"#utility.yul\":3574:3577   */\n      dup5\n        /* \"#utility.yul\":3570:3586   */\n      add\n        /* \"#utility.yul\":3563:3586   */\n      swap2\n      pop\n        /* \"#utility.yul\":3325:3592   */\n      pop\n        /* \"#utility.yul\":3215:3592   */\n      swap3\n      swap2\n      pop\n      pop\n      jump\t// out\n        /* \"#utility.yul\":3598:3716   */\n    tag_118:\n        /* \"#utility.yul\":3685:3709   */\n      tag_120\n        /* \"#utility.yul\":3703:3708   */\n      dup2\n        /* \"#utility.yul\":3685:3709   */\n      tag_121\n      jump\t// in\n    tag_120:\n        /* \"#utility.yul\":3680:3683   */\n      dup3\n        /* \"#utility.yul\":3673:3710   */\n      mstore\n        /* \"#utility.yul\":3598:3716   */\n      pop\n      pop\n      jump\t// out\n        /* \"#utility.yul\":3722:3997   */\n    tag_38:\n        /* \"#utility.yul\":3854:3857   */\n      0x00\n        /* \"#utility.yul\":3876:3971   */\n      tag_123\n        /* \"#utility.yul\":3967:3970   */\n      dup3\n        /* \"#utility.yul\":3958:3964   */\n      dup5\n        /* \"#utility.yul\":3876:3971   */\n      tag_112\n      jump\t// in\n    tag_123:\n        /* \"#utility.yul\":3869:3971   */\n      swap2\n      pop\n        /* \"#utility.yul\":3988:3991   */\n      dup2\n        /* \"#utility.yul\":3981:3991   */\n      swap1\n      pop\n        /* \"#utility.yul\":3722:3997   */\n      swap3\n      swap2\n      pop\n      pop\n      jump\t// out\n        /* \"#utility.yul\":4003:4213   */\n    tag_17:\n        /* \"#utility.yul\":4090:4094   */\n      0x00\n        /* \"#utility.yul\":4128:4130   */\n      0x20\n        /* \"#utility.yul\":4117:4126   */\n      dup3\n        /* \"#utility.yul\":4113:4131   */\n      add\n        /* \"#utility.yul\":4105:4131   */\n      swap1\n      pop\n        /* \"#utility.yul\":4141:4206   */\n      tag_125\n        /* \"#utility.yul\":4203:4204   */\n      0x00\n        /* \"#utility.yul\":4192:4201   */\n      dup4\n        /* \"#utility.yul\":4188:4205   */\n      add\n        /* \"#utility.yul\":4179:4185   */\n      dup5\n        /* \"#utility.yul\":4141:4206   */\n      tag_98\n      jump\t// in\n    tag_125:\n        /* \"#utility.yul\":4003:4213   */\n      swap3\n      swap2\n      pop\n      pop\n      jump\t// out\n        /* \"#utility.yul\":4219:4532   */\n    tag_23:\n        /* \"#utility.yul\":4332:4336   */\n      0x00\n        /* \"#utility.yul\":4370:4372   */\n      0x20\n        /* \"#utility.yul\":4359:4368   */\n      dup3\n        /* \"#utility.yul\":4355:4373   */\n      add\n        /* \"#utility.yul\":4347:4373   */\n      swap1\n      pop\n        /* \"#utility.yul\":4419:4428   */\n      dup2\n        /* \"#utility.yul\":4413:4417   */\n      dup2\n        /* \"#utility.yul\":4409:4429   */\n      sub\n        /* \"#utility.yul\":4405:4406   */\n      0x00\n        /* \"#utility.yul\":4394:4403   */\n      dup4\n        /* \"#utility.yul\":4390:4407   */\n      add\n        /* \"#utility.yul\":4383:4430   */\n      mstore\n        /* \"#utility.yul\":4447:4525   */\n      tag_127\n        /* \"#utility.yul\":4520:4524   */\n      dup2\n        /* \"#utility.yul\":4511:4517   */\n      dup5\n        /* \"#utility.yul\":4447:4525   */\n      tag_102\n      jump\t// in\n    tag_127:\n        /* \"#utility.yul\":4439:4525   */\n      swap1\n      pop\n        /* \"#utility.yul\":4219:4532   */\n      swap3\n      swap2\n      pop\n      pop\n      jump\t// out\n        /* \"#utility.yul\":4538:5162   */\n    tag_11:\n        /* \"#utility.yul\":4727:4731   */\n      0x00\n        /* \"#utility.yul\":4765:4767   */\n      0x60\n        /* \"#utility.yul\":4754:4763   */\n      dup3\n        /* \"#utility.yul\":4750:4768   */\n      add\n        /* \"#utility.yul\":4742:4768   */\n      swap1\n      pop\n        /* \"#utility.yul\":4814:4823   */\n      dup2\n        /* \"#utility.yul\":4808:4812   */\n      dup2\n        /* \"#utility.yul\":4804:4824   */\n      sub\n        /* \"#utility.yul\":4800:4801   */\n      0x00\n        /* \"#utility.yul\":4789:4798   */\n      dup4\n        /* \"#utility.yul\":4785:4802   */\n      add\n        /* \"#utility.yul\":4778:4825   */\n      mstore\n        /* \"#utility.yul\":4842:4920   */\n      tag_129\n        /* \"#utility.yul\":4915:4919   */\n      dup2\n        /* \"#utility.yul\":4906:4912   */\n      dup7\n        /* \"#utility.yul\":4842:4920   */\n      tag_102\n      jump\t// in\n    tag_129:\n        /* \"#utility.yul\":4834:4920   */\n      swap1\n      pop\n        /* \"#utility.yul\":4967:4976   */\n      dup2\n        /* \"#utility.yul\":4961:4965   */\n      dup2\n        /* \"#utility.yul\":4957:4977   */\n      sub\n        /* \"#utility.yul\":4952:4954   */\n      0x20\n        /* \"#utility.yul\":4941:4950   */\n      dup4\n        /* \"#utility.yul\":4937:4955   */\n      add\n        /* \"#utility.yul\":4930:4978   */\n      mstore\n        /* \"#utility.yul\":4995:5073   */\n      tag_130\n        /* \"#utility.yul\":5068:5072   */\n      dup2\n        /* \"#utility.yul\":5059:5065   */\n      dup6\n        /* \"#utility.yul\":4995:5073   */\n      tag_102\n      jump\t// in\n    tag_130:\n        /* \"#utility.yul\":4987:5073   */\n      swap1\n      pop\n        /* \"#utility.yul\":5083:5155   */\n      tag_131\n        /* \"#utility.yul\":5151:5153   */\n      0x40\n        /* \"#utility.yul\":5140:5149   */\n      dup4\n        /* \"#utility.yul\":5136:5154   */\n      add\n        /* \"#utility.yul\":5127:5133   */\n      dup5\n        /* \"#utility.yul\":5083:5155   */\n      tag_118\n      jump\t// in\n    tag_131:\n        /* \"#utility.yul\":4538:5162   */\n      swap5\n      swap4\n      pop\n      pop\n      pop\n      pop\n      jump\t// out\n        /* \"#utility.yul\":5168:5297   */\n    tag_58:\n        /* \"#utility.yul\":5202:5208   */\n      0x00\n        /* \"#utility.yul\":5229:5249   */\n      tag_133\n      tag_134\n      jump\t// in\n    tag_133:\n        /* \"#utility.yul\":5219:5249   */\n      swap1\n      pop\n        /* \"#utility.yul\":5258:5291   */\n      tag_135\n        /* \"#utility.yul\":5286:5290   */\n      dup3\n        /* \"#utility.yul\":5278:5284   */\n      dup3\n        /* \"#utility.yul\":5258:5291   */\n      tag_136\n      jump\t// in\n    tag_135:\n        /* \"#utility.yul\":5168:5297   */\n      swap2\n      swap1\n      pop\n      jump\t// out\n        /* \"#utility.yul\":5303:5378   */\n    tag_134:\n        /* \"#utility.yul\":5336:5342   */\n      0x00\n        /* \"#utility.yul\":5369:5371   */\n      0x40\n        /* \"#utility.yul\":5363:5372   */\n      mload\n        /* \"#utility.yul\":5353:5372   */\n      swap1\n      pop\n        /* \"#utility.yul\":5303:5378   */\n      swap1\n      jump\t// out\n        /* \"#utility.yul\":5384:5692   */\n    tag_57:\n        /* \"#utility.yul\":5446:5450   */\n      0x00\n        /* \"#utility.yul\":5536:5554   */\n      0xffffffffffffffff\n        /* \"#utility.yul\":5528:5534   */\n      dup3\n        /* \"#utility.yul\":5525:5555   */\n      gt\n        /* \"#utility.yul\":5522:5578   */\n      iszero\n      tag_139\n      jumpi\n        /* \"#utility.yul\":5558:5576   */\n      tag_140\n      tag_141\n      jump\t// in\n    tag_140:\n        /* \"#utility.yul\":5522:5578   */\n    tag_139:\n        /* \"#utility.yul\":5596:5625   */\n      tag_142\n        /* \"#utility.yul\":5618:5624   */\n      dup3\n        /* \"#utility.yul\":5596:5625   */\n      tag_111\n      jump\t// in\n    tag_142:\n        /* \"#utility.yul\":5588:5625   */\n      swap1\n      pop\n        /* \"#utility.yul\":5680:5684   */\n      0x20\n        /* \"#utility.yul\":5674:5678   */\n      dup2\n        /* \"#utility.yul\":5670:5685   */\n      add\n        /* \"#utility.yul\":5662:5685   */\n      swap1\n      pop\n        /* \"#utility.yul\":5384:5692   */\n      swap2\n      swap1\n      pop\n      jump\t// out\n        /* \"#utility.yul\":5698:5797   */\n    tag_105:\n        /* \"#utility.yul\":5750:5756   */\n      0x00\n        /* \"#utility.yul\":5784:5789   */\n      dup2\n        /* \"#utility.yul\":5778:5790   */\n      mload\n        /* \"#utility.yul\":5768:5790   */\n      swap1\n      pop\n        /* \"#utility.yul\":5698:5797   */\n      swap2\n      swap1\n      pop\n      jump\t// out\n        /* \"#utility.yul\":5803:5972   */\n    tag_107:\n        /* \"#utility.yul\":5887:5898   */\n      0x00\n        /* \"#utility.yul\":5921:5927   */\n      dup3\n        /* \"#utility.yul\":5916:5919   */\n      dup3\n        /* \"#utility.yul\":5909:5928   */\n      mstore\n        /* \"#utility.yul\":5961:5965   */\n      0x20\n        /* \"#utility.yul\":5956:5959   */\n      dup3\n        /* \"#utility.yul\":5952:5966   */\n      add\n        /* \"#utility.yul\":5937:5966   */\n      swap1\n      pop\n        /* \"#utility.yul\":5803:5972   */\n      swap3\n      swap2\n      pop\n      pop\n      jump\t// out\n        /* \"#utility.yul\":5978:6126   */\n    tag_116:\n        /* \"#utility.yul\":6080:6091   */\n      0x00\n        /* \"#utility.yul\":6117:6120   */\n      dup2\n        /* \"#utility.yul\":6102:6120   */\n      swap1\n      pop\n        /* \"#utility.yul\":5978:6126   */\n      swap3\n      swap2\n      pop\n      pop\n      jump\t// out\n        /* \"#utility.yul\":6132:6228   */\n    tag_146:\n        /* \"#utility.yul\":6169:6176   */\n      0x00\n        /* \"#utility.yul\":6198:6222   */\n      tag_148\n        /* \"#utility.yul\":6216:6221   */\n      dup3\n        /* \"#utility.yul\":6198:6222   */\n      tag_149\n      jump\t// in\n    tag_148:\n        /* \"#utility.yul\":6187:6222   */\n      swap1\n      pop\n        /* \"#utility.yul\":6132:6228   */\n      swap2\n      swap1\n      pop\n      jump\t// out\n        /* \"#utility.yul\":6234:6324   */\n    tag_101:\n        /* \"#utility.yul\":6268:6275   */\n      0x00\n        /* \"#utility.yul\":6311:6316   */\n      dup2\n        /* \"#utility.yul\":6304:6317   */\n      iszero\n        /* \"#utility.yul\":6297:6318   */\n      iszero\n        /* \"#utility.yul\":6286:6318   */\n      swap1\n      pop\n        /* \"#utility.yul\":6234:6324   */\n      swap2\n      swap1\n      pop\n      jump\t// out\n        /* \"#utility.yul\":6330:6456   */\n    tag_149:\n        /* \"#utility.yul\":6367:6374   */\n      0x00\n        /* \"#utility.yul\":6407:6449   */\n      0xffffffffffffffffffffffffffffffffffffffff\n        /* \"#utility.yul\":6400:6405   */\n      dup3\n        /* \"#utility.yul\":6396:6450   */\n      and\n        /* \"#utility.yul\":6385:6450   */\n      swap1\n      pop\n        /* \"#utility.yul\":6330:6456   */\n      swap2\n      swap1\n      pop\n      jump\t// out\n        /* \"#utility.yul\":6462:6539   */\n    tag_121:\n        /* \"#utility.yul\":6499:6506   */\n      0x00\n        /* \"#utility.yul\":6528:6533   */\n      dup2\n        /* \"#utility.yul\":6517:6533   */\n      swap1\n      pop\n        /* \"#utility.yul\":6462:6539   */\n      swap2\n      swap1\n      pop\n      jump\t// out\n        /* \"#utility.yul\":6545:6699   */\n    tag_63:\n        /* \"#utility.yul\":6629:6635   */\n      dup3\n        /* \"#utility.yul\":6624:6627   */\n      dup2\n        /* \"#utility.yul\":6619:6622   */\n      dup4\n        /* \"#utility.yul\":6606:6636   */\n      calldatacopy\n        /* \"#utility.yul\":6691:6692   */\n      0x00\n        /* \"#utility.yul\":6682:6688   */\n      dup4\n        /* \"#utility.yul\":6677:6680   */\n      dup4\n        /* \"#utility.yul\":6673:6689   */\n      add\n        /* \"#utility.yul\":6666:6693   */\n      mstore\n        /* \"#utility.yul\":6545:6699   */\n      pop\n      pop\n      pop\n      jump\t// out\n        /* \"#utility.yul\":6705:7012   */\n    tag_109:\n        /* \"#utility.yul\":6773:6774   */\n      0x00\n        /* \"#utility.yul\":6783:6896   */\n    tag_155:\n        /* \"#utility.yul\":6797:6803   */\n      dup4\n        /* \"#utility.yul\":6794:6795   */\n      dup2\n        /* \"#utility.yul\":6791:6804   */\n      lt\n        /* \"#utility.yul\":6783:6896   */\n      iszero\n      tag_157\n      jumpi\n        /* \"#utility.yul\":6882:6883   */\n      dup1\n        /* \"#utility.yul\":6877:6880   */\n      dup3\n        /* \"#utility.yul\":6873:6884   */\n      add\n        /* \"#utility.yul\":6867:6885   */\n      mload\n        /* \"#utility.yul\":6863:6864   */\n      dup2\n        /* \"#utility.yul\":6858:6861   */\n      dup5\n        /* \"#utility.yul\":6854:6865   */\n      add\n        /* \"#utility.yul\":6847:6886   */\n      mstore\n        /* \"#utility.yul\":6819:6821   */\n      0x20\n        /* \"#utility.yul\":6816:6817   */\n      dup2\n        /* \"#utility.yul\":6812:6822   */\n      add\n        /* \"#utility.yul\":6807:6822   */\n      swap1\n      pop\n        /* \"#utility.yul\":6783:6896   */\n      jump(tag_155)\n    tag_157:\n        /* \"#utility.yul\":6914:6920   */\n      dup4\n        /* \"#utility.yul\":6911:6912   */\n      dup2\n        /* \"#utility.yul\":6908:6921   */\n      gt\n        /* \"#utility.yul\":6905:7006   */\n      iszero\n      tag_158\n      jumpi\n        /* \"#utility.yul\":6994:6995   */\n      0x00\n        /* \"#utility.yul\":6985:6991   */\n      dup5\n        /* \"#utility.yul\":6980:6983   */\n      dup5\n        /* \"#utility.yul\":6976:6992   */\n      add\n        /* \"#utility.yul\":6969:6996   */\n      mstore\n        /* \"#utility.yul\":6905:7006   */\n    tag_158:\n        /* \"#utility.yul\":6754:7012   */\n      pop\n        /* \"#utility.yul\":6705:7012   */\n      pop\n      pop\n      pop\n      jump\t// out\n        /* \"#utility.yul\":7018:7338   */\n    tag_25:\n        /* \"#utility.yul\":7062:7068   */\n      0x00\n        /* \"#utility.yul\":7099:7100   */\n      0x02\n        /* \"#utility.yul\":7093:7097   */\n      dup3\n        /* \"#utility.yul\":7089:7101   */\n      div\n        /* \"#utility.yul\":7079:7101   */\n      swap1\n      pop\n        /* \"#utility.yul\":7146:7147   */\n      0x01\n        /* \"#utility.yul\":7140:7144   */\n      dup3\n        /* \"#utility.yul\":7136:7148   */\n      and\n        /* \"#utility.yul\":7167:7185   */\n      dup1\n        /* \"#utility.yul\":7157:7238   */\n      tag_160\n      jumpi\n        /* \"#utility.yul\":7223:7227   */\n      0x7f\n        /* \"#utility.yul\":7215:7221   */\n      dup3\n        /* \"#utility.yul\":7211:7228   */\n      and\n        /* \"#utility.yul\":7201:7228   */\n      swap2\n      pop\n        /* \"#utility.yul\":7157:7238   */\n    tag_160:\n        /* \"#utility.yul\":7285:7287   */\n      0x20\n        /* \"#utility.yul\":7277:7283   */\n      dup3\n        /* \"#utility.yul\":7274:7288   */\n      lt\n        /* \"#utility.yul\":7254:7272   */\n      dup2\n        /* \"#utility.yul\":7251:7289   */\n      eq\n        /* \"#utility.yul\":7248:7332   */\n      iszero\n      tag_161\n      jumpi\n        /* \"#utility.yul\":7304:7322   */\n      tag_162\n      tag_163\n      jump\t// in\n    tag_162:\n        /* \"#utility.yul\":7248:7332   */\n    tag_161:\n        /* \"#utility.yul\":7069:7338   */\n      pop\n        /* \"#utility.yul\":7018:7338   */\n      swap2\n      swap1\n      pop\n      jump\t// out\n        /* \"#utility.yul\":7344:7625   */\n    tag_136:\n        /* \"#utility.yul\":7427:7454   */\n      tag_165\n        /* \"#utility.yul\":7449:7453   */\n      dup3\n        /* \"#utility.yul\":7427:7454   */\n      tag_111\n      jump\t// in\n    tag_165:\n        /* \"#utility.yul\":7419:7425   */\n      dup2\n        /* \"#utility.yul\":7415:7455   */\n      add\n        /* \"#utility.yul\":7557:7563   */\n      dup2\n        /* \"#utility.yul\":7545:7555   */\n      dup2\n        /* \"#utility.yul\":7542:7564   */\n      lt\n        /* \"#utility.yul\":7521:7539   */\n      0xffffffffffffffff\n        /* \"#utility.yul\":7509:7519   */\n      dup3\n        /* \"#utility.yul\":7506:7540   */\n      gt\n        /* \"#utility.yul\":7503:7565   */\n      or\n        /* \"#utility.yul\":7500:7588   */\n      iszero\n      tag_166\n      jumpi\n        /* \"#utility.yul\":7568:7586   */\n      tag_167\n      tag_141\n      jump\t// in\n    tag_167:\n        /* \"#utility.yul\":7500:7588   */\n    tag_166:\n        /* \"#utility.yul\":7608:7618   */\n      dup1\n        /* \"#utility.yul\":7604:7606   */\n      0x40\n        /* \"#utility.yul\":7597:7619   */\n      mstore\n        /* \"#utility.yul\":7387:7625   */\n      pop\n        /* \"#utility.yul\":7344:7625   */\n      pop\n      pop\n      jump\t// out\n        /* \"#utility.yul\":7631:7811   */\n    tag_163:\n        /* \"#utility.yul\":7679:7756   */\n      0x4e487b7100000000000000000000000000000000000000000000000000000000\n        /* \"#utility.yul\":7676:7677   */\n      0x00\n        /* \"#utility.yul\":7669:7757   */\n      mstore\n        /* \"#utility.yul\":7776:7780   */\n      0x22\n        /* \"#utility.yul\":7773:7774   */\n      0x04\n        /* \"#utility.yul\":7766:7781   */\n      mstore\n        /* \"#utility.yul\":7800:7804   */\n      0x24\n        /* \"#utility.yul\":7797:7798   */\n      0x00\n        /* \"#utility.yul\":7790:7805   */\n      revert\n        /* \"#utility.yul\":7817:7997   */\n    tag_141:\n        /* \"#utility.yul\":7865:7942   */\n      0x4e487b7100000000000000000000000000000000000000000000000000000000\n        /* \"#utility.yul\":7862:7863   */\n      0x00\n        /* \"#utility.yul\":7855:7943   */\n      mstore\n        /* \"#utility.yul\":7962:7966   */\n      0x41\n        /* \"#utility.yul\":7959:7960   */\n      0x04\n        /* \"#utility.yul\":7952:7967   */\n      mstore\n        /* \"#utility.yul\":7986:7990   */\n      0x24\n        /* \"#utility.yul\":7983:7984   */\n      0x00\n        /* \"#utility.yul\":7976:7991   */\n      revert\n        /* \"#utility.yul\":8003:8120   */\n    tag_72:\n        /* \"#utility.yul\":8112:8113   */\n      0x00\n        /* \"#utility.yul\":8109:8110   */\n      dup1\n        /* \"#utility.yul\":8102:8114   */\n      revert\n        /* \"#utility.yul\":8126:8243   */\n    tag_61:\n        /* \"#utility.yul\":8235:8236   */\n      0x00\n        /* \"#utility.yul\":8232:8233   */\n      dup1\n        /* \"#utility.yul\":8225:8237   */\n      revert\n        /* \"#utility.yul\":8249:8366   */\n    tag_84:\n        /* \"#utility.yul\":8358:8359   */\n      0x00\n        /* \"#utility.yul\":8355:8356   */\n      dup1\n        /* \"#utility.yul\":8348:8360   */\n      revert\n        /* \"#utility.yul\":8372:8489   */\n    tag_81:\n        /* \"#utility.yul\":8481:8482   */\n      0x00\n        /* \"#utility.yul\":8478:8479   */\n      dup1\n        /* \"#utility.yul\":8471:8483   */\n      revert\n        /* \"#utility.yul\":8495:8597   */\n    tag_111:\n        /* \"#utility.yul\":8536:8542   */\n      0x00\n        /* \"#utility.yul\":8587:8589   */\n      0x1f\n        /* \"#utility.yul\":8583:8590   */\n      not\n        /* \"#utility.yul\":8578:8580   */\n      0x1f\n        /* \"#utility.yul\":8571:8576   */\n      dup4\n        /* \"#utility.yul\":8567:8581   */\n      add\n        /* \"#utility.yul\":8563:8591   */\n      and\n        /* \"#utility.yul\":8553:8591   */\n      swap1\n      pop\n        /* \"#utility.yul\":8495:8597   */\n      swap2\n      swap1\n      pop\n      jump\t// out\n        /* \"#utility.yul\":8603:8725   */\n    tag_67:\n        /* \"#utility.yul\":8676:8700   */\n      tag_176\n        /* \"#utility.yul\":8694:8699   */\n      dup2\n        /* \"#utility.yul\":8676:8700   */\n      tag_146\n      jump\t// in\n    tag_176:\n        /* \"#utility.yul\":8669:8674   */\n      dup2\n        /* \"#utility.yul\":8666:8701   */\n      eq\n        /* \"#utility.yul\":8656:8719   */\n      tag_177\n      jumpi\n        /* \"#utility.yul\":8715:8716   */\n      0x00\n        /* \"#utility.yul\":8712:8713   */\n      dup1\n        /* \"#utility.yul\":8705:8717   */\n      revert\n        /* \"#utility.yul\":8656:8719   */\n    tag_177:\n        /* \"#utility.yul\":8603:8725   */\n      pop\n      jump\t// out\n        /* \"#utility.yul\":8731:8853   */\n    tag_77:\n        /* \"#utility.yul\":8804:8828   */\n      tag_179\n        /* \"#utility.yul\":8822:8827   */\n      dup2\n        /* \"#utility.yul\":8804:8828   */\n      tag_121\n      jump\t// in\n    tag_179:\n        /* \"#utility.yul\":8797:8802   */\n      dup2\n        /* \"#utility.yul\":8794:8829   */\n      eq\n        /* \"#utility.yul\":8784:8847   */\n      tag_180\n      jumpi\n        /* \"#utility.yul\":8843:8844   */\n      0x00\n        /* \"#utility.yul\":8840:8841   */\n      dup1\n        /* \"#utility.yul\":8833:8845   */\n      revert\n        /* \"#utility.yul\":8784:8847   */\n    tag_180:\n        /* \"#utility.yul\":8731:8853   */\n      pop\n      jump\t// out\n\n    auxdata: 0xa264697066735822122027a42d717cb804c14e06cd0be00edbfab6a3e2c5b7b2b3e58e175d8977f74da964736f6c63430008070033\n}\n",
				"bytecode": {
					"linkReferences": {},
					"object": "608060405234801561001057600080fd5b506108c0806100206000396000f3fe608060405234801561001057600080fd5b50600436106100415760003560e01c80634bb6b1e6146100465780639df16320146100785780639e77a49a146100a8575b600080fd5b610060600480360381019061005b9190610469565b6100d8565b60405161006f9392919061062a565b60405180910390f35b610092600480360381019061008d91906104b2565b610228565b60405161009f91906105ed565b60405180910390f35b6100c260048036038101906100bd9190610521565b610323565b6040516100cf9190610608565b60405180910390f35b60008180516020810182018051848252602083016020850120818352809550505050505060009150905080600001805461011190610776565b80601f016020809104026020016040519081016040528092919081815260200182805461013d90610776565b801561018a5780601f1061015f5761010080835404028352916020019161018a565b820191906000526020600020905b81548152906001019060200180831161016d57829003601f168201915b50505050509080600101805461019f90610776565b80601f01602080910402602001604051908101604052809291908181526020018280546101cb90610776565b80156102185780601f106101ed57610100808354040283529160200191610218565b820191906000526020600020905b8154815290600101906020018083116101fb57829003601f168201915b5050505050908060030154905083565b6000600182141561031b57600160008560405161024591906105d6565b9081526020016040518091039020600301541415610266576001905061031c565b6000808560405161027791906105d6565b9081526020016040518091039020600301541415610298576000905061031c565b6000846040516102a891906105d6565b9081526020016040518091039020600201839080600181540180825580915050600190039060005260206000200160009091909190916101000a81548173ffffffffffffffffffffffffffffffffffffffff021916908373ffffffffffffffffffffffffffffffffffffffff1602179055505b5b9392505050565b6001818154811061033357600080fd5b90600052602060002001600091509050805461034e90610776565b80601f016020809104026020016040519081016040528092919081815260200182805461037a90610776565b80156103c75780601f1061039c576101008083540402835291602001916103c7565b820191906000526020600020905b8154815290600101906020018083116103aa57829003601f168201915b505050505081565b60006103e26103dd84610694565b61066f565b9050828152602081018484840111156103fe576103fd61083c565b5b610409848285610734565b509392505050565b6000813590506104208161085c565b92915050565b600082601f83011261043b5761043a610837565b5b813561044b8482602086016103cf565b91505092915050565b60008135905061046381610873565b92915050565b60006020828403121561047f5761047e610846565b5b600082013567ffffffffffffffff81111561049d5761049c610841565b5b6104a984828501610426565b91505092915050565b6000806000606084860312156104cb576104ca610846565b5b600084013567ffffffffffffffff8111156104e9576104e8610841565b5b6104f586828701610426565b935050602061050686828701610411565b925050604061051786828701610454565b9150509250925092565b60006020828403121561053757610536610846565b5b600061054584828501610454565b91505092915050565b610557816106fe565b82525050565b6000610568826106c5565b61057281856106d0565b9350610582818560208601610743565b61058b8161084b565b840191505092915050565b60006105a1826106c5565b6105ab81856106e1565b93506105bb818560208601610743565b80840191505092915050565b6105d08161072a565b82525050565b60006105e28284610596565b915081905092915050565b6000602082019050610602600083018461054e565b92915050565b60006020820190508181036000830152610622818461055d565b905092915050565b60006060820190508181036000830152610644818661055d565b90508181036020830152610658818561055d565b905061066760408301846105c7565b949350505050565b600061067961068a565b905061068582826107a8565b919050565b6000604051905090565b600067ffffffffffffffff8211156106af576106ae610808565b5b6106b88261084b565b9050602081019050919050565b600081519050919050565b600082825260208201905092915050565b600081905092915050565b60006106f78261070a565b9050919050565b60008115159050919050565b600073ffffffffffffffffffffffffffffffffffffffff82169050919050565b6000819050919050565b82818337600083830152505050565b60005b83811015610761578082015181840152602081019050610746565b83811115610770576000848401525b50505050565b6000600282049050600182168061078e57607f821691505b602082108114156107a2576107a16107d9565b5b50919050565b6107b18261084b565b810181811067ffffffffffffffff821117156107d0576107cf610808565b5b80604052505050565b7f4e487b7100000000000000000000000000000000000000000000000000000000600052602260045260246000fd5b7f4e487b7100000000000000000000000000000000000000000000000000000000600052604160045260246000fd5b600080fd5b600080fd5b600080fd5b600080fd5b6000601f19601f8301169050919050565b610865816106ec565b811461087057600080fd5b50565b61087c8161072a565b811461088757600080fd5b5056fea264697066735822122027a42d717cb804c14e06cd0be00edbfab6a3e2c5b7b2b3e58e175d8977f74da964736f6c63430008070033",
					"opcodes": "PUSH1 0x80 PUSH1 0x40 MSTORE CALLVALUE DUP1 ISZERO PUSH2 0x10 JUMPI PUSH1 0x0 DUP1 REVERT JUMPDEST POP PUSH2 0x8C0 DUP1 PUSH2 0x20 PUSH1 0x0 CODECOPY PUSH1 0x0 RETURN INVALID PUSH1 0x80 PUSH1 0x40 MSTORE CALLVALUE DUP1 ISZERO PUSH2 0x10 JUMPI PUSH1 0x0 DUP1 REVERT JUMPDEST POP PUSH1 0x4 CALLDATASIZE LT PUSH2 0x41 JUMPI PUSH1 0x0 CALLDATALOAD PUSH1 0xE0 SHR DUP1 PUSH4 0x4BB6B1E6 EQ PUSH2 0x46 JUMPI DUP1 PUSH4 0x9DF16320 EQ PUSH2 0x78 JUMPI DUP1 PUSH4 0x9E77A49A EQ PUSH2 0xA8 JUMPI JUMPDEST PUSH1 0x0 DUP1 REVERT JUMPDEST PUSH2 0x60 PUSH1 0x4 DUP1 CALLDATASIZE SUB DUP2 ADD SWAP1 PUSH2 0x5B SWAP2 SWAP1 PUSH2 0x469 JUMP JUMPDEST PUSH2 0xD8 JUMP JUMPDEST PUSH1 0x40 MLOAD PUSH2 0x6F SWAP4 SWAP3 SWAP2 SWAP1 PUSH2 0x62A JUMP JUMPDEST PUSH1 0x40 MLOAD DUP1 SWAP2 SUB SWAP1 RETURN JUMPDEST PUSH2 0x92 PUSH1 0x4 DUP1 CALLDATASIZE SUB DUP2 ADD SWAP1 PUSH2 0x8D SWAP2 SWAP1 PUSH2 0x4B2 JUMP JUMPDEST PUSH2 0x228 JUMP JUMPDEST PUSH1 0x40 MLOAD PUSH2 0x9F SWAP2 SWAP1 PUSH2 0x5ED JUMP JUMPDEST PUSH1 0x40 MLOAD DUP1 SWAP2 SUB SWAP1 RETURN JUMPDEST PUSH2 0xC2 PUSH1 0x4 DUP1 CALLDATASIZE SUB DUP2 ADD SWAP1 PUSH2 0xBD SWAP2 SWAP1 PUSH2 0x521 JUMP JUMPDEST PUSH2 0x323 JUMP JUMPDEST PUSH1 0x40 MLOAD PUSH2 0xCF SWAP2 SWAP1 PUSH2 0x608 JUMP JUMPDEST PUSH1 0x40 MLOAD DUP1 SWAP2 SUB SWAP1 RETURN JUMPDEST PUSH1 0x0 DUP2 DUP1 MLOAD PUSH1 0x20 DUP2 ADD DUP3 ADD DUP1 MLOAD DUP5 DUP3 MSTORE PUSH1 0x20 DUP4 ADD PUSH1 0x20 DUP6 ADD KECCAK256 DUP2 DUP4 MSTORE DUP1 SWAP6 POP POP POP POP POP POP PUSH1 0x0 SWAP2 POP SWAP1 POP DUP1 PUSH1 0x0 ADD DUP1 SLOAD PUSH2 0x111 SWAP1 PUSH2 0x776 JUMP JUMPDEST DUP1 PUSH1 0x1F ADD PUSH1 0x20 DUP1 SWAP2 DIV MUL PUSH1 0x20 ADD PUSH1 0x40 MLOAD SWAP1 DUP2 ADD PUSH1 0x40 MSTORE DUP1 SWAP3 SWAP2 SWAP1 DUP2 DUP2 MSTORE PUSH1 0x20 ADD DUP3 DUP1 SLOAD PUSH2 0x13D SWAP1 PUSH2 0x776 JUMP JUMPDEST DUP1 ISZERO PUSH2 0x18A JUMPI DUP1 PUSH1 0x1F LT PUSH2 0x15F JUMPI PUSH2 0x100 DUP1 DUP4 SLOAD DIV MUL DUP4 MSTORE SWAP2 PUSH1 0x20 ADD SWAP2 PUSH2 0x18A JUMP JUMPDEST DUP3 ADD SWAP2 SWAP1 PUSH1 0x0 MSTORE PUSH1 0x20 PUSH1 0x0 KECCAK256 SWAP1 JUMPDEST DUP2 SLOAD DUP2 MSTORE SWAP1 PUSH1 0x1 ADD SWAP1 PUSH1 0x20 ADD DUP1 DUP4 GT PUSH2 0x16D JUMPI DUP3 SWAP1 SUB PUSH1 0x1F AND DUP3 ADD SWAP2 JUMPDEST POP POP POP POP POP SWAP1 DUP1 PUSH1 0x1 ADD DUP1 SLOAD PUSH2 0x19F SWAP1 PUSH2 0x776 JUMP JUMPDEST DUP1 PUSH1 0x1F ADD PUSH1 0x20 DUP1 SWAP2 DIV MUL PUSH1 0x20 ADD PUSH1 0x40 MLOAD SWAP1 DUP2 ADD PUSH1 0x40 MSTORE DUP1 SWAP3 SWAP2 SWAP1 DUP2 DUP2 MSTORE PUSH1 0x20 ADD DUP3 DUP1 SLOAD PUSH2 0x1CB SWAP1 PUSH2 0x776 JUMP JUMPDEST DUP1 ISZERO PUSH2 0x218 JUMPI DUP1 PUSH1 0x1F LT PUSH2 0x1ED JUMPI PUSH2 0x100 DUP1 DUP4 SLOAD DIV MUL DUP4 MSTORE SWAP2 PUSH1 0x20 ADD SWAP2 PUSH2 0x218 JUMP JUMPDEST DUP3 ADD SWAP2 SWAP1 PUSH1 0x0 MSTORE PUSH1 0x20 PUSH1 0x0 KECCAK256 SWAP1 JUMPDEST DUP2 SLOAD DUP2 MSTORE SWAP1 PUSH1 0x1 ADD SWAP1 PUSH1 0x20 ADD DUP1 DUP4 GT PUSH2 0x1FB JUMPI DUP3 SWAP1 SUB PUSH1 0x1F AND DUP3 ADD SWAP2 JUMPDEST POP POP POP POP POP SWAP1 DUP1 PUSH1 0x3 ADD SLOAD SWAP1 POP DUP4 JUMP JUMPDEST PUSH1 0x0 PUSH1 0x1 DUP3 EQ ISZERO PUSH2 0x31B JUMPI PUSH1 0x1 PUSH1 0x0 DUP6 PUSH1 0x40 MLOAD PUSH2 0x245 SWAP2 SWAP1 PUSH2 0x5D6 JUMP JUMPDEST SWAP1 DUP2 MSTORE PUSH1 0x20 ADD PUSH1 0x40 MLOAD DUP1 SWAP2 SUB SWAP1 KECCAK256 PUSH1 0x3 ADD SLOAD EQ ISZERO PUSH2 0x266 JUMPI PUSH1 0x1 SWAP1 POP PUSH2 0x31C JUMP JUMPDEST PUSH1 0x0 DUP1 DUP6 PUSH1 0x40 MLOAD PUSH2 0x277 SWAP2 SWAP1 PUSH2 0x5D6 JUMP JUMPDEST SWAP1 DUP2 MSTORE PUSH1 0x20 ADD PUSH1 0x40 MLOAD DUP1 SWAP2 SUB SWAP1 KECCAK256 PUSH1 0x3 ADD SLOAD EQ ISZERO PUSH2 0x298 JUMPI PUSH1 0x0 SWAP1 POP PUSH2 0x31C JUMP JUMPDEST PUSH1 0x0 DUP5 PUSH1 0x40 MLOAD PUSH2 0x2A8 SWAP2 SWAP1 PUSH2 0x5D6 JUMP JUMPDEST SWAP1 DUP2 MSTORE PUSH1 0x20 ADD PUSH1 0x40 MLOAD DUP1 SWAP2 SUB SWAP1 KECCAK256 PUSH1 0x2 ADD DUP4 SWAP1 DUP1 PUSH1 0x1 DUP2 SLOAD ADD DUP1 DUP3 SSTORE DUP1 SWAP2 POP POP PUSH1 0x1 SWAP1 SUB SWAP1 PUSH1 0x0 MSTORE PUSH1 0x20 PUSH1 0x0 KECCAK256 ADD PUSH1 0x0 SWAP1 SWAP2 SWAP1 SWAP2 SWAP1 SWAP2 PUSH2 0x100 EXP DUP2 SLOAD DUP2 PUSH20 0xFFFFFFFFFFFFFFFFFFFFFFFFFFFFFFFFFFFFFFFF MUL NOT AND SWAP1 DUP4 PUSH20 0xFFFFFFFFFFFFFFFFFFFFFFFFFFFFFFFFFFFFFFFF AND MUL OR SWAP1 SSTORE POP JUMPDEST JUMPDEST SWAP4 SWAP3 POP POP POP JUMP JUMPDEST PUSH1 0x1 DUP2 DUP2 SLOAD DUP2 LT PUSH2 0x333 JUMPI PUSH1 0x0 DUP1 REVERT JUMPDEST SWAP1 PUSH1 0x0 MSTORE PUSH1 0x20 PUSH1 0x0 KECCAK256 ADD PUSH1 0x0 SWAP2 POP SWAP1 POP DUP1 SLOAD PUSH2 0x34E SWAP1 PUSH2 0x776 JUMP JUMPDEST DUP1 PUSH1 0x1F ADD PUSH1 0x20 DUP1 SWAP2 DIV MUL PUSH1 0x20 ADD PUSH1 0x40 MLOAD SWAP1 DUP2 ADD PUSH1 0x40 MSTORE DUP1 SWAP3 SWAP2 SWAP1 DUP2 DUP2 MSTORE PUSH1 0x20 ADD DUP3 DUP1 SLOAD PUSH2 0x37A SWAP1 PUSH2 0x776 JUMP JUMPDEST DUP1 ISZERO PUSH2 0x3C7 JUMPI DUP1 PUSH1 0x1F LT PUSH2 0x39C JUMPI PUSH2 0x100 DUP1 DUP4 SLOAD DIV MUL DUP4 MSTORE SWAP2 PUSH1 0x20 ADD SWAP2 PUSH2 0x3C7 JUMP JUMPDEST DUP3 ADD SWAP2 SWAP1 PUSH1 0x0 MSTORE PUSH1 0x20 PUSH1 0x0 KECCAK256 SWAP1 JUMPDEST DUP2 SLOAD DUP2 MSTORE SWAP1 PUSH1 0x1 ADD SWAP1 PUSH1 0x20 ADD DUP1 DUP4 GT PUSH2 0x3AA JUMPI DUP3 SWAP1 SUB PUSH1 0x1F AND DUP3 ADD SWAP2 JUMPDEST POP POP POP POP POP DUP2 JUMP JUMPDEST PUSH1 0x0 PUSH2 0x3E2 PUSH2 0x3DD DUP5 PUSH2 0x694 JUMP JUMPDEST PUSH2 0x66F JUMP JUMPDEST SWAP1 POP DUP3 DUP2 MSTORE PUSH1 0x20 DUP2 ADD DUP5 DUP5 DUP5 ADD GT ISZERO PUSH2 0x3FE JUMPI PUSH2 0x3FD PUSH2 0x83C JUMP JUMPDEST JUMPDEST PUSH2 0x409 DUP5 DUP3 DUP6 PUSH2 0x734 JUMP JUMPDEST POP SWAP4 SWAP3 POP POP POP JUMP JUMPDEST PUSH1 0x0 DUP2 CALLDATALOAD SWAP1 POP PUSH2 0x420 DUP2 PUSH2 0x85C JUMP JUMPDEST SWAP3 SWAP2 POP POP JUMP JUMPDEST PUSH1 0x0 DUP3 PUSH1 0x1F DUP4 ADD SLT PUSH2 0x43B JUMPI PUSH2 0x43A PUSH2 0x837 JUMP JUMPDEST JUMPDEST DUP2 CALLDATALOAD PUSH2 0x44B DUP5 DUP3 PUSH1 0x20 DUP7 ADD PUSH2 0x3CF JUMP JUMPDEST SWAP2 POP POP SWAP3 SWAP2 POP POP JUMP JUMPDEST PUSH1 0x0 DUP2 CALLDATALOAD SWAP1 POP PUSH2 0x463 DUP2 PUSH2 0x873 JUMP JUMPDEST SWAP3 SWAP2 POP POP JUMP JUMPDEST PUSH1 0x0 PUSH1 0x20 DUP3 DUP5 SUB SLT ISZERO PUSH2 0x47F JUMPI PUSH2 0x47E PUSH2 0x846 JUMP JUMPDEST JUMPDEST PUSH1 0x0 DUP3 ADD CALLDATALOAD PUSH8 0xFFFFFFFFFFFFFFFF DUP2 GT ISZERO PUSH2 0x49D JUMPI PUSH2 0x49C PUSH2 0x841 JUMP JUMPDEST JUMPDEST PUSH2 0x4A9 DUP5 DUP3 DUP6 ADD PUSH2 0x426 JUMP JUMPDEST SWAP2 POP POP SWAP3 SWAP2 POP POP JUMP JUMPDEST PUSH1 0x0 DUP1 PUSH1 0x0 PUSH1 0x60 DUP5 DUP7 SUB SLT ISZERO PUSH2 0x4CB JUMPI PUSH2 0x4CA PUSH2 0x846 JUMP JUMPDEST JUMPDEST PUSH1 0x0 DUP5 ADD CALLDATALOAD PUSH8 0xFFFFFFFFFFFFFFFF DUP2 GT ISZERO PUSH2 0x4E9 JUMPI PUSH2 0x4E8 PUSH2 0x841 JUMP JUMPDEST JUMPDEST PUSH2 0x4F5 DUP7 DUP3 DUP8 ADD PUSH2 0x426 JUMP JUMPDEST SWAP4 POP POP PUSH1 0x20 PUSH2 0x506 DUP7 DUP3 DUP8 ADD PUSH2 0x411 JUMP JUMPDEST SWAP3 POP POP PUSH1 0x40 PUSH2 0x517 DUP7 DUP3 DUP8 ADD PUSH2 0x454 JUMP JUMPDEST SWAP2 POP POP SWAP3 POP SWAP3 POP SWAP3 JUMP JUMPDEST PUSH1 0x0 PUSH1 0x20 DUP3 DUP5 SUB SLT ISZERO PUSH2 0x537 JUMPI PUSH2 0x536 PUSH2 0x846 JUMP JUMPDEST JUMPDEST PUSH1 0x0 PUSH2 0x545 DUP5 DUP3 DUP6 ADD PUSH2 0x454 JUMP JUMPDEST SWAP2 POP POP SWAP3 SWAP2 POP POP JUMP JUMPDEST PUSH2 0x557 DUP2 PUSH2 0x6FE JUMP JUMPDEST DUP3 MSTORE POP POP JUMP JUMPDEST PUSH1 0x0 PUSH2 0x568 DUP3 PUSH2 0x6C5 JUMP JUMPDEST PUSH2 0x572 DUP2 DUP6 PUSH2 0x6D0 JUMP JUMPDEST SWAP4 POP PUSH2 0x582 DUP2 DUP6 PUSH1 0x20 DUP7 ADD PUSH2 0x743 JUMP JUMPDEST PUSH2 0x58B DUP2 PUSH2 0x84B JUMP JUMPDEST DUP5 ADD SWAP2 POP POP SWAP3 SWAP2 POP POP JUMP JUMPDEST PUSH1 0x0 PUSH2 0x5A1 DUP3 PUSH2 0x6C5 JUMP JUMPDEST PUSH2 0x5AB DUP2 DUP6 PUSH2 0x6E1 JUMP JUMPDEST SWAP4 POP PUSH2 0x5BB DUP2 DUP6 PUSH1 0x20 DUP7 ADD PUSH2 0x743 JUMP JUMPDEST DUP1 DUP5 ADD SWAP2 POP POP SWAP3 SWAP2 POP POP JUMP JUMPDEST PUSH2 0x5D0 DUP2 PUSH2 0x72A JUMP JUMPDEST DUP3 MSTORE POP POP JUMP JUMPDEST PUSH1 0x0 PUSH2 0x5E2 DUP3 DUP5 PUSH2 0x596 JUMP JUMPDEST SWAP2 POP DUP2 SWAP1 POP SWAP3 SWAP2 POP POP JUMP JUMPDEST PUSH1 0x0 PUSH1 0x20 DUP3 ADD SWAP1 POP PUSH2 0x602 PUSH1 0x0 DUP4 ADD DUP5 PUSH2 0x54E JUMP JUMPDEST SWAP3 SWAP2 POP POP JUMP JUMPDEST PUSH1 0x0 PUSH1 0x20 DUP3 ADD SWAP1 POP DUP2 DUP2 SUB PUSH1 0x0 DUP4 ADD MSTORE PUSH2 0x622 DUP2 DUP5 PUSH2 0x55D JUMP JUMPDEST SWAP1 POP SWAP3 SWAP2 POP POP JUMP JUMPDEST PUSH1 0x0 PUSH1 0x60 DUP3 ADD SWAP1 POP DUP2 DUP2 SUB PUSH1 0x0 DUP4 ADD MSTORE PUSH2 0x644 DUP2 DUP7 PUSH2 0x55D JUMP JUMPDEST SWAP1 POP DUP2 DUP2 SUB PUSH1 0x20 DUP4 ADD MSTORE PUSH2 0x658 DUP2 DUP6 PUSH2 0x55D JUMP JUMPDEST SWAP1 POP PUSH2 0x667 PUSH1 0x40 DUP4 ADD DUP5 PUSH2 0x5C7 JUMP JUMPDEST SWAP5 SWAP4 POP POP POP POP JUMP JUMPDEST PUSH1 0x0 PUSH2 0x679 PUSH2 0x68A JUMP JUMPDEST SWAP1 POP PUSH2 0x685 DUP3 DUP3 PUSH2 0x7A8 JUMP JUMPDEST SWAP2 SWAP1 POP JUMP JUMPDEST PUSH1 0x0 PUSH1 0x40 MLOAD SWAP1 POP SWAP1 JUMP JUMPDEST PUSH1 0x0 PUSH8 0xFFFFFFFFFFFFFFFF DUP3 GT ISZERO PUSH2 0x6AF JUMPI PUSH2 0x6AE PUSH2 0x808 JUMP JUMPDEST JUMPDEST PUSH2 0x6B8 DUP3 PUSH2 0x84B JUMP JUMPDEST SWAP1 POP PUSH1 0x20 DUP2 ADD SWAP1 POP SWAP2 SWAP1 POP JUMP JUMPDEST PUSH1 0x0 DUP2 MLOAD SWAP1 POP SWAP2 SWAP1 POP JUMP JUMPDEST PUSH1 0x0 DUP3 DUP3 MSTORE PUSH1 0x20 DUP3 ADD SWAP1 POP SWAP3 SWAP2 POP POP JUMP JUMPDEST PUSH1 0x0 DUP2 SWAP1 POP SWAP3 SWAP2 POP POP JUMP JUMPDEST PUSH1 0x0 PUSH2 0x6F7 DUP3 PUSH2 0x70A JUMP JUMPDEST SWAP1 POP SWAP2 SWAP1 POP JUMP JUMPDEST PUSH1 0x0 DUP2 ISZERO ISZERO SWAP1 POP SWAP2 SWAP1 POP JUMP JUMPDEST PUSH1 0x0 PUSH20 0xFFFFFFFFFFFFFFFFFFFFFFFFFFFFFFFFFFFFFFFF DUP3 AND SWAP1 POP SWAP2 SWAP1 POP JUMP JUMPDEST PUSH1 0x0 DUP2 SWAP1 POP SWAP2 SWAP1 POP JUMP JUMPDEST DUP3 DUP2 DUP4 CALLDATACOPY PUSH1 0x0 DUP4 DUP4 ADD MSTORE POP POP POP JUMP JUMPDEST PUSH1 0x0 JUMPDEST DUP4 DUP2 LT ISZERO PUSH2 0x761 JUMPI DUP1 DUP3 ADD MLOAD DUP2 DUP5 ADD MSTORE PUSH1 0x20 DUP2 ADD SWAP1 POP PUSH2 0x746 JUMP JUMPDEST DUP4 DUP2 GT ISZERO PUSH2 0x770 JUMPI PUSH1 0x0 DUP5 DUP5 ADD MSTORE JUMPDEST POP POP POP POP JUMP JUMPDEST PUSH1 0x0 PUSH1 0x2 DUP3 DIV SWAP1 POP PUSH1 0x1 DUP3 AND DUP1 PUSH2 0x78E JUMPI PUSH1 0x7F DUP3 AND SWAP2 POP JUMPDEST PUSH1 0x20 DUP3 LT DUP2 EQ ISZERO PUSH2 0x7A2 JUMPI PUSH2 0x7A1 PUSH2 0x7D9 JUMP JUMPDEST JUMPDEST POP SWAP2 SWAP1 POP JUMP JUMPDEST PUSH2 0x7B1 DUP3 PUSH2 0x84B JUMP JUMPDEST DUP2 ADD DUP2 DUP2 LT PUSH8 0xFFFFFFFFFFFFFFFF DUP3 GT OR ISZERO PUSH2 0x7D0 JUMPI PUSH2 0x7CF PUSH2 0x808 JUMP JUMPDEST JUMPDEST DUP1 PUSH1 0x40 MSTORE POP POP POP JUMP JUMPDEST PUSH32 0x4E487B7100000000000000000000000000000000000000000000000000000000 PUSH1 0x0 MSTORE PUSH1 0x22 PUSH1 0x4 MSTORE PUSH1 0x24 PUSH1 0x0 REVERT JUMPDEST PUSH32 0x4E487B7100000000000000000000000000000000000000000000000000000000 PUSH1 0x0 MSTORE PUSH1 0x41 PUSH1 0x4 MSTORE PUSH1 0x24 PUSH1 0x0 REVERT JUMPDEST PUSH1 0x0 DUP1 REVERT JUMPDEST PUSH1 0x0 DUP1 REVERT JUMPDEST PUSH1 0x0 DUP1 REVERT JUMPDEST PUSH1 0x0 DUP1 REVERT JUMPDEST PUSH1 0x0 PUSH1 0x1F NOT PUSH1 0x1F DUP4 ADD AND SWAP1 POP SWAP2 SWAP1 POP JUMP JUMPDEST PUSH2 0x865 DUP2 PUSH2 0x6EC JUMP JUMPDEST DUP2 EQ PUSH2 0x870 JUMPI PUSH1 0x0 DUP1 REVERT JUMPDEST POP JUMP JUMPDEST PUSH2 0x87C DUP2 PUSH2 0x72A JUMP JUMPDEST DUP2 EQ PUSH2 0x887 JUMPI PUSH1 0x0 DUP1 REVERT JUMPDEST POP JUMP INVALID LOG2 PUSH5 0x6970667358 0x22 SLT KECCAK256 0x27 LOG4 0x2D PUSH18 0x7CB804C14E06CD0BE00EDBFAB6A3E2C5B7B2 0xB3 0xE5 DUP15 OR 0x5D DUP10 PUSH24 0xF74DA964736F6C6343000807003300000000000000000000 "
				},
				"gasEstimates": {
					"creation": {
						"codeDepositCost": "448000",
						"executionCost": "480",
						"totalCost": "448480"
					},
					"external": {
						"RdPermissionHashArray(uint256)": "infinite",
						"RdPermissionMap(string)": "infinite",
						"updateRdPermissions(string,address,uint256)": "infinite"
					}
				},
				"methodIdentifiers": {
					"RdPermissionHashArray(uint256)": "9e77a49a",
					"RdPermissionMap(string)": "4bb6b1e6",
					"updateRdPermissions(string,address,uint256)": "9df16320"
				}
			},
			"storageLayout": {
				"storage": [
					{
						"astId": 151,
						"contract": "contracts/EduID_contract.sol:RPCC",
						"label": "RdPermissionMap",
						"offset": 0,
						"slot": "0",
						"type": "t_mapping(t_string_memory_ptr,t_struct(PermissionInfo)146_storage)"
					},
					{
						"astId": 154,
						"contract": "contracts/EduID_contract.sol:RPCC",
						"label": "RdPermissionHashArray",
						"offset": 0,
						"slot": "1",
						"type": "t_array(t_string_storage)dyn_storage"
					}
				],
				"types": {
					"t_address": {
						"encoding": "inplace",
						"label": "address",
						"numberOfBytes": "20"
					},
					"t_array(t_address)dyn_storage": {
						"base": "t_address",
						"encoding": "dynamic_array",
						"label": "address[]",
						"numberOfBytes": "32"
					},
					"t_array(t_string_storage)dyn_storage": {
						"base": "t_string_storage",
						"encoding": "dynamic_array",
						"label": "string[]",
						"numberOfBytes": "32"
					},
					"t_mapping(t_string_memory_ptr,t_struct(PermissionInfo)146_storage)": {
						"encoding": "mapping",
						"key": "t_string_memory_ptr",
						"label": "mapping(string => struct RPCC.PermissionInfo)",
						"numberOfBytes": "32",
						"value": "t_struct(PermissionInfo)146_storage"
					},
					"t_string_memory_ptr": {
						"encoding": "bytes",
						"label": "string",
						"numberOfBytes": "32"
					},
					"t_string_storage": {
						"encoding": "bytes",
						"label": "string",
						"numberOfBytes": "32"
					},
					"t_struct(PermissionInfo)146_storage": {
						"encoding": "inplace",
						"label": "struct RPCC.PermissionInfo",
						"members": [
							{
								"astId": 138,
								"contract": "contracts/EduID_contract.sol:RPCC",
								"label": "rdId",
								"offset": 0,
								"slot": "0",
								"type": "t_string_storage"
							},
							{
								"astId": 140,
								"contract": "contracts/EduID_contract.sol:RPCC",
								"label": "rdHash",
								"offset": 0,
								"slot": "1",
								"type": "t_string_storage"
							},
							{
								"astId": 143,
								"contract": "contracts/EduID_contract.sol:RPCC",
								"label": "rdPermissions",
								"offset": 0,
								"slot": "2",
								"type": "t_array(t_address)dyn_storage"
							},
							{
								"astId": 145,
								"contract": "contracts/EduID_contract.sol:RPCC",
								"label": "permissionType",
								"offset": 0,
								"slot": "3",
								"type": "t_uint256"
							}
						],
						"numberOfBytes": "128"
					},
					"t_uint256": {
						"encoding": "inplace",
						"label": "uint256",
						"numberOfBytes": "32"
					}
				}
			},
			"userdoc": {
				"kind": "user",
				"methods": {},
				"version": 1
			}
		}
	}
}