{
	"contracts/EduID_contract.sol": {
		"RPCC": {
			"abi": [
				{
					"inputs": [
						{
							"internalType": "uint256",
							"name": "",
							"type": "uint256"
						}
					],
					"name": "RdPermissionHashArray",
					"outputs": [
						{
							"internalType": "string",
							"name": "",
							"type": "string"
						}
					],
					"stateMutability": "view",
					"type": "function"
				},
				{
					"inputs": [
						{
							"internalType": "string",
							"name": "",
							"type": "string"
						}
					],
					"name": "RdPermissionMap",
					"outputs": [
						{
							"internalType": "string",
							"name": "rdId",
							"type": "string"
						},
						{
							"internalType": "string",
							"name": "rdHash",
							"type": "string"
						},
						{
							"internalType": "uint256",
							"name": "permissionType",
							"type": "uint256"
						}
					],
					"stateMutability": "view",
					"type": "function"
				},
				{
					"inputs": [
						{
							"internalType": "string",
							"name": "_rdHash",
							"type": "string"
						},
						{
							"internalType": "address",
							"name": "blockAddress",
							"type": "address"
						},
						{
							"internalType": "uint256",
							"name": "operation",
							"type": "uint256"
						}
					],
					"name": "updateRdPermissions",
					"outputs": [
						{
							"internalType": "bool",
							"name": "",
							"type": "bool"
						}
					],
					"stateMutability": "nonpayable",
					"type": "function"
				}
			],
			"devdoc": {
				"kind": "dev",
				"methods": {},
				"version": 1
			},
			"evm": {
				"assembly": "    /* \"contracts/EduID_contract.sol\":2580:3231  contract RPCC {\r... */\n  mstore(0x40, 0x80)\n  callvalue\n  dup1\n  iszero\n  tag_1\n  jumpi\n  0x00\n  dup1\n  revert\ntag_1:\n  pop\n  dataSize(sub_0)\n  dup1\n  dataOffset(sub_0)\n  0x00\n  codecopy\n  0x00\n  return\nstop\n\nsub_0: assembly {\n        /* \"contracts/EduID_contract.sol\":2580:3231  contract RPCC {\r... */\n      mstore(0x40, 0x80)\n      callvalue\n      dup1\n      iszero\n      tag_1\n      jumpi\n      0x00\n      dup1\n      revert\n    tag_1:\n      pop\n      jumpi(tag_2, lt(calldatasize, 0x04))\n      shr(0xe0, calldataload(0x00))\n      dup1\n      0x4bb6b1e6\n      eq\n      tag_3\n      jumpi\n      dup1\n      0x9df16320\n      eq\n      tag_4\n      jumpi\n      dup1\n      0x9e77a49a\n      eq\n      tag_5\n      jumpi\n    tag_2:\n      0x00\n      dup1\n      revert\n        /* \"contracts/EduID_contract.sol\":2936:2993  mapping (string => PermissionInfo) public RdPermissionMap */\n    tag_3:\n      tag_6\n      0x04\n      dup1\n      calldatasize\n      sub\n      dup2\n      add\n      swap1\n      tag_7\n      swap2\n      swap1\n      tag_8\n      jump\t// in\n    tag_7:\n      tag_9\n      jump\t// in\n    tag_6:\n      mload(0x40)\n      tag_10\n      swap4\n      swap3\n      swap2\n      swap1\n      tag_11\n      jump\t// in\n    tag_10:\n      mload(0x40)\n      dup1\n      swap2\n      sub\n      swap1\n      return\n        /* \"contracts/EduID_contract.sol\":3046:3222  function updateRdPermissions(string memory _rdHash, address blockAddress, uint operation) public returns (bool) {\r... */\n    tag_4:\n      tag_12\n      0x04\n      dup1\n      calldatasize\n      sub\n      dup2\n      add\n      swap1\n      tag_13\n      swap2\n      swap1\n      tag_14\n      jump\t// in\n    tag_13:\n      tag_15\n      jump\t// in\n    tag_12:\n      mload(0x40)\n      tag_16\n      swap2\n      swap1\n      tag_17\n      jump\t// in\n    tag_16:\n      mload(0x40)\n      dup1\n      swap2\n      sub\n      swap1\n      return\n        /* \"contracts/EduID_contract.sol\":3000:3037  string[] public RdPermissionHashArray */\n    tag_5:\n      tag_18\n      0x04\n      dup1\n      calldatasize\n      sub\n      dup2\n      add\n      swap1\n      tag_19\n      swap2\n      swap1\n      tag_20\n      jump\t// in\n    tag_19:\n      tag_21\n      jump\t// in\n    tag_18:\n      mload(0x40)\n      tag_22\n      swap2\n      swap1\n      tag_23\n      jump\t// in\n    tag_22:\n      mload(0x40)\n      dup1\n      swap2\n      sub\n      swap1\n      return\n        /* \"contracts/EduID_contract.sol\":2936:2993  mapping (string => PermissionInfo) public RdPermissionMap */\n    tag_9:\n      0x00\n      dup2\n      dup1\n      mload\n      0x20\n      dup2\n      add\n      dup3\n      add\n      dup1\n      mload\n      dup5\n      dup3\n      mstore\n      0x20\n      dup4\n      add\n      0x20\n      dup6\n      add\n      keccak256\n      dup2\n      dup4\n      mstore\n      dup1\n      swap6\n      pop\n      pop\n      pop\n      pop\n      pop\n      pop\n      0x00\n      swap2\n      pop\n      swap1\n      pop\n      dup1\n      0x00\n      add\n      dup1\n      sload\n      tag_24\n      swap1\n      tag_25\n      jump\t// in\n    tag_24:\n      dup1\n      0x1f\n      add\n      0x20\n      dup1\n      swap2\n      div\n      mul\n      0x20\n      add\n      mload(0x40)\n      swap1\n      dup2\n      add\n      0x40\n      mstore\n      dup1\n      swap3\n      swap2\n      swap1\n      dup2\n      dup2\n      mstore\n      0x20\n      add\n      dup3\n      dup1\n      sload\n      tag_26\n      swap1\n      tag_25\n      jump\t// in\n    tag_26:\n      dup1\n      iszero\n      tag_27\n      jumpi\n      dup1\n      0x1f\n      lt\n      tag_28\n      jumpi\n      0x0100\n      dup1\n      dup4\n      sload\n      div\n      mul\n      dup4\n      mstore\n      swap2\n      0x20\n      add\n      swap2\n      jump(tag_27)\n    tag_28:\n      dup3\n      add\n      swap2\n      swap1\n      0x00\n      mstore\n      keccak256(0x00, 0x20)\n      swap1\n    tag_29:\n      dup2\n      sload\n      dup2\n      mstore\n      swap1\n      0x01\n      add\n      swap1\n      0x20\n      add\n      dup1\n      dup4\n      gt\n      tag_29\n      jumpi\n      dup3\n      swap1\n      sub\n      0x1f\n      and\n      dup3\n      add\n      swap2\n    tag_27:\n      pop\n      pop\n      pop\n      pop\n      pop\n      swap1\n      dup1\n      0x01\n      add\n      dup1\n      sload\n      tag_30\n      swap1\n      tag_25\n      jump\t// in\n    tag_30:\n      dup1\n      0x1f\n      add\n      0x20\n      dup1\n      swap2\n      div\n      mul\n      0x20\n      add\n      mload(0x40)\n      swap1\n      dup2\n      add\n      0x40\n      mstore\n      dup1\n      swap3\n      swap2\n      swap1\n      dup2\n      dup2\n      mstore\n      0x20\n      add\n      dup3\n      dup1\n      sload\n      tag_31\n      swap1\n      tag_25\n      jump\t// in\n    tag_31:\n      dup1\n      iszero\n      tag_32\n      jumpi\n      dup1\n      0x1f\n      lt\n      tag_33\n      jumpi\n      0x0100\n      dup1\n      dup4\n      sload\n      div\n      mul\n      dup4\n      mstore\n      swap2\n      0x20\n      add\n      swap2\n      jump(tag_32)\n    tag_33:\n      dup3\n      add\n      swap2\n      swap1\n      0x00\n      mstore\n      keccak256(0x00, 0x20)\n      swap1\n    tag_34:\n      dup2\n      sload\n      dup2\n      mstore\n      swap1\n      0x01\n      add\n      swap1\n      0x20\n      add\n      dup1\n      dup4\n      gt\n      tag_34\n      jumpi\n      dup3\n      swap1\n      sub\n      0x1f\n      and\n      dup3\n      add\n      swap2\n    tag_32:\n      pop\n      pop\n      pop\n      pop\n      pop\n      swap1\n      dup1\n      0x03\n      add\n      sload\n      swap1\n      pop\n      dup4\n      jump\t// out\n        /* \"contracts/EduID_contract.sol\":3046:3222  function updateRdPermissions(string memory _rdHash, address blockAddress, uint operation) public returns (bool) {\r... */\n    tag_15:\n        /* \"contracts/EduID_contract.sol\":3152:3156  bool */\n      0x00\n        /* \"contracts/EduID_contract.sol\":3046:3222  function updateRdPermissions(string memory _rdHash, address blockAddress, uint operation) public returns (bool) {\r... */\n      swap4\n      swap3\n      pop\n      pop\n      pop\n      jump\t// out\n        /* \"contracts/EduID_contract.sol\":3000:3037  string[] public RdPermissionHashArray */\n    tag_21:\n      0x01\n      dup2\n      dup2\n      sload\n      dup2\n      lt\n      tag_37\n      jumpi\n      0x00\n      dup1\n      revert\n    tag_37:\n      swap1\n      0x00\n      mstore\n      keccak256(0x00, 0x20)\n      add\n      0x00\n      swap2\n      pop\n      swap1\n      pop\n      dup1\n      sload\n      tag_39\n      swap1\n      tag_25\n      jump\t// in\n    tag_39:\n      dup1\n      0x1f\n      add\n      0x20\n      dup1\n      swap2\n      div\n      mul\n      0x20\n      add\n      mload(0x40)\n      swap1\n      dup2\n      add\n      0x40\n      mstore\n      dup1\n      swap3\n      swap2\n      swap1\n      dup2\n      dup2\n      mstore\n      0x20\n      add\n      dup3\n      dup1\n      sload\n      tag_40\n      swap1\n      tag_25\n      jump\t// in\n    tag_40:\n      dup1\n      iszero\n      tag_41\n      jumpi\n      dup1\n      0x1f\n      lt\n      tag_42\n      jumpi\n      0x0100\n      dup1\n      dup4\n      sload\n      div\n      mul\n      dup4\n      mstore\n      swap2\n      0x20\n      add\n      swap2\n      jump(tag_41)\n    tag_42:\n      dup3\n      add\n      swap2\n      swap1\n      0x00\n      mstore\n      keccak256(0x00, 0x20)\n      swap1\n    tag_43:\n      dup2\n      sload\n      dup2\n      mstore\n      swap1\n      0x01\n      add\n      swap1\n      0x20\n      add\n      dup1\n      dup4\n      gt\n      tag_43\n      jumpi\n      dup3\n      swap1\n      sub\n      0x1f\n      and\n      dup3\n      add\n      swap2\n    tag_41:\n      pop\n      pop\n      pop\n      pop\n      pop\n      dup2\n      jump\t// out\n        /* \"#utility.yul\":7:419   */\n    tag_45:\n        /* \"#utility.yul\":85:90   */\n      0x00\n        /* \"#utility.yul\":110:176   */\n      tag_47\n        /* \"#utility.yul\":126:175   */\n      tag_48\n        /* \"#utility.yul\":168:174   */\n      dup5\n        /* \"#utility.yul\":126:175   */\n      tag_49\n      jump\t// in\n    tag_48:\n        /* \"#utility.yul\":110:176   */\n      tag_50\n      jump\t// in\n    tag_47:\n        /* \"#utility.yul\":101:176   */\n      swap1\n      pop\n        /* \"#utility.yul\":199:205   */\n      dup3\n        /* \"#utility.yul\":192:197   */\n      dup2\n        /* \"#utility.yul\":185:206   */\n      mstore\n        /* \"#utility.yul\":237:241   */\n      0x20\n        /* \"#utility.yul\":230:235   */\n      dup2\n        /* \"#utility.yul\":226:242   */\n      add\n        /* \"#utility.yul\":275:278   */\n      dup5\n        /* \"#utility.yul\":266:272   */\n      dup5\n        /* \"#utility.yul\":261:264   */\n      dup5\n        /* \"#utility.yul\":257:273   */\n      add\n        /* \"#utility.yul\":254:279   */\n      gt\n        /* \"#utility.yul\":251:363   */\n      iszero\n      tag_51\n      jumpi\n        /* \"#utility.yul\":282:361   */\n      tag_52\n      tag_53\n      jump\t// in\n    tag_52:\n        /* \"#utility.yul\":251:363   */\n    tag_51:\n        /* \"#utility.yul\":372:413   */\n      tag_54\n        /* \"#utility.yul\":406:412   */\n      dup5\n        /* \"#utility.yul\":401:404   */\n      dup3\n        /* \"#utility.yul\":396:399   */\n      dup6\n        /* \"#utility.yul\":372:413   */\n      tag_55\n      jump\t// in\n    tag_54:\n        /* \"#utility.yul\":91:419   */\n      pop\n        /* \"#utility.yul\":7:419   */\n      swap4\n      swap3\n      pop\n      pop\n      pop\n      jump\t// out\n        /* \"#utility.yul\":425:564   */\n    tag_56:\n        /* \"#utility.yul\":471:476   */\n      0x00\n        /* \"#utility.yul\":509:515   */\n      dup2\n        /* \"#utility.yul\":496:516   */\n      calldataload\n        /* \"#utility.yul\":487:516   */\n      swap1\n      pop\n        /* \"#utility.yul\":525:558   */\n      tag_58\n        /* \"#utility.yul\":552:557   */\n      dup2\n        /* \"#utility.yul\":525:558   */\n      tag_59\n      jump\t// in\n    tag_58:\n        /* \"#utility.yul\":425:564   */\n      swap3\n      swap2\n      pop\n      pop\n      jump\t// out\n        /* \"#utility.yul\":584:924   */\n    tag_60:\n        /* \"#utility.yul\":640:645   */\n      0x00\n        /* \"#utility.yul\":689:692   */\n      dup3\n        /* \"#utility.yul\":682:686   */\n      0x1f\n        /* \"#utility.yul\":674:680   */\n      dup4\n        /* \"#utility.yul\":670:687   */\n      add\n        /* \"#utility.yul\":666:693   */\n      slt\n        /* \"#utility.yul\":656:778   */\n      tag_62\n      jumpi\n        /* \"#utility.yul\":697:776   */\n      tag_63\n      tag_64\n      jump\t// in\n    tag_63:\n        /* \"#utility.yul\":656:778   */\n    tag_62:\n        /* \"#utility.yul\":814:820   */\n      dup2\n        /* \"#utility.yul\":801:821   */\n      calldataload\n        /* \"#utility.yul\":839:918   */\n      tag_65\n        /* \"#utility.yul\":914:917   */\n      dup5\n        /* \"#utility.yul\":906:912   */\n      dup3\n        /* \"#utility.yul\":899:903   */\n      0x20\n        /* \"#utility.yul\":891:897   */\n      dup7\n        /* \"#utility.yul\":887:904   */\n      add\n        /* \"#utility.yul\":839:918   */\n      tag_45\n      jump\t// in\n    tag_65:\n        /* \"#utility.yul\":830:918   */\n      swap2\n      pop\n        /* \"#utility.yul\":646:924   */\n      pop\n        /* \"#utility.yul\":584:924   */\n      swap3\n      swap2\n      pop\n      pop\n      jump\t// out\n        /* \"#utility.yul\":930:1069   */\n    tag_66:\n        /* \"#utility.yul\":976:981   */\n      0x00\n        /* \"#utility.yul\":1014:1020   */\n      dup2\n        /* \"#utility.yul\":1001:1021   */\n      calldataload\n        /* \"#utility.yul\":992:1021   */\n      swap1\n      pop\n        /* \"#utility.yul\":1030:1063   */\n      tag_68\n        /* \"#utility.yul\":1057:1062   */\n      dup2\n        /* \"#utility.yul\":1030:1063   */\n      tag_69\n      jump\t// in\n    tag_68:\n        /* \"#utility.yul\":930:1069   */\n      swap3\n      swap2\n      pop\n      pop\n      jump\t// out\n        /* \"#utility.yul\":1075:1584   */\n    tag_8:\n        /* \"#utility.yul\":1144:1150   */\n      0x00\n        /* \"#utility.yul\":1193:1195   */\n      0x20\n        /* \"#utility.yul\":1181:1190   */\n      dup3\n        /* \"#utility.yul\":1172:1179   */\n      dup5\n        /* \"#utility.yul\":1168:1191   */\n      sub\n        /* \"#utility.yul\":1164:1196   */\n      slt\n        /* \"#utility.yul\":1161:1280   */\n      iszero\n      tag_71\n      jumpi\n        /* \"#utility.yul\":1199:1278   */\n      tag_72\n      tag_73\n      jump\t// in\n    tag_72:\n        /* \"#utility.yul\":1161:1280   */\n    tag_71:\n        /* \"#utility.yul\":1347:1348   */\n      0x00\n        /* \"#utility.yul\":1336:1345   */\n      dup3\n        /* \"#utility.yul\":1332:1349   */\n      add\n        /* \"#utility.yul\":1319:1350   */\n      calldataload\n        /* \"#utility.yul\":1377:1395   */\n      0xffffffffffffffff\n        /* \"#utility.yul\":1369:1375   */\n      dup2\n        /* \"#utility.yul\":1366:1396   */\n      gt\n        /* \"#utility.yul\":1363:1480   */\n      iszero\n      tag_74\n      jumpi\n        /* \"#utility.yul\":1399:1478   */\n      tag_75\n      tag_76\n      jump\t// in\n    tag_75:\n        /* \"#utility.yul\":1363:1480   */\n    tag_74:\n        /* \"#utility.yul\":1504:1567   */\n      tag_77\n        /* \"#utility.yul\":1559:1566   */\n      dup5\n        /* \"#utility.yul\":1550:1556   */\n      dup3\n        /* \"#utility.yul\":1539:1548   */\n      dup6\n        /* \"#utility.yul\":1535:1557   */\n      add\n        /* \"#utility.yul\":1504:1567   */\n      tag_60\n      jump\t// in\n    tag_77:\n        /* \"#utility.yul\":1494:1567   */\n      swap2\n      pop\n        /* \"#utility.yul\":1290:1577   */\n      pop\n        /* \"#utility.yul\":1075:1584   */\n      swap3\n      swap2\n      pop\n      pop\n      jump\t// out\n        /* \"#utility.yul\":1590:2389   */\n    tag_14:\n        /* \"#utility.yul\":1677:1683   */\n      0x00\n        /* \"#utility.yul\":1685:1691   */\n      dup1\n        /* \"#utility.yul\":1693:1699   */\n      0x00\n        /* \"#utility.yul\":1742:1744   */\n      0x60\n        /* \"#utility.yul\":1730:1739   */\n      dup5\n        /* \"#utility.yul\":1721:1728   */\n      dup7\n        /* \"#utility.yul\":1717:1740   */\n      sub\n        /* \"#utility.yul\":1713:1745   */\n      slt\n        /* \"#utility.yul\":1710:1829   */\n      iszero\n      tag_79\n      jumpi\n        /* \"#utility.yul\":1748:1827   */\n      tag_80\n      tag_73\n      jump\t// in\n    tag_80:\n        /* \"#utility.yul\":1710:1829   */\n    tag_79:\n        /* \"#utility.yul\":1896:1897   */\n      0x00\n        /* \"#utility.yul\":1885:1894   */\n      dup5\n        /* \"#utility.yul\":1881:1898   */\n      add\n        /* \"#utility.yul\":1868:1899   */\n      calldataload\n        /* \"#utility.yul\":1926:1944   */\n      0xffffffffffffffff\n        /* \"#utility.yul\":1918:1924   */\n      dup2\n        /* \"#utility.yul\":1915:1945   */\n      gt\n        /* \"#utility.yul\":1912:2029   */\n      iszero\n      tag_81\n      jumpi\n        /* \"#utility.yul\":1948:2027   */\n      tag_82\n      tag_76\n      jump\t// in\n    tag_82:\n        /* \"#utility.yul\":1912:2029   */\n    tag_81:\n        /* \"#utility.yul\":2053:2116   */\n      tag_83\n        /* \"#utility.yul\":2108:2115   */\n      dup7\n        /* \"#utility.yul\":2099:2105   */\n      dup3\n        /* \"#utility.yul\":2088:2097   */\n      dup8\n        /* \"#utility.yul\":2084:2106   */\n      add\n        /* \"#utility.yul\":2053:2116   */\n      tag_60\n      jump\t// in\n    tag_83:\n        /* \"#utility.yul\":2043:2116   */\n      swap4\n      pop\n        /* \"#utility.yul\":1839:2126   */\n      pop\n        /* \"#utility.yul\":2165:2167   */\n      0x20\n        /* \"#utility.yul\":2191:2244   */\n      tag_84\n        /* \"#utility.yul\":2236:2243   */\n      dup7\n        /* \"#utility.yul\":2227:2233   */\n      dup3\n        /* \"#utility.yul\":2216:2225   */\n      dup8\n        /* \"#utility.yul\":2212:2234   */\n      add\n        /* \"#utility.yul\":2191:2244   */\n      tag_56\n      jump\t// in\n    tag_84:\n        /* \"#utility.yul\":2181:2244   */\n      swap3\n      pop\n        /* \"#utility.yul\":2136:2254   */\n      pop\n        /* \"#utility.yul\":2293:2295   */\n      0x40\n        /* \"#utility.yul\":2319:2372   */\n      tag_85\n        /* \"#utility.yul\":2364:2371   */\n      dup7\n        /* \"#utility.yul\":2355:2361   */\n      dup3\n        /* \"#utility.yul\":2344:2353   */\n      dup8\n        /* \"#utility.yul\":2340:2362   */\n      add\n        /* \"#utility.yul\":2319:2372   */\n      tag_66\n      jump\t// in\n    tag_85:\n        /* \"#utility.yul\":2309:2372   */\n      swap2\n      pop\n        /* \"#utility.yul\":2264:2382   */\n      pop\n        /* \"#utility.yul\":1590:2389   */\n      swap3\n      pop\n      swap3\n      pop\n      swap3\n      jump\t// out\n        /* \"#utility.yul\":2395:2724   */\n    tag_20:\n        /* \"#utility.yul\":2454:2460   */\n      0x00\n        /* \"#utility.yul\":2503:2505   */\n      0x20\n        /* \"#utility.yul\":2491:2500   */\n      dup3\n        /* \"#utility.yul\":2482:2489   */\n      dup5\n        /* \"#utility.yul\":2478:2501   */\n      sub\n        /* \"#utility.yul\":2474:2506   */\n      slt\n        /* \"#utility.yul\":2471:2590   */\n      iszero\n      tag_87\n      jumpi\n        /* \"#utility.yul\":2509:2588   */\n      tag_88\n      tag_73\n      jump\t// in\n    tag_88:\n        /* \"#utility.yul\":2471:2590   */\n    tag_87:\n        /* \"#utility.yul\":2629:2630   */\n      0x00\n        /* \"#utility.yul\":2654:2707   */\n      tag_89\n        /* \"#utility.yul\":2699:2706   */\n      dup5\n        /* \"#utility.yul\":2690:2696   */\n      dup3\n        /* \"#utility.yul\":2679:2688   */\n      dup6\n        /* \"#utility.yul\":2675:2697   */\n      add\n        /* \"#utility.yul\":2654:2707   */\n      tag_66\n      jump\t// in\n    tag_89:\n        /* \"#utility.yul\":2644:2707   */\n      swap2\n      pop\n        /* \"#utility.yul\":2600:2717   */\n      pop\n        /* \"#utility.yul\":2395:2724   */\n      swap3\n      swap2\n      pop\n      pop\n      jump\t// out\n        /* \"#utility.yul\":2730:2839   */\n    tag_90:\n        /* \"#utility.yul\":2811:2832   */\n      tag_92\n        /* \"#utility.yul\":2826:2831   */\n      dup2\n        /* \"#utility.yul\":2811:2832   */\n      tag_93\n      jump\t// in\n    tag_92:\n        /* \"#utility.yul\":2806:2809   */\n      dup3\n        /* \"#utility.yul\":2799:2833   */\n      mstore\n        /* \"#utility.yul\":2730:2839   */\n      pop\n      pop\n      jump\t// out\n        /* \"#utility.yul\":2845:3209   */\n    tag_94:\n        /* \"#utility.yul\":2933:2936   */\n      0x00\n        /* \"#utility.yul\":2961:3000   */\n      tag_96\n        /* \"#utility.yul\":2994:2999   */\n      dup3\n        /* \"#utility.yul\":2961:3000   */\n      tag_97\n      jump\t// in\n    tag_96:\n        /* \"#utility.yul\":3016:3087   */\n      tag_98\n        /* \"#utility.yul\":3080:3086   */\n      dup2\n        /* \"#utility.yul\":3075:3078   */\n      dup6\n        /* \"#utility.yul\":3016:3087   */\n      tag_99\n      jump\t// in\n    tag_98:\n        /* \"#utility.yul\":3009:3087   */\n      swap4\n      pop\n        /* \"#utility.yul\":3096:3148   */\n      tag_100\n        /* \"#utility.yul\":3141:3147   */\n      dup2\n        /* \"#utility.yul\":3136:3139   */\n      dup6\n        /* \"#utility.yul\":3129:3133   */\n      0x20\n        /* \"#utility.yul\":3122:3127   */\n      dup7\n        /* \"#utility.yul\":3118:3134   */\n      add\n        /* \"#utility.yul\":3096:3148   */\n      tag_101\n      jump\t// in\n    tag_100:\n        /* \"#utility.yul\":3173:3202   */\n      tag_102\n        /* \"#utility.yul\":3195:3201   */\n      dup2\n        /* \"#utility.yul\":3173:3202   */\n      tag_103\n      jump\t// in\n    tag_102:\n        /* \"#utility.yul\":3168:3171   */\n      dup5\n        /* \"#utility.yul\":3164:3203   */\n      add\n        /* \"#utility.yul\":3157:3203   */\n      swap2\n      pop\n        /* \"#utility.yul\":2937:3209   */\n      pop\n        /* \"#utility.yul\":2845:3209   */\n      swap3\n      swap2\n      pop\n      pop\n      jump\t// out\n        /* \"#utility.yul\":3215:3333   */\n    tag_104:\n        /* \"#utility.yul\":3302:3326   */\n      tag_106\n        /* \"#utility.yul\":3320:3325   */\n      dup2\n        /* \"#utility.yul\":3302:3326   */\n      tag_107\n      jump\t// in\n    tag_106:\n        /* \"#utility.yul\":3297:3300   */\n      dup3\n        /* \"#utility.yul\":3290:3327   */\n      mstore\n        /* \"#utility.yul\":3215:3333   */\n      pop\n      pop\n      jump\t// out\n        /* \"#utility.yul\":3339:3549   */\n    tag_17:\n        /* \"#utility.yul\":3426:3430   */\n      0x00\n        /* \"#utility.yul\":3464:3466   */\n      0x20\n        /* \"#utility.yul\":3453:3462   */\n      dup3\n        /* \"#utility.yul\":3449:3467   */\n      add\n        /* \"#utility.yul\":3441:3467   */\n      swap1\n      pop\n        /* \"#utility.yul\":3477:3542   */\n      tag_109\n        /* \"#utility.yul\":3539:3540   */\n      0x00\n        /* \"#utility.yul\":3528:3537   */\n      dup4\n        /* \"#utility.yul\":3524:3541   */\n      add\n        /* \"#utility.yul\":3515:3521   */\n      dup5\n        /* \"#utility.yul\":3477:3542   */\n      tag_90\n      jump\t// in\n    tag_109:\n        /* \"#utility.yul\":3339:3549   */\n      swap3\n      swap2\n      pop\n      pop\n      jump\t// out\n        /* \"#utility.yul\":3555:3868   */\n    tag_23:\n        /* \"#utility.yul\":3668:3672   */\n      0x00\n        /* \"#utility.yul\":3706:3708   */\n      0x20\n        /* \"#utility.yul\":3695:3704   */\n      dup3\n        /* \"#utility.yul\":3691:3709   */\n      add\n        /* \"#utility.yul\":3683:3709   */\n      swap1\n      pop\n        /* \"#utility.yul\":3755:3764   */\n      dup2\n        /* \"#utility.yul\":3749:3753   */\n      dup2\n        /* \"#utility.yul\":3745:3765   */\n      sub\n        /* \"#utility.yul\":3741:3742   */\n      0x00\n        /* \"#utility.yul\":3730:3739   */\n      dup4\n        /* \"#utility.yul\":3726:3743   */\n      add\n        /* \"#utility.yul\":3719:3766   */\n      mstore\n        /* \"#utility.yul\":3783:3861   */\n      tag_111\n        /* \"#utility.yul\":3856:3860   */\n      dup2\n        /* \"#utility.yul\":3847:3853   */\n      dup5\n        /* \"#utility.yul\":3783:3861   */\n      tag_94\n      jump\t// in\n    tag_111:\n        /* \"#utility.yul\":3775:3861   */\n      swap1\n      pop\n        /* \"#utility.yul\":3555:3868   */\n      swap3\n      swap2\n      pop\n      pop\n      jump\t// out\n        /* \"#utility.yul\":3874:4498   */\n    tag_11:\n        /* \"#utility.yul\":4063:4067   */\n      0x00\n        /* \"#utility.yul\":4101:4103   */\n      0x60\n        /* \"#utility.yul\":4090:4099   */\n      dup3\n        /* \"#utility.yul\":4086:4104   */\n      add\n        /* \"#utility.yul\":4078:4104   */\n      swap1\n      pop\n        /* \"#utility.yul\":4150:4159   */\n      dup2\n        /* \"#utility.yul\":4144:4148   */\n      dup2\n        /* \"#utility.yul\":4140:4160   */\n      sub\n        /* \"#utility.yul\":4136:4137   */\n      0x00\n        /* \"#utility.yul\":4125:4134   */\n      dup4\n        /* \"#utility.yul\":4121:4138   */\n      add\n        /* \"#utility.yul\":4114:4161   */\n      mstore\n        /* \"#utility.yul\":4178:4256   */\n      tag_113\n        /* \"#utility.yul\":4251:4255   */\n      dup2\n        /* \"#utility.yul\":4242:4248   */\n      dup7\n        /* \"#utility.yul\":4178:4256   */\n      tag_94\n      jump\t// in\n    tag_113:\n        /* \"#utility.yul\":4170:4256   */\n      swap1\n      pop\n        /* \"#utility.yul\":4303:4312   */\n      dup2\n        /* \"#utility.yul\":4297:4301   */\n      dup2\n        /* \"#utility.yul\":4293:4313   */\n      sub\n        /* \"#utility.yul\":4288:4290   */\n      0x20\n        /* \"#utility.yul\":4277:4286   */\n      dup4\n        /* \"#utility.yul\":4273:4291   */\n      add\n        /* \"#utility.yul\":4266:4314   */\n      mstore\n        /* \"#utility.yul\":4331:4409   */\n      tag_114\n        /* \"#utility.yul\":4404:4408   */\n      dup2\n        /* \"#utility.yul\":4395:4401   */\n      dup6\n        /* \"#utility.yul\":4331:4409   */\n      tag_94\n      jump\t// in\n    tag_114:\n        /* \"#utility.yul\":4323:4409   */\n      swap1\n      pop\n        /* \"#utility.yul\":4419:4491   */\n      tag_115\n        /* \"#utility.yul\":4487:4489   */\n      0x40\n        /* \"#utility.yul\":4476:4485   */\n      dup4\n        /* \"#utility.yul\":4472:4490   */\n      add\n        /* \"#utility.yul\":4463:4469   */\n      dup5\n        /* \"#utility.yul\":4419:4491   */\n      tag_104\n      jump\t// in\n    tag_115:\n        /* \"#utility.yul\":3874:4498   */\n      swap5\n      swap4\n      pop\n      pop\n      pop\n      pop\n      jump\t// out\n        /* \"#utility.yul\":4504:4633   */\n    tag_50:\n        /* \"#utility.yul\":4538:4544   */\n      0x00\n        /* \"#utility.yul\":4565:4585   */\n      tag_117\n      tag_118\n      jump\t// in\n    tag_117:\n        /* \"#utility.yul\":4555:4585   */\n      swap1\n      pop\n        /* \"#utility.yul\":4594:4627   */\n      tag_119\n        /* \"#utility.yul\":4622:4626   */\n      dup3\n        /* \"#utility.yul\":4614:4620   */\n      dup3\n        /* \"#utility.yul\":4594:4627   */\n      tag_120\n      jump\t// in\n    tag_119:\n        /* \"#utility.yul\":4504:4633   */\n      swap2\n      swap1\n      pop\n      jump\t// out\n        /* \"#utility.yul\":4639:4714   */\n    tag_118:\n        /* \"#utility.yul\":4672:4678   */\n      0x00\n        /* \"#utility.yul\":4705:4707   */\n      0x40\n        /* \"#utility.yul\":4699:4708   */\n      mload\n        /* \"#utility.yul\":4689:4708   */\n      swap1\n      pop\n        /* \"#utility.yul\":4639:4714   */\n      swap1\n      jump\t// out\n        /* \"#utility.yul\":4720:5028   */\n    tag_49:\n        /* \"#utility.yul\":4782:4786   */\n      0x00\n        /* \"#utility.yul\":4872:4890   */\n      0xffffffffffffffff\n        /* \"#utility.yul\":4864:4870   */\n      dup3\n        /* \"#utility.yul\":4861:4891   */\n      gt\n        /* \"#utility.yul\":4858:4914   */\n      iszero\n      tag_123\n      jumpi\n        /* \"#utility.yul\":4894:4912   */\n      tag_124\n      tag_125\n      jump\t// in\n    tag_124:\n        /* \"#utility.yul\":4858:4914   */\n    tag_123:\n        /* \"#utility.yul\":4932:4961   */\n      tag_126\n        /* \"#utility.yul\":4954:4960   */\n      dup3\n        /* \"#utility.yul\":4932:4961   */\n      tag_103\n      jump\t// in\n    tag_126:\n        /* \"#utility.yul\":4924:4961   */\n      swap1\n      pop\n        /* \"#utility.yul\":5016:5020   */\n      0x20\n        /* \"#utility.yul\":5010:5014   */\n      dup2\n        /* \"#utility.yul\":5006:5021   */\n      add\n        /* \"#utility.yul\":4998:5021   */\n      swap1\n      pop\n        /* \"#utility.yul\":4720:5028   */\n      swap2\n      swap1\n      pop\n      jump\t// out\n        /* \"#utility.yul\":5034:5133   */\n    tag_97:\n        /* \"#utility.yul\":5086:5092   */\n      0x00\n        /* \"#utility.yul\":5120:5125   */\n      dup2\n        /* \"#utility.yul\":5114:5126   */\n      mload\n        /* \"#utility.yul\":5104:5126   */\n      swap1\n      pop\n        /* \"#utility.yul\":5034:5133   */\n      swap2\n      swap1\n      pop\n      jump\t// out\n        /* \"#utility.yul\":5139:5308   */\n    tag_99:\n        /* \"#utility.yul\":5223:5234   */\n      0x00\n        /* \"#utility.yul\":5257:5263   */\n      dup3\n        /* \"#utility.yul\":5252:5255   */\n      dup3\n        /* \"#utility.yul\":5245:5264   */\n      mstore\n        /* \"#utility.yul\":5297:5301   */\n      0x20\n        /* \"#utility.yul\":5292:5295   */\n      dup3\n        /* \"#utility.yul\":5288:5302   */\n      add\n        /* \"#utility.yul\":5273:5302   */\n      swap1\n      pop\n        /* \"#utility.yul\":5139:5308   */\n      swap3\n      swap2\n      pop\n      pop\n      jump\t// out\n        /* \"#utility.yul\":5314:5410   */\n    tag_129:\n        /* \"#utility.yul\":5351:5358   */\n      0x00\n        /* \"#utility.yul\":5380:5404   */\n      tag_131\n        /* \"#utility.yul\":5398:5403   */\n      dup3\n        /* \"#utility.yul\":5380:5404   */\n      tag_132\n      jump\t// in\n    tag_131:\n        /* \"#utility.yul\":5369:5404   */\n      swap1\n      pop\n        /* \"#utility.yul\":5314:5410   */\n      swap2\n      swap1\n      pop\n      jump\t// out\n        /* \"#utility.yul\":5416:5506   */\n    tag_93:\n        /* \"#utility.yul\":5450:5457   */\n      0x00\n        /* \"#utility.yul\":5493:5498   */\n      dup2\n        /* \"#utility.yul\":5486:5499   */\n      iszero\n        /* \"#utility.yul\":5479:5500   */\n      iszero\n        /* \"#utility.yul\":5468:5500   */\n      swap1\n      pop\n        /* \"#utility.yul\":5416:5506   */\n      swap2\n      swap1\n      pop\n      jump\t// out\n        /* \"#utility.yul\":5512:5638   */\n    tag_132:\n        /* \"#utility.yul\":5549:5556   */\n      0x00\n        /* \"#utility.yul\":5589:5631   */\n      0xffffffffffffffffffffffffffffffffffffffff\n        /* \"#utility.yul\":5582:5587   */\n      dup3\n        /* \"#utility.yul\":5578:5632   */\n      and\n        /* \"#utility.yul\":5567:5632   */\n      swap1\n      pop\n        /* \"#utility.yul\":5512:5638   */\n      swap2\n      swap1\n      pop\n      jump\t// out\n        /* \"#utility.yul\":5644:5721   */\n    tag_107:\n        /* \"#utility.yul\":5681:5688   */\n      0x00\n        /* \"#utility.yul\":5710:5715   */\n      dup2\n        /* \"#utility.yul\":5699:5715   */\n      swap1\n      pop\n        /* \"#utility.yul\":5644:5721   */\n      swap2\n      swap1\n      pop\n      jump\t// out\n        /* \"#utility.yul\":5727:5881   */\n    tag_55:\n        /* \"#utility.yul\":5811:5817   */\n      dup3\n        /* \"#utility.yul\":5806:5809   */\n      dup2\n        /* \"#utility.yul\":5801:5804   */\n      dup4\n        /* \"#utility.yul\":5788:5818   */\n      calldatacopy\n        /* \"#utility.yul\":5873:5874   */\n      0x00\n        /* \"#utility.yul\":5864:5870   */\n      dup4\n        /* \"#utility.yul\":5859:5862   */\n      dup4\n        /* \"#utility.yul\":5855:5871   */\n      add\n        /* \"#utility.yul\":5848:5875   */\n      mstore\n        /* \"#utility.yul\":5727:5881   */\n      pop\n      pop\n      pop\n      jump\t// out\n        /* \"#utility.yul\":5887:6194   */\n    tag_101:\n        /* \"#utility.yul\":5955:5956   */\n      0x00\n        /* \"#utility.yul\":5965:6078   */\n    tag_138:\n        /* \"#utility.yul\":5979:5985   */\n      dup4\n        /* \"#utility.yul\":5976:5977   */\n      dup2\n        /* \"#utility.yul\":5973:5986   */\n      lt\n        /* \"#utility.yul\":5965:6078   */\n      iszero\n      tag_140\n      jumpi\n        /* \"#utility.yul\":6064:6065   */\n      dup1\n        /* \"#utility.yul\":6059:6062   */\n      dup3\n        /* \"#utility.yul\":6055:6066   */\n      add\n        /* \"#utility.yul\":6049:6067   */\n      mload\n        /* \"#utility.yul\":6045:6046   */\n      dup2\n        /* \"#utility.yul\":6040:6043   */\n      dup5\n        /* \"#utility.yul\":6036:6047   */\n      add\n        /* \"#utility.yul\":6029:6068   */\n      mstore\n        /* \"#utility.yul\":6001:6003   */\n      0x20\n        /* \"#utility.yul\":5998:5999   */\n      dup2\n        /* \"#utility.yul\":5994:6004   */\n      add\n        /* \"#utility.yul\":5989:6004   */\n      swap1\n      pop\n        /* \"#utility.yul\":5965:6078   */\n      jump(tag_138)\n    tag_140:\n        /* \"#utility.yul\":6096:6102   */\n      dup4\n        /* \"#utility.yul\":6093:6094   */\n      dup2\n        /* \"#utility.yul\":6090:6103   */\n      gt\n        /* \"#utility.yul\":6087:6188   */\n      iszero\n      tag_141\n      jumpi\n        /* \"#utility.yul\":6176:6177   */\n      0x00\n        /* \"#utility.yul\":6167:6173   */\n      dup5\n        /* \"#utility.yul\":6162:6165   */\n      dup5\n        /* \"#utility.yul\":6158:6174   */\n      add\n        /* \"#utility.yul\":6151:6178   */\n      mstore\n        /* \"#utility.yul\":6087:6188   */\n    tag_141:\n        /* \"#utility.yul\":5936:6194   */\n      pop\n        /* \"#utility.yul\":5887:6194   */\n      pop\n      pop\n      pop\n      jump\t// out\n        /* \"#utility.yul\":6200:6520   */\n    tag_25:\n        /* \"#utility.yul\":6244:6250   */\n      0x00\n        /* \"#utility.yul\":6281:6282   */\n      0x02\n        /* \"#utility.yul\":6275:6279   */\n      dup3\n        /* \"#utility.yul\":6271:6283   */\n      div\n        /* \"#utility.yul\":6261:6283   */\n      swap1\n      pop\n        /* \"#utility.yul\":6328:6329   */\n      0x01\n        /* \"#utility.yul\":6322:6326   */\n      dup3\n        /* \"#utility.yul\":6318:6330   */\n      and\n        /* \"#utility.yul\":6349:6367   */\n      dup1\n        /* \"#utility.yul\":6339:6420   */\n      tag_143\n      jumpi\n        /* \"#utility.yul\":6405:6409   */\n      0x7f\n        /* \"#utility.yul\":6397:6403   */\n      dup3\n        /* \"#utility.yul\":6393:6410   */\n      and\n        /* \"#utility.yul\":6383:6410   */\n      swap2\n      pop\n        /* \"#utility.yul\":6339:6420   */\n    tag_143:\n        /* \"#utility.yul\":6467:6469   */\n      0x20\n        /* \"#utility.yul\":6459:6465   */\n      dup3\n        /* \"#utility.yul\":6456:6470   */\n      lt\n        /* \"#utility.yul\":6436:6454   */\n      dup2\n        /* \"#utility.yul\":6433:6471   */\n      eq\n        /* \"#utility.yul\":6430:6514   */\n      iszero\n      tag_144\n      jumpi\n        /* \"#utility.yul\":6486:6504   */\n      tag_145\n      tag_146\n      jump\t// in\n    tag_145:\n        /* \"#utility.yul\":6430:6514   */\n    tag_144:\n        /* \"#utility.yul\":6251:6520   */\n      pop\n        /* \"#utility.yul\":6200:6520   */\n      swap2\n      swap1\n      pop\n      jump\t// out\n        /* \"#utility.yul\":6526:6807   */\n    tag_120:\n        /* \"#utility.yul\":6609:6636   */\n      tag_148\n        /* \"#utility.yul\":6631:6635   */\n      dup3\n        /* \"#utility.yul\":6609:6636   */\n      tag_103\n      jump\t// in\n    tag_148:\n        /* \"#utility.yul\":6601:6607   */\n      dup2\n        /* \"#utility.yul\":6597:6637   */\n      add\n        /* \"#utility.yul\":6739:6745   */\n      dup2\n        /* \"#utility.yul\":6727:6737   */\n      dup2\n        /* \"#utility.yul\":6724:6746   */\n      lt\n        /* \"#utility.yul\":6703:6721   */\n      0xffffffffffffffff\n        /* \"#utility.yul\":6691:6701   */\n      dup3\n        /* \"#utility.yul\":6688:6722   */\n      gt\n        /* \"#utility.yul\":6685:6747   */\n      or\n        /* \"#utility.yul\":6682:6770   */\n      iszero\n      tag_149\n      jumpi\n        /* \"#utility.yul\":6750:6768   */\n      tag_150\n      tag_125\n      jump\t// in\n    tag_150:\n        /* \"#utility.yul\":6682:6770   */\n    tag_149:\n        /* \"#utility.yul\":6790:6800   */\n      dup1\n        /* \"#utility.yul\":6786:6788   */\n      0x40\n        /* \"#utility.yul\":6779:6801   */\n      mstore\n        /* \"#utility.yul\":6569:6807   */\n      pop\n        /* \"#utility.yul\":6526:6807   */\n      pop\n      pop\n      jump\t// out\n        /* \"#utility.yul\":6813:6993   */\n    tag_146:\n        /* \"#utility.yul\":6861:6938   */\n      0x4e487b7100000000000000000000000000000000000000000000000000000000\n        /* \"#utility.yul\":6858:6859   */\n      0x00\n        /* \"#utility.yul\":6851:6939   */\n      mstore\n        /* \"#utility.yul\":6958:6962   */\n      0x22\n        /* \"#utility.yul\":6955:6956   */\n      0x04\n        /* \"#utility.yul\":6948:6963   */\n      mstore\n        /* \"#utility.yul\":6982:6986   */\n      0x24\n        /* \"#utility.yul\":6979:6980   */\n      0x00\n        /* \"#utility.yul\":6972:6987   */\n      revert\n        /* \"#utility.yul\":6999:7179   */\n    tag_125:\n        /* \"#utility.yul\":7047:7124   */\n      0x4e487b7100000000000000000000000000000000000000000000000000000000\n        /* \"#utility.yul\":7044:7045   */\n      0x00\n        /* \"#utility.yul\":7037:7125   */\n      mstore\n        /* \"#utility.yul\":7144:7148   */\n      0x41\n        /* \"#utility.yul\":7141:7142   */\n      0x04\n        /* \"#utility.yul\":7134:7149   */\n      mstore\n        /* \"#utility.yul\":7168:7172   */\n      0x24\n        /* \"#utility.yul\":7165:7166   */\n      0x00\n        /* \"#utility.yul\":7158:7173   */\n      revert\n        /* \"#utility.yul\":7185:7302   */\n    tag_64:\n        /* \"#utility.yul\":7294:7295   */\n      0x00\n        /* \"#utility.yul\":7291:7292   */\n      dup1\n        /* \"#utility.yul\":7284:7296   */\n      revert\n        /* \"#utility.yul\":7308:7425   */\n    tag_53:\n        /* \"#utility.yul\":7417:7418   */\n      0x00\n        /* \"#utility.yul\":7414:7415   */\n      dup1\n        /* \"#utility.yul\":7407:7419   */\n      revert\n        /* \"#utility.yul\":7431:7548   */\n    tag_76:\n        /* \"#utility.yul\":7540:7541   */\n      0x00\n        /* \"#utility.yul\":7537:7538   */\n      dup1\n        /* \"#utility.yul\":7530:7542   */\n      revert\n        /* \"#utility.yul\":7554:7671   */\n    tag_73:\n        /* \"#utility.yul\":7663:7664   */\n      0x00\n        /* \"#utility.yul\":7660:7661   */\n      dup1\n        /* \"#utility.yul\":7653:7665   */\n      revert\n        /* \"#utility.yul\":7677:7779   */\n    tag_103:\n        /* \"#utility.yul\":7718:7724   */\n      0x00\n        /* \"#utility.yul\":7769:7771   */\n      0x1f\n        /* \"#utility.yul\":7765:7772   */\n      not\n        /* \"#utility.yul\":7760:7762   */\n      0x1f\n        /* \"#utility.yul\":7753:7758   */\n      dup4\n        /* \"#utility.yul\":7749:7763   */\n      add\n        /* \"#utility.yul\":7745:7773   */\n      and\n        /* \"#utility.yul\":7735:7773   */\n      swap1\n      pop\n        /* \"#utility.yul\":7677:7779   */\n      swap2\n      swap1\n      pop\n      jump\t// out\n        /* \"#utility.yul\":7785:7907   */\n    tag_59:\n        /* \"#utility.yul\":7858:7882   */\n      tag_159\n        /* \"#utility.yul\":7876:7881   */\n      dup2\n        /* \"#utility.yul\":7858:7882   */\n      tag_129\n      jump\t// in\n    tag_159:\n        /* \"#utility.yul\":7851:7856   */\n      dup2\n        /* \"#utility.yul\":7848:7883   */\n      eq\n        /* \"#utility.yul\":7838:7901   */\n      tag_160\n      jumpi\n        /* \"#utility.yul\":7897:7898   */\n      0x00\n        /* \"#utility.yul\":7894:7895   */\n      dup1\n        /* \"#utility.yul\":7887:7899   */\n      revert\n        /* \"#utility.yul\":7838:7901   */\n    tag_160:\n        /* \"#utility.yul\":7785:7907   */\n      pop\n      jump\t// out\n        /* \"#utility.yul\":7913:8035   */\n    tag_69:\n        /* \"#utility.yul\":7986:8010   */\n      tag_162\n        /* \"#utility.yul\":8004:8009   */\n      dup2\n        /* \"#utility.yul\":7986:8010   */\n      tag_107\n      jump\t// in\n    tag_162:\n        /* \"#utility.yul\":7979:7984   */\n      dup2\n        /* \"#utility.yul\":7976:8011   */\n      eq\n        /* \"#utility.yul\":7966:8029   */\n      tag_163\n      jumpi\n        /* \"#utility.yul\":8025:8026   */\n      0x00\n        /* \"#utility.yul\":8022:8023   */\n      dup1\n        /* \"#utility.yul\":8015:8027   */\n      revert\n        /* \"#utility.yul\":7966:8029   */\n    tag_163:\n        /* \"#utility.yul\":7913:8035   */\n      pop\n      jump\t// out\n\n    auxdata: 0xa2646970667358221220875b46ad501e239612a386a704f98ba8c09a0f7970c64a57b5ceb41ac1caf00464736f6c63430008070033\n}\n",
				"bytecode": {
					"linkReferences": {},
					"object": "608060405234801561001057600080fd5b5061077b806100206000396000f3fe608060405234801561001057600080fd5b50600436106100415760003560e01c80634bb6b1e6146100465780639df16320146100785780639e77a49a146100a8575b600080fd5b610060600480360381019061005b9190610377565b6100d8565b60405161006f939291906104f0565b60405180910390f35b610092600480360381019061008d91906103c0565b610228565b60405161009f91906104b3565b60405180910390f35b6100c260048036038101906100bd919061042f565b610231565b6040516100cf91906104ce565b60405180910390f35b60008180516020810182018051848252602083016020850120818352809550505050505060009150905080600001805461011190610631565b80601f016020809104026020016040519081016040528092919081815260200182805461013d90610631565b801561018a5780601f1061015f5761010080835404028352916020019161018a565b820191906000526020600020905b81548152906001019060200180831161016d57829003601f168201915b50505050509080600101805461019f90610631565b80601f01602080910402602001604051908101604052809291908181526020018280546101cb90610631565b80156102185780601f106101ed57610100808354040283529160200191610218565b820191906000526020600020905b8154815290600101906020018083116101fb57829003601f168201915b5050505050908060030154905083565b60009392505050565b6001818154811061024157600080fd5b90600052602060002001600091509050805461025c90610631565b80601f016020809104026020016040519081016040528092919081815260200182805461028890610631565b80156102d55780601f106102aa576101008083540402835291602001916102d5565b820191906000526020600020905b8154815290600101906020018083116102b857829003601f168201915b505050505081565b60006102f06102eb8461055a565b610535565b90508281526020810184848401111561030c5761030b6106f7565b5b6103178482856105ef565b509392505050565b60008135905061032e81610717565b92915050565b600082601f830112610349576103486106f2565b5b81356103598482602086016102dd565b91505092915050565b6000813590506103718161072e565b92915050565b60006020828403121561038d5761038c610701565b5b600082013567ffffffffffffffff8111156103ab576103aa6106fc565b5b6103b784828501610334565b91505092915050565b6000806000606084860312156103d9576103d8610701565b5b600084013567ffffffffffffffff8111156103f7576103f66106fc565b5b61040386828701610334565b93505060206104148682870161031f565b925050604061042586828701610362565b9150509250925092565b60006020828403121561044557610444610701565b5b600061045384828501610362565b91505092915050565b610465816105b9565b82525050565b60006104768261058b565b6104808185610596565b93506104908185602086016105fe565b61049981610706565b840191505092915050565b6104ad816105e5565b82525050565b60006020820190506104c8600083018461045c565b92915050565b600060208201905081810360008301526104e8818461046b565b905092915050565b6000606082019050818103600083015261050a818661046b565b9050818103602083015261051e818561046b565b905061052d60408301846104a4565b949350505050565b600061053f610550565b905061054b8282610663565b919050565b6000604051905090565b600067ffffffffffffffff821115610575576105746106c3565b5b61057e82610706565b9050602081019050919050565b600081519050919050565b600082825260208201905092915050565b60006105b2826105c5565b9050919050565b60008115159050919050565b600073ffffffffffffffffffffffffffffffffffffffff82169050919050565b6000819050919050565b82818337600083830152505050565b60005b8381101561061c578082015181840152602081019050610601565b8381111561062b576000848401525b50505050565b6000600282049050600182168061064957607f821691505b6020821081141561065d5761065c610694565b5b50919050565b61066c82610706565b810181811067ffffffffffffffff8211171561068b5761068a6106c3565b5b80604052505050565b7f4e487b7100000000000000000000000000000000000000000000000000000000600052602260045260246000fd5b7f4e487b7100000000000000000000000000000000000000000000000000000000600052604160045260246000fd5b600080fd5b600080fd5b600080fd5b600080fd5b6000601f19601f8301169050919050565b610720816105a7565b811461072b57600080fd5b50565b610737816105e5565b811461074257600080fd5b5056fea2646970667358221220875b46ad501e239612a386a704f98ba8c09a0f7970c64a57b5ceb41ac1caf00464736f6c63430008070033",
					"opcodes": "PUSH1 0x80 PUSH1 0x40 MSTORE CALLVALUE DUP1 ISZERO PUSH2 0x10 JUMPI PUSH1 0x0 DUP1 REVERT JUMPDEST POP PUSH2 0x77B DUP1 PUSH2 0x20 PUSH1 0x0 CODECOPY PUSH1 0x0 RETURN INVALID PUSH1 0x80 PUSH1 0x40 MSTORE CALLVALUE DUP1 ISZERO PUSH2 0x10 JUMPI PUSH1 0x0 DUP1 REVERT JUMPDEST POP PUSH1 0x4 CALLDATASIZE LT PUSH2 0x41 JUMPI PUSH1 0x0 CALLDATALOAD PUSH1 0xE0 SHR DUP1 PUSH4 0x4BB6B1E6 EQ PUSH2 0x46 JUMPI DUP1 PUSH4 0x9DF16320 EQ PUSH2 0x78 JUMPI DUP1 PUSH4 0x9E77A49A EQ PUSH2 0xA8 JUMPI JUMPDEST PUSH1 0x0 DUP1 REVERT JUMPDEST PUSH2 0x60 PUSH1 0x4 DUP1 CALLDATASIZE SUB DUP2 ADD SWAP1 PUSH2 0x5B SWAP2 SWAP1 PUSH2 0x377 JUMP JUMPDEST PUSH2 0xD8 JUMP JUMPDEST PUSH1 0x40 MLOAD PUSH2 0x6F SWAP4 SWAP3 SWAP2 SWAP1 PUSH2 0x4F0 JUMP JUMPDEST PUSH1 0x40 MLOAD DUP1 SWAP2 SUB SWAP1 RETURN JUMPDEST PUSH2 0x92 PUSH1 0x4 DUP1 CALLDATASIZE SUB DUP2 ADD SWAP1 PUSH2 0x8D SWAP2 SWAP1 PUSH2 0x3C0 JUMP JUMPDEST PUSH2 0x228 JUMP JUMPDEST PUSH1 0x40 MLOAD PUSH2 0x9F SWAP2 SWAP1 PUSH2 0x4B3 JUMP JUMPDEST PUSH1 0x40 MLOAD DUP1 SWAP2 SUB SWAP1 RETURN JUMPDEST PUSH2 0xC2 PUSH1 0x4 DUP1 CALLDATASIZE SUB DUP2 ADD SWAP1 PUSH2 0xBD SWAP2 SWAP1 PUSH2 0x42F JUMP JUMPDEST PUSH2 0x231 JUMP JUMPDEST PUSH1 0x40 MLOAD PUSH2 0xCF SWAP2 SWAP1 PUSH2 0x4CE JUMP JUMPDEST PUSH1 0x40 MLOAD DUP1 SWAP2 SUB SWAP1 RETURN JUMPDEST PUSH1 0x0 DUP2 DUP1 MLOAD PUSH1 0x20 DUP2 ADD DUP3 ADD DUP1 MLOAD DUP5 DUP3 MSTORE PUSH1 0x20 DUP4 ADD PUSH1 0x20 DUP6 ADD KECCAK256 DUP2 DUP4 MSTORE DUP1 SWAP6 POP POP POP POP POP POP PUSH1 0x0 SWAP2 POP SWAP1 POP DUP1 PUSH1 0x0 ADD DUP1 SLOAD PUSH2 0x111 SWAP1 PUSH2 0x631 JUMP JUMPDEST DUP1 PUSH1 0x1F ADD PUSH1 0x20 DUP1 SWAP2 DIV MUL PUSH1 0x20 ADD PUSH1 0x40 MLOAD SWAP1 DUP2 ADD PUSH1 0x40 MSTORE DUP1 SWAP3 SWAP2 SWAP1 DUP2 DUP2 MSTORE PUSH1 0x20 ADD DUP3 DUP1 SLOAD PUSH2 0x13D SWAP1 PUSH2 0x631 JUMP JUMPDEST DUP1 ISZERO PUSH2 0x18A JUMPI DUP1 PUSH1 0x1F LT PUSH2 0x15F JUMPI PUSH2 0x100 DUP1 DUP4 SLOAD DIV MUL DUP4 MSTORE SWAP2 PUSH1 0x20 ADD SWAP2 PUSH2 0x18A JUMP JUMPDEST DUP3 ADD SWAP2 SWAP1 PUSH1 0x0 MSTORE PUSH1 0x20 PUSH1 0x0 KECCAK256 SWAP1 JUMPDEST DUP2 SLOAD DUP2 MSTORE SWAP1 PUSH1 0x1 ADD SWAP1 PUSH1 0x20 ADD DUP1 DUP4 GT PUSH2 0x16D JUMPI DUP3 SWAP1 SUB PUSH1 0x1F AND DUP3 ADD SWAP2 JUMPDEST POP POP POP POP POP SWAP1 DUP1 PUSH1 0x1 ADD DUP1 SLOAD PUSH2 0x19F SWAP1 PUSH2 0x631 JUMP JUMPDEST DUP1 PUSH1 0x1F ADD PUSH1 0x20 DUP1 SWAP2 DIV MUL PUSH1 0x20 ADD PUSH1 0x40 MLOAD SWAP1 DUP2 ADD PUSH1 0x40 MSTORE DUP1 SWAP3 SWAP2 SWAP1 DUP2 DUP2 MSTORE PUSH1 0x20 ADD DUP3 DUP1 SLOAD PUSH2 0x1CB SWAP1 PUSH2 0x631 JUMP JUMPDEST DUP1 ISZERO PUSH2 0x218 JUMPI DUP1 PUSH1 0x1F LT PUSH2 0x1ED JUMPI PUSH2 0x100 DUP1 DUP4 SLOAD DIV MUL DUP4 MSTORE SWAP2 PUSH1 0x20 ADD SWAP2 PUSH2 0x218 JUMP JUMPDEST DUP3 ADD SWAP2 SWAP1 PUSH1 0x0 MSTORE PUSH1 0x20 PUSH1 0x0 KECCAK256 SWAP1 JUMPDEST DUP2 SLOAD DUP2 MSTORE SWAP1 PUSH1 0x1 ADD SWAP1 PUSH1 0x20 ADD DUP1 DUP4 GT PUSH2 0x1FB JUMPI DUP3 SWAP1 SUB PUSH1 0x1F AND DUP3 ADD SWAP2 JUMPDEST POP POP POP POP POP SWAP1 DUP1 PUSH1 0x3 ADD SLOAD SWAP1 POP DUP4 JUMP JUMPDEST PUSH1 0x0 SWAP4 SWAP3 POP POP POP JUMP JUMPDEST PUSH1 0x1 DUP2 DUP2 SLOAD DUP2 LT PUSH2 0x241 JUMPI PUSH1 0x0 DUP1 REVERT JUMPDEST SWAP1 PUSH1 0x0 MSTORE PUSH1 0x20 PUSH1 0x0 KECCAK256 ADD PUSH1 0x0 SWAP2 POP SWAP1 POP DUP1 SLOAD PUSH2 0x25C SWAP1 PUSH2 0x631 JUMP JUMPDEST DUP1 PUSH1 0x1F ADD PUSH1 0x20 DUP1 SWAP2 DIV MUL PUSH1 0x20 ADD PUSH1 0x40 MLOAD SWAP1 DUP2 ADD PUSH1 0x40 MSTORE DUP1 SWAP3 SWAP2 SWAP1 DUP2 DUP2 MSTORE PUSH1 0x20 ADD DUP3 DUP1 SLOAD PUSH2 0x288 SWAP1 PUSH2 0x631 JUMP JUMPDEST DUP1 ISZERO PUSH2 0x2D5 JUMPI DUP1 PUSH1 0x1F LT PUSH2 0x2AA JUMPI PUSH2 0x100 DUP1 DUP4 SLOAD DIV MUL DUP4 MSTORE SWAP2 PUSH1 0x20 ADD SWAP2 PUSH2 0x2D5 JUMP JUMPDEST DUP3 ADD SWAP2 SWAP1 PUSH1 0x0 MSTORE PUSH1 0x20 PUSH1 0x0 KECCAK256 SWAP1 JUMPDEST DUP2 SLOAD DUP2 MSTORE SWAP1 PUSH1 0x1 ADD SWAP1 PUSH1 0x20 ADD DUP1 DUP4 GT PUSH2 0x2B8 JUMPI DUP3 SWAP1 SUB PUSH1 0x1F AND DUP3 ADD SWAP2 JUMPDEST POP POP POP POP POP DUP2 JUMP JUMPDEST PUSH1 0x0 PUSH2 0x2F0 PUSH2 0x2EB DUP5 PUSH2 0x55A JUMP JUMPDEST PUSH2 0x535 JUMP JUMPDEST SWAP1 POP DUP3 DUP2 MSTORE PUSH1 0x20 DUP2 ADD DUP5 DUP5 DUP5 ADD GT ISZERO PUSH2 0x30C JUMPI PUSH2 0x30B PUSH2 0x6F7 JUMP JUMPDEST JUMPDEST PUSH2 0x317 DUP5 DUP3 DUP6 PUSH2 0x5EF JUMP JUMPDEST POP SWAP4 SWAP3 POP POP POP JUMP JUMPDEST PUSH1 0x0 DUP2 CALLDATALOAD SWAP1 POP PUSH2 0x32E DUP2 PUSH2 0x717 JUMP JUMPDEST SWAP3 SWAP2 POP POP JUMP JUMPDEST PUSH1 0x0 DUP3 PUSH1 0x1F DUP4 ADD SLT PUSH2 0x349 JUMPI PUSH2 0x348 PUSH2 0x6F2 JUMP JUMPDEST JUMPDEST DUP2 CALLDATALOAD PUSH2 0x359 DUP5 DUP3 PUSH1 0x20 DUP7 ADD PUSH2 0x2DD JUMP JUMPDEST SWAP2 POP POP SWAP3 SWAP2 POP POP JUMP JUMPDEST PUSH1 0x0 DUP2 CALLDATALOAD SWAP1 POP PUSH2 0x371 DUP2 PUSH2 0x72E JUMP JUMPDEST SWAP3 SWAP2 POP POP JUMP JUMPDEST PUSH1 0x0 PUSH1 0x20 DUP3 DUP5 SUB SLT ISZERO PUSH2 0x38D JUMPI PUSH2 0x38C PUSH2 0x701 JUMP JUMPDEST JUMPDEST PUSH1 0x0 DUP3 ADD CALLDATALOAD PUSH8 0xFFFFFFFFFFFFFFFF DUP2 GT ISZERO PUSH2 0x3AB JUMPI PUSH2 0x3AA PUSH2 0x6FC JUMP JUMPDEST JUMPDEST PUSH2 0x3B7 DUP5 DUP3 DUP6 ADD PUSH2 0x334 JUMP JUMPDEST SWAP2 POP POP SWAP3 SWAP2 POP POP JUMP JUMPDEST PUSH1 0x0 DUP1 PUSH1 0x0 PUSH1 0x60 DUP5 DUP7 SUB SLT ISZERO PUSH2 0x3D9 JUMPI PUSH2 0x3D8 PUSH2 0x701 JUMP JUMPDEST JUMPDEST PUSH1 0x0 DUP5 ADD CALLDATALOAD PUSH8 0xFFFFFFFFFFFFFFFF DUP2 GT ISZERO PUSH2 0x3F7 JUMPI PUSH2 0x3F6 PUSH2 0x6FC JUMP JUMPDEST JUMPDEST PUSH2 0x403 DUP7 DUP3 DUP8 ADD PUSH2 0x334 JUMP JUMPDEST SWAP4 POP POP PUSH1 0x20 PUSH2 0x414 DUP7 DUP3 DUP8 ADD PUSH2 0x31F JUMP JUMPDEST SWAP3 POP POP PUSH1 0x40 PUSH2 0x425 DUP7 DUP3 DUP8 ADD PUSH2 0x362 JUMP JUMPDEST SWAP2 POP POP SWAP3 POP SWAP3 POP SWAP3 JUMP JUMPDEST PUSH1 0x0 PUSH1 0x20 DUP3 DUP5 SUB SLT ISZERO PUSH2 0x445 JUMPI PUSH2 0x444 PUSH2 0x701 JUMP JUMPDEST JUMPDEST PUSH1 0x0 PUSH2 0x453 DUP5 DUP3 DUP6 ADD PUSH2 0x362 JUMP JUMPDEST SWAP2 POP POP SWAP3 SWAP2 POP POP JUMP JUMPDEST PUSH2 0x465 DUP2 PUSH2 0x5B9 JUMP JUMPDEST DUP3 MSTORE POP POP JUMP JUMPDEST PUSH1 0x0 PUSH2 0x476 DUP3 PUSH2 0x58B JUMP JUMPDEST PUSH2 0x480 DUP2 DUP6 PUSH2 0x596 JUMP JUMPDEST SWAP4 POP PUSH2 0x490 DUP2 DUP6 PUSH1 0x20 DUP7 ADD PUSH2 0x5FE JUMP JUMPDEST PUSH2 0x499 DUP2 PUSH2 0x706 JUMP JUMPDEST DUP5 ADD SWAP2 POP POP SWAP3 SWAP2 POP POP JUMP JUMPDEST PUSH2 0x4AD DUP2 PUSH2 0x5E5 JUMP JUMPDEST DUP3 MSTORE POP POP JUMP JUMPDEST PUSH1 0x0 PUSH1 0x20 DUP3 ADD SWAP1 POP PUSH2 0x4C8 PUSH1 0x0 DUP4 ADD DUP5 PUSH2 0x45C JUMP JUMPDEST SWAP3 SWAP2 POP POP JUMP JUMPDEST PUSH1 0x0 PUSH1 0x20 DUP3 ADD SWAP1 POP DUP2 DUP2 SUB PUSH1 0x0 DUP4 ADD MSTORE PUSH2 0x4E8 DUP2 DUP5 PUSH2 0x46B JUMP JUMPDEST SWAP1 POP SWAP3 SWAP2 POP POP JUMP JUMPDEST PUSH1 0x0 PUSH1 0x60 DUP3 ADD SWAP1 POP DUP2 DUP2 SUB PUSH1 0x0 DUP4 ADD MSTORE PUSH2 0x50A DUP2 DUP7 PUSH2 0x46B JUMP JUMPDEST SWAP1 POP DUP2 DUP2 SUB PUSH1 0x20 DUP4 ADD MSTORE PUSH2 0x51E DUP2 DUP6 PUSH2 0x46B JUMP JUMPDEST SWAP1 POP PUSH2 0x52D PUSH1 0x40 DUP4 ADD DUP5 PUSH2 0x4A4 JUMP JUMPDEST SWAP5 SWAP4 POP POP POP POP JUMP JUMPDEST PUSH1 0x0 PUSH2 0x53F PUSH2 0x550 JUMP JUMPDEST SWAP1 POP PUSH2 0x54B DUP3 DUP3 PUSH2 0x663 JUMP JUMPDEST SWAP2 SWAP1 POP JUMP JUMPDEST PUSH1 0x0 PUSH1 0x40 MLOAD SWAP1 POP SWAP1 JUMP JUMPDEST PUSH1 0x0 PUSH8 0xFFFFFFFFFFFFFFFF DUP3 GT ISZERO PUSH2 0x575 JUMPI PUSH2 0x574 PUSH2 0x6C3 JUMP JUMPDEST JUMPDEST PUSH2 0x57E DUP3 PUSH2 0x706 JUMP JUMPDEST SWAP1 POP PUSH1 0x20 DUP2 ADD SWAP1 POP SWAP2 SWAP1 POP JUMP JUMPDEST PUSH1 0x0 DUP2 MLOAD SWAP1 POP SWAP2 SWAP1 POP JUMP JUMPDEST PUSH1 0x0 DUP3 DUP3 MSTORE PUSH1 0x20 DUP3 ADD SWAP1 POP SWAP3 SWAP2 POP POP JUMP JUMPDEST PUSH1 0x0 PUSH2 0x5B2 DUP3 PUSH2 0x5C5 JUMP JUMPDEST SWAP1 POP SWAP2 SWAP1 POP JUMP JUMPDEST PUSH1 0x0 DUP2 ISZERO ISZERO SWAP1 POP SWAP2 SWAP1 POP JUMP JUMPDEST PUSH1 0x0 PUSH20 0xFFFFFFFFFFFFFFFFFFFFFFFFFFFFFFFFFFFFFFFF DUP3 AND SWAP1 POP SWAP2 SWAP1 POP JUMP JUMPDEST PUSH1 0x0 DUP2 SWAP1 POP SWAP2 SWAP1 POP JUMP JUMPDEST DUP3 DUP2 DUP4 CALLDATACOPY PUSH1 0x0 DUP4 DUP4 ADD MSTORE POP POP POP JUMP JUMPDEST PUSH1 0x0 JUMPDEST DUP4 DUP2 LT ISZERO PUSH2 0x61C JUMPI DUP1 DUP3 ADD MLOAD DUP2 DUP5 ADD MSTORE PUSH1 0x20 DUP2 ADD SWAP1 POP PUSH2 0x601 JUMP JUMPDEST DUP4 DUP2 GT ISZERO PUSH2 0x62B JUMPI PUSH1 0x0 DUP5 DUP5 ADD MSTORE JUMPDEST POP POP POP POP JUMP JUMPDEST PUSH1 0x0 PUSH1 0x2 DUP3 DIV SWAP1 POP PUSH1 0x1 DUP3 AND DUP1 PUSH2 0x649 JUMPI PUSH1 0x7F DUP3 AND SWAP2 POP JUMPDEST PUSH1 0x20 DUP3 LT DUP2 EQ ISZERO PUSH2 0x65D JUMPI PUSH2 0x65C PUSH2 0x694 JUMP JUMPDEST JUMPDEST POP SWAP2 SWAP1 POP JUMP JUMPDEST PUSH2 0x66C DUP3 PUSH2 0x706 JUMP JUMPDEST DUP2 ADD DUP2 DUP2 LT PUSH8 0xFFFFFFFFFFFFFFFF DUP3 GT OR ISZERO PUSH2 0x68B JUMPI PUSH2 0x68A PUSH2 0x6C3 JUMP JUMPDEST JUMPDEST DUP1 PUSH1 0x40 MSTORE POP POP POP JUMP JUMPDEST PUSH32 0x4E487B7100000000000000000000000000000000000000000000000000000000 PUSH1 0x0 MSTORE PUSH1 0x22 PUSH1 0x4 MSTORE PUSH1 0x24 PUSH1 0x0 REVERT JUMPDEST PUSH32 0x4E487B7100000000000000000000000000000000000000000000000000000000 PUSH1 0x0 MSTORE PUSH1 0x41 PUSH1 0x4 MSTORE PUSH1 0x24 PUSH1 0x0 REVERT JUMPDEST PUSH1 0x0 DUP1 REVERT JUMPDEST PUSH1 0x0 DUP1 REVERT JUMPDEST PUSH1 0x0 DUP1 REVERT JUMPDEST PUSH1 0x0 DUP1 REVERT JUMPDEST PUSH1 0x0 PUSH1 0x1F NOT PUSH1 0x1F DUP4 ADD AND SWAP1 POP SWAP2 SWAP1 POP JUMP JUMPDEST PUSH2 0x720 DUP2 PUSH2 0x5A7 JUMP JUMPDEST DUP2 EQ PUSH2 0x72B JUMPI PUSH1 0x0 DUP1 REVERT JUMPDEST POP JUMP JUMPDEST PUSH2 0x737 DUP2 PUSH2 0x5E5 JUMP JUMPDEST DUP2 EQ PUSH2 0x742 JUMPI PUSH1 0x0 DUP1 REVERT JUMPDEST POP JUMP INVALID LOG2 PUSH5 0x6970667358 0x22 SLT KECCAK256 DUP8 JUMPDEST CHAINID 0xAD POP 0x1E 0x23 SWAP7 SLT LOG3 DUP7 0xA7 DIV 0xF9 DUP12 0xA8 0xC0 SWAP11 0xF PUSH26 0x70C64A57B5CEB41AC1CAF00464736F6C63430008070033000000 "
				},
				"gasEstimates": {
					"creation": {
						"codeDepositCost": "383000",
						"executionCost": "418",
						"totalCost": "383418"
					},
					"external": {
						"RdPermissionHashArray(uint256)": "infinite",
						"RdPermissionMap(string)": "infinite",
						"updateRdPermissions(string,address,uint256)": "infinite"
					}
				},
				"methodIdentifiers": {
					"RdPermissionHashArray(uint256)": "9e77a49a",
					"RdPermissionMap(string)": "4bb6b1e6",
					"updateRdPermissions(string,address,uint256)": "9df16320"
				}
			},
			"storageLayout": {
				"storage": [
					{
						"astId": 151,
						"contract": "contracts/EduID_contract.sol:RPCC",
						"label": "RdPermissionMap",
						"offset": 0,
						"slot": "0",
						"type": "t_mapping(t_string_memory_ptr,t_struct(PermissionInfo)146_storage)"
					},
					{
						"astId": 154,
						"contract": "contracts/EduID_contract.sol:RPCC",
						"label": "RdPermissionHashArray",
						"offset": 0,
						"slot": "1",
						"type": "t_array(t_string_storage)dyn_storage"
					}
				],
				"types": {
					"t_address": {
						"encoding": "inplace",
						"label": "address",
						"numberOfBytes": "20"
					},
					"t_array(t_address)dyn_storage": {
						"base": "t_address",
						"encoding": "dynamic_array",
						"label": "address[]",
						"numberOfBytes": "32"
					},
					"t_array(t_string_storage)dyn_storage": {
						"base": "t_string_storage",
						"encoding": "dynamic_array",
						"label": "string[]",
						"numberOfBytes": "32"
					},
					"t_mapping(t_string_memory_ptr,t_struct(PermissionInfo)146_storage)": {
						"encoding": "mapping",
						"key": "t_string_memory_ptr",
						"label": "mapping(string => struct RPCC.PermissionInfo)",
						"numberOfBytes": "32",
						"value": "t_struct(PermissionInfo)146_storage"
					},
					"t_string_memory_ptr": {
						"encoding": "bytes",
						"label": "string",
						"numberOfBytes": "32"
					},
					"t_string_storage": {
						"encoding": "bytes",
						"label": "string",
						"numberOfBytes": "32"
					},
					"t_struct(PermissionInfo)146_storage": {
						"encoding": "inplace",
						"label": "struct RPCC.PermissionInfo",
						"members": [
							{
								"astId": 138,
								"contract": "contracts/EduID_contract.sol:RPCC",
								"label": "rdId",
								"offset": 0,
								"slot": "0",
								"type": "t_string_storage"
							},
							{
								"astId": 140,
								"contract": "contracts/EduID_contract.sol:RPCC",
								"label": "rdHash",
								"offset": 0,
								"slot": "1",
								"type": "t_string_storage"
							},
							{
								"astId": 143,
								"contract": "contracts/EduID_contract.sol:RPCC",
								"label": "rdPermissions",
								"offset": 0,
								"slot": "2",
								"type": "t_array(t_address)dyn_storage"
							},
							{
								"astId": 145,
								"contract": "contracts/EduID_contract.sol:RPCC",
								"label": "permissionType",
								"offset": 0,
								"slot": "3",
								"type": "t_uint256"
							}
						],
						"numberOfBytes": "128"
					},
					"t_uint256": {
						"encoding": "inplace",
						"label": "uint256",
						"numberOfBytes": "32"
					}
				}
			},
			"userdoc": {
				"kind": "user",
				"methods": {},
				"version": 1
			}
		}
	}
}