{
	"data": {
		"bytecode": {
			"linkReferences": {},
			"object": "608060405234801561001057600080fd5b50610ddc806100206000396000f3fe608060405234801561001057600080fd5b506004361061004c5760003560e01c806350b6e78714610051578063643f753614610081578063751fc87e146100b7578063827e0c99146100e7575b600080fd5b61006b60048036038101906100669190610a26565b61011d565b6040516100789190610aaa565b60405180910390f35b61009b60048036038101906100969190610a26565b610178565b6040516100ae9796959493929190610ac5565b60405180910390f35b6100d160048036038101906100cc9190610900565b6103f7565b6040516100de9190610aaa565b60405180910390f35b61010160048036038101906100fc91906108d3565b610512565b6040516101149796959493929190610ac5565b60405180910390f35b60008060009050600080549050811161017157826000828154811061014557610144610cde565b5b9060005260206000209060070201600101541415610167576001915050610173565b6000915050610173565b505b919050565b6000818154811061018857600080fd5b90600052602060002090600702016000915090508060000180546101ab90610c4c565b80601f01602080910402602001604051908101604052809291908181526020018280546101d790610c4c565b80156102245780601f106101f957610100808354040283529160200191610224565b820191906000526020600020905b81548152906001019060200180831161020757829003601f168201915b50505050509080600101549080600201805461023f90610c4c565b80601f016020809104026020016040519081016040528092919081815260200182805461026b90610c4c565b80156102b85780601f1061028d576101008083540402835291602001916102b8565b820191906000526020600020905b81548152906001019060200180831161029b57829003601f168201915b5050505050908060030180546102cd90610c4c565b80601f01602080910402602001604051908101604052809291908181526020018280546102f990610c4c565b80156103465780601f1061031b57610100808354040283529160200191610346565b820191906000526020600020905b81548152906001019060200180831161032957829003601f168201915b50505050509080600401805461035b90610c4c565b80601f016020809104026020016040519081016040528092919081815260200182805461038790610c4c565b80156103d45780601f106103a9576101008083540402835291602001916103d4565b820191906000526020600020905b8154815290600101906020018083116103b757829003601f168201915b5050505050908060050154908060060160009054906101000a900460ff16905087565b600033985060006040518060e001604052808a815260200189815260200188815260200187815260200186815260200185815260200184151581525090806001815401808255809150506001900390600052602060002090600702016000909190919091506000820151816000019080519060200190610478929190610781565b5060208201518160010155604082015181600201908051906020019061049f929190610781565b5060608201518160030190805190602001906104bc929190610781565b5060808201518160040190805190602001906104d9929190610781565b5060a0820151816005015560c08201518160060160006101000a81548160ff021916908315150217905550505098975050505050505050565b600160205280600052604060002060009150905080600001805461053590610c4c565b80601f016020809104026020016040519081016040528092919081815260200182805461056190610c4c565b80156105ae5780601f10610583576101008083540402835291602001916105ae565b820191906000526020600020905b81548152906001019060200180831161059157829003601f168201915b5050505050908060010154908060020180546105c990610c4c565b80601f01602080910402602001604051908101604052809291908181526020018280546105f590610c4c565b80156106425780601f1061061757610100808354040283529160200191610642565b820191906000526020600020905b81548152906001019060200180831161062557829003601f168201915b50505050509080600301805461065790610c4c565b80601f016020809104026020016040519081016040528092919081815260200182805461068390610c4c565b80156106d05780601f106106a5576101008083540402835291602001916106d0565b820191906000526020600020905b8154815290600101906020018083116106b357829003601f168201915b5050505050908060040180546106e590610c4c565b80601f016020809104026020016040519081016040528092919081815260200182805461071190610c4c565b801561075e5780601f106107335761010080835404028352916020019161075e565b820191906000526020600020905b81548152906001019060200180831161074157829003601f168201915b5050505050908060050154908060060160009054906101000a900460ff16905087565b82805461078d90610c4c565b90600052602060002090601f0160209004810192826107af57600085556107f6565b82601f106107c857805160ff19168380011785556107f6565b828001600101855582156107f6579182015b828111156107f55782518255916020019190600101906107da565b5b5090506108039190610807565b5090565b5b80821115610820576000816000905550600101610808565b5090565b600061083761083284610b75565b610b50565b90508281526020810184848401111561085357610852610d41565b5b61085e848285610c0a565b509392505050565b60008135905061087581610d61565b92915050565b60008135905061088a81610d78565b92915050565b600082601f8301126108a5576108a4610d3c565b5b81356108b5848260208601610824565b91505092915050565b6000813590506108cd81610d8f565b92915050565b6000602082840312156108e9576108e8610d4b565b5b60006108f784828501610866565b91505092915050565b600080600080600080600080610100898b03121561092157610920610d4b565b5b600061092f8b828c01610866565b985050602089013567ffffffffffffffff8111156109505761094f610d46565b5b61095c8b828c01610890565b975050604061096d8b828c016108be565b965050606089013567ffffffffffffffff81111561098e5761098d610d46565b5b61099a8b828c01610890565b955050608089013567ffffffffffffffff8111156109bb576109ba610d46565b5b6109c78b828c01610890565b94505060a089013567ffffffffffffffff8111156109e8576109e7610d46565b5b6109f48b828c01610890565b93505060c0610a058b828c016108be565b92505060e0610a168b828c0161087b565b9150509295985092959890939650565b600060208284031215610a3c57610a3b610d4b565b5b6000610a4a848285016108be565b91505092915050565b610a5c81610bd4565b82525050565b6000610a6d82610ba6565b610a778185610bb1565b9350610a87818560208601610c19565b610a9081610d50565b840191505092915050565b610aa481610c00565b82525050565b6000602082019050610abf6000830184610a53565b92915050565b600060e0820190508181036000830152610adf818a610a62565b9050610aee6020830189610a9b565b8181036040830152610b008188610a62565b90508181036060830152610b148187610a62565b90508181036080830152610b288186610a62565b9050610b3760a0830185610a9b565b610b4460c0830184610a53565b98975050505050505050565b6000610b5a610b6b565b9050610b668282610c7e565b919050565b6000604051905090565b600067ffffffffffffffff821115610b9057610b8f610d0d565b5b610b9982610d50565b9050602081019050919050565b600081519050919050565b600082825260208201905092915050565b6000610bcd82610be0565b9050919050565b60008115159050919050565b600073ffffffffffffffffffffffffffffffffffffffff82169050919050565b6000819050919050565b82818337600083830152505050565b60005b83811015610c37578082015181840152602081019050610c1c565b83811115610c46576000848401525b50505050565b60006002820490506001821680610c6457607f821691505b60208210811415610c7857610c77610caf565b5b50919050565b610c8782610d50565b810181811067ffffffffffffffff82111715610ca657610ca5610d0d565b5b80604052505050565b7f4e487b7100000000000000000000000000000000000000000000000000000000600052602260045260246000fd5b7f4e487b7100000000000000000000000000000000000000000000000000000000600052603260045260246000fd5b7f4e487b7100000000000000000000000000000000000000000000000000000000600052604160045260246000fd5b600080fd5b600080fd5b600080fd5b600080fd5b6000601f19601f8301169050919050565b610d6a81610bc2565b8114610d7557600080fd5b50565b610d8181610bd4565b8114610d8c57600080fd5b50565b610d9881610c00565b8114610da357600080fd5b5056fea264697066735822122054793c7f54f080b2f3665387be1981acec026b9773bbb3424c3766760f98996564736f6c63430008070033",
			"opcodes": "PUSH1 0x80 PUSH1 0x40 MSTORE CALLVALUE DUP1 ISZERO PUSH2 0x10 JUMPI PUSH1 0x0 DUP1 REVERT JUMPDEST POP PUSH2 0xDDC DUP1 PUSH2 0x20 PUSH1 0x0 CODECOPY PUSH1 0x0 RETURN INVALID PUSH1 0x80 PUSH1 0x40 MSTORE CALLVALUE DUP1 ISZERO PUSH2 0x10 JUMPI PUSH1 0x0 DUP1 REVERT JUMPDEST POP PUSH1 0x4 CALLDATASIZE LT PUSH2 0x4C JUMPI PUSH1 0x0 CALLDATALOAD PUSH1 0xE0 SHR DUP1 PUSH4 0x50B6E787 EQ PUSH2 0x51 JUMPI DUP1 PUSH4 0x643F7536 EQ PUSH2 0x81 JUMPI DUP1 PUSH4 0x751FC87E EQ PUSH2 0xB7 JUMPI DUP1 PUSH4 0x827E0C99 EQ PUSH2 0xE7 JUMPI JUMPDEST PUSH1 0x0 DUP1 REVERT JUMPDEST PUSH2 0x6B PUSH1 0x4 DUP1 CALLDATASIZE SUB DUP2 ADD SWAP1 PUSH2 0x66 SWAP2 SWAP1 PUSH2 0xA26 JUMP JUMPDEST PUSH2 0x11D JUMP JUMPDEST PUSH1 0x40 MLOAD PUSH2 0x78 SWAP2 SWAP1 PUSH2 0xAAA JUMP JUMPDEST PUSH1 0x40 MLOAD DUP1 SWAP2 SUB SWAP1 RETURN JUMPDEST PUSH2 0x9B PUSH1 0x4 DUP1 CALLDATASIZE SUB DUP2 ADD SWAP1 PUSH2 0x96 SWAP2 SWAP1 PUSH2 0xA26 JUMP JUMPDEST PUSH2 0x178 JUMP JUMPDEST PUSH1 0x40 MLOAD PUSH2 0xAE SWAP8 SWAP7 SWAP6 SWAP5 SWAP4 SWAP3 SWAP2 SWAP1 PUSH2 0xAC5 JUMP JUMPDEST PUSH1 0x40 MLOAD DUP1 SWAP2 SUB SWAP1 RETURN JUMPDEST PUSH2 0xD1 PUSH1 0x4 DUP1 CALLDATASIZE SUB DUP2 ADD SWAP1 PUSH2 0xCC SWAP2 SWAP1 PUSH2 0x900 JUMP JUMPDEST PUSH2 0x3F7 JUMP JUMPDEST PUSH1 0x40 MLOAD PUSH2 0xDE SWAP2 SWAP1 PUSH2 0xAAA JUMP JUMPDEST PUSH1 0x40 MLOAD DUP1 SWAP2 SUB SWAP1 RETURN JUMPDEST PUSH2 0x101 PUSH1 0x4 DUP1 CALLDATASIZE SUB DUP2 ADD SWAP1 PUSH2 0xFC SWAP2 SWAP1 PUSH2 0x8D3 JUMP JUMPDEST PUSH2 0x512 JUMP JUMPDEST PUSH1 0x40 MLOAD PUSH2 0x114 SWAP8 SWAP7 SWAP6 SWAP5 SWAP4 SWAP3 SWAP2 SWAP1 PUSH2 0xAC5 JUMP JUMPDEST PUSH1 0x40 MLOAD DUP1 SWAP2 SUB SWAP1 RETURN JUMPDEST PUSH1 0x0 DUP1 PUSH1 0x0 SWAP1 POP PUSH1 0x0 DUP1 SLOAD SWAP1 POP DUP2 GT PUSH2 0x171 JUMPI DUP3 PUSH1 0x0 DUP3 DUP2 SLOAD DUP2 LT PUSH2 0x145 JUMPI PUSH2 0x144 PUSH2 0xCDE JUMP JUMPDEST JUMPDEST SWAP1 PUSH1 0x0 MSTORE PUSH1 0x20 PUSH1 0x0 KECCAK256 SWAP1 PUSH1 0x7 MUL ADD PUSH1 0x1 ADD SLOAD EQ ISZERO PUSH2 0x167 JUMPI PUSH1 0x1 SWAP2 POP POP PUSH2 0x173 JUMP JUMPDEST PUSH1 0x0 SWAP2 POP POP PUSH2 0x173 JUMP JUMPDEST POP JUMPDEST SWAP2 SWAP1 POP JUMP JUMPDEST PUSH1 0x0 DUP2 DUP2 SLOAD DUP2 LT PUSH2 0x188 JUMPI PUSH1 0x0 DUP1 REVERT JUMPDEST SWAP1 PUSH1 0x0 MSTORE PUSH1 0x20 PUSH1 0x0 KECCAK256 SWAP1 PUSH1 0x7 MUL ADD PUSH1 0x0 SWAP2 POP SWAP1 POP DUP1 PUSH1 0x0 ADD DUP1 SLOAD PUSH2 0x1AB SWAP1 PUSH2 0xC4C JUMP JUMPDEST DUP1 PUSH1 0x1F ADD PUSH1 0x20 DUP1 SWAP2 DIV MUL PUSH1 0x20 ADD PUSH1 0x40 MLOAD SWAP1 DUP2 ADD PUSH1 0x40 MSTORE DUP1 SWAP3 SWAP2 SWAP1 DUP2 DUP2 MSTORE PUSH1 0x20 ADD DUP3 DUP1 SLOAD PUSH2 0x1D7 SWAP1 PUSH2 0xC4C JUMP JUMPDEST DUP1 ISZERO PUSH2 0x224 JUMPI DUP1 PUSH1 0x1F LT PUSH2 0x1F9 JUMPI PUSH2 0x100 DUP1 DUP4 SLOAD DIV MUL DUP4 MSTORE SWAP2 PUSH1 0x20 ADD SWAP2 PUSH2 0x224 JUMP JUMPDEST DUP3 ADD SWAP2 SWAP1 PUSH1 0x0 MSTORE PUSH1 0x20 PUSH1 0x0 KECCAK256 SWAP1 JUMPDEST DUP2 SLOAD DUP2 MSTORE SWAP1 PUSH1 0x1 ADD SWAP1 PUSH1 0x20 ADD DUP1 DUP4 GT PUSH2 0x207 JUMPI DUP3 SWAP1 SUB PUSH1 0x1F AND DUP3 ADD SWAP2 JUMPDEST POP POP POP POP POP SWAP1 DUP1 PUSH1 0x1 ADD SLOAD SWAP1 DUP1 PUSH1 0x2 ADD DUP1 SLOAD PUSH2 0x23F SWAP1 PUSH2 0xC4C JUMP JUMPDEST DUP1 PUSH1 0x1F ADD PUSH1 0x20 DUP1 SWAP2 DIV MUL PUSH1 0x20 ADD PUSH1 0x40 MLOAD SWAP1 DUP2 ADD PUSH1 0x40 MSTORE DUP1 SWAP3 SWAP2 SWAP1 DUP2 DUP2 MSTORE PUSH1 0x20 ADD DUP3 DUP1 SLOAD PUSH2 0x26B SWAP1 PUSH2 0xC4C JUMP JUMPDEST DUP1 ISZERO PUSH2 0x2B8 JUMPI DUP1 PUSH1 0x1F LT PUSH2 0x28D JUMPI PUSH2 0x100 DUP1 DUP4 SLOAD DIV MUL DUP4 MSTORE SWAP2 PUSH1 0x20 ADD SWAP2 PUSH2 0x2B8 JUMP JUMPDEST DUP3 ADD SWAP2 SWAP1 PUSH1 0x0 MSTORE PUSH1 0x20 PUSH1 0x0 KECCAK256 SWAP1 JUMPDEST DUP2 SLOAD DUP2 MSTORE SWAP1 PUSH1 0x1 ADD SWAP1 PUSH1 0x20 ADD DUP1 DUP4 GT PUSH2 0x29B JUMPI DUP3 SWAP1 SUB PUSH1 0x1F AND DUP3 ADD SWAP2 JUMPDEST POP POP POP POP POP SWAP1 DUP1 PUSH1 0x3 ADD DUP1 SLOAD PUSH2 0x2CD SWAP1 PUSH2 0xC4C JUMP JUMPDEST DUP1 PUSH1 0x1F ADD PUSH1 0x20 DUP1 SWAP2 DIV MUL PUSH1 0x20 ADD PUSH1 0x40 MLOAD SWAP1 DUP2 ADD PUSH1 0x40 MSTORE DUP1 SWAP3 SWAP2 SWAP1 DUP2 DUP2 MSTORE PUSH1 0x20 ADD DUP3 DUP1 SLOAD PUSH2 0x2F9 SWAP1 PUSH2 0xC4C JUMP JUMPDEST DUP1 ISZERO PUSH2 0x346 JUMPI DUP1 PUSH1 0x1F LT PUSH2 0x31B JUMPI PUSH2 0x100 DUP1 DUP4 SLOAD DIV MUL DUP4 MSTORE SWAP2 PUSH1 0x20 ADD SWAP2 PUSH2 0x346 JUMP JUMPDEST DUP3 ADD SWAP2 SWAP1 PUSH1 0x0 MSTORE PUSH1 0x20 PUSH1 0x0 KECCAK256 SWAP1 JUMPDEST DUP2 SLOAD DUP2 MSTORE SWAP1 PUSH1 0x1 ADD SWAP1 PUSH1 0x20 ADD DUP1 DUP4 GT PUSH2 0x329 JUMPI DUP3 SWAP1 SUB PUSH1 0x1F AND DUP3 ADD SWAP2 JUMPDEST POP POP POP POP POP SWAP1 DUP1 PUSH1 0x4 ADD DUP1 SLOAD PUSH2 0x35B SWAP1 PUSH2 0xC4C JUMP JUMPDEST DUP1 PUSH1 0x1F ADD PUSH1 0x20 DUP1 SWAP2 DIV MUL PUSH1 0x20 ADD PUSH1 0x40 MLOAD SWAP1 DUP2 ADD PUSH1 0x40 MSTORE DUP1 SWAP3 SWAP2 SWAP1 DUP2 DUP2 MSTORE PUSH1 0x20 ADD DUP3 DUP1 SLOAD PUSH2 0x387 SWAP1 PUSH2 0xC4C JUMP JUMPDEST DUP1 ISZERO PUSH2 0x3D4 JUMPI DUP1 PUSH1 0x1F LT PUSH2 0x3A9 JUMPI PUSH2 0x100 DUP1 DUP4 SLOAD DIV MUL DUP4 MSTORE SWAP2 PUSH1 0x20 ADD SWAP2 PUSH2 0x3D4 JUMP JUMPDEST DUP3 ADD SWAP2 SWAP1 PUSH1 0x0 MSTORE PUSH1 0x20 PUSH1 0x0 KECCAK256 SWAP1 JUMPDEST DUP2 SLOAD DUP2 MSTORE SWAP1 PUSH1 0x1 ADD SWAP1 PUSH1 0x20 ADD DUP1 DUP4 GT PUSH2 0x3B7 JUMPI DUP3 SWAP1 SUB PUSH1 0x1F AND DUP3 ADD SWAP2 JUMPDEST POP POP POP POP POP SWAP1 DUP1 PUSH1 0x5 ADD SLOAD SWAP1 DUP1 PUSH1 0x6 ADD PUSH1 0x0 SWAP1 SLOAD SWAP1 PUSH2 0x100 EXP SWAP1 DIV PUSH1 0xFF AND SWAP1 POP DUP8 JUMP JUMPDEST PUSH1 0x0 CALLER SWAP9 POP PUSH1 0x0 PUSH1 0x40 MLOAD DUP1 PUSH1 0xE0 ADD PUSH1 0x40 MSTORE DUP1 DUP11 DUP2 MSTORE PUSH1 0x20 ADD DUP10 DUP2 MSTORE PUSH1 0x20 ADD DUP9 DUP2 MSTORE PUSH1 0x20 ADD DUP8 DUP2 MSTORE PUSH1 0x20 ADD DUP7 DUP2 MSTORE PUSH1 0x20 ADD DUP6 DUP2 MSTORE PUSH1 0x20 ADD DUP5 ISZERO ISZERO DUP2 MSTORE POP SWAP1 DUP1 PUSH1 0x1 DUP2 SLOAD ADD DUP1 DUP3 SSTORE DUP1 SWAP2 POP POP PUSH1 0x1 SWAP1 SUB SWAP1 PUSH1 0x0 MSTORE PUSH1 0x20 PUSH1 0x0 KECCAK256 SWAP1 PUSH1 0x7 MUL ADD PUSH1 0x0 SWAP1 SWAP2 SWAP1 SWAP2 SWAP1 SWAP2 POP PUSH1 0x0 DUP3 ADD MLOAD DUP2 PUSH1 0x0 ADD SWAP1 DUP1 MLOAD SWAP1 PUSH1 0x20 ADD SWAP1 PUSH2 0x478 SWAP3 SWAP2 SWAP1 PUSH2 0x781 JUMP JUMPDEST POP PUSH1 0x20 DUP3 ADD MLOAD DUP2 PUSH1 0x1 ADD SSTORE PUSH1 0x40 DUP3 ADD MLOAD DUP2 PUSH1 0x2 ADD SWAP1 DUP1 MLOAD SWAP1 PUSH1 0x20 ADD SWAP1 PUSH2 0x49F SWAP3 SWAP2 SWAP1 PUSH2 0x781 JUMP JUMPDEST POP PUSH1 0x60 DUP3 ADD MLOAD DUP2 PUSH1 0x3 ADD SWAP1 DUP1 MLOAD SWAP1 PUSH1 0x20 ADD SWAP1 PUSH2 0x4BC SWAP3 SWAP2 SWAP1 PUSH2 0x781 JUMP JUMPDEST POP PUSH1 0x80 DUP3 ADD MLOAD DUP2 PUSH1 0x4 ADD SWAP1 DUP1 MLOAD SWAP1 PUSH1 0x20 ADD SWAP1 PUSH2 0x4D9 SWAP3 SWAP2 SWAP1 PUSH2 0x781 JUMP JUMPDEST POP PUSH1 0xA0 DUP3 ADD MLOAD DUP2 PUSH1 0x5 ADD SSTORE PUSH1 0xC0 DUP3 ADD MLOAD DUP2 PUSH1 0x6 ADD PUSH1 0x0 PUSH2 0x100 EXP DUP2 SLOAD DUP2 PUSH1 0xFF MUL NOT AND SWAP1 DUP4 ISZERO ISZERO MUL OR SWAP1 SSTORE POP POP POP SWAP9 SWAP8 POP POP POP POP POP POP POP POP JUMP JUMPDEST PUSH1 0x1 PUSH1 0x20 MSTORE DUP1 PUSH1 0x0 MSTORE PUSH1 0x40 PUSH1 0x0 KECCAK256 PUSH1 0x0 SWAP2 POP SWAP1 POP DUP1 PUSH1 0x0 ADD DUP1 SLOAD PUSH2 0x535 SWAP1 PUSH2 0xC4C JUMP JUMPDEST DUP1 PUSH1 0x1F ADD PUSH1 0x20 DUP1 SWAP2 DIV MUL PUSH1 0x20 ADD PUSH1 0x40 MLOAD SWAP1 DUP2 ADD PUSH1 0x40 MSTORE DUP1 SWAP3 SWAP2 SWAP1 DUP2 DUP2 MSTORE PUSH1 0x20 ADD DUP3 DUP1 SLOAD PUSH2 0x561 SWAP1 PUSH2 0xC4C JUMP JUMPDEST DUP1 ISZERO PUSH2 0x5AE JUMPI DUP1 PUSH1 0x1F LT PUSH2 0x583 JUMPI PUSH2 0x100 DUP1 DUP4 SLOAD DIV MUL DUP4 MSTORE SWAP2 PUSH1 0x20 ADD SWAP2 PUSH2 0x5AE JUMP JUMPDEST DUP3 ADD SWAP2 SWAP1 PUSH1 0x0 MSTORE PUSH1 0x20 PUSH1 0x0 KECCAK256 SWAP1 JUMPDEST DUP2 SLOAD DUP2 MSTORE SWAP1 PUSH1 0x1 ADD SWAP1 PUSH1 0x20 ADD DUP1 DUP4 GT PUSH2 0x591 JUMPI DUP3 SWAP1 SUB PUSH1 0x1F AND DUP3 ADD SWAP2 JUMPDEST POP POP POP POP POP SWAP1 DUP1 PUSH1 0x1 ADD SLOAD SWAP1 DUP1 PUSH1 0x2 ADD DUP1 SLOAD PUSH2 0x5C9 SWAP1 PUSH2 0xC4C JUMP JUMPDEST DUP1 PUSH1 0x1F ADD PUSH1 0x20 DUP1 SWAP2 DIV MUL PUSH1 0x20 ADD PUSH1 0x40 MLOAD SWAP1 DUP2 ADD PUSH1 0x40 MSTORE DUP1 SWAP3 SWAP2 SWAP1 DUP2 DUP2 MSTORE PUSH1 0x20 ADD DUP3 DUP1 SLOAD PUSH2 0x5F5 SWAP1 PUSH2 0xC4C JUMP JUMPDEST DUP1 ISZERO PUSH2 0x642 JUMPI DUP1 PUSH1 0x1F LT PUSH2 0x617 JUMPI PUSH2 0x100 DUP1 DUP4 SLOAD DIV MUL DUP4 MSTORE SWAP2 PUSH1 0x20 ADD SWAP2 PUSH2 0x642 JUMP JUMPDEST DUP3 ADD SWAP2 SWAP1 PUSH1 0x0 MSTORE PUSH1 0x20 PUSH1 0x0 KECCAK256 SWAP1 JUMPDEST DUP2 SLOAD DUP2 MSTORE SWAP1 PUSH1 0x1 ADD SWAP1 PUSH1 0x20 ADD DUP1 DUP4 GT PUSH2 0x625 JUMPI DUP3 SWAP1 SUB PUSH1 0x1F AND DUP3 ADD SWAP2 JUMPDEST POP POP POP POP POP SWAP1 DUP1 PUSH1 0x3 ADD DUP1 SLOAD PUSH2 0x657 SWAP1 PUSH2 0xC4C JUMP JUMPDEST DUP1 PUSH1 0x1F ADD PUSH1 0x20 DUP1 SWAP2 DIV MUL PUSH1 0x20 ADD PUSH1 0x40 MLOAD SWAP1 DUP2 ADD PUSH1 0x40 MSTORE DUP1 SWAP3 SWAP2 SWAP1 DUP2 DUP2 MSTORE PUSH1 0x20 ADD DUP3 DUP1 SLOAD PUSH2 0x683 SWAP1 PUSH2 0xC4C JUMP JUMPDEST DUP1 ISZERO PUSH2 0x6D0 JUMPI DUP1 PUSH1 0x1F LT PUSH2 0x6A5 JUMPI PUSH2 0x100 DUP1 DUP4 SLOAD DIV MUL DUP4 MSTORE SWAP2 PUSH1 0x20 ADD SWAP2 PUSH2 0x6D0 JUMP JUMPDEST DUP3 ADD SWAP2 SWAP1 PUSH1 0x0 MSTORE PUSH1 0x20 PUSH1 0x0 KECCAK256 SWAP1 JUMPDEST DUP2 SLOAD DUP2 MSTORE SWAP1 PUSH1 0x1 ADD SWAP1 PUSH1 0x20 ADD DUP1 DUP4 GT PUSH2 0x6B3 JUMPI DUP3 SWAP1 SUB PUSH1 0x1F AND DUP3 ADD SWAP2 JUMPDEST POP POP POP POP POP SWAP1 DUP1 PUSH1 0x4 ADD DUP1 SLOAD PUSH2 0x6E5 SWAP1 PUSH2 0xC4C JUMP JUMPDEST DUP1 PUSH1 0x1F ADD PUSH1 0x20 DUP1 SWAP2 DIV MUL PUSH1 0x20 ADD PUSH1 0x40 MLOAD SWAP1 DUP2 ADD PUSH1 0x40 MSTORE DUP1 SWAP3 SWAP2 SWAP1 DUP2 DUP2 MSTORE PUSH1 0x20 ADD DUP3 DUP1 SLOAD PUSH2 0x711 SWAP1 PUSH2 0xC4C JUMP JUMPDEST DUP1 ISZERO PUSH2 0x75E JUMPI DUP1 PUSH1 0x1F LT PUSH2 0x733 JUMPI PUSH2 0x100 DUP1 DUP4 SLOAD DIV MUL DUP4 MSTORE SWAP2 PUSH1 0x20 ADD SWAP2 PUSH2 0x75E JUMP JUMPDEST DUP3 ADD SWAP2 SWAP1 PUSH1 0x0 MSTORE PUSH1 0x20 PUSH1 0x0 KECCAK256 SWAP1 JUMPDEST DUP2 SLOAD DUP2 MSTORE SWAP1 PUSH1 0x1 ADD SWAP1 PUSH1 0x20 ADD DUP1 DUP4 GT PUSH2 0x741 JUMPI DUP3 SWAP1 SUB PUSH1 0x1F AND DUP3 ADD SWAP2 JUMPDEST POP POP POP POP POP SWAP1 DUP1 PUSH1 0x5 ADD SLOAD SWAP1 DUP1 PUSH1 0x6 ADD PUSH1 0x0 SWAP1 SLOAD SWAP1 PUSH2 0x100 EXP SWAP1 DIV PUSH1 0xFF AND SWAP1 POP DUP8 JUMP JUMPDEST DUP3 DUP1 SLOAD PUSH2 0x78D SWAP1 PUSH2 0xC4C JUMP JUMPDEST SWAP1 PUSH1 0x0 MSTORE PUSH1 0x20 PUSH1 0x0 KECCAK256 SWAP1 PUSH1 0x1F ADD PUSH1 0x20 SWAP1 DIV DUP2 ADD SWAP3 DUP3 PUSH2 0x7AF JUMPI PUSH1 0x0 DUP6 SSTORE PUSH2 0x7F6 JUMP JUMPDEST DUP3 PUSH1 0x1F LT PUSH2 0x7C8 JUMPI DUP1 MLOAD PUSH1 0xFF NOT AND DUP4 DUP1 ADD OR DUP6 SSTORE PUSH2 0x7F6 JUMP JUMPDEST DUP3 DUP1 ADD PUSH1 0x1 ADD DUP6 SSTORE DUP3 ISZERO PUSH2 0x7F6 JUMPI SWAP2 DUP3 ADD JUMPDEST DUP3 DUP2 GT ISZERO PUSH2 0x7F5 JUMPI DUP3 MLOAD DUP3 SSTORE SWAP2 PUSH1 0x20 ADD SWAP2 SWAP1 PUSH1 0x1 ADD SWAP1 PUSH2 0x7DA JUMP JUMPDEST JUMPDEST POP SWAP1 POP PUSH2 0x803 SWAP2 SWAP1 PUSH2 0x807 JUMP JUMPDEST POP SWAP1 JUMP JUMPDEST JUMPDEST DUP1 DUP3 GT ISZERO PUSH2 0x820 JUMPI PUSH1 0x0 DUP2 PUSH1 0x0 SWAP1 SSTORE POP PUSH1 0x1 ADD PUSH2 0x808 JUMP JUMPDEST POP SWAP1 JUMP JUMPDEST PUSH1 0x0 PUSH2 0x837 PUSH2 0x832 DUP5 PUSH2 0xB75 JUMP JUMPDEST PUSH2 0xB50 JUMP JUMPDEST SWAP1 POP DUP3 DUP2 MSTORE PUSH1 0x20 DUP2 ADD DUP5 DUP5 DUP5 ADD GT ISZERO PUSH2 0x853 JUMPI PUSH2 0x852 PUSH2 0xD41 JUMP JUMPDEST JUMPDEST PUSH2 0x85E DUP5 DUP3 DUP6 PUSH2 0xC0A JUMP JUMPDEST POP SWAP4 SWAP3 POP POP POP JUMP JUMPDEST PUSH1 0x0 DUP2 CALLDATALOAD SWAP1 POP PUSH2 0x875 DUP2 PUSH2 0xD61 JUMP JUMPDEST SWAP3 SWAP2 POP POP JUMP JUMPDEST PUSH1 0x0 DUP2 CALLDATALOAD SWAP1 POP PUSH2 0x88A DUP2 PUSH2 0xD78 JUMP JUMPDEST SWAP3 SWAP2 POP POP JUMP JUMPDEST PUSH1 0x0 DUP3 PUSH1 0x1F DUP4 ADD SLT PUSH2 0x8A5 JUMPI PUSH2 0x8A4 PUSH2 0xD3C JUMP JUMPDEST JUMPDEST DUP2 CALLDATALOAD PUSH2 0x8B5 DUP5 DUP3 PUSH1 0x20 DUP7 ADD PUSH2 0x824 JUMP JUMPDEST SWAP2 POP POP SWAP3 SWAP2 POP POP JUMP JUMPDEST PUSH1 0x0 DUP2 CALLDATALOAD SWAP1 POP PUSH2 0x8CD DUP2 PUSH2 0xD8F JUMP JUMPDEST SWAP3 SWAP2 POP POP JUMP JUMPDEST PUSH1 0x0 PUSH1 0x20 DUP3 DUP5 SUB SLT ISZERO PUSH2 0x8E9 JUMPI PUSH2 0x8E8 PUSH2 0xD4B JUMP JUMPDEST JUMPDEST PUSH1 0x0 PUSH2 0x8F7 DUP5 DUP3 DUP6 ADD PUSH2 0x866 JUMP JUMPDEST SWAP2 POP POP SWAP3 SWAP2 POP POP JUMP JUMPDEST PUSH1 0x0 DUP1 PUSH1 0x0 DUP1 PUSH1 0x0 DUP1 PUSH1 0x0 DUP1 PUSH2 0x100 DUP10 DUP12 SUB SLT ISZERO PUSH2 0x921 JUMPI PUSH2 0x920 PUSH2 0xD4B JUMP JUMPDEST JUMPDEST PUSH1 0x0 PUSH2 0x92F DUP12 DUP3 DUP13 ADD PUSH2 0x866 JUMP JUMPDEST SWAP9 POP POP PUSH1 0x20 DUP10 ADD CALLDATALOAD PUSH8 0xFFFFFFFFFFFFFFFF DUP2 GT ISZERO PUSH2 0x950 JUMPI PUSH2 0x94F PUSH2 0xD46 JUMP JUMPDEST JUMPDEST PUSH2 0x95C DUP12 DUP3 DUP13 ADD PUSH2 0x890 JUMP JUMPDEST SWAP8 POP POP PUSH1 0x40 PUSH2 0x96D DUP12 DUP3 DUP13 ADD PUSH2 0x8BE JUMP JUMPDEST SWAP7 POP POP PUSH1 0x60 DUP10 ADD CALLDATALOAD PUSH8 0xFFFFFFFFFFFFFFFF DUP2 GT ISZERO PUSH2 0x98E JUMPI PUSH2 0x98D PUSH2 0xD46 JUMP JUMPDEST JUMPDEST PUSH2 0x99A DUP12 DUP3 DUP13 ADD PUSH2 0x890 JUMP JUMPDEST SWAP6 POP POP PUSH1 0x80 DUP10 ADD CALLDATALOAD PUSH8 0xFFFFFFFFFFFFFFFF DUP2 GT ISZERO PUSH2 0x9BB JUMPI PUSH2 0x9BA PUSH2 0xD46 JUMP JUMPDEST JUMPDEST PUSH2 0x9C7 DUP12 DUP3 DUP13 ADD PUSH2 0x890 JUMP JUMPDEST SWAP5 POP POP PUSH1 0xA0 DUP10 ADD CALLDATALOAD PUSH8 0xFFFFFFFFFFFFFFFF DUP2 GT ISZERO PUSH2 0x9E8 JUMPI PUSH2 0x9E7 PUSH2 0xD46 JUMP JUMPDEST JUMPDEST PUSH2 0x9F4 DUP12 DUP3 DUP13 ADD PUSH2 0x890 JUMP JUMPDEST SWAP4 POP POP PUSH1 0xC0 PUSH2 0xA05 DUP12 DUP3 DUP13 ADD PUSH2 0x8BE JUMP JUMPDEST SWAP3 POP POP PUSH1 0xE0 PUSH2 0xA16 DUP12 DUP3 DUP13 ADD PUSH2 0x87B JUMP JUMPDEST SWAP2 POP POP SWAP3 SWAP6 SWAP9 POP SWAP3 SWAP6 SWAP9 SWAP1 SWAP4 SWAP7 POP JUMP JUMPDEST PUSH1 0x0 PUSH1 0x20 DUP3 DUP5 SUB SLT ISZERO PUSH2 0xA3C JUMPI PUSH2 0xA3B PUSH2 0xD4B JUMP JUMPDEST JUMPDEST PUSH1 0x0 PUSH2 0xA4A DUP5 DUP3 DUP6 ADD PUSH2 0x8BE JUMP JUMPDEST SWAP2 POP POP SWAP3 SWAP2 POP POP JUMP JUMPDEST PUSH2 0xA5C DUP2 PUSH2 0xBD4 JUMP JUMPDEST DUP3 MSTORE POP POP JUMP JUMPDEST PUSH1 0x0 PUSH2 0xA6D DUP3 PUSH2 0xBA6 JUMP JUMPDEST PUSH2 0xA77 DUP2 DUP6 PUSH2 0xBB1 JUMP JUMPDEST SWAP4 POP PUSH2 0xA87 DUP2 DUP6 PUSH1 0x20 DUP7 ADD PUSH2 0xC19 JUMP JUMPDEST PUSH2 0xA90 DUP2 PUSH2 0xD50 JUMP JUMPDEST DUP5 ADD SWAP2 POP POP SWAP3 SWAP2 POP POP JUMP JUMPDEST PUSH2 0xAA4 DUP2 PUSH2 0xC00 JUMP JUMPDEST DUP3 MSTORE POP POP JUMP JUMPDEST PUSH1 0x0 PUSH1 0x20 DUP3 ADD SWAP1 POP PUSH2 0xABF PUSH1 0x0 DUP4 ADD DUP5 PUSH2 0xA53 JUMP JUMPDEST SWAP3 SWAP2 POP POP JUMP JUMPDEST PUSH1 0x0 PUSH1 0xE0 DUP3 ADD SWAP1 POP DUP2 DUP2 SUB PUSH1 0x0 DUP4 ADD MSTORE PUSH2 0xADF DUP2 DUP11 PUSH2 0xA62 JUMP JUMPDEST SWAP1 POP PUSH2 0xAEE PUSH1 0x20 DUP4 ADD DUP10 PUSH2 0xA9B JUMP JUMPDEST DUP2 DUP2 SUB PUSH1 0x40 DUP4 ADD MSTORE PUSH2 0xB00 DUP2 DUP9 PUSH2 0xA62 JUMP JUMPDEST SWAP1 POP DUP2 DUP2 SUB PUSH1 0x60 DUP4 ADD MSTORE PUSH2 0xB14 DUP2 DUP8 PUSH2 0xA62 JUMP JUMPDEST SWAP1 POP DUP2 DUP2 SUB PUSH1 0x80 DUP4 ADD MSTORE PUSH2 0xB28 DUP2 DUP7 PUSH2 0xA62 JUMP JUMPDEST SWAP1 POP PUSH2 0xB37 PUSH1 0xA0 DUP4 ADD DUP6 PUSH2 0xA9B JUMP JUMPDEST PUSH2 0xB44 PUSH1 0xC0 DUP4 ADD DUP5 PUSH2 0xA53 JUMP JUMPDEST SWAP9 SWAP8 POP POP POP POP POP POP POP POP JUMP JUMPDEST PUSH1 0x0 PUSH2 0xB5A PUSH2 0xB6B JUMP JUMPDEST SWAP1 POP PUSH2 0xB66 DUP3 DUP3 PUSH2 0xC7E JUMP JUMPDEST SWAP2 SWAP1 POP JUMP JUMPDEST PUSH1 0x0 PUSH1 0x40 MLOAD SWAP1 POP SWAP1 JUMP JUMPDEST PUSH1 0x0 PUSH8 0xFFFFFFFFFFFFFFFF DUP3 GT ISZERO PUSH2 0xB90 JUMPI PUSH2 0xB8F PUSH2 0xD0D JUMP JUMPDEST JUMPDEST PUSH2 0xB99 DUP3 PUSH2 0xD50 JUMP JUMPDEST SWAP1 POP PUSH1 0x20 DUP2 ADD SWAP1 POP SWAP2 SWAP1 POP JUMP JUMPDEST PUSH1 0x0 DUP2 MLOAD SWAP1 POP SWAP2 SWAP1 POP JUMP JUMPDEST PUSH1 0x0 DUP3 DUP3 MSTORE PUSH1 0x20 DUP3 ADD SWAP1 POP SWAP3 SWAP2 POP POP JUMP JUMPDEST PUSH1 0x0 PUSH2 0xBCD DUP3 PUSH2 0xBE0 JUMP JUMPDEST SWAP1 POP SWAP2 SWAP1 POP JUMP JUMPDEST PUSH1 0x0 DUP2 ISZERO ISZERO SWAP1 POP SWAP2 SWAP1 POP JUMP JUMPDEST PUSH1 0x0 PUSH20 0xFFFFFFFFFFFFFFFFFFFFFFFFFFFFFFFFFFFFFFFF DUP3 AND SWAP1 POP SWAP2 SWAP1 POP JUMP JUMPDEST PUSH1 0x0 DUP2 SWAP1 POP SWAP2 SWAP1 POP JUMP JUMPDEST DUP3 DUP2 DUP4 CALLDATACOPY PUSH1 0x0 DUP4 DUP4 ADD MSTORE POP POP POP JUMP JUMPDEST PUSH1 0x0 JUMPDEST DUP4 DUP2 LT ISZERO PUSH2 0xC37 JUMPI DUP1 DUP3 ADD MLOAD DUP2 DUP5 ADD MSTORE PUSH1 0x20 DUP2 ADD SWAP1 POP PUSH2 0xC1C JUMP JUMPDEST DUP4 DUP2 GT ISZERO PUSH2 0xC46 JUMPI PUSH1 0x0 DUP5 DUP5 ADD MSTORE JUMPDEST POP POP POP POP JUMP JUMPDEST PUSH1 0x0 PUSH1 0x2 DUP3 DIV SWAP1 POP PUSH1 0x1 DUP3 AND DUP1 PUSH2 0xC64 JUMPI PUSH1 0x7F DUP3 AND SWAP2 POP JUMPDEST PUSH1 0x20 DUP3 LT DUP2 EQ ISZERO PUSH2 0xC78 JUMPI PUSH2 0xC77 PUSH2 0xCAF JUMP JUMPDEST JUMPDEST POP SWAP2 SWAP1 POP JUMP JUMPDEST PUSH2 0xC87 DUP3 PUSH2 0xD50 JUMP JUMPDEST DUP2 ADD DUP2 DUP2 LT PUSH8 0xFFFFFFFFFFFFFFFF DUP3 GT OR ISZERO PUSH2 0xCA6 JUMPI PUSH2 0xCA5 PUSH2 0xD0D JUMP JUMPDEST JUMPDEST DUP1 PUSH1 0x40 MSTORE POP POP POP JUMP JUMPDEST PUSH32 0x4E487B7100000000000000000000000000000000000000000000000000000000 PUSH1 0x0 MSTORE PUSH1 0x22 PUSH1 0x4 MSTORE PUSH1 0x24 PUSH1 0x0 REVERT JUMPDEST PUSH32 0x4E487B7100000000000000000000000000000000000000000000000000000000 PUSH1 0x0 MSTORE PUSH1 0x32 PUSH1 0x4 MSTORE PUSH1 0x24 PUSH1 0x0 REVERT JUMPDEST PUSH32 0x4E487B7100000000000000000000000000000000000000000000000000000000 PUSH1 0x0 MSTORE PUSH1 0x41 PUSH1 0x4 MSTORE PUSH1 0x24 PUSH1 0x0 REVERT JUMPDEST PUSH1 0x0 DUP1 REVERT JUMPDEST PUSH1 0x0 DUP1 REVERT JUMPDEST PUSH1 0x0 DUP1 REVERT JUMPDEST PUSH1 0x0 DUP1 REVERT JUMPDEST PUSH1 0x0 PUSH1 0x1F NOT PUSH1 0x1F DUP4 ADD AND SWAP1 POP SWAP2 SWAP1 POP JUMP JUMPDEST PUSH2 0xD6A DUP2 PUSH2 0xBC2 JUMP JUMPDEST DUP2 EQ PUSH2 0xD75 JUMPI PUSH1 0x0 DUP1 REVERT JUMPDEST POP JUMP JUMPDEST PUSH2 0xD81 DUP2 PUSH2 0xBD4 JUMP JUMPDEST DUP2 EQ PUSH2 0xD8C JUMPI PUSH1 0x0 DUP1 REVERT JUMPDEST POP JUMP JUMPDEST PUSH2 0xD98 DUP2 PUSH2 0xC00 JUMP JUMPDEST DUP2 EQ PUSH2 0xDA3 JUMPI PUSH1 0x0 DUP1 REVERT JUMPDEST POP JUMP INVALID LOG2 PUSH5 0x6970667358 0x22 SLT KECCAK256 SLOAD PUSH26 0x3C7F54F080B2F3665387BE1981ACEC026B9773BBB3424C376676 0xF SWAP9 SWAP10 PUSH6 0x64736F6C6343 STOP ADDMOD SMOD STOP CALLER "
		},
		"gasEstimates": {
			"creation": {
				"codeDepositCost": "709600",
				"executionCost": "741",
				"totalCost": "710341"
			},
			"external": {
				"PubKeyInstitutionInfoMap(address)": "infinite",
				"initInstitutionMap(address,string,uint256,string,string,string,uint256,bool)": "infinite",
				"institutionInfoMap(uint256)": "infinite",
				"isExistInstitution(uint256)": "7064"
			}
		},
		"methodIdentifiers": {
			"PubKeyInstitutionInfoMap(address)": "827e0c99",
			"initInstitutionMap(address,string,uint256,string,string,string,uint256,bool)": "751fc87e",
			"institutionInfoMap(uint256)": "643f7536",
			"isExistInstitution(uint256)": "50b6e787"
		}
	},
	"abi": [
		{
			"inputs": [
				{
					"internalType": "address",
					"name": "",
					"type": "address"
				}
			],
			"name": "PubKeyInstitutionInfoMap",
			"outputs": [
				{
					"internalType": "string",
					"name": "namaInstitusi",
					"type": "string"
				},
				{
					"internalType": "uint256",
					"name": "NPSN",
					"type": "uint256"
				},
				{
					"internalType": "string",
					"name": "akreditasi",
					"type": "string"
				},
				{
					"internalType": "string",
					"name": "jenisSekolah",
					"type": "string"
				},
				{
					"internalType": "string",
					"name": "alamatInstitusi",
					"type": "string"
				},
				{
					"internalType": "uint256",
					"name": "nomorTelepon",
					"type": "uint256"
				},
				{
					"internalType": "bool",
					"name": "agreeToJoin",
					"type": "bool"
				}
			],
			"stateMutability": "view",
			"type": "function"
		},
		{
			"inputs": [
				{
					"internalType": "address",
					"name": "blockAddress",
					"type": "address"
				},
				{
					"internalType": "string",
					"name": "_namaInstitusi",
					"type": "string"
				},
				{
					"internalType": "uint256",
					"name": "_NPSN",
					"type": "uint256"
				},
				{
					"internalType": "string",
					"name": "_akreditasi",
					"type": "string"
				},
				{
					"internalType": "string",
					"name": "_jenisSekolah",
					"type": "string"
				},
				{
					"internalType": "string",
					"name": "_alamatInstitusi",
					"type": "string"
				},
				{
					"internalType": "uint256",
					"name": "_nomorTelepon",
					"type": "uint256"
				},
				{
					"internalType": "bool",
					"name": "_agreeToJoin",
					"type": "bool"
				}
			],
			"name": "initInstitutionMap",
			"outputs": [
				{
					"internalType": "bool",
					"name": "",
					"type": "bool"
				}
			],
			"stateMutability": "nonpayable",
			"type": "function"
		},
		{
			"inputs": [
				{
					"internalType": "uint256",
					"name": "",
					"type": "uint256"
				}
			],
			"name": "institutionInfoMap",
			"outputs": [
				{
					"internalType": "string",
					"name": "namaInstitusi",
					"type": "string"
				},
				{
					"internalType": "uint256",
					"name": "NPSN",
					"type": "uint256"
				},
				{
					"internalType": "string",
					"name": "akreditasi",
					"type": "string"
				},
				{
					"internalType": "string",
					"name": "jenisSekolah",
					"type": "string"
				},
				{
					"internalType": "string",
					"name": "alamatInstitusi",
					"type": "string"
				},
				{
					"internalType": "uint256",
					"name": "nomorTelepon",
					"type": "uint256"
				},
				{
					"internalType": "bool",
					"name": "agreeToJoin",
					"type": "bool"
				}
			],
			"stateMutability": "view",
			"type": "function"
		},
		{
			"inputs": [
				{
					"internalType": "uint256",
					"name": "_NPSN",
					"type": "uint256"
				}
			],
			"name": "isExistInstitution",
			"outputs": [
				{
					"internalType": "bool",
					"name": "",
					"type": "bool"
				}
			],
			"stateMutability": "view",
			"type": "function"
		}
	]
}